:020000040800F2
:10000000100C002001010008491B0008D115000850
:10001000711A000871100008C139000800000000C2
:10002000000000000000000000000000E9210008BE
:100030009512000800000000D91B0008812B000861
:100040001701000817010008170100081701000830
:100050001701000817010008170100081701000820
:100060001701000817010008170100081701000810
:100070001701000817010008170100081701000800
:1000800017010008170100081701000817010008F0
:1000900017010008170100081701000817010008E0
:1000A00017010008170100081701000817010008D0
:1000B00039320008F1320008170100081701000862
:1000C00017010008170100081701000817010008B0
:1000D000170100081D370008453700081701000800
:1000E000991200081701000817010008DFF80CD06A
:1000F00000F046FD00480047A9520008100C0020FF
:1001000005480047FEE7FEE7FEE7FEE7FEE7FEE7FD
:10011000FEE7FEE7FEE7FEE7ED000008D2B201E0F1
:1001200000F8012B491EFBD270470022F6E710B5FC
:1001300013460A4604461946FFF7F0FF204610BD55
:100140000FB400B58DB010A909900B9000914FF03D
:10015000FF300A9000200C90054806900548079053
:100160006A4609A80F9900F0B5FB0DB05DF814FBC5
:10017000F10800080F0900082DE9FF4F087881B049
:100180009946FF2805D0491C2D2804D000240023BF
:1001900008E000230BE00124F9E703EB830300EB05
:1001A0004303491C0878FF28F7D104B15B420020C3
:1001B0000090147801462D2C01D02B2C04D1521C18
:1001C0002D2C12D00024009400251678FF2E0ED07E
:1001D0000A24A0FB04C801FB0481002700FB0711CF
:1001E000521C16EB0C006941EFE70124EBE7994440
:1001F00050EA01020ED00024AA4D2646DFF8A8825C
:1002000000F099FC82468B46B9F1000009DAC9F189
:1002100000071BE001980021C0E9001105B0BDE80E
:10022000F08F074612E0F80707D022462B463046EB
:10023000414600F0E4F90646884622462B46104621
:10024000194600F0DCF904460D467F10002FEAD174
:10025000B9F1000F324643465046594602DA00F0E3
:10026000FBFB01E000F0CBF9009A0AB181F00041FC
:10027000019AC2E90001D1E72DE9FF4F1F468DB079
:10028000D7E901464FF0FF382E2045464FF00009D0
:100290000B90B9696D1C0E988847396A8246884769
:1002A0000028F6D1BAF1FF3F0AD024F4D064002E22
:1002B00011DDBAF12B0F08D0BAF12D0F0BD102E0EE
:1002C000404611B0ABE744F48064B9696D1C0E98E8
:1002D00088478246761E6946600501D52D2000E0DC
:1002E0002B208DF8000001F1010B0DF1200809E031
:1002F000B9696D1C0E98884782460F9844F40074C3
:10030000761E0560002E02DDBAF1300FF0D00B9999
:100310008A453ED144F0800406E00F99681CA9F19B
:10032000010944F400740860B9696D1C761E0E98CA
:10033000884782463028F0D02BE00B998A4505D1BA
:10034000200603D444F08004761E18E0504604F0E2
:1003500089FB08B30DF11301761E44F400748B453C
:1003600008D2AAF130000BF8010B200607D5A9F13D
:10037000010003E0200602D409F101008146A00536
:1003800002D50F99681C0860B9696D1C0E988847E2
:100390008246002ED1DC53E0002E51DDBAF1650F0C
:1003A00002D0BAF1450F4BD1A00549D5B9696D1CF2
:1003B00024F44074761E0E9888478246002E0CDD89
:1003C0002B2804D0BAF12D0F07D144F48074B969F9
:1003D0006D1C0E9888478246761EE00501D52D21BA
:1003E00000E02B2108F8011BCDF82C8021E00DF155
:1003F0002901761E44F4007488450CD2AAF130001D
:1004000010F0FF0088F8000002D10B99884509D947
:1004100008F1010806E0E00501D5244801E042F2B8
:100420000F708146B9696D1C0E98884782460F98F7
:100430000560002E04DD504604F014FB0028D6D1E0
:10044000F9690E988847FF208BF8000088F80000B3
:100450000020069007904B466A4608A906A8FFF7B9
:100460008BFEA00502D46FF001002AE714F0240FE0
:100470000AD0E00714D1DDE906123868031D3B609D
:100480000068C0E900120BE0DDE9060100F07EF92A
:100490000146E00704D13868021D3A600068016037
:1004A00028460EE7000024400000F03FF1D8FFFF8F
:1004B0002DE9FE4F804681EA0300C00F0C460090F4
:1004C00021F0004123F00045B8EB0200A94105D21C
:1004D0004046214690461C460B46024623F000400B
:1004E000104347D0270DC7F30A00C3F30A51029007
:1004F000401A019040286BDAC3F3130040F4801BCC
:100500000098924620B10023D2EB030A63EB0B0B59
:1005100001985946C0F14002504600F0A4F9064641
:100520000D4650465946019A00F0BCF910EB080000
:100530006141002487EA115284EAE7731A4340D0EC
:10054000009A62B3019A012A4FEA075215DC001B98
:1005500061EB02014FF0004202EA0752CDE900428E
:10056000001C41F5801132462B4600F027FA03B0FB
:10057000BDE8F08F40462146F9E7001B61EB020120
:10058000001C41F5801300185B412018A2F50017EC
:1005900047EB030140EAD570B6196D4111E06D08D3
:1005A0004FEA360645EAC0754FEA0752001B61EB79
:1005B0000201001C41F5801149084FEA3000001982
:1005C000514132462B4603B0BDE8F04F00F0E7B989
:1005D0000098012240000023D0EB020263EBE0739D
:1005E000009821464FEAE074B8EB000061EB04018B
:1005F000E9E783F000435BE781F0004158E72DE92C
:10060000FE4F81EA030404F0004421F0004100940D
:100610004FF0000B23F0004350EA01045ED052EA91
:1006200003045BD0C3F30A54C1F30A552C44A4F26B
:10063000F3340194A0FB0254C1F3130141F480117F
:10064000C3F3130343F4801301FB024400FB034E86
:10065000840A970A44EA815447EA8357A4FB07684F
:1006600002958D0A05FB07854FEA932C04FB0C5479
:100670002705029D4FEA065847EA1637B5EB0805ED
:100680006EEB070C870E920E47EA811742EA83123F
:10069000A7FB0201B6EB0B0164EB00042B0D43EA50
:1006A0000C335E1844EB1C50DA465146E7FB02015E
:1006B000C5F313044FEA0B3343EA14534FEA0432F1
:1006C000019C43EA0603A4F10C040294009CCDE9CA
:1006D00000B400F073F903B0BDE8F08F00200146CC
:1006E000F9E70EB5C10F80EAE0700844CA0700219F
:1006F00040F233438DE80E000A460B4600F05EF9E7
:1007000003B000BD00F0004220F00040C10DC0F376
:10071000160040F400007F2901DA00207047962976
:1007200003DCC1F19601C84001E096398840002AF7
:10073000F4D04042704700F0004230F000400AD050
:10074000C10D01F56071C0F3160042EA0151C20803
:1007500040071143704700200146704730B5041E22
:1007600071F1000404DB4FF00044404264EB0101EE
:10077000141E73F1000405DB1C464FF00043524287
:1007800063EB0403994208BF904230BD01F000437F
:1007900030B421F0004150EA010206D00A0DA2F562
:1007A0006072C1F31301002A02DC30BC00207047E4
:1007B000440F44EAC104C100E01830BC00EBC25051
:1007C00000F0B6B8002801DBC0F10040002901DBD1
:1007D000C1F100418142704730B50B46014600200F
:1007E0002022012409E021FA02F59D4205D303FAF3
:1007F00002F5491B04FA02F52844151EA2F1010274
:10080000F1DC30BD2DE9F05F0546002092469B46A5
:1008100088460646814640241BE028464146474616
:10082000224600F02FF853465A46C01A914110D381
:1008300011461846224600F016F82D1A67EB0108FB
:100840004F4622460120002100F00DF817EB000969
:100850004E41201EA4F10104DFDC484631462A4601
:100860004346BDE8F09F202A04DB203A00FA02F15B
:10087000002070479140C2F1200320FA03F319438E
:1008800090407047202A04DB203A21FA02F0002130
:10089000704721FA02F3D040C2F120029140084390
:1008A00019467047202A06DBCB17203A41FA02F09E
:1008B00043EAE07306E041FA02F3D040C2F12002BD
:1008C000914008431946704702681144137801604B
:1008D00018467047D16004495161044911620021F2
:1008E0001161114600F064B9C9080008A50B0008A1
:1008F000426842B1016811F8013B23B1521EC0E9C0
:100900000012184670470121C160881E7047426876
:100910005AB1C368016843B983688B4205D0491E48
:10092000521CC0E90012002070474FF0FF307047A2
:100930000029A8BF7047401C490008BF20F00100F3
:10094000704710B4B0FA80FC00FA0CF050EA0104D1
:1009500004BF10BC704749B1CCF1200421FA04F463
:1009600011FA0CF118BF012121430843A3EB0C013C
:10097000CB1D4FEA00614FEA102042BF002010BC9F
:10098000704700EBC35010440029A4BF10BC70474F
:10099000401C490008BF20F0010010BC704710B592
:1009A000141E73F1000408DA401C41F10001921892
:1009B0005B411A4301D120F0010010BD2DE9F04D3B
:1009C00092469B4611B1B1FA81F202E0B0FA80F290
:1009D00020329046FFF747FF04460F4640EA0A00E0
:1009E00041EA0B0153465A46084313D0114653EAD5
:1009F000010019D0C8F140025046FFF743FF0546F9
:100A00000E46504659464246FFF72DFF084305D093
:100A1000012004E020463946BDE8F08D0020054362
:100A200046EAE0762C4337430A986305E40AA0EBD4
:100A300008000022FD0A44EA47540A3002D500208B
:100A40000146E9E7010510196941DDE9084500198A
:100A50006941BDE8F04DA2E72DE9F04D81EA0304BC
:100A600004F0004B21F0004514464FF0000A23F03B
:100A7000004150EA050220D054EA01021DD0C5F31E
:100A80000A570246C5F31303C1F31300C1F30A5614
:100A900040F4801543F48013A7EB0608101BD646DC
:100AA00008F2FD3873EB050002D308F1010801E0FC
:100AB00092185B41B8F1000F03DA00200146BDE84F
:100AC000F08D00204FF48011064684460EE0171B7F
:100AD00073EB050705D3121B63EB050306434CEAD2
:100AE000010C49084FEA300092185B4150EA0107B7
:100AF000EDD152EA030012D082EA040083EA050134
:100B0000084305D0101BAB4106D20122002306E0AA
:100B100000224FF0004302E06FF0010253101AEB85
:100B200006004CEB085110EB0A0041EB0B01BDE84D
:100B3000F04DFFF734BF0EB540F23342029200226F
:100B4000CDE900221346FFF739FF03B000BDC1F322
:100B50000A52C1F3130140F2FF3341F480119A426B
:100B600002DA00200146704740F233439A42A2F273
:100B7000334202DC5242FFF785BEFFF774BE00002D
:100B8000064C074D06E0E06840F0010394E80700DA
:100B900098471034AC42F6D3FFF7ACFA145500086E
:100BA00034550008C0B24FF4F05100F097B900007E
:100BB0002DE9F34F8BB04FF0000801F10C000C460B
:100BC0004FF0010B46460DF1080A019062690121C0
:100BD00001989047051E2DD0252D2CD0216A8847DD
:100BE000C0B16269012101989047216A88470028B5
:100BF000F7D1411E62690198904700E0761CA16917
:100C00000B988847216A88470028F7D1E1690B983B
:100C10008847DBE7A1690B9888470746A84201D1BE
:100C2000761CD3E7E1690B9888477F1C02D1B8F1A5
:100C3000000F6FD046E1002762693D4639460198B2
:100C400090472A2804D16269012101989047012523
:100C5000DFF884926269012101989047A0F1300188
:100C60000A290AD24F45E5DC07EB870100EB410773
:100C7000303FDFD445F01005ECE7E90601D46FF012
:100C800000476C280AD04C2814D0682815D06A2850
:100C90000DD074281CD07A281AD01DE06269012179
:100CA000019890476C2802D045F0040514E045F007
:100CB00002050DE045F020050AE062690121019876
:100CC0009047682802D045F0080505E045F4006526
:100CD0006269012101989047C4E9015765283DD018
:100CE00019DC58287AD00CDC452837D004DC2528BC
:100CF00026D0412831D131E046282FD047282CD1A9
:100D00002CE05B2877D0612828D063287CD0642829
:100D100023D15AE0D0E06F2848D008DC66281DD0E7
:100D200067281BD0692821D06E2816D127E07028AB
:100D300045D0732868D0752847D078280DD14DE06C
:100D4000A1690B988847054625283FF469AFE169FA
:100D50000B9888476D1C3FF46AAFB3E023466A46A0
:100D60006FF001000B99FFF787FA9EE045F0400015
:100D70006060A80723464FF0000236D43EE0E80743
:100D80007FF447AF2068011D21600068290501D567
:100D900006701BE7290701D5068017E7A90703D5C9
:100DA000F117C0E9006111E706600FE745F0400068
:100DB0006060A80723464FF0080216D41EE040F6F4
:100DC0000E0125EA0100606016E045F04000606019
:100DD000A80723464FF00A0207D40FE045F0400071
:100DE0006060A80708D5234610226FF001000B9918
:100DF000AFF3008059E007E0234610226FF00100B6
:100E00000B99AFF3008050E04FF000094F464B467E
:100E1000632802D05B2806D040E0E80601D4012018
:100E2000A06001273AE062690121019890475E289D
:100E300005D14FF00109626949460198904721693F
:100E400039B900210A46534643F82120491C082994
:100E5000FADBB0B3216969B9C11700EBD162531154
:100E60000AEB830122F01F02821A01200B689040D6
:100E700003430B6062690121019890475D28E8D126
:100E8000B9F1000F09D00020514651F82020D2437B
:100E900041F82020401C0828F7DB02AB22460097CF
:100EA0006FF001000B99AFF3008000280CDA401CB2
:100EB00008D1BBF1000F05D04FF0FF300DB0BDE8F9
:100EC000F08FFFE74046F9E7E90701D108F1010893
:100ED00006444FF0000B79E6CCCCCC0C7F2801D92E
:100EE000002208E0064A02EB5002C007127800D147
:100EF000120902F00F0201209040084070470000E4
:100F0000D454000870B50446002600F03FFC254686
:100F1000E11704EB11610912A02202EB4101C8B2F2
:100F200000F000FC00F07EFCE11704EB11610912F7
:100F3000A4EB0121C8B200F0F5FB00F073FC00F057
:100F400025FCA12000F0EEFB00F06CFC002000F07E
:100F5000B1FB064600F040FC304670BD70B504465B
:100F60000E4600F013FC2546E11704EB116109124F
:100F7000A02202EB4101C8B200F0D4FB00F052FC09
:100F8000E11704EB11610912A4EB0121C8B200F0D2
:100F9000C9FB00F047FC304600F0C4FB00F042FC07
:100FA00000F01AFC0A2004F001F970BD70B5044687
:100FB0000D461646EE2001F049F9B12001F046F940
:100FC000232001F043F9200A01F040F9E0B201F0DA
:100FD0003DF9280A01F03AF9E8B201F037F9F0B228
:100FE00001F034F9FF2001F031F9FC2001F02EF975
:100FF000FF2001F02BF9FF2001F028F970BD00005F
:1010000010B5044644B101220221104601F041F915
:1010100001200849887007E000220221012001F028
:1010200038F9002003498870024881780220FFF7D0
:1010300095FF10BDEC0200200C49097802290DD063
:1010400003DC39B101290FD106E0032908D0642956
:101050000AD107E00A2007E00B2005E00C2003E09E
:101060000D2001E00E2000BF00BF704724030020C8
:1010700000BFFEE730B505460848445C037801220E
:1010800004E00648805C4340501CC2B28A42F8DB50
:101090009C4201D1012030BD0020FCE7B2000020BD
:1010A000014601F01F02022A01D1012070470020F1
:1010B000FCE700000848007808490978884204D114
:1010C000FF20064908700020704704480078024954
:1010D00008700120F8E700002D00002068000020C3
:1010E0000648007806490978884201D100207047F7
:1010F00003480078014908700120F8E72C0000201F
:101100003A0000200648008806490988884205D030
:101110000448008802490880012070470020FCE74D
:101120002A0000203C00002070B504460D46EE2049
:1011300001F08CF8B12001F089F8102001F086F858
:10114000200A01F083F8E0B201F080F8280A01F0EB
:101150007DF8E8B201F07AF8FF2001F077F8FC2082
:1011600001F074F8FF2001F071F8FF2001F06EF833
:1011700070BD000010B52B480078401C294908704C
:101180000846007807284AD2DFE800F049040F1A21
:1011900025303B0024A21B21002001F036F922A2B9
:1011A0001E21022001F031F939E020A21B2100208C
:1011B00001F02BF91DA21E21022001F026F92EE0DC
:1011C0001BA21B21002001F020F919A21E210220E0
:1011D00001F01BF923E017A21B21002001F015F9F3
:1011E00014A21E21022001F010F918E012A21B2106
:1011F000002001F00AF910A21E21022001F005F9D9
:101200000DE00EA21B21002001F0FFF80BA21E2111
:10121000022001F0FAF800200249087000BF00BF68
:1012200010BD00004100002047353500473536002D
:1012300047353700473538004735390047353400E2
:1012400000B500200F4908700820487024208870DD
:101250000D4800880012C8700B48007808710B48D0
:10126000007848710A4800788871FFF7E5FE054963
:10127000C871042008724878012101F0EFF8014993
:10128000487200BD940000203C0000203A0000207D
:10129000680000207047000010B54FF4805000F047
:1012A00019F860B14FF48051054800F040F910B9C9
:1012B0000F20044908704FF4805000F005F810BD6D
:1012C000000C0140680000200149086070470000E0
:1012D00014040140014600200022074B1B6803EA6A
:1012E0000102054B14331B680B4013B10AB10120F6
:1012F00000E00020704700000004014010B51A48CB
:10130000007838B34FF48051184800F010F908BB4A
:10131000002015490870052003F048FF4FF4805164
:10132000124800F004F9F0B90F2011490870114873
:101330000078401C0F4908700F48007818B9012048
:101340000D4908700FE000200B4908701A21FFF7C3
:10135000EBFE08E04FF48051044800F0E8F8012863
:1013600001D10149087010BD93000020000C01401C
:10137000680000200E0000200C00002010B512486C
:10138000007801281ED111480078D8B100200F49FB
:1013900008700F48007820B10EA21A21002001F039
:1013A00034F80F48007818B11A210020FFF7BCFE6E
:1013B00007480078C0430649087009480078C043D0
:1013C0000749087010BD00000C0000200900002033
:1013D0000A000020BDF4BCB1CDA3D6B900000000C6
:1013E0000B0000200549096821F01001034A116033
:1013F0001146096801431160704700000020024057
:1014000001460020034A106800F0380008431060CD
:1014100070470000002002402DE9F04102460025FF
:101420000026002000230024002791F803C00CF0C0
:101430000F0591F803C00CF0100CBCF1000F03D0A5
:1014400091F802C04CEA050591F800C0BCF1000F0C
:1014500031D0146800202BE04FF0010C0CFA00F39F
:10146000B1F800C00CEA03069E4220D183004FF081
:101470000F0C0CFA03F7BC4305FA03FC4CEA040416
:1014800091F803C0BCF1280F06D14FF0010C0CFA03
:1014900000FCC2F814C00AE091F803C0BCF1480F88
:1014A00005D14FF0010C0CFA00FCC2F810C0401C32
:1014B0000828D1D31460B1F800C0BCF1FF0F34DDAF
:1014C000546800202EE000F1080C4FF0010808FAE3
:1014D0000CF3B1F800C00CEA03069E4221D1830050
:1014E0004FF00F0C0CFA03F7BC4305FA03FC4CEA6F
:1014F000040491F803C0BCF1280F05D100F1080CD9
:1015000008FA0CF8C2F8148091F803C0BCF1480F37
:1015100007D100F1080C4FF0010808FA0CF8C2F8E6
:101520001080401C0828CED35460BDE8F0810246EC
:10153000002093680B400BB1012000E000207047B1
:10154000416170470161704710B50D4802F035F8F0
:101550000446E11704EB91718910A4EB810111B9E4
:10156000084804800BE02046E11704EB91718910D4
:10157000A4EB8101C1F104012144024A118010BD94
:10158000000800403C00002010B50020FFF7BAFC26
:101590000E49887108468079C8710120FFF7B2FCB6
:1015A0000A4908700846007848700220FFF7AAFC34
:1015B0000649887008468078C8700320FFF7A2FCAF
:1015C0000249087108460079487110BDEC020020FC
:1015D00000BFFEE710B500200F4908600F48006803
:1015E00020F470400D4908600846006840F44050FF
:1015F000086000200A49C1F8AC01022003F0E8FDB0
:10160000012005490860022003F0E2FD00200449A2
:10161000C1F8A80110BD0000A8812142040C0140BE
:101620000080214208B50121082000F0DFFB4FF4C3
:101630004060ADF8000010208DF8030003208DF805
:10164000020069460448FFF7E7FE012003490860ED
:101650000349C1F8AC0108BD000C0140A88121423A
:101660000080214210B500200F4908600F48006833
:1016700020F470400D4908600846006840F440506E
:10168000086001200A49C1F8AC01022003F0A0FD66
:10169000012005490860022003F09AFD002004495A
:1016A000C1F8A80110BD0000A8812142040C01402E
:1016B0000080214270B5054600241748006820F4D8
:1016C0007040154908600846006840F40040086012
:1016D000002616E0002011490860022003F078FD82
:1016E00001200F49C1F8A8016006040E0B487C38A0
:1016F000006808B1601CC4B2012003F069FD701CD1
:10170000C6B2082EE6DB15B9FFF7ACFF01E0FFF724
:1017100061FF204670BD0000040C0140A8812142F9
:101720000080214270B504461548006820F47040DE
:10173000134908600846006840F4405008600020E3
:1017400010490860002517E0E0090E49091D0860EE
:101750006006040E022003F03BFD01200A49C1F897
:10176000A801022003F034FD002006490860022091
:1017700003F02EFD681CC5B2082DE5DB70BD00002E
:10178000040C0140A88121420080214210B50F487D
:10179000006820F470400D4908600846006840F475
:1017A0004050086001200A4908600A49C1F8A801B0
:1017B000042003F00DFD002005490860042003F01B
:1017C00007FD00200349C1F8A80110BD040C014029
:1017D000AC8121420080214210B50F48006820F4FE
:1017E00070400D4908600846006840F440500860A9
:1017F00000200A4908600A49C1F8AC01042003F03E
:10180000E7FC0120054908600549C1F8AC01042046
:1018100003F0DEFC10BD0000040C0140A881214251
:101820000080214210B500241448006820F4704064
:10183000124908600846006840F400400860012032
:101840000F49086003F0C4FC01200E49C1F8A8014B
:1018500003F0BEFC07E0601CC4B2FA2C03DDFFF706
:10186000BBFF012010BD0648803800680028F2D177
:101870000349091F086000BFF4E70000040C0140A1
:10188000AC8121420080214208B501210C2000F0EA
:10189000ADFA1020ADF8000048208DF8030069462D
:1018A0001B48FFF7B9FD2020ADF8000048208DF857
:1018B000030069461648FFF7AFFD4020ADF8000071
:1018C00048208DF8030069461148FFF7A5FD012067
:1018D000ADF8000048208DF8030069460D48FFF779
:1018E0009BFD0220ADF8000048208DF803006946FA
:1018F0000848FFF791FD4FF48050ADF800004820F4
:101900008DF8030069460348FFF786FD08BD000017
:1019100000080140000C014010B550480078002834
:101920007DD010214E48FFF702FEA0B120214C4887
:10193000FFF7FDFD78B140214948FFF7F8FD50B1B0
:1019400001214848FFF7F3FD28B102214548FFF780
:10195000EEFD002863D1002040490870FFF76CFBC2
:101960000446052003F022FC10213D48FFF7DFFD6F
:1019700060B900203C4908700A2C01D000F0FAFE42
:101980003A480078401C3949087064E02021344806
:10199000FFF7CDFD60B90120334908700B2C01D051
:1019A00000F046FF31480078401C3049087052E092
:1019B00040212B48FFF7BBFD60B902202A4908707F
:1019C0000C2C01D000F092FF28480078401C2749D9
:1019D000087040E001212348FFF7A9FD60B903200A
:1019E000214908700D2C01D000F0A6FD1F48007899
:1019F000401C1E4908702EE002211A48FFF797FD8F
:101A000048BB6420184908700E2C01D000F0F2FD8C
:101A100016480078401C154908701CE0FFE71021AB
:101A20000F48FFF784FDB0B120210D48FFF77FFD7F
:101A300088B140210A48FFF77AFD60B101210948C9
:101A4000FFF775FD38B102210648FFF770FD10B1B0
:101A5000012002490870FFF751FC10BD92000020E0
:101A600000080140000C0140240300200E0000206B
:101A700000BFFEE710B52D480078401C2B490870C8
:101A80000846007806284DD2DFE800F04C03111F0D
:101A90002D3B27A21D21002000F0B7FC24A220210D
:101AA000022000F0B2FC0A20224908703BE022A28A
:101AB0001D21002000F0A9FC1FA22021022000F01F
:101AC000A4FC14201B4908702DE01CA21D2100203D
:101AD00000F09BFC19A22021022000F096FC0120BE
:101AE000144908701FE016A21D21002000F08DFC93
:101AF00013A22021022000F088FC02200D4908706A
:101B000011E010A21D21002000F07FFC0DA2202179
:101B1000022000F07AFC05200649087000200349E5
:101B2000087000E000BF00BF10BD000042000020B0
:101B3000583130003A00002058323000583100004F
:101B400058320000583500007047000070B5002181
:101B500000230F22C47804B3154C246804F4E06415
:101B6000C4F5E064210AC1F10403CA40447804FAD0
:101B700003F184781440214309010E4C0678A155E5
:101B8000047804F01F050124AC4005786D11AD0008
:101B900005F1E025C5F8004109E0047804F01F05CF
:101BA0000124AC40044D0678761145F8264070BDFE
:101BB0000CED00E000E400E080E100E038B5044610
:101BC000002000906A4603A12046FEF7B9FA00986B
:101BD00038BD000025660000704700001CB50024D9
:101BE000112000F0F4FB4FF4FA7003F0DFFA00BFAD
:101BF00009E062000321112000F0B5FB052003F08D
:101C0000D5FA601CC4B2322CF3DB002000F0DFFBFD
:101C10000A2003F0CBFA3CA21B21002000F0F5FBC8
:101C200039A21E21022000F0F0FB38A21C21002066
:101C300000F0EBFB35A21F21022000F0E6FB34A2EE
:101C40001D21002000F0E1FB31A22021022000F044
:101C5000DCFB0A202F49087044F620602E490880DA
:101C6000642048604FF47A7088606420C86044F64D
:101C7000206008614FF47A7088820846012142682A
:101C8000002000F070FB2448028824A1684602F07E
:101C900003FE6A461821002000F0B7FB1E4802210F
:101CA000C268002000F05FFB1B481CA1C2686846A8
:101CB00002F0F2FD6A462721002000F0A6FB16483C
:101CC00016A18268684602F0E7FD6A4619210020E5
:101CD00000F09BFB00220D21022000F0DAFA012225
:101CE0000E21022000F0D5FA00200D4908700D49A0
:101CF000087001222A2100F0CCFA012216210220CC
:101D000000F0C7FA1CBD000047353400B9D8000008
:101D1000583130003A000020D40200202564000031
:101D200058000020240300200020024908800249B6
:101D300008807047240800403C00002010B515487A
:101D4000007818B113480078022817D1124800789B
:101D500030B10121114801F093FB00200E490870B9
:101D6000FFF7F2FB0E4802880EA10F4802F094FD27
:101D70000D4A1621002000F048FB09E006480078D3
:101D800030B90021054801F07BFB012002490870B1
:101D900010BD000058000020430000200008004053
:101DA0003C00002025750000E803002029B1064A08
:101DB000D2690243044BDA6104E0034AD2698243E8
:101DC000014BDA61704700000010024029B1064A59
:101DD00012690243044B1A6104E0034A1269824308
:101DE000014B1A61704700000010024029B1064AF9
:101DF00092690243044B9A6104E0034A9269824368
:101E0000014B9A61704700000010024029B1064A58
:101E1000D2680243044BDA6004E0034AD26882438A
:101E2000014BDA6070470000001002400F48006864
:101E300040F001000D490860084640680C49084020
:101E40000A494860084600680A490840074908608E
:101E50000846006820F4802008600846406820F4A6
:101E6000FE0048604FF41F00886070470010024079
:101E70000000FFF8FFFFF6FE30B50021002200242D
:101E800000232D4D6D6805F00C0121B1042905D00A
:101E9000082923D105E0294D056022E0274D056082
:101EA0001FE0254D6D6805F47012234D6D6805F433
:101EB0008034022505EB92421CB9214D5543056043
:101EC0000BE01D4D6D6805F400351DB11C4D5543EB
:101ED000056002E0194D5543056002E0174D0560AD
:101EE00000BF00BF144D6D6805F0F0010909154DE4
:101EF0006B5C0568DD4045600F4D6D6805F4E06181
:101F0000090A104D6B5C4568DD4085600A4D6D68BF
:101F100005F46051C90A0B4D6B5C4568DD40C56036
:101F2000054D6D6805F44041890B074D6B5CC56834
:101F3000B5FBF3F5056130BD0010024000127A00D8
:101F400000093D00100000202000002010B50146CF
:101F50000022002300204A11012A02D1094C2368E3
:101F600006E0022A02D1074C236A01E0054C636AAD
:101F700001F01F02012494401C400CB1012000E03C
:101F8000002010BD001002400248406800F00C0024
:101F9000704700000010024001460020034A5068CC
:101FA00020F0F0000843506070470000001002402D
:101FB00001490860704700000000424201460020CD
:101FC000034A506820F4E060084350607047000006
:101FD0000010024001460020034A506820F460507F
:101FE00040EAC10050607047001002400149086695
:101FF000704700000000424202460020044B58682F
:1020000020F47C1042EA01031843014B58607047EA
:102010000010024001460020034A506820F00300EF
:1020200008435060704700000010024010B504469D
:1020300024B180210448FFF785FA03E0802102489B
:10204000FFF77EFA10BD0000000801402DE9FF47B0
:102050005648007800287DD0554890F801A0BAF184
:102060001D0F03D0BAF1290F03D103E00A2001F0BC
:102070006DFD94E04E48847890F8049001464979CB
:1020800001EB092108B2FEF72CFB4A4A4A4BCDE985
:102090000001FEF7B4FACDE90201210209B2444A77
:1020A000D2788818FEF71DFB0546DDE90223FEF70E
:1020B000FFF90746FEF76AFB404908613C4884790E
:1020C00090F808900146497A01EB092108B2FEF721
:1020D00008FB0746374A384BFEF791FACDE9000175
:1020E000210209B2324AD2798818FEF7FAFA054677
:1020F000DDE90023FEF7DCF9CDE90201FEF746FB3E
:102100002E4988612A48847A90F80C900146497BD0
:1021100001EB092108B2FEF7E4FA264A264BCDE985
:102120000001FEF76CFA05460E46210209B2204A6C
:10213000D27A8818FEF7D5FA07462A463346FEF7C4
:10214000B7F9CDE90201FEF721FB1C4908621848E6
:10215000847B00E027E090F810900146497C01EB79
:10216000092108B2FEF7BDFA124A134BCDE900016E
:10217000FEF745FA05460E46210209B20C4AD27B0B
:102180008818FEF7AEFA07462A463346FEF790F95E
:10219000CDE90201FEF7FAFA0849886200BF00BFE4
:1021A000002002490870BDE8FF87000029000020D8
:1021B000B2000020FCA9F1D24D62503F2403002060
:1021C00010B50849887900F061FC0649087800F0EC
:1021D0000DF804498878FEF713FF0249087901F0E9
:1021E000D3FB10BDEC0200207047000010B5044680
:1021F00044B101221146104600F04BF80120084975
:10220000087007E000220121084600F042F8002093
:1022100003490870024801780120FEF79FFE10BDB7
:10222000EC02002010B50849C87900F02FFC0649DF
:102230004878FFF7DBFF0449C878FEF7E1FE024962
:10224000487901F0A1FB10BDEC02002010B5044656
:102250002146094801F093FB00BF8021064801F0A8
:10226000DDFA0028F9D000BF4021034801F0D6FA7A
:102270000028F9D010BD00000044004010B504460D
:1022800003E02078FFF7E2FF641C20780028F8D1F3
:1022900010BD70B504460D461646EE20FFF7D6FF7A
:1022A000B120FFF7D3FF1020FFF7D0FF200AFFF780
:1022B000CDFFE0B2FFF7CAFF280AFFF7C7FFE8B279
:1022C000FFF7C4FFF0B2FFF7C1FFFF20FFF7BEFF2B
:1022D000FC20FFF7BBFFFF20FFF7B8FFFF20FFF751
:1022E000B5FF70BD70B504460D461646EE20FFF7EB
:1022F000ADFFB120FFF7AAFF0420FFF7A7FF200AD8
:10230000FFF7A4FFE0B2FFF7A1FF280AFFF79EFF47
:10231000E8B2FFF79BFFF0B2FFF798FFFF20FFF74F
:1023200095FFFC20FFF792FFFF20FFF78FFFFF20B4
:10233000FFF78CFF70BD10B50446EE20FFF786FF57
:102340006020FFF783FFE0B2FFF780FFFF20FFF779
:102350007DFFFC20FFF77AFFFF20FFF777FFFF20CC
:10236000FFF774FF10BD70B505460E461446EE200B
:10237000FFF76CFFB120FFF769FF1020FFF766FF42
:10238000280AFFF763FFE8B2FFF760FF300AFFF7A4
:102390005DFFF0B2FFF75AFF200EFFF757FFC4F3BF
:1023A0000740FFF753FFC4F30720FFF74FFFE0B2EA
:1023B000FFF74CFFFF20FFF749FFFC20FFF746FF28
:1023C000FF20FFF743FFFF20FFF740FF70BD10B570
:1023D0000446EE20FFF73AFFB120FFF737FF002059
:1023E000FFF734FF200AFFF731FFE0B2FFF72EFFBF
:1023F000FF20FFF72BFFFC20FFF728FFFF20FFF750
:1024000025FFFF20FFF722FF10BD70B504460D46E3
:102410001646EE20FFF71AFFB120FFF717FF102036
:10242000FFF714FF200AFFF711FFE0B2FFF70EFFDE
:10243000280AFFF70BFFE8B2FFF708FF3046FFF767
:102440001DFFFF20FFF702FFFC20FFF7FFFEFF202C
:10245000FFF7FCFEFF20FFF7F9FE70BD10B5034645
:10246000064C605C4C1CE2B204E0044CA45C60408E
:10247000541CE2B29A42F8DD10BD00009400002026
:1024800010B5FFF7D3FC0120FFF792FD00BF21201C
:10249000FFF75CFD0028FAD01020FEF7A3FF022012
:1024A000FEF7AEFF0020FFF777FD0020FFF792FD5B
:1024B0004FF48060FFF782FD4FF420110020FFF7FA
:1024C0009BFD0120FFF792FD00BF3920FFF73EFD85
:1024D0000028FAD00220FFF79DFD00BFFFF754FD52
:1024E0000828FBD110BD70B504460D461646EE20F7
:1024F000FFF7ACFEB120FFF7A9FE0320FFF7A6FE11
:10250000200AFFF7A3FEE0B2FFF7A0FE280AFFF7BC
:102510009DFEE8B2FFF79AFEF0B2FFF797FEFF20AC
:10252000FFF794FEFC20FFF791FEFF20FFF78EFEE1
:10253000FF20FFF78BFE70BD10B500222A21104648
:10254000FFF7A7FE00222B211046FFF7A2FE002274
:102550002C211046FFF79DFE01222D210020FFF7C0
:1025600098FE00222E211046FFF793FE002216212E
:102570000220FFF78EFE002217210220FFF789FEBE
:10258000002218210220FFF784FE012219210220D7
:10259000FFF77FFE00221A210220FFF77AFE10BD0E
:1025A00030B585B0104A916AD06AFEF70BF918D0A1
:1025B0000D49886AFEF7BFF8044622460B460BA178
:1025C000684602F069F96A4613210020FFF71DFFF3
:1025D0006A4614210220FFF718FF0348806A024967
:1025E000C86205B030BD0000240300202530392E1C
:1025F0003266000010B500222A211046FFF749FE7E
:1026000000222B211046FFF744FE00222C21104609
:10261000FFF73FFE00222D211046FFF73AFE012270
:102620002E210020FFF735FE002216210220FFF7A1
:1026300030FE002217210220FFF72BFE0022182176
:102640000220FFF726FE002219210220FFF721FEBB
:1026500001221A210220FFF71CFE10BD30B585B003
:10266000104A116B506BFEF7ADF818D00D49086B8E
:10267000FEF761F8044622460B460BA1684602F0BD
:102680000BF96A4614210020FFF7BFFE6A461521A8
:102690000220FFF7BAFE0348006B0249486305B009
:1026A00030BD0000240300202530392E32660000A2
:1026B00010B504462CB901220B210020FEF776FC50
:1026C00026E0012C05D101221C211046FEF76EFCEC
:1026D0001EE0022C05D101222B210220FEF766FC10
:1026E00016E0062C05D1012221210620FEF75EFC12
:1026F0000EE00A2C05D1012205210A20FEF756FC26
:1027000006E00B2C04D101220D210B20FEF74EFC1C
:1027100010BD10B504462CB900220B211046FEF75F
:1027200045FC26E0012C05D100221C210120FEF7EA
:102730003DFC1EE0022C05D100222B210220FEF7D9
:1027400035FC16E0062C05D1002221210620FEF7DB
:102750002DFC0EE00A2C05D1002205210A20FEF7EF
:1027600025FC06E00B2C04D100220D210B20FEF7E6
:102770001DFC10BD10B501222A210020FFF789FDA4
:1027800000222B211046FFF784FD00222C21104649
:10279000FFF77FFD00222D211046FFF77AFD002272
:1027A0002E211046FFF775FD012216210220FFF7AA
:1027B00070FD002217210220FFF76BFD0022182177
:1027C0000220FFF766FD002219210220FFF761FDBC
:1027D00000221A210220FFF75CFD10BD30B585B044
:1027E000104A11695069FDF7EDFF18D00D490869CD
:1027F000FDF7A1FF044622460B460BA1684602F0F6
:102800004BF86A4610210020FFF7FFFD6A461121B0
:102810000220FFF7FAFD034800690249486105B04C
:1028200030BD0000240300202530392E3266000020
:1028300010B500222A211046FFF72BFD01222B2183
:102840000020FFF726FD00222C211046FFF721FD76
:1028500000222D211046FFF71CFD00222E211046DC
:10286000FFF717FD002216210220FFF712FD0122BB
:1028700017210220FFF70DFD002218210220FFF78B
:1028800008FD002219210220FFF703FD00221A2172
:102890000220FFF7FEFC10BD30B585B0104A9169EB
:1028A000D069FDF78FFF18D00D498869FDF743FF08
:1028B000044622460B460BA1684601F0EDFF6A462E
:1028C00011210020FFF7A1FD6A4612210220FFF727
:1028D0009CFD034880690249C86105B030BD000015
:1028E000240300202530392E3266000010B5002266
:1028F0002A211046FFF7CDFC00222B211046FFF7BE
:10290000C8FC01222C210020FFF7C3FC00222D214E
:102910001046FFF7BEFC00222E211046FFF7B9FC3F
:10292000002216210220FFF7B4FC0022172102200A
:10293000FFF7AFFC012218210220FFF7AAFC0022BA
:1029400019210220FFF7A5FC00221A210220FFF71F
:10295000A0FC10BD30B585B0104A116A506AFDF771
:1029600031FF18D00D49086AFDF7E5FE04462246FE
:102970000B460BA1684601F08FFF6A46122100202A
:10298000FFF743FD6A4613210220FFF73EFD03488F
:10299000006A0249486205B030BD000024030020EF
:1029A0002530392E3266000030B585B028490869D7
:1029B000FDF7C1FE044622460B4626A1684601F0FB
:1029C0006BFF6A4609210320FFF71FFD2049886934
:1029D000FDF7B1FE044622460B461EA1684601F0F3
:1029E0005BFF6A460A210320FFF70FFD1849086ABA
:1029F000FDF7A1FE044622460B4616A1684601F0EB
:102A00004BFF6A460B210320FFF7FFFC1049886A41
:102A1000FDF791FE044622460B460EA1684601F0E2
:102A20003BFF6A460C210320FFF7EFFC0849086BC7
:102A3000FDF781FE044622460B4606A1684601F0DA
:102A40002BFF6A460D210320FFF7DFFC05B030BDE8
:102A5000240300202530392E3266000010B50446CC
:102A6000EE20FFF7F3FB9320FFF7F0FBE0B2FFF758
:102A7000EDFBFF20FFF7EAFBFC20FFF7E7FBFF2061
:102A8000FFF7E4FBFF20FFF7E1FB10BD10B50446A4
:102A9000012C0BD10020FFF7E1FF01221B21104682
:102AA000FFF7F7FB01200A4988710AE06420FFF76D
:102AB000D5FF00221B210120FFF7EBFB002004497A
:102AC0008871034881790020FEF748FA10BD0000A4
:102AD000EC0200200EB51E48807D012813D1002095
:102AE0001B49887508461BA10269684601F0D4FE9F
:102AF0006A4618210020FFF788FC1548012142682A
:102B00000020FFF730FC1248C07D01281FD10020B3
:102B10000F49C8750846B0F914200EA1684601F0A7
:102B2000BBFE6A4619210020FFF76FFC084802210E
:102B3000C2680020FFF717FC054806A1C268684676
:102B400001F0AAFE6A4627210020FFF75EFC0EBDB9
:102B5000D402002025640000042808D14FF0E021B1
:102B6000096941F004014FF0E022116107E04FF0E4
:102B7000E021096921F004014FF0E0221161704762
:102B800002480068401C01490860704700000020AE
:102B900000B585B0F748007816287DD2DFE800F050
:102BA0000B0E2D2E7CF1F07C7CEFEEEDEC7C7CEBC3
:102BB000EA7C7C7CE919FFF78DFF71E2EE48007A30
:102BC00030B1FFF7FDFA0020EB490872E9490870BF
:102BD00066E2EA48007878B9E748407A20B1FFF722
:102BE00021FB0020E3490870E348807A20B1FFF719
:102BF000E7FA0020DF49087052E251E2E04800782D
:102C0000002838D0002201210320FFF742FB0022D8
:102C100004210320FFF73DFB002205210320FFF7DD
:102C200038FB002206210320FFF733FB0022072197
:102C30000320FFF72EFB002208210320FFF729FBCA
:102C40000020D049087048708870C87008714871B9
:102C5000CD480069CC49C8640846806908650846C3
:102C6000006A48650846806A88650846006BC86542
:102C70000020C3490870C348407898B9C14880789B
:102C800080B9C048C07868B9BE48007950B9BD481D
:102C9000407938B9002200E001E201210320FFF76A
:102CA000F8FA04E0012211460320FFF7F2FAB548D2
:102CB0008079002876D0B348407830B9FFF734F8EF
:102CC0000020B1490861C86411E0AE48007F60B1DE
:102CD000FFF72AF8AB488068AB490861A9488068CB
:102CE000C8640020A749087701E0FFF71DF8A54850
:102CF000807830B9FFF718F80020A349886108658B
:102D000011E0A048407F60B1FFF70EF89D48C06811
:102D10009D4988619B48C0680865002099494877AB
:102D200001E0FFF701F89748C07830B9FEF7FCFFE3
:102D3000002095490862486511E09248807F60B1A3
:102D4000FEF7F2FF8F4800698F4908628D480069DD
:102D5000486500208B49887701E0FEF7E5FF894848
:102D6000007978B9FEF7E0FF00208749886288651E
:102D70001BE093E191E18FE177E129E127E125E192
:102D80006EE056E07F48C07F68B1FEF7CDFF7D481A
:102D900040697D4988627B4840698865002079499F
:102DA000C87702E025E0FEF7BFFF7648407930B9EA
:102DB000FEF7BAFF002074490863C86513E0714844
:102DC00090F8200068B1FEF7AFFF6E4880696E4949
:102DD00008636C488069C86500206A4981F8200052
:102DE00001E0FEF7A1FF00206649887102206149D9
:102DF00008706448C079C8B16348C06C6249086112
:102E00000846006D88610846406D08620846806D7E
:102E100088620846C06D0863FEF786FF00205949A6
:102E20008860C860086148618861C871FFF7BCFDAF
:102E300036E15648007890B1554856A10268564888
:102E400001F02AFD544A04210520FFF7DEFA524A18
:102E500003210520FFF7D9FA00204C4908701FE133
:102E60004E48007823280FD101204D4908700122D7
:102E700011460620FFF70DFA002201210620FFF778
:102E800031FAFF20454908704548007808B34548A5
:102E9000027845A1684601F0FFFC6A46262106201B
:102EA000FFF7B3FA3F480078642812D100203D496B
:102EB00008703B49087026210620FEF735F90122EB
:102EC00011460620FFF70EFA002201210620FFF727
:102ED000E0F932480078262815D1002030490870E2
:102EE0003049087026210620FEF71EF901221146FE
:102EF0000620FFF7F7F9002201210620FFF7C9F9A4
:102F0000FF20264908702B4800782B490978884211
:102F10000ED02948027829A1684601F0BDFC6A4616
:102F200014210620FFF771FA234800782149087020
:102F3000234800782349097888420ED02148027836
:102F40001EA1684601F0A8FC6A4615210620FFF77D
:102F50005CFA1C4800781A49087010480078272845
:102F600007D1194A03210920FFF74FFAFF200B4927
:102F7000087095E058000020EC0200207F0000203F
:102F8000700000208403002024030020840000201F
:102F90006C00002025640000E80300206800002089
:102FA0007400002073000020D2D1CFC2D4D8256491
:102FB0002525000076000020750000202575000002
:102FC00078000020770000204400002068E067E0DF
:102FD00035480078052805D10320344908700020C1
:102FE0003149087032480078052805D1032031495D
:102FF000087000202E4908702C48007820B1032862
:1030000003D0042813D109E011E0012212210B2082
:10301000FFF769FA00202549087008E00022122114
:103020000B20FFF760FA00202049087000BF00BFA6
:103030002048007820B1032803D0042813D109E0E8
:1030400011E0012213210B20FFF74DFA0020174950
:10305000087008E0002213210B20FFF744FA00203B
:103060001249087000BF00BF1AE0134800781349E6
:10307000097888420FD011480278AFF2C001684643
:1030800001F00AFC6A460B210C20FFF7BEF90B4841
:1030900000780949087003E002E001E000E000BFA9
:1030A00000BF05B000BD00007D0000207B000020B7
:1030B0007E0000207C0000207A00002079000020A3
:1030C00010B5FFF78BFBFFF7E7FBFFF743FCFFF7BC
:1030D00067FAFFF7C3FA10BD10B5002440210C4871
:1030E00002F032F90446002C10DD09484078072828
:1030F0000CD02146064800F0D5FD06480078401C5B
:103100000449087040210248FDF70FF810BD000087
:10311000A80300200E000020F0B50C461546002143
:103120000022068C4FF6FE773E400684018B028C0F
:103130004FF60C7631407E1C06EA03162E433143CF
:103140007E1E324044F00106324301830284F0BD0A
:10315000F0B50C461546002100220026078C4FF6DC
:10316000EF7C07EA0C070784018B028C4FF6FF7790
:1031700007EA041640F6FF4739404FF6FF7707EAA3
:10318000033739434FF6FF7707EA052739434FF6F0
:10319000DF773A4046F010073A4301830284F0BDDE
:1031A000F0B50C461546002100220026078C4FF68C
:1031B000FF6C07EA0C070784818B028C4FF6FF77C0
:1031C00007EA04264FF60C7739404FF6FF7707EAF7
:1031D00003172F4339434FF6FF573A4046F48077A1
:1031E0003A4381830284F0BDF0B50C4615460021B8
:1031F00000220026078C4EF6FF7C07EA0C070784A6
:10320000818B028C4FF6FF7707EA043640F6FF47C2
:1032100039404FF6FF7707EA052739434FF6FF7726
:1032200007EA033739434DF6FF773A4046F48057B3
:103230003A4381830284F0BD10B50121880700F074
:10324000BFF9002840D00121880700F016F91F4877
:103250000078401C1D4908701D480078401C1C491E
:10326000087001201B49087018480078022821D1F5
:103270000020164908700120174908701748007887
:10328000401C16490870084600780A2812D1002010
:10329000087001201249087012480078401C11493A
:1032A000087008460078192804D100200870012011
:1032B0000D49087006480078032805D101200B4904
:1032C000087000200249087010BD00008D00002029
:1032D0008E00002005000020060000208F00002046
:1032E00008000020900000200900002007000020B6
:1032F00010B50121064800F063F940B10548007897
:10330000401C044908700121014800F0B6F810BDC6
:1033100000040040910000201FB501210846FEF77F
:1033200045FD6320ADF8080041F61F40ADF80400EC
:103330000020ADF80A00ADF8060001A94FF080406A
:1033400000F0C4F901221146900700F08AF91C2010
:103350008DF8000001208DF8010002208DF8020098
:1033600001208DF803006846FEF7F0FB0121880775
:1033700000F086F81FBD00001FB501210220FEF7F6
:1033800015FD47F22F50ADF8080041F61F40ADF88B
:1033900004000020ADF80A00ADF8060001A90C48B1
:1033A00000F094F901221146094800F05AF91D2055
:1033B0008DF8000001208DF8010003208DF8020037
:1033C00001208DF803006846FEF7C0FB1FBD00001A
:1033D0000004004000B587B001210420FEF7E6FCA0
:1033E00001210820FEF702FDC020ADF818000420DE
:1033F0008DF81B0003208DF81A0006A91B48FEF764
:103400000BF81B4800F048F803A800F07DF90020F5
:10341000ADF80C004FF6FF70ADF810000020ADF8CD
:103420001200ADF80E0003A9114800F04FF9002377
:103430001A4603210E4800F09FF8684600F008F98C
:103440000420ADF808006946094800F0CAF80121D7
:10345000074800F00FF800200549243108800121B9
:10346000034800F00DF807B000BD0000000C01405B
:1034700000080040CA4302827047CA430282704774
:1034800021B1028842F00102028004E0028840F289
:10349000FE331A400280704710B504462F4884421C
:1034A00008D10121C014FEF7B1FC0021E014FEF7A1
:1034B000ADFC52E0B4F1804F08D101210846FEF77F
:1034C00085FC00210120FEF781FC46E0244884426F
:1034D00008D101210220FEF779FC00210220FEF72D
:1034E00075FC3AE01F48844208D101210420FEF710
:1034F0006DFC00210420FEF769FC2EE01A4884428E
:1035000008D101210820FEF761FC00210820FEF708
:103510005DFC22E01548844208D101211020FEF70D
:1035200055FC00211020FEF751FC16E010488442A3
:1035300008D101212020FEF749FC00212020FEF7C0
:1035400045FC0AE00B48844207D101214014FEF7F4
:103550005DFC00216014FEF759FC10BD002C0140F9
:103560000004004000080040000C00400010004033
:103570000014004000340140F0B50C4615461E46CC
:103580000021002200230189028B038C4FF6F8777B
:10359000394021434FF6FC473A4040F201173A4385
:1035A0004FF6DD773B404FF6FF7707EA06172F43CC
:1035B0003B43018102830384F0BD0146888C704740
:1035C00030B50246002000230024158A05EA0103D5
:1035D000958905EA010413B10CB1012000E0002037
:1035E00030BD70B505460C46208850B92389A288A5
:1035F00061882846FFF790FDE188284600F03AF8F8
:1036000025E0208804280AD12389A28861882846D9
:10361000FFF79EFDE188284600F035F817E0208886
:1036200008280AD12389A28861882846FFF7B8FDB7
:10363000E188284600F034F809E02389A2886188EF
:103640002846FFF7D1FDE188284600F032F870BD2A
:10365000002101804180012181800021C180018100
:1036600070471AB183890B43838102E083898B43BE
:1036700083817047028B4FF6F3731A400283028BEB
:103680000A4302837047028B4FF2FF331A400283D2
:10369000028B4FF6FF7303EA01231A43028370473C
:1036A000828B4FF6F3731A408283828B0A438283A4
:1036B0007047828B4FF2FF331A408283828B4FF622
:1036C000FF7303EA01231A4382837047028802F0E2
:1036D0008F020280CA884B881A4303881A430280EB
:1036E0008A8882850A880285054A904202D0054A66
:1036F000904201D10A7A028601228282704700003C
:10370000002C0140003401404FF6FF718180002100
:103710000180C180418001727047000000B50848F7
:10372000008800F0080038B105490988C8B204498A
:10373000091D0988C8B200BD00F0AEF900BFFAE764
:103740000038014010B540F22551064800F073F8EA
:1037500038B1044800F00EF9C4B2204601F050FE22
:1037600000BF10BD0044004021B1828942F40052E4
:10377000828104E082894DF6FF731A40828170478E
:1037800010B504462048844209D101218803FEF780
:103790003DFB00214FF48040FEF738FB32E01B4830
:1037A000844209D101214804FEF710FB00214FF4A7
:1037B0000030FEF70BFB25E01548844209D10121BA
:1037C0008804FEF703FB00214FF48020FEF7FEFA89
:1037D00018E01048844209D10121C804FEF7F6FA26
:1037E00000214FF40020FEF7F1FA0BE00A48844272
:1037F00008D101210805FEF7E9FA00214FF48010F5
:10380000FEF7E4FA10BD000000380140004400401B
:1038100000480040004C004000500040024600209C
:10382000B1F5007F00D100BF13880B400BB1012020
:1038300000E00020704770B50246002400230025F8
:10384000002040F66A16B14200D100BFC1F3421514
:1038500001F01F03012606FA03F3012D02D1968918
:10386000334006E0022D02D1168A334001E0968AE9
:1038700033400C12012606FA04F41688344013B1C2
:103880000CB1012000E0002070BDF0B5034600241B
:1038900000260025002040F66A17B94200D100BF7B
:1038A0001846C1F3421401F01F06012707FA06F576
:1038B000012C01D10C3004E0022C01D1103000E0C9
:1038C00014301AB107682F43076002E00768AF435E
:1038D0000760F0BD2DE9F04786B005460E4600248E
:1038E000A24600BF00BF0027B08900B100BF2F462D
:1038F0002C8A4CF6FF700440F08804432C82AC897B
:103900004EF6F3100440B0883189084371890843AA
:103910000443AC81AC8A4FF6FF400440B0890443B5
:10392000AC8201A8FEF7A8FA1148874202D1DDF85F
:1039300010A001E0DDF80CA00AEBCA0000EB0A10B1
:1039400031688900B0FBF1F86420B8FBF0F00401A5
:103950002009642101FB1089322000EB0910B0FB23
:10396000F1F000F00F0004432C8106B0BDE8F087B1
:103970000038014001468888C0F308007047C1F351
:10398000080282807047000010B5044644B101224D
:1039900003211046FEF77DFC01200849087107E06D
:1039A000002203210120FEF774FC00200349087166
:1039B000024801790320FDF7D1FA10BDEC02002086
:1039C00000BFFEE710B586B0044601210420FEF7D3
:1039D0000DFA01218803FEF709FA4FF40070ADF8E3
:1039E000140003208DF8160018208DF8170005A983
:1039F0002748FDF711FD4FF48060ADF81400032057
:103A00008DF8160004208DF8170005A92048FDF751
:103A100003FD8020ADF8140003208DF8160010205F
:103A20008DF8170005A91A48FDF7F6FC1948FFF7AD
:103A3000A7FE01944FF48050ADF808000020ADF8C7
:103A40000A00ADF80C00ADF810000C20ADF80E0027
:103A500001A91048FFF73EFF25208DF80000012046
:103A60008DF801008DF802008DF803006846FEF71E
:103A70006DF8012240F225510648FFF706FF0121AB
:103A80000448FFF771FE0020FEF7D0FA06B010BD23
:103A9000000801400038014030B52748008805B2D1
:103AA0002548001F008820F020002349091F0880B6
:103AB000ECB205F4807058B12046FDF7F1FA002809
:103AC00038D000201D49087001201D49087031E0E0
:103AD0001B48007801282DD1184800781E2803DBE8
:103AE00000201749087030BD16481449097844541D
:103AF00012480078401C11490870124800781E28AE
:103B000002DD00200E4908700E4800780B49097844
:103B100088420FDA00200A4908700A4A1178074AD9
:103B20001278521E074B985CFDF7A4FA10B10120E1
:103B30000549087000BFD6E7043801402600002080
:103B400024000020B2000020290000202DE9FE43BF
:103B50000546FDF7D7FA0746FDF7ACFA8046FDF7B4
:103B6000BFFA81462FB9B8F1000F02D1B9F1000FA9
:103B70003AD0FDF765FB0120FEF758FA00242EE04D
:103B800074B91A48007840F480701949088000BF61
:103B90001748001F008800F040000028F8D01CE003
:103BA0001248005D1249088000BF1148001F0088BC
:103BB00000F040000028F8D00C4800790B49C97883
:103BC00000EB012086B232460AA1684600F064FE8E
:103BD0006A4615210020FEF718FC601CC4B2AC42F6
:103BE000CEDB0020FEF722FABDE8FE839400002021
:103BF000043801402575000010B586B00446012147
:103C00000420FEF7F3F801214804FEF7CFF8042062
:103C1000ADF8140003208DF8160018208DF8170059
:103C200005A91E48FDF7F8FB0820ADF81400032095
:103C30008DF8160004208DF8170005A91748FDF728
:103C4000EBFB1748FFF79CFD01940020ADF808003E
:103C5000ADF80A00ADF80C00ADF810000C20ADF87E
:103C60000E0001A90E48FFF735FE26208DF8000052
:103C700001208DF801008DF802008DF803006846E0
:103C8000FDF764FF012240F225510548FFF7FDFDD5
:103C900001210348FFF768FD06B010BD0008014090
:103CA0000044004070B504460E466078FE49087036
:103CB000A078FE490870E079FD4908702079E17824
:103CC00040EA0120FB490880A079617940EA01209F
:103CD000F9490880207A0106607A41EA0041A07A19
:103CE00041EA0020E17A0843F4490860F04800788E
:103CF000102802D1607AF2490870EB480078B128A8
:103D00007AD1EC480088162877D2DFE810F0160048
:103D10000A01AB01BB027600A303CE0376047A044A
:103D20007E049504B304EC04760076002205360583
:103D30007600760076004A0567050020E1490870A4
:103D4000DD4800880E286ED00BDCA0F103000B28A4
:103D50006AD2DFE800F01533538BE3E3E3E3E3BF1C
:103D6000C3002C287ED006DC0F287CD02A287BD0EC
:103D70002B2859D1C2E02D2877D02E28F9D1C9E0BF
:103D8000CF480078C8B10120CF49887508464068FF
:103D90000A38486008464068002801DC0020486076
:103DA000C9480088C84949684843642190FBF1F03C
:103DB000C54908610020C2490870B0E0C0480078D9
:103DC000C8B10120C0498875084640680A3048607B
:103DD00008464068642801DB64204860BA480088CF
:103DE000B94949684843642190FBF1F0B64908613C
:103DF0000020B349087092E0F2E3F2E3B0480078A3
:103E000078B30120B049C8750846C06864280CDC46
:103E10000846C0680A38C8600846C068002812DC36
:103E20000020C8600FE05DE078E0A748C068642823
:103E300009DDA548C068B0F5967F04DCA248C068DB
:103E40001938A149C860A04880689F49C96848439B
:103E5000642190FBF1F000B29B49888200209849D0
:103E600008705CE04EE041E044E04FE094480078A8
:103E700078B301209449C8750846C068642804DAFC
:103E80000846C0680A30C86015E08F48C0686428DA
:103E900011DB8D48C068B0F5967F0CDC8A48C0689D
:103EA00019308949C8600846C068B0F5967F02DBC2
:103EB0004FF49670C860844880688349C968484355
:103EC000642190FBF1F000B27F49888200207C4998
:103ED000087024E006207B49087020E00B20794917
:103EE00008701CE001207749087018E0022075492D
:103EF000087014E000207549087010E00120734933
:103F000008700CE002207149087008E003206F4936
:103F1000087004E064206D49087000E000BF00BF35
:103F200097E201206749087069480078002874D139
:103F3000614800881C2871D2DFE800F0910E192436
:103F40002F33373E454C535A616871787F91919178
:103F500091919191919191865948007818B10120E1
:103F60005C49487002E000205A49487078E05448A3
:103F7000007818B101205749C87002E00020554967
:103F8000C8706DE04E48007818B101205149487161
:103F900002E000204F49487162E01520494908704D
:103FA0005EE001204B4908725AE004F10800FDF779
:103FB00005FE4849C86053E004F10800FDF7FEFD26
:103FC000444908614CE004F10800FDF7F7FD414960
:103FD000486145E004F10800FDF7F0FD3D498861C6
:103FE0003EE004F10800FDF7E9FD3A49C86137E019
:103FF00004F10800FDF7E2FD3649086230E004F103
:104000000800FDF7DBFD3349486229E004F10800B0
:10401000FDF7D4FD2F49886222E022E01FE004F181
:104020000800FDF7CBFD2B49C86219E004F1080038
:10403000FDF7C4FD2749086312E004F10800FDF70D
:10404000BDFD244948630BE01D48007818B10120EC
:104050002049C87102E000201E49C87100E000BF7D
:1040600000BFD8E3022017490870134800882328AE
:1040700074D2DFE800F07312333D4C566374808ACB
:1040800094A4AEB8C8D8DF7373737373E3E7F0F426
:10409000F8737373737373FCEB000948007810B105
:1040A00004200D490870EBE0590000205A00002060
:1040B0005C0000205E000020600000206400002002
:1040C0005B00002058000020D402002024030020C0
:1040D0007F000020EC02002068000020F7480078F4
:1040E00010B10A20F64908700020F4490870C7E0B2
:1040F000F248007838B10120F249C870FDF7BAFCE7
:104100000720EF4908700020EC490870B8E0EB4840
:10411000007810B10820EA4908700020E7490870CB
:10412000AEE0E648007840B10120E6494871112030
:10413000E34908700020E1490870A1E0DF480078F9
:1041400058B10320E04908700120E04908700520BB
:10415000DB4908700020D949087091E08FE0D7480A
:10416000007838B1FDF706F81220D5490870002014
:10417000D249087084E0D148007810B11320D049AA
:1041800008700020CD4908707AE0CC48007810B162
:104190001520CB4908700020C849087070E0C74856
:1041A000007858B10120CA4908700520C649087036
:1041B0001420C34908700020C049087060E0BF485F
:1041C000007810B10920BE4908700020BB49087072
:1041D00056E0BA48007810B10620B94908700020AE
:1041E000B64908704CE00120BA4908700C20B44967
:1041F00008700021B848FFF743F901220D21022081
:10420000FEF747F83CE00020B249087001220E2179
:104210000220FEF73EF81720A94908700121AE4898
:10422000FFF72EF92CE00020AA4908701620A449B7
:10423000087025E00020A449087021E00020A14971
:1042400008701DE001209F49087019E013E00EE09E
:1042500009E004E0FFE702209A49087010E003201B
:10426000984908700CE064209649087008E0062020
:104270009549087004E00B209349087000E000BFE6
:1042800000BFC8E2032090490870924800780028D7
:1042900070D1924800880E286DD2DFE800F0D80770
:1042A00037495864727E8A96A3B0BDCA83480078A5
:1042B00018B301208A490870012204210320FDF768
:1042C000E8FF012205210320FDF7E3FF012206217B
:1042D0000320FDF7DEFF012207210320FDF7D9FFB0
:1042E000012208210320FDF7D4FF01207C494870FA
:1042F0008870C8700871487107E00020784908701C
:1043000048708870C87008714871A1E00121724836
:10431000FFF7B6F86948007818B101207049C871F4
:1043200005E000206E49C8710220674908708FE0DF
:1043300001216948FFF7A4F86048007818B101200E
:104340006749887102E002205F49087080E05B489D
:10435000007818B101206249487003E000206049EC
:104360004870087074E05548007828B101205C4915
:10437000887005E06DE06AE0002059498870087097
:1043800066E04E48007818B101205549C87003E036
:1043900000205349C87008705AE04848007818B1A6
:1043A00001204F49087103E000204D490871087051
:1043B0004EE04248007818B101204949487103E0B5
:1043C000002047494871087042E004F10800FDF7F9
:1043D000F5FB434988600120087708468068394921
:1043E000086135E004F10800FDF7E8FB3C49C860CE
:1043F000012048770846C0683249886128E004F106
:104400000800FDF7DBFB3649086101208877084684
:1044100000692C4908621BE004F10800FDF7CEFB9F
:104420002F4948610120C8770846406925498862BC
:104430000EE004F10800FDF7C1FB29498861012065
:1044400081F82000084680691E49086300E000BF2B
:1044500000BFE0E121480088012804D002280FD0E5
:10446000032820D115E001201949487000208870E8
:10447000084640681B49086002201349087012E092
:104480000120134988700020487002200E490870EE
:1044900009E004F10800FDF791FB0546FCF732F94D
:1044A0000B49486000BF00BFB5E10620064908700F
:1044B0000A480088142872D216E000005B00002031
:1044C0006800002024030020580000207000002015
:1044D000840000207F0000200008004060000020D1
:1044E000840300206C000020DFE800F0840A11152E
:1044F0001F292D3A43505A5E62666A6E72767C803E
:10450000C648007810B12320C549087073E0142014
:10451000C44908706FE00920C2490870BF4800789C
:1045200010B12720BE49087065E00A20BD49087017
:10453000BA48007810B12820B94908705BE0022021
:10454000B849087057E0B548007840B1B6480078DF
:10455000012804DDB4480078401EB34908704AE0E1
:10456000AE48007820B1B0480078401CAE490870D1
:1045700041E0AA48007840B1AC480078012804DD49
:10458000AA480078401EA949087034E0A348007882
:1045900020B1A6480078401CA44908702BE029E00F
:1045A0000120A349087026E00220A149087022E0FA
:1045B00003209F4908701EE004209D4908701AE0FE
:1045C00001209C49087016E002209A49087012E008
:1045D0000320984908700EE00420964908700AE00C
:1045E0001AE117E100208F49087004E00B208D4983
:1045F000087000E000BF00BF0DE107208949087086
:1046000009E108208749087005E18B4800880128E6
:1046100002D002280ED109E08048007828B1062097
:10462000804908702B207E49087003E006207D49F0
:10463000087000BF00BFEEE00A207A4908707E488B
:104640000088012804D0072809D008280FD10AE0E3
:104650007248007810B10B207249087008E0002001
:104660007049087004E006206E49087000E000BF41
:1046700000BFD0E00B206B4908706F480088042809
:104680001AD006DC01280BD002280DD0032827D130
:104690000EE0052819D0122820D0132820D11EE0C2
:1046A0000020604908701CE006205E49087018E090
:1046B0000C205C49087014E05848007820B15F482D
:1046C0000078401C5D4908700BE05448007820B128
:1046D0005B480078401C5A49087000BF01E000E0C8
:1046E00000BF00BF97E00C204E4908705248008878
:1046F00007282BD2DFE800F02A04080C10141D0054
:104700000B204849087022E00B20464908701EE043
:104710000B20444908701AE00B204249087016E04B
:104720003E48007820B147480078401C4549087051
:104730000DE03A48007840B142480078012804DD95
:1047400040480078401E3F49087000E000BF00BFAD
:1047500061E039480088012802D002280BD106E028
:104760000420394908700B202E49087003E00B2003
:104770002C49087000BF00BF4DE02F480088012879
:1047800002D002280BD106E00420304908700B202B
:104790002449087003E00B202249087000BF00BFC5
:1047A00039E025480088012802D0022814D109E008
:1047B0001A48007828B1262019490870062019499E
:1047C000087009E01548007828B1FF2014490870E6
:1047D00006201449087000BF00BF1CE015201149D5
:1047E00008701B480078A0B913480088012802D03F
:1047F00002280CD105E00120164948720020887279
:1048000006E00020134948720120887200BF00BFF3
:1048100000BF00E000BF00BF70BD00005B000020D3
:10482000680000205800002075000020770000205C
:104830007100002072000020600000207D00002038
:104840007E000020790000207B0000207C000020FA
:104850007F000020EC02002010B50C4800780C49C5
:104860000978884210D009480078012804D1094805
:104870000078FDF71DFF03E006480078FDF749FFCB
:10488000024800780249087010BD00007F00002037
:1048900069000020580000200FB4084B10B504A98F
:1048A00002AA039800F0E6F8044602A9002000F0EE
:1048B00078FC204610BC5DF814FB0000A3510008F2
:1048C00002E008C8121F08C1002AFAD170477047D9
:1048D000002001E001C1121F002AFBD17047000037
:1048E0002DE9FF5F82B00021DDE90430020DDDF823
:1048F00040B0034318D044F61050A2F2FF324243B6
:104900001514119801281FD0A5EB0B00401C5FEA7D
:10491000000A4FF000064E4FDFF83891B04650467F
:1049200015D5CAF1000413E0119801244AA3012807
:1049300001D16FEA0B010298119AC0E90031C0E978
:10494000024206B0BDE8F09FCBF10000DFE704466D
:104950000021404A491842EB0450CDE9001012E012
:10496000E00707D032463B4640464946FBF747FE44
:104970008046894632463B4610461946FBF73FFEC5
:1049800006460F466410002CEAD1DDE90401DDE99A
:104990000023BAF1000F06DAFBF731FE42464B4620
:1049A000FBF72DFE05E0FCF757F842464B46FCF7B7
:1049B00053F804460E460022284BFBF7CFFE03D8DF
:1049C0004FF0FF30014607E00022254B20463146DC
:1049D000FBF76EFDFCF7BBF8102409E0002C0ADBA6
:1049E0000A220023FBF70EFF039B30321A55641E88
:1049F00050EA0102F2D1641C039AC4F11103144479
:104A0000119A012A03D0012208430DD10AE008437C
:104A100004D000204FF0110B119072E7A3EB0B05AF
:104A20006D1E0DE05B4504DD4FF0000205F1010550
:104A300004E003DA4FF00002A5F10105002AECD0F2
:104A400002981199C0E90231C0E9004579E70000F8
:104A5000000014400000F03F300000000000F04370
:104A60000000E03F30380A2801D2012070470020C2
:104A7000704700002DE9FF4F95B09B4689460646DA
:104A800000250FE2252877D100242746F84A012186
:104A9000059400E0044316F8013F203B01FA03F0BF
:104AA0001042F7D130782A2811D06FF02F033078D8
:104AB000A0F13002092A16D8059A44F0020402EB4C
:104AC000820203EB42021044761C0590EFE759F88E
:104AD000042B0592002A03DA504244F40054059056
:104AE00044F00204761C30782E2816D116F8010FF7
:104AF00044F004042A280DD06FF02F023078A0F182
:104B00003003092B09D807EB870302EB4303C718CF
:104B1000761CF3E759F8047B761C30786C280FD0AC
:104B200006DC4C2817D068280DD06A2814D104E080
:104B3000742810D07A280FD10DE044F400140AE054
:104B400044F4801401E044F440147278824202D1AB
:104B500004F58014761C761C307866280BD013DCA4
:104B6000582877D009DC002875D04528F6D046288B
:104B7000F4D047281AD19DE118E0632835D0642885
:104B800079D0652812D195E1702873D008DC6728A8
:104B9000F1D069286FD06E280DD06F2806D1B5E00E
:104BA00073282CD0752875D0782874D05A46179958
:104BB00090476D1C75E1C4F30250022809D0032808
:104BC0000DD0D9F8001004280DD00D6009F10409AA
:104BD00067E1D9F80010EA17C1E90052F6E7D9F801
:104BE00000100D80F2E70D70F0E719F8041B8DF846
:104BF000001000208DF80100EA46012003E059F87A
:104C000004AB4FF0FF3061074FF0000102D40DE01C
:104C100008F101018846B9420FDA8045F8DB1AF83D
:104C200008100029F4D108E008F10101884681420A
:104C3000FADB1AF808100029F6D105985B46A0EBBC
:104C4000080721463846179A00F094FA284400EBEA
:104C5000080507E04DE029E10DE01AF8010B5A467E
:104C600017999047B8F10108F7D25B4621463846BC
:104C7000179A13E142E00A220092C4F302524FF065
:104C8000000A022A08D059F804CB032A4FEAEC7133
:104C90000AD00DE029E02AE009F1070121F007021E
:104CA000F2E802C1914609E00FFA8CFC4FEAEC7180
:104CB000042A03D14FFA8CFC4FEAEC71002907DA81
:104CC0000A460021DCF1000C61EB02012D2202E01A
:104CD000220504D52B228DF80420012203E0E207EF
:104CE00001D02022F7E7904659E00A2102E0102285
:104CF0000DE010214FF0000A00910BE010224FF060
:104D0000000A44F004040827009203E008224FF050
:104D1000000A0092C4F30252022A05D059F804CBCB
:104D20000021032A08D009E009F1070121F0070258
:104D3000F2E802C1914605E01FFA8CFC042A01D179
:104D40000CF0FF0C4FF00008220728D5702806D081
:104D5000009B83F0100353EA0A0305D00EE04022C3
:104D60008DF80420012208E05CEA010206D030221E
:104D70008DF804208DF8050002229046009B83F0F8
:104D8000080353EA0A030AD15CEA010201D162076F
:104D900005D530228DF804204FF001087F1E5828D9
:104DA00004D034A003900EA802900DE036A0F9E7DD
:104DB00053466046009AFBF725FD84460398825CC3
:104DC0000298401E029002705CEA0100F0D1029845
:104DD00006A9081A00F1200A600702D524F48034DD
:104DE00000E00127574502DDA7EB0A0000E00020A4
:104DF00000EB0A01009005984144401A0590E00339
:104E000006D45B462146179A059800F0B3F905448D
:104E1000002706E001A85A46C05D179990476D1C0F
:104E20007F1C4745F6DBE0030CD55B462146179A0D
:104E3000059800F09FF9054404E030205A46179980
:104E400090476D1C0099481E00900029F5DC08E091
:104E5000029802995A460078491C02911799904786
:104E60006D1CBAF10001AAF1010AF1DC65E1000054
:104E70000928010030313233343536373839616230
:104E800063646566000000003031323334353637F4
:104E900038394142434445460000000000F058F9CB
:104EA0000544761C307800287FF4ECAD19B0284614
:104EB000BDE8F08F620700D4062709F1070222F04F
:104EC000070CFCE80223E14603F000485FEA080C07
:104ED00002D00FF2702C0DE05FEA045C02D50FF2F5
:104EE000682C07E05FEAC47C02D00FF2602C01E07E
:104EF000AFF2700C4FF0FF3823F00043CDF850C0F4
:104F000065280CD006DC452809D046281DD0472846
:104F10003DD13DE0662818D067287ED138E00021D9
:104F2000112F01DB112000E0781CCDE9000106A95A
:104F30000EA8FFF7D5FCDDE90F010E9A03910021C1
:104F4000009207F1010A04914DE04FF000400097F4
:104F5000CDE9011006A90EA8FFF7C2FCDDE90F029A
:104F600003920E9B11990022DDF80CA0009304928D
:104F700011B9791C00EB010AB7EB0A0004D4C0F1A7
:104F8000FF3007F1010A0490AAEB0700019044E00A
:104F9000012F00DA01270021112F01DD112000E08F
:104FA0003846CDE9000106A90EA8FFF799FCDDE916
:104FB0000F010E9A0391002104910092BA46210735
:104FC0000CD40399514500DA8A46BAF1010F05DD88
:104FD000009AAAF10101515C302908D0B84202DAE6
:104FE00010F1040F06DA0121CDE9011015E0AAF154
:104FF0000101E9E7002805DC049901440491AAEBCA
:10500000000102E0411C514500DD8A460499401A26
:10501000401C01904FF000400290200704D40198FA
:10502000504501DBCDF8048000208DF84F00029838
:105030000DF14F07B0F1004F25D02B200E900298B4
:105040004FF0020800280CDA404202902D200E900A
:1050500007E00A210298FBF7BFFB3031029007F806
:10506000011DB8F10001A8F10108F2DC0298002846
:10507000EFD1791E0E980870307800F0200040F0D3
:10508000450007F8020D12A8C01B00F1070814988C
:10509000007800B1012000EB0A01019801EBE071FA
:1050A00005984144401A401E0590E00306D45B4633
:1050B0002146179A059800F05DF805441498007889
:1050C00018B15A46179990476D1CE00324D55B46EA
:1050D0002146179A059800F04DF805441CE0049805
:1050E000002807DBDDE90301884203DD0098405C0E
:1050F000179901E0179930205A469047049805F116
:105100000105401C04900198401E019004D12E20FE
:105110005A46179990476D1CBAF10001AAF1010A8D
:10512000DDDC05E017F8010B5A46179990476D1C16
:10513000B8F10001A8F10108F4DC5B462146179A9A
:105140000598ABE62D0000002B00000020000000B9
:105150002DE9F041044600251E461746880404D474
:1051600005E039462020B0476D1C641EF9D528465D
:10517000BDE8F0812DE9F041044600251E46904629
:10518000C80301D5302700E02027880404D505E0B6
:1051900041463846B0476D1C641EF9D52846BDE827
:1051A000F0810A68531C0B6010707047074A116841
:1051B00008E00A22B0FBF2F2044B1B685B1A9A4229
:1051C00000D200E0F5E700BF7047000000000020BB
:1051D000002106E00A2100BF0A1EA1F1010399B2D5
:1051E000FAD1021EA0F1010398B2F3D1704700007A
:1051F00010B52548008825490988884207D02348EA
:1052000000882149088001202149087002E000201F
:105210001F4908701F4800781F490978884202D149
:105220001B480078B0B13220FDF785F819480078A6
:1052300019490870002019490870012018490870A0
:105240001448007864280FD10020134908701149D0
:10525000087009E01248007830B101211148FEF7CA
:105260000FF900200E4908700C480078022809D177
:1052700000200A490870C820FDF75DF800210948A0
:10528000FEF7FEF810BD00003E0000203C000020AC
:10529000400000200E0000200F00002091000020A0
:1052A000380000200004004000BF00BFFDF7E8F810
:1052B00000F0E0F84FF4E130FEF784FB4FF4E1300A
:1052C000FEF79AFC00F0B4F8FEF726F8FCF7DCFADB
:1052D000FEF752F8FEF77EF8FCF7A4F94FF496704B
:1052E000FFF764FFFCF77AFCFCF74EF9FCF768FF68
:1052F00023E0FCF723FDFDF74BFC1048007830B1AC
:10530000FCF73CF8FCF7A2FE00200C4908700C48A2
:10531000007830B1FCF700FBFDF7DEFE0020084905
:1053200008700848007840B1FFF762FFFDF7C8FE3B
:10533000FFF792FA002003490870DAE70500002021
:105340000600002008000020F8B504460D4600269F
:10535000002000902FE0684600F038F819480088D7
:1053600020B99DF80000EE2800D024E01548008800
:10537000A84208DA9DF80010124802880088401CF4
:10538000104B1880A1549DF800000F49096840EAAD
:1053900001200D490860084600686FF440318842DA
:1053A00008D1084806880020074908600549088098
:1053B0003046F8BD00BF00F04BF80028CBDC0020E1
:1053C000F7E70000340000203000002001460B48C1
:1053D00040880A4A128890420FD008484288001D2F
:1053E000805C0870054A5288501CC21700EBD252EC
:1053F0005212A0EB4222014B5A807047D00000208D
:1054000001460A4B1B88581CC31700EBD3535B1291
:10541000A0EB43239AB205484088904205D0034848
:105420000388001DC154001F02807047D000002077
:105430000020044948800880034908600349088027
:1054400070470000D0000020300000203400002011
:105450000748008800F50070054A5288811AC8176D
:1054600001EBD0504012A1EB402080B27047000009
:10547000D000002070B56FF00400FDF76DFB1249FD
:10548000B1F1807F00D31DE021F07F40401E4FF03E
:10549000E022506150170F22002807DA13071D0E73
:1054A0000A4B00F00F04241F1D5503E013071C0EC8
:1054B000074B1C5400BF00204FF0E02290610720F2
:1054C000106100BF70BD00000053070018ED00E040
:1054D00000E400E0DDDDDDDDDCBBBBDDDDDDDDDDF1
:1054E000DDDDDDDD9888888888888888777777771C
:1054F00077888888855555566666666666666666E8
:105500006668888883333332222222222222222292
:105510002228888D345500080000002094000000E7
:10552000C0480008C8550008940000207C0B00000B
:10553000D048000800000000010000000000010049
:105540000000000000000000010203040102030447
:105550000607080902040608000000000000000019
:10556000000000000000000000000000010000003A
:105570000000000000000101BEABB5F1B7F0CFF1B3
:10558000000000000000000000000000000000001B
:10559000000000000000000000000000FF0000000C
:1055A00000000000000000000001000100010004F4
:1055B00004000000000000000000000000000000E7
:0855C0000000000000000101E1
:04000005080000ED02
:00000001FF
