:020000040800F2
:10000000D8070020010100084B140008251400083F
:1000100047140008A10F00081D360008000000006A
:10002000000000000000000000000000CD260008D5
:100030000511000800000000C1150008712C00081F
:100040001B0100081B0100081B0100081B01000820
:100050001B0100081B010008071100081911000806
:100060001B0100081B0100081B0100081B01000800
:100070001B0100081B0100081B0100081B010008F0
:100080001B0100081B0100081B0100081B010008E0
:100090001B0100081B0100081B0100081B010008D0
:1000A0001B0100081B0100081B0100081B010008C0
:1000B000AD2F0008CD2F0008453000081B010008B7
:1000C0001B0100081B0100081B0100081B010008A0
:1000D0001B01000895330008B93300081B01000814
:1000E0001B0100081B0100081B010008DFF80CD0F1
:1000F00000F030FD0048004751470008D8070020B5
:100100000648804706480047FEE7FEE7FEE7FEE7B1
:10011000FEE7FEE7FEE7FEE7FEE7FEE7812C0008CC
:10012000ED000008D2B201E000F8012B491EFBD21D
:1001300070470022F6E710B513460A4604461946F2
:10014000FFF7F0FF204610BD0FB400B58DB010A929
:1001500009900B9000914FF0FF300A9000200C9016
:1001600005480690054807906A4609A80F9900F0CF
:100170009BFB0DB05DF814FBC5080008E308000800
:100180002DE9FF4F087881B09946FF2805D0491C1A
:100190002D2804D00024002308E000230BE00124D4
:1001A000F9E703EB830300EB4303491C0878FF28BE
:1001B000F7D104B15B4200200090147801462D2C49
:1001C00001D02B2C04D1521C2D2C12D000240094D1
:1001D00000251678FF2E0ED00A24A0FB04C801FBD0
:1001E0000481002700FB0711521C16EB0C0069412B
:1001F000EFE70124EBE7994450EA01020ED0002416
:10020000AA4D2646DFF8A88200F07FFC82468B4686
:10021000B9F1000009DAC9F100071BE001980021DB
:10022000C0E9001105B0BDE8F08F074612E0F807FD
:1002300007D022462B463046414600F0E4F90646F8
:10024000884622462B461046194600F0DCF9044643
:100250000D467F10002FEAD1B9F1000F3246434618
:100260005046594602DA00F0E1FB01E000F0CBF91C
:10027000009A0AB181F00041019AC2E90001D1E778
:100280002DE9FF4F1F468DB0D7E901464FF0FF38EB
:100290002E2045464FF000090B90B9696D1C0E9851
:1002A0008847396A824688470028F6D1BAF1FF3F6D
:1002B0000AD024F4D064002E11DDBAF12B0F08D03F
:1002C000BAF12D0F0BD102E0404611B0ABE744F478
:1002D0008064B9696D1C0E9888478246761E69460F
:1002E000600501D52D2000E02B208DF8000001F1E4
:1002F000010B0DF1200809E0B9696D1C0E988847C3
:1003000082460F9844F40074761E0560002E02DDCC
:10031000BAF1300FF0D00B998A453ED144F08004F9
:1003200006E00F99681CA9F1010944F40074086003
:10033000B9696D1C761E0E98884782463028F0D029
:100340002BE00B998A4505D1200603D444F08004A4
:10035000761E18E0504603F037FE08B30DF1130186
:10036000761E44F400748B4508D2AAF130000BF8D5
:10037000010B200607D5A9F1010003E0200602D4F5
:1003800009F101008146A00502D50F99681C08609B
:10039000B9696D1C0E9888478246002ED1DC53E067
:1003A000002E51DDBAF1650F02D0BAF1450F4BD1E5
:1003B000A00549D5B9696D1C24F44074761E0E98C9
:1003C00088478246002E0CDD2B2804D0BAF12D0F71
:1003D00007D144F48074B9696D1C0E988847824631
:1003E000761EE00501D52D2100E02B2108F8011B28
:1003F000CDF82C8021E00DF12901761E44F4007423
:1004000088450CD2AAF1300010F0FF0088F80000F7
:1004100002D10B99884509D908F1010806E0E005E9
:1004200001D5244801E042F20F708146B9696D1C84
:100430000E98884782460F980560002E04DD5046CE
:1004400003F0C2FD0028D6D1F9690E988847FF2035
:100450008BF8000088F800000020069007904B46BB
:100460006A4608A906A8FFF78BFEA00502D46FF024
:1004700001002AE714F0240F0AD0E00714D1DDE9C7
:1004800006123868031D3B600068C0E900120BE0EB
:10049000DDE9060100F06EF90146E00704D1386895
:1004A000021D3A600068016028460EE70000244003
:1004B0000000F03FF1D8FFFF2DE9FE4F804681EAB2
:1004C0000300C00F0C46009021F0004123F00045CE
:1004D000B8EB0200A94105D24046214690461C4691
:1004E0000B46024623F00040104347D0270DC7F3C8
:1004F0000A00C3F30A510290401A019040286BDAB7
:10050000C3F3130040F4801B0098924620B10023EF
:10051000D2EB030A63EB0B0B01985946C0F1400282
:10052000504600F08AF906460D4650465946019A53
:1005300000F0A2F910EB08006141002487EA115293
:1005400084EAE7731A4340D0009A62B3019A012A01
:100550004FEA075215DC001B61EB02014FF000422D
:1005600002EA0752CDE90042001C41F580113246F3
:100570002B4600F00DFA03B0BDE8F08F404621464F
:10058000F9E7001B61EB0201001C41F58013001824
:100590005B412018A2F5001747EB030140EAD57034
:1005A000B6196D4111E06D084FEA360645EAC0758F
:1005B0004FEA0752001B61EB0201001C41F580115C
:1005C00049084FEA30000019514132462B4603B02A
:1005D000BDE8F04F00F0CDB90098012240000023A3
:1005E000D0EB020263EBE073009821464FEAE0741F
:1005F000B8EB000061EB0401E9E783F000435BE73F
:1006000081F0004158E72DE9FE4F81EA030404F030
:10061000004421F0004100944FF0000B23F0004310
:1006200050EA01045ED052EA03045BD0C3F30A54DB
:10063000C1F30A552C44A4F2F3340194A0FB0254F4
:10064000C1F3130141F48011C3F3130343F4801386
:1006500001FB024400FB034E840A970A44EA8154DA
:1006600047EA8357A4FB076802958D0A05FB0785B7
:100670004FEA932C04FB0C542705029D4FEA0658C1
:1006800047EA1637B5EB08056EEB070C870E920E9E
:1006900047EA811742EA8312A7FB0201B6EB0B017E
:1006A00064EB00042B0D43EA0C335E1844EB1C5042
:1006B000DA465146E7FB0201C5F313044FEA0B3358
:1006C00043EA14534FEA0432019C43EA0603A4F1BF
:1006D0000C040294009CCDE900B400F059F903B079
:1006E000BDE8F08F00200146F9E700F0004220F05D
:1006F0000040C10DC0F3160040F400007F2901DA6C
:1007000000207047962903DCC1F19601C84001E042
:1007100096398840002AF4D04042704700F00042E9
:1007200030F000400AD0C10D01F56071C0F3160031
:1007300042EA0151C20840071143704700200146B8
:100740007047000030B5041E71F1000404DB4FF067
:100750000044404264EB0101141E73F1000405DB08
:100760001C464FF00043524263EB0403994208BF1A
:10077000904230BD01F0004330B421F0004150EA16
:10078000010206D00A0DA2F56072C1F31301002A1E
:1007900002DC30BC00207047440F44EAC104C100B1
:1007A000E01830BC00EBC25000F0ACB830B50B46DE
:1007B000014600202022012409E021FA02F59D4291
:1007C00005D303FA02F5491B04FA02F52844151E65
:1007D000A2F10102F1DC30BD2DE9F05F05460020F9
:1007E00092469B4688460646814640241BE02846A2
:1007F00041464746224600F02FF853465A46C01A53
:10080000914110D311461846224600F016F82D1AD1
:1008100067EB01084F4622460120002100F00DF849
:1008200017EB00094E41201EA4F10104DFDC48460D
:1008300031462A464346BDE8F09F202A04DB203A91
:1008400000FA02F1002070479140C2F1200320FA23
:1008500003F3194390407047202A04DB203A21FA21
:1008600002F00021704721FA02F3D040C2F12002C9
:100870009140084319467047202A06DBCB17203ADF
:1008800041FA02F043EAE07306E041FA02F3D04095
:10089000C2F1200291400843194670470268114492
:1008A0001378016018467047D160044951610449CA
:1008B000116200211161114600F064B99D08000821
:1008C000790B0008426842B1016811F8013B23B17D
:1008D000521EC0E90012184670470121C160881EEF
:1008E000704742685AB1C368016843B983688B4254
:1008F00005D0491E521CC0E90012002070474FF07D
:10090000FF3070470029A8BF7047401C490008BF4E
:1009100020F00100704710B4B0FA80FC00FA0CF02F
:1009200050EA010404BF10BC704749B1CCF1200467
:1009300021FA04F411FA0CF118BF012121430843F4
:10094000A3EB0C01CB1D4FEA00614FEA102042BF20
:10095000002010BC704700EBC35010440029A4BF16
:1009600010BC7047401C490008BF20F0010010BCBB
:10097000704710B5141E73F1000408DA401C41F1F1
:10098000000192185B411A4301D120F0010010BD13
:100990002DE9F04D92469B4611B1B1FA81F202E089
:1009A000B0FA80F220329046FFF747FF04460F4628
:1009B00040EA0A0041EA0B0153465A46084313D065
:1009C000114653EA010019D0C8F140025046FFF722
:1009D00043FF05460E46504659464246FFF72DFF57
:1009E000084305D0012004E020463946BDE8F08DDB
:1009F0000020054346EAE0762C4337430A98630516
:100A0000E40AA0EB08000022FD0A44EA47540A3039
:100A100002D500200146E9E7010510196941DDE929
:100A2000084500196941BDE8F04DA2E72DE9F04DF8
:100A300081EA030404F0004B21F0004514464FF016
:100A4000000A23F0004150EA050220D054EA0102D6
:100A50001DD0C5F30A570246C5F31303C1F31300B3
:100A6000C1F30A5640F4801543F48013A7EB06083F
:100A7000101BD64608F2FD3873EB050002D308F1CF
:100A8000010801E092185B41B8F1000F03DA002081
:100A90000146BDE8F08D00204FF4801106468446E3
:100AA0000EE0171B73EB050705D3121B63EB050361
:100AB00006434CEA010C49084FEA300092185B41AA
:100AC00050EA0107EDD152EA030012D082EA040095
:100AD00083EA0501084305D0101BAB4106D2012271
:100AE000002306E000224FF0004302E06FF0010215
:100AF00053101AEB06004CEB085110EB0A0041EBC7
:100B00000B01BDE8F04DFFF734BF0EB540F23342A4
:100B100002920022CDE900221346FFF739FF03B00D
:100B200000BDC1F30A52C1F3130140F2FF3341F497
:100B300080119A4202DA00200146704740F23343A6
:100B40009A42A2F2334202DC5242FFF785BEFFF71F
:100B500074BE0000064C074D06E0E06840F001035B
:100B600094E8070098471034AC42F6D3FFF7C2FA76
:100B70009C490008BC490008C0B24FF4F05100F095
:100B800097B900002DE9F34F8BB04FF0000801F149
:100B90000C000C464FF0010B46460DF1080A01907F
:100BA0006269012101989047051E2DD0252D2CD07A
:100BB000216A8847C0B16269012101989047216A82
:100BC00088470028F7D1411E62690198904700E0EC
:100BD000761CA1690B988847216A88470028F7D1BD
:100BE000E1690B988847DBE7A1690B9888470746BE
:100BF000A84201D1761CD3E7E1690B9888477F1C96
:100C000002D1B8F1000F6FD046E1002762693D467E
:100C10003946019890472A2804D162690121019838
:100C200090470125DFF8849262690121019890477D
:100C3000A0F130010A290AD24F45E5DC07EB870114
:100C400000EB4107303FDFD445F01005ECE7E90643
:100C500001D46FF000476C280AD04C2814D06828C3
:100C600015D06A280DD074281CD07A281AD01DE01F
:100C700062690121019890476C2802D045F0040573
:100C800014E045F002050DE045F020050AE0626938
:100C9000012101989047682802D045F0080505E039
:100CA00045F400656269012101989047C4E9015744
:100CB00065283DD019DC58287AD00CDC452837D07F
:100CC00004DC252826D0412831D131E046282FD018
:100CD00047282CD12CE05B2877D0612828D06328C6
:100CE0007CD0642823D15AE0D0E06F2848D008DCBB
:100CF00066281DD067281BD0692821D06E2816D100
:100D000027E0702845D0732868D0752847D0782808
:100D10000DD14DE0A1690B988847054625283FF481
:100D200069AFE1690B9888476D1C3FF46AAFB3E087
:100D300023466A466FF001000B99FFF7A1FA9EE087
:100D400045F040006060A80723464FF0000236D40B
:100D50003EE0E8077FF447AF2068011D216000688E
:100D6000290501D506701BE7290701D5068017E77D
:100D7000A90703D5F117C0E9006111E706600FE785
:100D800045F040006060A80723464FF0080216D4E3
:100D90001EE040F60E0125EA0100606016E045F015
:100DA00040006060A80723464FF00A0207D40FE016
:100DB00045F040006060A80708D5234610226FF078
:100DC00001000B99AFF3008059E007E023461022A1
:100DD0006FF001000B99AFF3008050E04FF0000975
:100DE0004F464B46632802D05B2806D040E0E80619
:100DF00001D40120A06001273AE062690121019835
:100E000090475E2805D14FF0010962694946019873
:100E10009047216939B900210A46534643F82120F9
:100E2000491C0829FADBB0B3216969B9C11700EB85
:100E3000D16253110AEB830122F01F02821A0120B2
:100E40000B68904003430B60626901210198904751
:100E50005D28E8D1B9F1000F09D00020514651F8C2
:100E60002020D24341F82020401C0828F7DB02ABA9
:100E7000224600976FF001000B99AFF30080002825
:100E80000CDA401C08D1BBF1000F05D04FF0FF3049
:100E90000DB0BDE8F08FFFE74046F9E7E90701D163
:100EA00008F1010806444FF0000B79E6CCCCCC0CDD
:100EB0007F2801D9002208E0064A02EB5002C00751
:100EC000127800D1120902F00F0201209040084070
:100ED000704700005C49000870B504460D46164690
:100EE000EE2001F027FCB12001F024FC232001F0CA
:100EF00021FC200A01F01EFCE0B201F01BFC280AD4
:100F000001F018FCE8B201F015FCF0B201F012FC9F
:100F1000FF2001F00FFCFC2001F00CFCFF2001F091
:100F200009FCFF2001F006FC70BD000010B504466E
:100F300044B101220221104601F01FFC01200849A2
:100F4000887007E000220221012001F016FC002039
:100F50000349887002488178024800F0B0F910BD5A
:100F60002801002000D800080C49497802290DD03A
:100F700003DC39B101290FD106E0032908D0642927
:100F80000AD107E00A2007E00B2005E00C2003E06F
:100F90000D2001E00E2000BF00BF7047600100205F
:100FA00000BFFEE730B505460848445C03780122DF
:100FB00004E00648805C4340501CC2B28A42F8DB21
:100FC0009C4201D1012030BD0020FCE7D20000206E
:100FD000014601F01F02022A01D1012070470020C2
:100FE000FCE7000010B52B480078401C2949087028
:100FF0000846007807284AD2DFE800F049040F1AB3
:1010000025303B0024A21B21002001F0A7FC22A2D6
:101010001E21022001F0A2FC39E020A21B210020A9
:1010200001F09CFC1DA21E21022001F097FC2EE085
:101030001BA21B21002001F091FC19A21E210220FD
:1010400001F08CFC23E017A21B21002001F086FC9C
:1010500014A21E21022001F081FC18E012A21B2123
:10106000002001F07BFC10A21E21022001F076FC82
:101070000DE00EA21B21002001F070FC0BA21E212E
:10108000022001F06BFC00200249087000BF00BF85
:1010900010BD00006E000020473535004735360092
:1010A0004735370047353800473539004735340074
:1010B00000B500200F490870082048700020887093
:1010C0000D480088000AC8700B48007808710B486A
:1010D000007848710A4800788871FFF745FF054994
:1010E000C871042008724878012101F061FC0149AF
:1010F000487200BDB400002014000020160000203B
:1011000060010020704710B5012000F015F810B103
:10111000012000F00BF810BD10B5022000F00CF813
:1011200010B1022000F002F810BD00000149086073
:101130007047000014040140014600200022074BC4
:101140001B6803EA0102054B14331B680B4013B103
:101150000AB1012000E000207047000000040140B7
:101160000149C860704700000020024070B5054684
:10117000042440F6FF7000F08DF80446042C19D1C9
:101180000D48006940F002000B49086108464561BE
:10119000006940F04000086140F6FF7000F07AF806
:1011A0000446052C06D00448006941F6FD7108404C
:1011B00001490861204670BD0020024004200B490F
:1011C000C96801F0010109B101200EE00749C968B1
:1011D00001F0040109B1022007E00449C96801F0E7
:1011E000100109B1032000E00420704700200240F4
:1011F0000348006940F08000014908617047000021
:10120000002002400549096821F01001034A1160DD
:101210001146096801431160704700000020024038
:1012200070B505460E4604240F2000F033F804463E
:10123000042C13D10A48006940F0010008490861F4
:101240002E800F2000F026F80446052C06D0044816
:10125000006941F6FE71084001490861204670BDF1
:101260000020024001460020034A106800F03800C8
:101270000843106070470000002002400248034904
:1012800048600348486070472301674500200240DA
:10129000AB89EFCD70B504460425FFF78FFF0546F7
:1012A00005E003F035FAFFF789FF0546641E012DBE
:1012B00001D1002CF5D104B90525284670BD70B5C3
:1012C00004460D460426FFF7D9FF3520FFF748FFF7
:1012D0002046FFF74BFF0646042E04D12946204640
:1012E000FFF79EFF0646FFF783FF70BD01460878B3
:1012F00070472DE9F041024600250026002000231A
:101300000024002791F803C00CF00F0591F803C0EA
:101310000CF0100CBCF1000F03D091F802C04CEAA5
:10132000050591F800C0BCF1000F31D01468002011
:101330002BE04FF0010C0CFA00F3B1F800C00CEAFE
:1013400003069E4220D183004FF00F0C0CFA03F7E6
:10135000BC4305FA03FC4CEA040491F803C0BCF159
:10136000280F06D14FF0010C0CFA00FCC2F814C093
:101370000AE091F803C0BCF1480F05D14FF0010C11
:101380000CFA00FCC2F810C0401C0828D1D314602D
:10139000B1F800C0BCF1FF0F34DD546800202EE02E
:1013A00000F1080C4FF0010808FA0CF3B1F800C086
:1013B0000CEA03069E4221D183004FF00F0C0CFA79
:1013C00003F7BC4305FA03FC4CEA040491F803C09C
:1013D000BCF1280F05D100F1080C08FA0CF8C2F88E
:1013E000148091F803C0BCF1480F07D100F1080C3C
:1013F0004FF0010808FA0CF8C2F81080401C0828C9
:10140000CED35460BDE8F0814161704701617047FF
:1014100010B5034801F015FF04B2204610BD0000CE
:101420000008004000BFFEE708B54FF4C06000F0C0
:1014300045F825208DF8000001208DF80100684650
:1014400000F004F808BD00BFFEE7704770B500214A
:1014500000230F22C47804B3154C246804F4E0641C
:10146000C4F5E064210AC1F10403CA40447804FAD7
:1014700003F184781440214309010E4C0678A155EC
:10148000047804F01F050124AC4005786D11AD000F
:1014900005F1E025C5F8004109E0047804F01F05D6
:1014A0000124AC40044D0678761145F8264070BD05
:1014B0000CED00E000E400E080E100E002490143BF
:1014C000024A1160704700000000FA050CED00E0D0
:1014D00038B50446002000906A4603A12046FEF776
:1014E00033FE009838BD00002566000010B52D4879
:1014F0000078401C2B4908700846007806284DD219
:10150000DFE800F04C03111F2D3B27A21D21002016
:1015100001F024FA24A22021022001F01FFA012068
:10152000224908703BE022A21D21002001F016FA9A
:101530001FA22021022001F011FA02201B4908708D
:101540002DE01CA21D21002001F008FA19A2202183
:10155000022001F003FA0520144908701FE016A2CA
:101560001D21002001F0FAF913A22021022001F030
:10157000F5F90A200D49087011E010A21D21002084
:1015800001F0ECF90DA22021022001F0E7F914206E
:101590000649087000200349087000E000BF00BF42
:1015A00010BD00006F000020583100001600002020
:1015B00058320000583500005831300058323000A1
:1015C000704700001CB50024112001F033F90A20F7
:1015D00003F0ACF8112001F02DF90A2003F0A6F871
:1015E00000BF09E022460321112001F0EFF8052099
:1015F00003F09CF8601CC4B2652CF3DB002001F002
:1016000019F90A2003F092F8222409E04BA221469E
:10161000002001F0A3F9052003F088F8601CC4B293
:10162000272CF3DB262409E044A22146022001F006
:1016300095F9052003F07AF8601CC4B22B2CF3DB7B
:10164000162409E000222146022001F096F8052028
:1016500003F06CF8601CC4B21B2CF3DB3AA21B2114
:10166000002001F07BF938A21E21022001F076F95A
:1016700036A21C21002001F071F934A21F210220A2
:1016800001F06CF932A21D21002001F067F930A2AF
:101690002021022001F062F944F620602D490880E3
:1016A000642048604FF47A7088606420C86044F613
:1016B000206008614FF47A708882084601214268F0
:1016C000002001F083F82348028823A1684602F035
:1016D00095FB6A461821002001F040F91D480221BF
:1016E000C268002001F072F81A481BA1C26868465F
:1016F00002F084FB6A462721002001F02FF91548EB
:1017000015A18268684602F079FB6A46192100201B
:1017100001F024F900220D21022001F02EF801220F
:101720000E21022001F029F801200C490870002048
:101730000B4908700B4948701CBD00003030303038
:1017400030302E303000000047353400B9D800006A
:101750005831000010010020256400001600002010
:101760000500002060010020F0B585B004460F465A
:101770006078FC490870A078FB490870E079FB4963
:1017800008702079E17840EA0120F9490880A079C1
:10179000617940EA0120F7490880207A0106607AE1
:1017A00041EA0041A07A41EA0020E17A0843F24987
:1017B0000860EE480078102802D1607AEF4908707E
:1017C000E8480078B1287AD1E9480088162877D20D
:1017D000DFE810F016005201BD024F0476003A0512
:1017E00065059A0576009E05A205A605C105C505F5
:1017F000C905CD05D105760076007600D505D90559
:101800000020DF490870DB4800880E287ED00BDC02
:10181000A0F103000B287AD2DFE800F01533538DD6
:101820007979797979C1C5002C2871D006DC0F2827
:101830006FD02A286ED02B2869D1D2E02D286AD00B
:101840002E28F9D103E1CD480078C8B10120CD4957
:101850008875084640680A3848600846406800288D
:1018600001DC00204860C7480088C64949684843F1
:10187000642190FBF1F0C34908610020BF49087062
:10188000F8E0BE480078C8B10120BE498875084616
:1018900040680A30486008464068642801DB6420DC
:1018A0004860B8480088B74949684843642190FBBC
:1018B000F1F0B44908610020B0490870DAE0FDE3B6
:1018C000FDE3AE48007838B30120AE49C87508463C
:1018D000C06864280ADC0846C0680A38C860084640
:1018E000C068002810DC0020C8600DE0A548C06872
:1018F000642809DDA348C068B0F5967F04DCA148E0
:10190000C06819389F49C8609E4806E04FE0B0E0C3
:1019100079E050E053E088E00CE080689949C968BC
:101920004843642190FBF1F000B296498882002080
:10193000924908709EE09148007878B3012091495F
:10194000C8750846C068642804DA0846C0680A30CA
:10195000C86015E08B48C068642811DB8948C068FE
:10196000B0F5967F0CDC8748C06819308549C8609F
:101970000846C068B0F5967F02DB4FF49670C860E9
:10198000804880687F49C9684843642190FBF1F032
:1019900000B27C4988820020784908706AE00520FE
:1019A0007749087066E00A207549087062E00120F6
:1019B000734908705EE00220714908705AE0012204
:1019C0002A21002000F0D9FE01221621022000F079
:1019D000D4FE01216C4801F097FB00206B49487050
:1019E00048E001222B21002000F0C7FE0122172130
:1019F000022000F0C2FE0121634801F085FB0120B6
:101A00006249487036E001222C21002000F0B5FE2A
:101A100001221821022000F0B0FE01215A4801F0F5
:101A200073FB02205949487024E001222D21002037
:101A300000F0A3FE01221921022000F09EFE0121E8
:101A4000514801F061FB03205049487012E0012227
:101A50002E21002000F091FE01221A21022000F028
:101A60008CFE0121484801F04FFB64204749487033
:101A700000E000BF00BFFBE201204149087044487C
:101A8000007800286BD13B4800881C2868D2DFE82A
:101A900000F0670E1924F6F52F44599CB1C6DBF708
:101AA000F3F2F167676767676767676767F03348EF
:101AB000007818B101203749487002E0002035490C
:101AC000487042E12D48007818B101203149C870B2
:101AD00002E000202F49C87037E12848007818B18B
:101AE00001202C49487102E000202A4948712CE16C
:101AF00004F10800FFF7ECFC2649C860C868FEF74F
:101B00000DFE05462A460B4623A1684602F076F9EB
:101B10006946244801F0D7FE17E104F10800FFF7F9
:101B2000D7FC1C4908610869FEF7F8FD05462A46FE
:101B30000B461DA1684602F061F96946194801F09B
:101B4000C2FE02E104F10800FFF7C2FC114948613E
:101B50004869FEF7E3FD05462A460B462CE0F5E012
:101B6000F2E000000600002007000020090000202D
:101B70000A0000200C0000201000002008000020B7
:101B80000500002010010020000800406001002036
:101B90003400002028010020536166655F5A3A2511
:101BA0002E326600004400404B6E6966655F6869CE
:101BB00067683A252E326600F4A1684602F01EF9E5
:101BC0006946F84801F07FFEBFE004F10800FFF726
:101BD0007FFCF54988618869FEF7A0FD05462A4625
:101BE0000B46F2A1684602F009F96946ED4801F09A
:101BF0006AFEAAE004F10800FFF76AFCEA49C8613E
:101C0000C869FEF78BFD05462A460B46ECA16846DF
:101C100002F0F4F86946E34801F055FE95E004F15E
:101C20000800FFF755FCE0490862086AFEF776FDF8
:101C300005462A460B46E7A1684602F0DFF86946EA
:101C4000D84801F040FE80E004F10800FFF740FCB6
:101C5000D5494862486AFEF761FD05462A460B46AB
:101C6000E1A1684602F0CAF86946CE4801F02BFEB1
:101C70006BE059E043E02DE017E001E060E05EE05A
:101C800004F10800FFF724FCC7498862886AFEF760
:101C900045FD05462A460B46D8A1684602F0AEF837
:101CA0006946C04801F00FFE4FE004F10800FFF75D
:101CB0000FFCBD49C862C86AFEF730FD05462A46DA
:101CC0000B46D3A1684602F099F86946B54801F081
:101CD000FAFD3AE004F10800FFF7FAFBB2490863A5
:101CE000086BFEF71BFD05462A460B46CDA168464C
:101CF00002F084F86946AB4801F0E5FD25E004F107
:101D00000800FFF7E5FBA8494863486BFEF706FDAE
:101D100005462A460B46C8A1684602F06FF8694698
:101D2000A04801F0D0FD10E0C848007818B10120AB
:101D30009D49C87102E000209B49C87105E004E09C
:101D400001209949487200E000BF00BF38E302203B
:101D5000BF490870BF4800881B2874D2DFE800F034
:101D6000730E192737454D58657475808E9CAEC02B
:101D7000CE7373737373D2DFECFBF900B64800784F
:101D8000012805D0B148007810B10420B34908708B
:101D90006DE1B1480078012808D0AC48007810B156
:101DA0000A20AE4908700020A84908705FE1AA48DF
:101DB000007801280AD0A548007820B10120A74961
:101DC0000871FFF793FB0020A04908704FE1A2487B
:101DD0000078012808D09D48007810B108209F495C
:101DE000087000209949087041E19B48007801285B
:101DF00002D001209949887139E19748007801287B
:101E000005D00320924908700120954908702EE101
:101E100091480078012807D08C48007820B1FFF75E
:101E2000E1F800208949087021E18B4800780128F9
:101E300008D08648007810B1122088490870002028
:101E40008249087013E111E111E18348007801280B
:101E500005D001208349087004207D49087006E1FF
:101E60007D480078012808D07848007810B1092012
:101E70007A490870002075490870F8E076480078C3
:101E8000012808D07148007810B106207349087005
:101E900000206E490870EAE001206F4908700021B7
:101EA000714801F031F900220E21022000F065FC9A
:101EB00001220D21022000F060FCD8E000206649DC
:101EC000087000220D21022000F057FC01220E2193
:101ED000022000F052FC0121634801F015F9C6E030
:101EE00000205D49087000220D21022000F045FC11
:101EF00001220E21022000F040FCB8E000205449ED
:101F00000870B4E001221621022000F036FC012105
:101F1000554801F0F9F8002050494870A7E0012227
:101F20001721022000F029FC01214F4801F0ECF8B4
:101F300001204A4948709AE001221821022000F04D
:101F40001CFC0121484801F0DFF802204349487099
:101F50008DE00DE0FFE701221921022000F00DFCC9
:101F60000121414801F0D0F803203C4948707EE04F
:101F700001221A21022000F000FC01213A4801F060
:101F8000C3F864203549487071E000004B6E696603
:101F9000655F626C6F636B5F686967683A252E32B4
:101FA0006600000000440040280100204B6E696676
:101FB000655F626C6F636B5F583A252E3266000076
:101FC0004B6E6966655F626C6F636B5F593A252E75
:101FD000326600004B6E6966655F626C6F636B5FB3
:101FE0005A3A252E32660000536F66745F6C696D35
:101FF00069745F583A252E3266000000536F66748C
:102000005F6C696D69745F593A252E326600000075
:10201000536F66745F6C696D69745F5A3A252E322E
:1020200066000000536F66745F6C696D69745F4190
:102030003A252E3266000000536F66745F6C696D3E
:1020400069745F423A252E326600000008000020C5
:10205000050000200C00002034000020600100205A
:10206000180000203C0000200008004000BF00BF16
:10207000A6E10320D4490870D4480078002873D121
:10208000D34800880E2870D2DFE800F0DB073A4C16
:102090005B6775818D99A6B3C0CDCE48007830B30B
:1020A0000120CD49087001220421032000F065FBC6
:1020B00001220521032000F060FB01E081E17EE1C7
:1020C00001220621032000F058FB012207210320F2
:1020D00000F053FB01220821032000F04EFB0120F9
:1020E000BD4948708870C8700871487107E00020C9
:1020F000B949087048708870C87008714871A1E0CB
:102100000121B64801F000F8B248007818B101206A
:10211000B149C87105E00020AF49C8710220AA4941
:1021200008708FE00121AD4800F0EEFFA94800786B
:1021300018B10120A849887102E00220A249087064
:1021400080E0A448007818B10120A349487003E05A
:102150000020A1494870087074E09E48007828B1BA
:1021600001209D49887005E06DE06AE000209A49F1
:102170008870087066E09748007818B10120964989
:10218000C87003E000209449C87008705AE0914874
:10219000007818B101209049087103E000208E49B1
:1021A000087108704EE08B48007818B101208A4908
:1021B000487103E0002088494871087042E004F14A
:1021C0000800FFF785F984498860012008770846F0
:1021D00080688349086135E004F10800FFF778F969
:1021E0007D49C860012048770846C0687C4948613D
:1021F00028E004F10800FFF76BF977490861012036
:10220000887708460069764988611BE004F1080078
:10221000FFF75EF9704948610120C87708464069B8
:102220006F49C8610EE004F10800FFF751F96A49EF
:102230008861012081F820000846806968490862A9
:1022400000E000BF00BFBBE061480088012804D067
:1022500002280FD0032820D115E0012061494870E1
:1022600000208870084640685F490860022056498F
:10227000087012E001205B4988700020487002203D
:102280005149087009E004F10800FFF721F90546FB
:10229000FEF72BFA5349486000BF00BF90E00520CD
:1022A000494908704A48008804281AD006DC0128E9
:1022B0000BD002280DD0032823D10EE0052814D01E
:1022C000122816D013281CD117E006203E490870AA
:1022D00018E007203C49087014E008203A490870CB
:1022E00010E00920384908700CE0002036490870D9
:1022F00008E000203449087004E00A2032490870E0
:1023000000E000BF00BF5BE006202F49087057E0E7
:1023100008202D49087053E009202B4908704FE030
:102320000A20294908702A480088012804D0022878
:1023300006D003280CD107E000202349087008E0EC
:1023400005202149087004E00B201F49087000E0B7
:1023500000BF00BF34E00B201B49087030E00C20A8
:10236000194908702CE00D201749087028E00E204C
:102370001549087024E00F201349087020E0072059
:10238000114908701CE010200F4908700F480078B0
:10239000A0B90F480088012802D002280CD105E01E
:1023A0000120124988720020C87206E000200F49FF
:1023B00088720120C87200BF00BF00BF00E000BFEC
:1023C00000BF05B0F0BD0000050000203400002073
:1023D0000C00002008000020AC0100200008004094
:1023E000600100203C0000201C000020280100208B
:1023F00000200249088002490880704724080040F4
:102400001400002029B1064AD2690243044BDA6164
:1024100004E0034AD2698243014BDA61704700004D
:102420000010024029B1064A12690243044B1A61A6
:1024300004E0034A12698243014B1A6170470000AD
:102440000010024029B1064A92690243044B9A6186
:1024500004E0034A92698243014B9A61704700008D
:102460000010024029B1064AD2680243044BDA60E8
:1024700004E0034AD2688243014BDA6070470000EF
:10248000001002400F48006840F001000D4908604C
:10249000084640680C4908400A49486008460068F8
:1024A0000A490840074908600846006820F480206F
:1024B00008600846406820F4FE0048604FF41F00A2
:1024C00088607047001002400000FFF8FFFFF6FE32
:1024D00030B500210022002400232D4D6D6805F049
:1024E0000C0121B1042905D0082923D105E0294D8B
:1024F000056022E0274D05601FE0254D6D6805F45D
:102500007012234D6D6805F48034022505EB92426C
:102510001CB9214D554305600BE01D4D6D6805F458
:1025200000351DB11C4D5543056002E0194D554362
:10253000056002E0174D056000BF00BF144D6D68D7
:1025400005F0F0010909154D6B5C0568DD4045603B
:102550000F4D6D6805F4E061090A104D6B5C45682C
:10256000DD4085600A4D6D6805F46051C90A0B4D68
:102570006B5C4568DD40C560054D6D6805F4404104
:10258000890B074D6B5CC568B5FBF3F5056130BD84
:102590000010024000127A0000093D0044000020B3
:1025A0005400002010B501460022002300204A11EB
:1025B000012A02D1094C236806E0022A02D1074C05
:1025C000236A01E0054C636A01F01F020124944074
:1025D0001C400CB1012000E0002010BD00100240A2
:1025E0000248406800F00C007047000000100240F4
:1025F00001460020034A506820F0F0000843506074
:102600007047000000100240014908607047000058
:102610000000424201460020034A506820F4E06076
:10262000084350607047000000100240014600203F
:10263000034A506820F4605040EAC100506070477F
:102640000010024001490866704700000000424245
:1026500002460020044B586820F47C1042EA010333
:102660001843014B5860704700100240014600209B
:10267000034A506820F00300084350607047000090
:102680000010024010B5044624B102210448FEF7B0
:10269000BDFE03E002210248FEF7B6FE10BD0000B9
:1026A0000008014010B50849887900F065FA06492C
:1026B000087800F00DF804498878FEF737FC0249E5
:1026C000087900F08DFF10BD280100207047000040
:1026D00010B5044644B101221146104600F04DF8F1
:1026E00001200849087007E000220121084600F097
:1026F00044F8002003490870024801780248FEF7B8
:10270000DEFD10BD2801002000D4000810B50849E6
:10271000C87900F031FA06494878FFF7D9FF044933
:10272000C878FEF703FC0249487900F059FF10BD54
:102730002801002010B504462146094800F04BFF4F
:1027400000BF8021064800F095FE0028F9D000BFA8
:102750004021034800F08EFE0028F9D010BD000093
:102760000038014010B5044603E02078FFF7E2FF8F
:10277000641C20780028F8D110BD70B504460D46C1
:102780001646EE20FFF7D6FFB120FFF7D3FF10204B
:10279000FFF7D0FF200AFFF7CDFFE0B2FFF7CAFF37
:1027A000280AFFF7C7FFE8B2FFF7C4FFF0B2FFF750
:1027B000C1FFFF20FFF7BEFFFC20FFF7BBFFFF209C
:1027C000FFF7B8FFFF20FFF7B5FF70BD70B50546F6
:1027D0000E461446EE20FFF7ADFFB120FFF7AAFF2B
:1027E0001020FFF7A7FF280AFFF7A4FFE8B2FFF7C2
:1027F000A1FF300AFFF79EFFF0B2FFF79BFF200E0C
:10280000FFF798FFC4F30740FFF794FFC4F30720D6
:10281000FFF790FFE0B2FFF78DFFFF20FFF78AFF81
:10282000FC20FFF787FFFF20FFF784FFFF20FFF763
:1028300081FF70BD10B50446EE20FFF77BFFB1208D
:10284000FFF778FF0020FFF775FF200AFFF772FF00
:10285000E0B2FFF76FFFFF20FFF76CFFFC20FFF7F0
:1028600069FFFF20FFF766FFFF20FFF763FF10BD42
:1028700010B500F001F810BD0CB5002001900090DB
:102880003448006840F480303249086000BF314865
:10289000006800F4003000900198401C01900098FE
:1028A00018B90198B0F5A06FF1D12A48006800F47A
:1028B000003010B10120009001E00020009000984D
:1028C000012844D12448006840F0100022490860E3
:1028D0000846006820F0030008600846006840F0E1
:1028E000020008601B4840681A4948600846406872
:1028F00048600846406840F4806048600846406888
:1029000020F47C1048600846406840F4E8104860B5
:102910000846006840F08070086000BF0D480068FD
:1029200000F000700028F9D00A48406820F0030049
:10293000084948600846406840F00200486000BF0F
:102940000448406800F00C000828F9D101E000BFFD
:10295000FEE70CBD001002400020024070B50446A6
:102960000D461646EE20FFF7E5FEB120FFF7E2FE2A
:102970001020FFF7DFFE200AFFF7DCFEE0B2FFF7D2
:10298000D9FE280AFFF7D6FEE8B2FFF7D3FE30469D
:10299000FFF7E8FEFF20FFF7CDFEFC20FFF7CAFEA1
:1029A000FF20FFF7C7FEFF20FFF7C4FE70BD000049
:1029B00010B50346064C605C4C1CE2B204E0044CCB
:1029C000A45C6040541CE2B29A42F8DD10BD0000E5
:1029D000B400002010B5FFF755FD0120FFF714FEED
:1029E00000BF2120FFF7DEFD0028FAD01020FEF7FF
:1029F00009FC0220FEF736FC0020FFF7F9FD00205D
:102A0000FFF714FE4FF48060FFF704FE4FF420112F
:102A10000020FFF71DFE0120FFF714FE00BF392044
:102A2000FFF7C0FD0028FAD00220FFF71FFE00BF0D
:102A3000FFF7D6FD0828FBD110BD000010B51048E7
:102A4000FEF754FC0F49887108468079C8710E481A
:102A5000FEF74CFC0B4908700846007848700B489C
:102A6000FEF744FC0749887008468078C87008481B
:102A7000FEF73CFC0349087108460079487110BD17
:102A800000D000082801002000D4000800D8000869
:102A900000DC000830B585B028490869FDF73EFE26
:102AA000044622460B4626A1684601F0A7F96A466D
:102AB00009210320FFF752FF20494869FDF72EFE48
:102AC000044622460B461EA1684601F097F96A4665
:102AD0000A210320FFF742FF18498869FDF71EFE0F
:102AE000044622460B4616A1684601F087F96A465D
:102AF0000B210320FFF732FF1049C869FDF70EFED6
:102B0000044622460B460EA1684601F077F96A4654
:102B10000C210320FFF722FF0849086AFDF7FEFD9C
:102B2000044622460B4606A1684601F067F96A464C
:102B30000D210320FFF712FF05B030BD600100201A
:102B40002530392E3266000010B50446EE20FFF71E
:102B5000F1FD9320FFF7EEFDE0B2FFF7EBFDFF2064
:102B6000FFF7E8FDFC20FFF7E5FDFF20FFF7E2FDA2
:102B7000FF20FFF7DFFD10BD10B50446012C0BD17F
:102B80000020FFF7E1FF01221B211046FFF7F5FDB2
:102B900001200A4988710AE06420FFF7D5FF00226E
:102BA0001B210120FFF7E9FD00200449887103483B
:102BB00081790348FEF783FB10BD00002801002047
:102BC00000D000080EB51E48807D012813D10020DA
:102BD0001B49887508461BA10269684601F00EF979
:102BE0006A4618210020FFF7B9FE15480121426806
:102BF0000020FFF7EBFD1248C07D01281FD1002007
:102C00000F49C8750846B0F914200EA1684601F0B6
:102C1000F5F86A4619210020FFF7A0FE08480221B6
:102C2000C2680020FFF7D2FD054806A1C2686846C9
:102C300001F0E4F86A4627210020FFF78FFE0EBD61
:102C40001001002025640000042808D14FF0E02185
:102C5000096941F004014FF0E022116107E04FF0F3
:102C6000E021096921F004014FF0E0221161704771
:102C700002480068401C01490860704700000020BD
:102C800010B51148006840F001000F49086008467F
:102C900040680E4908400C494860084600680C49E5
:102CA0000840094908600846006820F48020086050
:102CB0000846406820F4FE0048604FF41F0088601A
:102CC000FFF7D6FD10BD0000001002400000FFF825
:102CD000FFFFF6FE30B585B069490869FDF71EFDB6
:102CE000044622460B4667A1684601F087F86A460B
:102CF00011210220FFF732FE6A4610210020FFF763
:102D00002DFE5F494869FDF709FD044622460B4642
:102D10005CA1684601F072F86A4612210220FFF7B2
:102D20001DFE6A4611210020FFF718FE54498869EC
:102D3000FDF7F4FC044622460B4652A1684601F01A
:102D40005DF86A4613210220FFF708FE6A46122149
:102D50000020FFF703FE4A49C869FDF7DFFC04467F
:102D600022460B4647A1684601F048F86A461421FE
:102D70000220FFF7F3FD6A4613210020FFF7EEFD66
:102D80003F49086AFDF7CAFC044622460B463DA1AE
:102D9000684601F033F86A4615210220FFF7DEFD90
:102DA0006A4614210020FFF7D9FD3549486AFDF72E
:102DB000B5FC044622460B4632A1684601F01EF8D7
:102DC0006A4626210220FFF7C9FD6A46222100201B
:102DD000FFF7C4FD2A49886AFDF7A0FC0446224695
:102DE0000B4628A1684601F009F86A46272102200F
:102DF000FFF7B4FD6A4623210020FFF7AFFD20490D
:102E0000C86AFDF78BFC044622460B461DA16846A6
:102E100000F0F4FF6A4628210220FFF79FFD6A4672
:102E200024210020FFF79AFD1549086BFDF776FC79
:102E3000044622460B4613A1684600F0DFFF6A46AF
:102E400029210220FFF78AFD6A4625210020FFF78D
:102E500085FD0B49486BFDF761FC044622460B4695
:102E600008A1684600F0CAFF6A462A210220FFF73F
:102E700075FD6A4626210020FFF770FD05B030BDC4
:102E8000600100202530392E32660000F0B50C4676
:102E9000154600210022068C4FF6FE773E40068440
:102EA000018B028C4FF60C7631407E1C06EA03162D
:102EB0002E4331437E1E324044F0010632430183EB
:102EC0000284F0BDF0B50C46154600210022002614
:102ED000078C4FF6EF7C07EA0C070784018B028C06
:102EE0004FF6FF7707EA041640F6FF4739404FF6E2
:102EF000FF7707EA033739434FF6FF7707EA0527DD
:102F000039434FF6DF773A4046F010073A430183E2
:102F10000284F0BDF0B50C461546002100220026C3
:102F2000078C4FF6FF6C07EA0C070784818B028C35
:102F30004FF6FF7707EA04264FF60C7739404FF635
:102F4000FF7707EA03172F4339434FF6FF573A40FD
:102F500046F480773A4381830284F0BDF0B50C4695
:102F60001546002100220026078C4EF6FF7C07EA5A
:102F70000C070784818B028C4FF6FF7707EA043633
:102F800040F6FF4739404FF6FF7707EA05273943F8
:102F90004FF6FF7707EA033739434DF6FF773A409C
:102FA00046F480573A4381830284F0BD10B5012175
:102FB000880700F049F930B10121880700F0A1F835
:102FC00001200149087010BD1700002010B5012133
:102FD0000F4800F039F9D0B10E480078401C0D4977
:102FE000087001210A4800F08CF80A48007818B1EE
:102FF00009A10E4800F067FC06480078022806D1B7
:103000000BA10A4800F05FFC00200249087010BDC7
:1030100000040040700000207B22706F73223A6E23
:10302000756C6C7D5C725C6E0000000000440040BA
:103030007B226D706F223A6E756C6C7D5C725C6E7B
:1030400000000000044800880348008820F00100C8
:1030500001490880704700001008004000B587B0A3
:1030600001210420FFF7CEF901210820FFF7EAF93A
:10307000C020ADF8180004208DF81B0003208DF847
:103080001A0006A91B48FEF734F91B4800F048F85F
:1030900003A800F075F90020ADF80C004FF6FF70A2
:1030A000ADF810000020ADF81200ADF80E0003A935
:1030B000114800F047F900231A4603210E4800F09A
:1030C0009FF8684600F008F90620ADF80800694648
:1030D000094800F0CAF80121074800F00FF8002065
:1030E0000549243108800121034800F00DF807B09C
:1030F00000BD0000000C014000080040CA430282ED
:103100007047CA430282704721B1028842F001022F
:10311000028004E0028840F2FE331A4002807047C9
:1031200010B504462F48844208D10121C014FFF78E
:1031300099F90021E014FFF795F952E0B4F1804FBE
:1031400008D101210846FFF76DF900210120FFF7A2
:1031500069F946E02448844208D101210220FFF7A2
:1031600061F900210220FFF75DF93AE01F4884422F
:1031700008D101210420FFF755F900210420FFF7B1
:1031800051F92EE01A48844208D101210820FFF7A6
:1031900049F900210820FFF745F922E0154884424B
:1031A00008D101211020FFF73DF900211020FFF781
:1031B00039F916E01048844208D101212020FFF798
:1031C00031F900212020FFF72DF90AE00B48844255
:1031D00007D101214014FFF745F900216014FFF7E2
:1031E00041F910BD002C01400004004000080040DF
:1031F000000C00400010004000140040003401406A
:10320000F0B50C4615461E46002100220023018918
:10321000028B038C4FF6F877394021434FF6FC4779
:103220003A4040F201173A434FF6DD773B404FF604
:10323000FF7707EA06172F433B430181028303848C
:10324000F0BD0146888C704730B50246002000234F
:103250000024158A05EA0103958905EA010413B1E2
:103260000CB1012000E0002030BD70B505460C46D1
:10327000208850B92389A28861882846FFF706FE76
:10328000E188284600F031F825E0208804280AD19A
:103290002389A28861882846FFF714FEE188284622
:1032A00000F02CF817E0208808280AD12389A2888A
:1032B00061882846FFF72EFEE188284600F02BF8AB
:1032C00009E02389A28861882846FFF747FEE18844
:1032D000284600F029F870BD0021018041800121BD
:1032E00081800021C18001817047028B4FF6F3730A
:1032F0001A400283028B0A4302837047028B4FF20B
:10330000FF331A400283028B4FF6FF7303EA012357
:103310001A4302837047828B4FF6F3731A408283FD
:10332000828B0A4382837047828B4FF2FF331A40AD
:103330008283828B4FF6FF7303EA01231A43828351
:1033400070470000028802F08F020280CA884B8812
:103350001A4303881A4302808A8882850A88028574
:10336000054A904202D0054A904201D10A7A02866B
:103370000122828270470000002C0140003401408D
:103380004FF6FF71818000210180C1804180017270
:103390007047000010B540F22551064800F077F85C
:1033A00038B1044800F012F9C4B2204601F06CFABA
:1033B00000BF10BD0038014000B500F0E7F900BDC6
:1033C00021B1828942F40052828104E082894DF663
:1033D000FF731A408281704710B50446204884422A
:1033E00009D101218803FFF73DF800214FF4804007
:1033F000FFF738F832E01B48844209D10121480424
:10340000FFF710F800214FF40030FFF70BF825E02C
:103410001548844209D101218804FFF703F80021EF
:103420004FF48020FEF7FEFF18E01048844209D1D7
:103430000121C804FEF7F6FF00214FF40020FEF73B
:10344000F1FF0BE00A48844208D101210805FEF78C
:10345000E9FF00214FF48010FEF7E4FF10BD0000EB
:10346000003801400044004000480040004C00404B
:103470000050004002460020B1F5007F00D100BF9F
:1034800013880B400BB1012000E00020704770B59D
:103490000246002400230025002040F66A16B142AF
:1034A00000D100BFC1F3421501F01F03012606FA47
:1034B00003F3012D02D19689334006E0022D02D19B
:1034C000168A334001E0968A33400C12012606FA30
:1034D00004F41688344013B10CB1012000E0002040
:1034E00070BDF0B50346002400260025002040F6FC
:1034F0006A17B94200D100BF1846C1F3421401F067
:103500001F06012707FA06F5012C01D10C3004E053
:10351000022C01D1103000E014301AB107682F439B
:10352000076002E00768AF430760F0BD2DE9F04790
:1035300086B005460E460024A24600BF00BF002705
:10354000B08900B100BF2F462C8A4CF6FF700440B2
:10355000F08804432C82AC894EF6F3100440B08806
:1035600031890843718908430443AC81AC8A4FF622
:10357000FF400440B0890443AC8201A8FEF7A8FFD5
:103580001148874202D1DDF810A001E0DDF80CA05F
:103590000AEBCA0000EB0A1031688900B0FBF1F8B1
:1035A0006420B8FBF0F004012009642101FB1089BC
:1035B000322000EB0910B0FBF1F000F00F000443E3
:1035C0002C8106B0BDE8F0870038014001468888AC
:1035D000C0F308007047C1F3080282807047000002
:1035E00010B5044644B1012203211046FFF7C5F887
:1035F00001200849087107E0002203210120FFF79C
:10360000BCF8002003490871024801790248FDF71F
:1036100056FE10BD2801002000DC000800BFFEE7B8
:1036200010B586B0044601210520FEF70BFF0121ED
:103630008803FEF707FF4FF40070ADF81400182060
:103640008DF8170003208DF8160005A91848FDF71E
:1036500050FE4FF48060ADF8140003208DF8160082
:1036600004208DF8170005A91148FDF742FE114806
:10367000FFF7B2FE01940020ADF80800ADF80A0093
:10368000ADF80C00ADF810000C20ADF80E0001A94B
:103690000848FFF74BFF012240F225510548FFF78C
:1036A00020FF01210348FFF78BFE06B010BD00008C
:1036B000000801400038014010B586B004460121E1
:1036C0000520FEF7BFFE01212D48FEF79BFE0420DA
:1036D000ADF8140003208DF8160018208DF817009F
:1036E00005A92848FDF705FE0820ADF814000320C1
:1036F0008DF8160004208DF8170005A92148FDF764
:10370000F8FD0220ADF8140003208DF816001020FB
:103710008DF8170005A91B48FDF7EBFD26208DF855
:10372000000001208DF8010000208DF8020001202A
:103730008DF803006846FDF789FE01944FF4805030
:10374000ADF808000020ADF80A00ADF80C00ADF8A7
:1037500010000C20ADF80E0001A90B48FFF7E6FEA3
:10376000012240F225510848FFF7BBFE012106481F
:10377000FFF726FE0020FEF785FF06B010BD000013
:1037800001000200000801400044004030B5274815
:10379000008805B22548001F008820F0200023493A
:1037A000091F0880ECB205F4807058B12046FDF77F
:1037B0000FFC002838D000201D49087001201D4949
:1037C000087031E01B48007801282DD11848007896
:1037D0001E2803DB00201749087030BD1648144925
:1037E0000978445412480078401C11490870124866
:1037F00000781E2802DD00200E4908700E4800786F
:103800000B49097888420FDA00200A4908700A4AF1
:103810001178074A1278521E074B985CFDF7C2FBDD
:1038200010B101200549087000BFD6E704440040EC
:103830005A00002058000020D20000205D00002027
:1038400070B50546FDF734FC0120FEF71BFF012093
:1038500000F06CFF00241DE074B91148007840F4BA
:1038600080701049088000BF0E48001F008800F0DB
:1038700040000028F8D00BE00948005D09490880A5
:1038800000BF0848001F008800F040000028F8D062
:10389000601CC4B2AC42DFDB0020FEF7F3FE70BD5B
:1038A000B40000200444004070B504460D4629468B
:1038B0002046FFF790FE00BF80212046FFF7DAFD8B
:1038C0000028F9D070BD70B505460C4604E021789B
:1038D0002846FFF7E9FF641C20780028F7D100BFD5
:1038E00040212846FFF7C6FD0028F9D070BD000032
:1038F00010B5F9480078012802D100F02BFA01E058
:1039000000F052FAF5480078112870D2DFE800F094
:10391000091E3DA2FDFCFBFAF9F8F7F6F5F4F3F207
:103920002900FFF7D7F9FFF74DF9ED4A15210020DF
:10393000FFF714F8EB48ECA10268EC4800F05EFADF
:10394000EA4A16210020FFF709F8FDE1E848407A2D
:1039500030B1FEF7A7FE0020E5494872DF49087044
:10396000F2E1DD48007878B9E148807A20B1FEF7CD
:10397000CDFE0020D9490870DD48C07A20B1FEF79D
:1039800091FE0020D5490870DEE1FDF741FDD949DF
:103990000880D948407802282AD003DC38B10128B1
:1039A00044D114E003282DD064283FD134E0D2481C
:1039B000807828B9D048807910B10020CE4988712C
:1039C000CE48007810B10020CC4908702EE0CA48DB
:1039D000807828B9C848807910B10020C64988711C
:1039E000C648007810B10020C44908701EE0AAE162
:1039F000C148807828B9C048807910B10020BE49FC
:103A0000887113E0BC48807828B9BB48807910B130
:103A10000020B949887109E0B748807828B9B648CC
:103A2000807910B10020B449887100BF00BFFFF752
:103A300051F9AB4A1B210220FEF790FFA948AAA129
:103A40000268AA4800F0DAF9A84A1C210220FEF711
:103A500085FF79E10021AA48FFF756FBA9480078C5
:103A6000C0B3002201210320FEF787FE00220421BB
:103A70000320FEF782FE002205210320FEF77DFED3
:103A8000002206210320FEF778FE002207210320F2
:103A9000FEF773FE002208210320FEF76EFE0020D1
:103AA0009949087048708870C870087148719248C8
:103AB00000699149886308464069C863084680697F
:103AC00008640846C06948640846006A88640020A3
:103AD0008C4908708C484078F0B98B488078D8B908
:103AE0008948C078C0B988480079A8B98648407923
:103AF00090B90BE025E123E121E11FE11DE1E4E0C4
:103B0000E2E0E0E01EE1DDE0DBE0C3E000220121D5
:103B10000320FEF732FE04E0012211460320FEF7E7
:103B20002CFE79488079002879D07748407830B9E0
:103B3000FEF75EFC002070490861886311E072485E
:103B4000007F60B1FEF754FC6F4880686A490861E5
:103B50006D488068886300206B49087701E0FEF7B4
:103B600047FC6948807830B9FEF742FC0020624982
:103B70004861C86311E06448407F60B1FEF738FCDB
:103B80006148C0685C4948615F48C068C8630020FC
:103B90005D49487701E0FEF72BFC5B48C07830B9FF
:103BA000FEF726FC002054498861086411E056485D
:103BB000807F60B1FEF71CFC534800694E49886164
:103BC00051480069086400204F49887701E0FEF7FA
:103BD0000FFC4D48007930B9FEF70AFC0020464939
:103BE000C861486411E04848C07F60B1FEF700FC3E
:103BF000454840694049C8614348406948640020DD
:103C00004149C87701E0FEF7F3FB3F48407938B9F6
:103C1000FEF7EEFB002038490862886414E019E0E2
:103C2000394890F8200068B1FEF7E2FB3648806919
:103C3000314908623448806988640020324981F83B
:103C4000200001E0FEF7D4FB00202F4988710220FC
:103C5000224908702C48C079C8B12748806B264992
:103C600008610846C06B48610846006C88610846D8
:103C7000406CC8610846806C0862FEF7B9FB002002
:103C800021498860C860086148618861C871FEF791
:103C900001FF59E01D48007890B1124812A1026856
:103CA000124800F0ABF8114A04210520FEF756FE39
:103CB0000E4A03210520FEF751FE0020134908702B
:103CC00042E041E040E03FE03EE01148007810284B
:103CD00020D011282ED11EE0340000200500002045
:103CE000200000201C0000202564000004010020AA
:103CF000280100201400002060010020390000206D
:103D00000008004018000020AC0100203C0000200A
:103D1000090000200FE00D480088072802D008287D
:103D200007D105E00A4A08210B20FEF717FE00BF65
:103D300000BF00E000BF00BF06E005E004E003E0D4
:103D400002E001E000E000BF00BF10BD0C00002059
:103D5000F000002010B501220B210020FDF7BCF877
:103D600001221C211046FDF7B7F801222B21022069
:103D7000FDF7B2F8012221210620FDF7ADF801225E
:103D800005210A20FDF7A8F801220D210B20FDF7DF
:103D9000A3F8012209210D20FDF79EF801220C2134
:103DA0000E20FDF799F810BD10B500220B2110462A
:103DB000FDF792F800221C210120FDF78DF800226A
:103DC0002B210220FDF788F8002221210620FDF793
:103DD00083F8002205210A20FDF77EF800220D213C
:103DE0000B20FDF779F8002209210D20FDF774F86A
:103DF00000220C210E20FDF76FF810BD0FB4084B08
:103E000010B504A902AA039800F0E6F8044602A936
:103E1000002000F078FC204610BC5DF814FB000088
:103E20000747000802E008C8121F08C1002AFAD19B
:103E300070477047002001E001C1121F002AFBD12A
:103E4000704700002DE9FF5F82B00021DDE90430FA
:103E5000020DDDF840B0034318D044F61050A2F232
:103E6000FF3242431514119801281FD0A5EB0B0017
:103E7000401C5FEA000A4FF000064E4FDFF8389111
:103E8000B046504615D5CAF1000413E0119801243C
:103E90004AA3012801D16FEA0B010298119AC0E9E7
:103EA0000031C0E9024206B0BDE8F09FCBF100004E
:103EB000DFE704460021404A491842EB0450CDE9AF
:103EC000001012E0E00707D032463B464046494624
:103ED000FCF799FB8046894632463B461046194618
:103EE000FCF791FB06460F466410002CEAD1DDE991
:103EF0000401DDE90023BAF1000F06DAFCF783FBC9
:103F000042464B46FCF77FFB05E0FCF78FFD42463F
:103F10004B46FCF78BFD04460E460022284BFCF76F
:103F200011FC03D84FF0FF30014607E00022254B7B
:103F300020463146FCF7C0FAFCF7F3FD102409E0F7
:103F4000002C0ADB0A220023FCF746FC039B3032DC
:103F50001A55641E50EA0102F2D1641C039AC4F19E
:103F600011031444119A012A03D0012208430DD1F0
:103F70000AE0084304D000204FF0110B119072E7C3
:103F8000A3EB0B056D1E0DE05B4504DD4FF0000259
:103F900005F1010504E003DA4FF00002A5F1010587
:103FA000002AECD002981199C0E90231C0E900451D
:103FB00079E70000000014400000F03F30000000EE
:103FC0000000F0430000E03F30380A2801D2012011
:103FD00070470020704700002DE9FF4F95B09B46C9
:103FE0008946064600250FE2252877D1002427467A
:103FF000F84A0121059400E0044316F8013F203BF4
:1040000001FA03F01042F7D130782A2811D06FF06E
:104010002F033078A0F13002092A16D8059A44F00F
:10402000020402EB820203EB42021044761C05906C
:10403000EFE759F8042B0592002A03DA504244F4C2
:104040000054059044F00204761C30782E2816D1D6
:1040500016F8010F44F004042A280DD06FF02F0247
:104060003078A0F13003092B09D807EB870302EB66
:104070004303C718761CF3E759F8047B761C3078A5
:104080006C280FD006DC4C2817D068280DD06A2881
:1040900014D104E0742810D07A280FD10DE044F434
:1040A00000140AE044F4801401E044F440147278EF
:1040B000824202D104F58014761C761C3078662882
:1040C0000BD013DC582877D009DC002875D04528A0
:1040D000F6D04628F4D047281AD19DE118E063288D
:1040E00035D0642879D0652812D195E1702873D035
:1040F00008DC6728F1D069286FD06E280DD06F28B2
:1041000006D1B5E073282CD0752875D0782874D0E6
:104110005A46179990476D1C75E1C4F30250022866
:1041200009D003280DD0D9F8001004280DD00D6057
:1041300009F1040967E1D9F80010EA17C1E9005252
:10414000F6E7D9F800100D80F2E70D70F0E719F8E6
:10415000041B8DF8001000208DF80100EA460120B4
:1041600003E059F804AB4FF0FF3061074FF0000156
:1041700002D40DE008F101018846B9420FDA80450A
:10418000F8DB1AF808100029F4D108E008F1010161
:1041900088468142FADB1AF808100029F6D1059802
:1041A0005B46A0EB080721463846179A00F094FAC0
:1041B000284400EB080507E04DE029E10DE01AF87E
:1041C000010B5A4617999047B8F10108F7D25B46A0
:1041D00021463846179A13E142E00A220092C4F3BE
:1041E00002524FF0000A022A08D059F804CB032AE1
:1041F0004FEAEC710AD00DE029E02AE009F107014D
:1042000021F00702F2E802C1914609E00FFA8CFCA6
:104210004FEAEC71042A03D14FFA8CFC4FEAEC719F
:10422000002907DA0A460021DCF1000C61EB0201EB
:104230002D2202E0220504D52B228DF80420012234
:1042400003E0E20701D02022F7E7904659E00A2177
:1042500002E010220DE010214FF0000A00910BE067
:1042600010224FF0000A44F004040827009203E0F3
:1042700008224FF0000A0092C4F30252022A05D02D
:1042800059F804CB0021032A08D009E009F10701FD
:1042900021F00702F2E802C1914605E01FFA8CFC0A
:1042A000042A01D10CF0FF0C4FF00008220728D59A
:1042B000702806D0009B83F0100353EA0A0305D050
:1042C0000EE040228DF80420012208E05CEA0102A1
:1042D00006D030228DF804208DF805000222904689
:1042E000009B83F0080353EA0A030AD15CEA010247
:1042F00001D1620705D530228DF804204FF0010866
:104300007F1E582804D034A003900EA802900DE020
:1043100036A0F9E753466046009AFCF75DFA8446FA
:104320000398825C0298401E029002705CEA0100D1
:10433000F0D1029806A9081A00F1200A600702D5F8
:1043400024F4803400E00127574502DDA7EB0A0082
:1043500000E0002000EB0A01009005984144401A5B
:104360000590E00306D45B462146179A059800F0B5
:10437000B3F90544002706E001A85A46C05D179925
:1043800090476D1C7F1C4745F6DBE0030CD55B4670
:104390002146179A059800F09FF9054404E0302063
:1043A0005A46179990476D1C0099481E00900029A5
:1043B000F5DC08E0029802995A460078491C0291FF
:1043C000179990476D1CBAF10001AAF1010AF1DCBE
:1043D00065E10000092801003031323334353637C9
:1043E0003839616263646566000000003031323341
:1043F00034353637383941424344454600000000E1
:1044000000F058F90544761C307800287FF4ECADB4
:1044100019B02846BDE8F08F620700D4062709F1DD
:10442000070222F0070CFCE80223E14603F00048F3
:104430005FEA080C02D00FF2702C0DE05FEA045C1A
:1044400002D50FF2682C07E05FEAC47C02D00FF2BD
:10445000602C01E0AFF2700C4FF0FF3823F0004306
:10446000CDF850C065280CD006DC452809D0462878
:104470001DD047283DD13DE0662818D067287ED161
:1044800038E00021112F01DB112000E0781CCDE97C
:10449000000106A90EA8FFF7D5FCDDE90F010E9A71
:1044A00003910021009207F1010A04914DE04FF0C1
:1044B00000400097CDE9011006A90EA8FFF7C2FC45
:1044C000DDE90F0203920E9B11990022DDF80CA08A
:1044D0000093049211B9791C00EB010AB7EB0A00B2
:1044E00004D4C0F1FF3007F1010A0490AAEB0700E1
:1044F000019044E0012F00DA01270021112F01DD96
:10450000112000E03846CDE9000106A90EA8FFF70A
:1045100099FCDDE90F010E9A0391002104910092AC
:10452000BA4621070CD40399514500DA8A46BAF1FC
:10453000010F05DD009AAAF10101515C302908D074
:10454000B84202DA10F1040F06DA0121CDE90110B8
:1045500015E0AAF10101E9E7002805DC049901440E
:104560000491AAEB000102E0411C514500DD8A469E
:104570000499401A401C01904FF00040029020071F
:1045800004D40198504501DBCDF8048000208DF85B
:104590004F0002980DF14F07B0F1004F25D02B20AE
:1045A0000E9002984FF0020800280CDA4042029068
:1045B0002D200E9007E00A210298FCF7F7F8303121
:1045C000029007F8011DB8F10001A8F10108F2DC22
:1045D00002980028EFD1791E0E980870307800F00C
:1045E000200040F0450007F8020D12A8C01B00F1A2
:1045F00007081498007800B1012000EB0A01019827
:1046000001EBE07105984144401A401E0590E0031B
:1046100006D45B462146179A059800F05DF80544DC
:104620001498007818B15A46179990476D1CE0030A
:1046300024D55B462146179A059800F04DF80544AD
:104640001CE00498002807DBDDE90301884203DD54
:104650000098405C179901E0179930205A4690471E
:10466000049805F10105401C04900198401E01903A
:1046700004D12E205A46179990476D1CBAF10001BB
:10468000AAF1010ADDDC05E017F8010B5A4617997B
:1046900090476D1CB8F10001A8F10108F4DC5B46FD
:1046A0002146179A0598ABE62D0000002B0000006C
:1046B000200000002DE9F041044600251E46174663
:1046C000880404D405E039462020B0476D1C641EE0
:1046D000F9D52846BDE8F0812DE9F04104460025D2
:1046E0001E469046C80301D5302700E020278804E5
:1046F00004D505E041463846B0476D1C641EF9D527
:104700002846BDE8F0810A68531C0B6010707047A2
:1047100008B500200090FF20009002E00098401EA5
:10472000009000980028F9D108BD0000074A1168E0
:1047300008E00A22B0FBF2F2044B1B685B1A9A42B3
:1047400000D200E0F5E700BF704700000000002045
:104750000024FEF73FF9FCF767FE00F0CFF84FF4B6
:10476000E130FEF75DFF4FF4E130FEF7A5FF00F00A
:10477000A3F8FEF773FC00211348FEF7C5FC4FF4C5
:104780009670FFF7D3FFFCF71DFFFEF757F9FDF713
:1047900089FF17E040210D4800F01AF80446002C6C
:1047A0000BDD0A484078072807D021460748FCF768
:1047B000DBFF40210548FBF7BCFCFFF799F80A2016
:1047C000FFF73EF8E6E70000000800407400002014
:1047D000F8B504460D460026002000902FE06846FC
:1047E00000F038F81948008820B99DF80000EE283C
:1047F00000D024E015480088A84208DA9DF800108F
:10480000124802880088401C104B1880A1549DF863
:1048100000000F49096840EA01200D490860084678
:1048200000686FF44031884208D1084806880020AB
:1048300007490860054908803046F8BD00BF00F010
:104840004BF80028CBDC0020F7E700006C000020CC
:104850006800002001460B4840880A4A12889042AE
:104860000FD008484288001D805C0870054A5288B5
:10487000501CC21700EBD2525212A0EB4222014B45
:104880005A807047D001002001460A4B1B88581CF3
:10489000C31700EBD3535B12A0EB43239AB2054836
:1048A0004088904205D003480388001DC154001F72
:1048B00002807047D0010020002004494880088011
:1048C000034908600349088070470000D0010020B8
:1048D000680000206C0000200748008800F5007088
:1048E000054A5288811AC81701EBD0504012A1EB3B
:1048F000402080B270470000D001002070B56FF0FA
:104900000400FEF7A1F91249B1F1807F00D31DE048
:1049100021F07F40401E4FF0E022506150170F22DF
:10492000002807DA13071D0E0A4B00F00F04241F9E
:104930001D5503E013071C0E074B1C5400BF00203D
:104940004FF0E02290610720106100BF70BD0000B1
:104950000053070018ED00E000E400E0DDDDDDDDE0
:10496000DCBBBBDDDDDDDDDDDDDDDDDD9888888800
:1049700088888888777777777788888885555556A7
:1049800066666666666666666668888883333332FE
:1049900022222222222222222228888DBC4900089B
:1049A0000000002074000000243E0008304A000887
:1049B0007400002064070000343E0008000000007E
:1049C00000000000000000000000000000000000E7
:1049D000000000000000000000000000BEABB5F1C8
:1049E000B7F0CFF100000000000000000000000060
:1049F00000000000000000000000000000000000B7
:104A00000000000001020304010203040607080974
:104A10000204060800000000000000000000000082
:104A20000000000000000000000000010000010084
:04000005080000ED02
:00000001FF
