:020000040800F2
:10000000E00B00200101000855150008FD14000850
:1000100051150008CD0F00084D2A0008000000000F
:10002000000000000000000000000000FD1A0008B1
:10003000AD11000800000000CD1600085D22000888
:100040001701000817010008170100081701000830
:100050001701000817010008AF110008C1110008BE
:100060001701000817010008170100081701000810
:100070001701000817010008170100081701000800
:1000800017010008170100081701000817010008F0
:1000900017010008170100081701000817010008E0
:1000A00017010008170100081701000817010008D0
:1000B000B5230008D5230008E52300081701000830
:1000C00017010008170100081701000817010008B0
:1000D00017010008A527000817010008C927000814
:1000E000170100081701000817010008DFF80CD0FD
:1000F00000F046FD00480047C9460008E00B00201C
:1001000005480047FEE7FEE7FEE7FEE7FEE7FEE7FD
:10011000FEE7FEE7FEE7FEE7ED000008D2B201E0F1
:1001200000F8012B491EFBD270470022F6E710B5FC
:1001300013460A4604461946FFF7F0FF204610BD55
:100140000FB400B58DB010A909900B9000914FF03D
:10015000FF300A9000200C90054806900548079053
:100160006A4609A80F9900F0B5FB0DB05DF814FBC5
:10017000F10800080F0900082DE9FF4F087881B049
:100180009946FF2805D0491C2D2804D000240023BF
:1001900008E000230BE00124F9E703EB830300EB05
:1001A0004303491C0878FF28F7D104B15B420020C3
:1001B0000090147801462D2C01D02B2C04D1521C18
:1001C0002D2C12D00024009400251678FF2E0ED07E
:1001D0000A24A0FB04C801FB0481002700FB0711CF
:1001E000521C16EB0C006941EFE70124EBE7994440
:1001F00050EA01020ED00024AA4D2646DFF8A8825C
:1002000000F099FC82468B46B9F1000009DAC9F189
:1002100000071BE001980021C0E9001105B0BDE80E
:10022000F08F074612E0F80707D022462B463046EB
:10023000414600F0E4F90646884622462B46104621
:10024000194600F0DCF904460D467F10002FEAD174
:10025000B9F1000F324643465046594602DA00F0E3
:10026000FBFB01E000F0CBF9009A0AB181F00041FC
:10027000019AC2E90001D1E72DE9FF4F1F468DB079
:10028000D7E901464FF0FF382E2045464FF00009D0
:100290000B90B9696D1C0E988847396A8246884769
:1002A0000028F6D1BAF1FF3F0AD024F4D064002E22
:1002B00011DDBAF12B0F08D0BAF12D0F0BD102E0EE
:1002C000404611B0ABE744F48064B9696D1C0E98E8
:1002D00088478246761E6946600501D52D2000E0DC
:1002E0002B208DF8000001F1010B0DF1200809E031
:1002F000B9696D1C0E98884782460F9844F40074C3
:10030000761E0560002E02DDBAF1300FF0D00B9999
:100310008A453ED144F0800406E00F99681CA9F19B
:10032000010944F400740860B9696D1C761E0E98CA
:10033000884782463028F0D02BE00B998A4505D1BA
:10034000200603D444F08004761E18E0504603F0E3
:10035000F7FD08B30DF11301761E44F400748B45CC
:1003600008D2AAF130000BF8010B200607D5A9F13D
:10037000010003E0200602D409F101008146A00536
:1003800002D50F99681C0860B9696D1C0E988847E2
:100390008246002ED1DC53E0002E51DDBAF1650F0C
:1003A00002D0BAF1450F4BD1A00549D5B9696D1CF2
:1003B00024F44074761E0E9888478246002E0CDD89
:1003C0002B2804D0BAF12D0F07D144F48074B969F9
:1003D0006D1C0E9888478246761EE00501D52D21BA
:1003E00000E02B2108F8011BCDF82C8021E00DF155
:1003F0002901761E44F4007488450CD2AAF130001D
:1004000010F0FF0088F8000002D10B99884509D947
:1004100008F1010806E0E00501D5244801E042F2B8
:100420000F708146B9696D1C0E98884782460F98F7
:100430000560002E04DD504603F082FD0028D6D171
:10044000F9690E988847FF208BF8000088F80000B3
:100450000020069007904B466A4608A906A8FFF7B9
:100460008BFEA00502D46FF001002AE714F0240FE0
:100470000AD0E00714D1DDE906123868031D3B609D
:100480000068C0E900120BE0DDE9060100F07EF92A
:100490000146E00704D13868021D3A600068016037
:1004A00028460EE7000024400000F03FF1D8FFFF8F
:1004B0002DE9FE4F804681EA0300C00F0C460090F4
:1004C00021F0004123F00045B8EB0200A94105D21C
:1004D0004046214690461C460B46024623F000400B
:1004E000104347D0270DC7F30A00C3F30A51029007
:1004F000401A019040286BDAC3F3130040F4801BCC
:100500000098924620B10023D2EB030A63EB0B0B59
:1005100001985946C0F14002504600F0A4F9064641
:100520000D4650465946019A00F0BCF910EB080000
:100530006141002487EA115284EAE7731A4340D0EC
:10054000009A62B3019A012A4FEA075215DC001B98
:1005500061EB02014FF0004202EA0752CDE900428E
:10056000001C41F5801132462B4600F027FA03B0FB
:10057000BDE8F08F40462146F9E7001B61EB020120
:10058000001C41F5801300185B412018A2F50017EC
:1005900047EB030140EAD570B6196D4111E06D08D3
:1005A0004FEA360645EAC0754FEA0752001B61EB79
:1005B0000201001C41F5801149084FEA3000001982
:1005C000514132462B4603B0BDE8F04F00F0E7B989
:1005D0000098012240000023D0EB020263EBE0739D
:1005E000009821464FEAE074B8EB000061EB04018B
:1005F000E9E783F000435BE781F0004158E72DE92C
:10060000FE4F81EA030404F0004421F0004100940D
:100610004FF0000B23F0004350EA01045ED052EA91
:1006200003045BD0C3F30A54C1F30A552C44A4F26B
:10063000F3340194A0FB0254C1F3130141F480117F
:10064000C3F3130343F4801301FB024400FB034E86
:10065000840A970A44EA815447EA8357A4FB07684F
:1006600002958D0A05FB07854FEA932C04FB0C5479
:100670002705029D4FEA065847EA1637B5EB0805ED
:100680006EEB070C870E920E47EA811742EA83123F
:10069000A7FB0201B6EB0B0164EB00042B0D43EA50
:1006A0000C335E1844EB1C50DA465146E7FB02015E
:1006B000C5F313044FEA0B3343EA14534FEA0432F1
:1006C000019C43EA0603A4F10C040294009CCDE9CA
:1006D00000B400F073F903B0BDE8F08F00200146CC
:1006E000F9E70EB5C10F80EAE0700844CA0700219F
:1006F00040F233438DE80E000A460B4600F05EF9E7
:1007000003B000BD00F0004220F00040C10DC0F376
:10071000160040F400007F2901DA00207047962976
:1007200003DCC1F19601C84001E096398840002AF7
:10073000F4D04042704700F0004230F000400AD050
:10074000C10D01F56071C0F3160042EA0151C20803
:1007500040071143704700200146704730B5041E22
:1007600071F1000404DB4FF00044404264EB0101EE
:10077000141E73F1000405DB1C464FF00043524287
:1007800063EB0403994208BF904230BD01F000437F
:1007900030B421F0004150EA010206D00A0DA2F562
:1007A0006072C1F31301002A02DC30BC00207047E4
:1007B000440F44EAC104C100E01830BC00EBC25051
:1007C00000F0B6B8002801DBC0F10040002901DBD1
:1007D000C1F100418142704730B50B46014600200F
:1007E0002022012409E021FA02F59D4205D303FAF3
:1007F00002F5491B04FA02F52844151EA2F1010274
:10080000F1DC30BD2DE9F05F0546002092469B46A5
:1008100088460646814640241BE028464146474616
:10082000224600F02FF853465A46C01A914110D381
:1008300011461846224600F016F82D1A67EB0108FB
:100840004F4622460120002100F00DF817EB000969
:100850004E41201EA4F10104DFDC484631462A4601
:100860004346BDE8F09F202A04DB203A00FA02F15B
:10087000002070479140C2F1200320FA03F319438E
:1008800090407047202A04DB203A21FA02F0002130
:10089000704721FA02F3D040C2F120029140084390
:1008A00019467047202A06DBCB17203A41FA02F09E
:1008B00043EAE07306E041FA02F3D040C2F12002BD
:1008C000914008431946704702681144137801604B
:1008D00018467047D16004495161044911620021F2
:1008E0001161114600F064B9C9080008A50B0008A1
:1008F000426842B1016811F8013B23B1521EC0E9C0
:100900000012184670470121C160881E7047426876
:100910005AB1C368016843B983688B4205D0491E48
:10092000521CC0E90012002070474FF0FF307047A2
:100930000029A8BF7047401C490008BF20F00100F3
:10094000704710B4B0FA80FC00FA0CF050EA0104D1
:1009500004BF10BC704749B1CCF1200421FA04F463
:1009600011FA0CF118BF012121430843A3EB0C013C
:10097000CB1D4FEA00614FEA102042BF002010BC9F
:10098000704700EBC35010440029A4BF10BC70474F
:10099000401C490008BF20F0010010BC704710B592
:1009A000141E73F1000408DA401C41F10001921892
:1009B0005B411A4301D120F0010010BD2DE9F04D3B
:1009C00092469B4611B1B1FA81F202E0B0FA80F290
:1009D00020329046FFF747FF04460F4640EA0A00E0
:1009E00041EA0B0153465A46084313D0114653EAD5
:1009F000010019D0C8F140025046FFF743FF0546F9
:100A00000E46504659464246FFF72DFF084305D093
:100A1000012004E020463946BDE8F08D0020054362
:100A200046EAE0762C4337430A986305E40AA0EBD4
:100A300008000022FD0A44EA47540A3002D500208B
:100A40000146E9E7010510196941DDE9084500198A
:100A50006941BDE8F04DA2E72DE9F04D81EA0304BC
:100A600004F0004B21F0004514464FF0000A23F03B
:100A7000004150EA050220D054EA01021DD0C5F31E
:100A80000A570246C5F31303C1F31300C1F30A5614
:100A900040F4801543F48013A7EB0608101BD646DC
:100AA00008F2FD3873EB050002D308F1010801E0FC
:100AB00092185B41B8F1000F03DA00200146BDE84F
:100AC000F08D00204FF48011064684460EE0171B7F
:100AD00073EB050705D3121B63EB050306434CEAD2
:100AE000010C49084FEA300092185B4150EA0107B7
:100AF000EDD152EA030012D082EA040083EA050134
:100B0000084305D0101BAB4106D20122002306E0AA
:100B100000224FF0004302E06FF0010253101AEB85
:100B200006004CEB085110EB0A0041EB0B01BDE84D
:100B3000F04DFFF734BF0EB540F23342029200226F
:100B4000CDE900221346FFF739FF03B000BDC1F322
:100B50000A52C1F3130140F2FF3341F480119A426B
:100B600002DA00200146704740F233439A42A2F273
:100B7000334202DC5242FFF785BEFFF774BE00002D
:100B8000064C074D06E0E06840F0010394E80700DA
:100B900098471034AC42F6D3FFF7ACFA5C49000832
:100BA0007C490008C0B24FF4F05100F097B9000042
:100BB0002DE9F34F8BB04FF0000801F10C000C460B
:100BC0004FF0010B46460DF1080A019062690121C0
:100BD0000198904705002DD0252D2CD0216A8847FB
:100BE000C0B16269012101989047216A88470028B5
:100BF000F7D1411E62690198904700E0761CA16917
:100C00000B988847216A88470028F7D1E1690B983B
:100C10008847DBE7A1690B9888470746A84201D1BE
:100C2000761CD3E7E1690B9888477F1C02D1B8F1A5
:100C3000000F6FD046E1002762693D4639460198B2
:100C400090472A2804D16269012101989047012523
:100C5000DFF884926269012101989047A0F1300188
:100C60000A290AD24F45E5DC07EB870100EB410773
:100C7000303FDFD445F01005ECE7E90601D46FF012
:100C800000476C280AD04C2814D0682815D06A2850
:100C90000DD074281CD07A281AD01DE06269012179
:100CA000019890476C2802D045F0040514E045F007
:100CB00002050DE045F020050AE062690121019876
:100CC0009047682802D045F0080505E045F4006526
:100CD0006269012101989047C4E9015765283DD018
:100CE00019DC58287AD00CDC452837D004DC2528BC
:100CF00026D0412831D131E046282FD047282CD1A9
:100D00002CE05B2877D0612828D063287CD0642829
:100D100023D15AE0D0E06F2848D008DC66281DD0E7
:100D200067281BD0692821D06E2816D127E07028AB
:100D300045D0732868D0752847D078280DD14DE06C
:100D4000A1690B988847054625283FF469AFE169FA
:100D50000B9888476D1C3FF46AAFB3E023466A46A0
:100D60006FF001000B99FFF787FA9EE045F0400015
:100D70006060A80723464FF0000236D43EE0E80743
:100D80007FF447AF2068011D21600068290501D567
:100D900006701BE7290701D5068017E7A90703D5C9
:100DA000F117C0E9006111E706600FE745F0400068
:100DB0006060A80723464FF0080216D41EE040F6F4
:100DC0000E0125EA0100606016E045F04000606019
:100DD000A80723464FF00A0207D40FE045F0400071
:100DE0006060A80708D5234610226FF001000B9918
:100DF000AFF3008059E007E0234610226FF00100B6
:100E00000B99AFF3008050E04FF000094F464B467E
:100E1000632802D05B2806D040E0E80601D4012018
:100E2000A06001273AE062690121019890475E289D
:100E300005D14FF00109626949460198904721693F
:100E400039B900210A46534643F82120491C082994
:100E5000FADBB0B3216969B9C11700EBD162531154
:100E60000AEB830122F01F02821A01200B689040D6
:100E700003430B6062690121019890475D28E8D126
:100E8000B9F1000F09D00020514651F82020D2437B
:100E900041F82020401C0828F7DB02AB22460097CF
:100EA0006FF001000B99AFF3008000280CDA401CB2
:100EB00008D1BBF1000F05D04FF0FF300DB0BDE8F9
:100EC000F08FFFE74046F9E7E90701D108F1010893
:100ED00006444FF0000B79E6CCCCCC0C7F2801D92E
:100EE000002208E0064A02EB5002C007127800D147
:100EF000120902F00F0201209040084070470000E4
:100F00001C49000870B504460D461646EE2000F058
:100F100029FEB12000F026FE232000F023FE200A47
:100F200000F020FEE0B200F01DFE280A00F01AFEDC
:100F3000E8B200F017FEF0B200F014FEFF2000F05F
:100F400011FEFC2000F00EFEFF2000F00BFEFF2043
:100F500000F008FE70BD000010B5044644B1012247
:100F60000221104600F021FE01200849887007E0A8
:100F700000220221012000F018FE002003498870A1
:100F800002488178024800F0EEF910BD20010020EF
:100F900000D800080C49497802290DD003DC39B18A
:100FA00001290FD106E0032908D064290AD107E0FE
:100FB0000A2007E00B2005E00C2003E00D2001E0F3
:100FC0000E2000BF00BF70475801002000BFFEE7A1
:100FD00030B505460848445C0378012204E0064821
:100FE000805C4340501CC2B28A42F8DB9C4201D173
:100FF000012030BD0020FCE7CA000020014601F0BE
:101000001F02022A01D1012070470020FCE70000E6
:1010100008490978084A1278914204D1FF21054A0B
:101020001170002004E003490978034A117001207F
:10103000704700005801002061000020064909782F
:10104000064A1278914201D1002004E00349097850
:10105000014A117001207047600000201800002034
:101060000849B1F90010084AB2F90020914201D1B3
:10107000002005E00449B1F90010024A1180012066
:10108000704700005E0000201600002010B52B48BD
:101090000078401C294908700846007807284AD281
:1010A000DFE800F049040F1A25303B0024A21B2181
:1010B000002000F0F5FD22A21E21022000F0F0FD2C
:1010C00039E020A21B21002000F0EAFD1DA21E2114
:1010D000022000F0E5FD2EE01BA21B21002000F005
:1010E000DFFD19A21E21022000F0DAFD23E017A285
:1010F0001B21002000F0D4FD14A21E21022000F0CC
:10110000CFFD18E012A21B21002000F0C9FD10A2A3
:101110001E21022000F0C4FD0DE00EA21B210020C4
:1011200000F0BEFD0BA21E21022000F0B9FD002040
:101130000249087000BF00BF10BD00006A00002017
:1011400047353500473536004735370047353800D5
:10115000473539004735340000B500200F49087085
:1011600008204870242088700D480088000AC87044
:101170000B48007808710B48007848710A480078DD
:101180008871FFF707FF0549C87104200872487885
:10119000012100F0AFFD0149487200BDAC00002004
:1011A000160000201800002058010020704710B5DC
:1011B000012000F015F810B1012000F00BF810BD6F
:1011C00010B5022000F00CF810B1022000F002F877
:1011D00010BD000001490860704700001404014080
:1011E000014600200022074B1B6803EA0102054B61
:1011F00014331B680B4013B10AB1012000E000203A
:1012000070470000000401400149C86070470000B9
:101210000020024070B50546042440F6FF7000F03F
:101220008DF80446042C19D10D48006940F00200E5
:101230000B49086108464561006940F040000861BB
:1012400040F6FF7000F07AF80446052C06D00448FA
:10125000006941F6FD71084001490861204670BDF2
:101260000020024004200B49C96801F0010109B1C6
:1012700001200EE00749C96801F0040109B102200C
:1012800007E00449C96801F0100109B1032000E03A
:1012900004207047002002400348006940F08000AD
:1012A00001490861704700000020024005490968B3
:1012B00021F01001034A11601146096801431160D1
:1012C000704700000020024070B505460E46042419
:1012D0000F2000F033F80446042C13D10A480069AB
:1012E00040F00100084908612E800F2000F026F828
:1012F0000446052C06D00448006941F6FE710840FA
:1013000001490861204670BD0020024001460020CE
:10131000034A106800F0380008431060704700006E
:101320000020024002480349486003484860704773
:101330002301674500200240AB89EFCD70B504461C
:101340000425FFF78FFF054605E003F09DF9FFF741
:1013500089FF0546641E012D01D1002CF5D104B989
:101360000525284670BD70B504460D460426FFF7D6
:10137000D9FF3520FFF748FF2046FFF74BFF064611
:10138000042E04D129462046FFF79EFF0646FFF7AC
:1013900083FF70BD0146087870472DE9F041024691
:1013A00000250026002000230024002791F803C018
:1013B0000CF00F0591F803C00CF0100CBCF1000FFD
:1013C00003D091F802C04CEA050591F800C0BCF1C9
:1013D000000F31D0146800202BE04FF0010C0CFA04
:1013E00000F3B1F800C00CEA03069E4220D183004E
:1013F0004FF00F0C0CFA03F7BC4305FA03FC4CEA60
:10140000040491F803C0BCF1280F06D14FF0010C81
:101410000CFA00FCC2F814C00AE091F803C0BCF159
:10142000480F05D14FF0010C0CFA00FCC2F810C0B7
:10143000401C0828D1D31460B1F800C0BCF1FF0FE4
:1014400034DD546800202EE000F1080C4FF0010854
:1014500008FA0CF3B1F800C00CEA03069E4221D151
:1014600083004FF00F0C0CFA03F7BC4305FA03FCA2
:101470004CEA040491F803C0BCF1280F05D100F137
:10148000080C08FA0CF8C2F8148091F803C0BCF1FB
:10149000480F07D100F1080C4FF0010808FA0CF8CA
:1014A000C2F81080401C0828CED35460BDE8F081FB
:1014B000416170470161704710B50E4801F0C1F8F5
:1014C00004B2E11704EB91718910A4EB810111B909
:1014D000094804800CE02046E11704EB9171891063
:1014E000A4EB8101C1F10401214409B2024A118037
:1014F00010BD0000000800401600002000BFFEE7FD
:1015000008B54FF4C06000F05FF825208DF80000AA
:1015100001208DF80100684600F01EF808BD0000AB
:1015200010B500244021094803F032F90446002C8C
:101530000BDD06484078072807D02146034801F014
:10154000D3FA40210148FEF7F0FD10BD6C000020E9
:1015500000BFFEE77047000070B5002100230F2296
:10156000C47804B3154C246804F4E064C4F5E06462
:10157000210AC1F10403CA40447804FA03F18478D3
:101580001440214309010E4C0678A155047804F05B
:101590001F050124AC4005786D11AD0005F1E02573
:1015A000C5F8004109E0047804F01F050124AC40AF
:1015B000044D0678761145F8264070BD0CED00E02C
:1015C00000E400E080E100E002490143024A1160CA
:1015D000704700000000FA050CED00E038B5044645
:1015E000002000906A4603A12046FEF7A9FD00985E
:1015F00038BD00002566000010B52D480078401C5D
:101600002B4908700846007806284DD2DFE800F024
:101610004C03111F2D3B27A21D21002000F040FB91
:1016200024A22021022000F03BFB0A20224908705E
:101630003BE022A21D21002000F032FB1FA220214E
:10164000022000F02DFB14201B4908702DE01CA285
:101650001D21002000F024FB19A22021022000F00F
:101660001FFB0120144908701FE016A21D21002055
:1016700000F016FB13A22021022000F011FB022033
:101680000D49087011E010A21D21002000F008FB98
:101690000DA22021022000F003FB0520064908705E
:1016A00000200349087000E000BF00BF10BD00002B
:1016B0006B000020583130001800002058323000F4
:1016C00058310000583200005835000070470000C3
:1016D0001CB50024112000F0C5FA4FF4FA7002F096
:1016E000E1FF00BF09E062000321112000F086FA4B
:1016F000052002F0D7FF601CC4B2322CF3DB64205B
:1017000002F0D0FF002000F0ADFA0A2002F0CAFF7C
:101710003BA21B21002000F0C3FA39A21E210220A7
:1017200000F0BEFA37A21C21002000F0B9FA35A261
:101730001F21022000F0B4FA33A21D21002000F086
:10174000AFFA31A22021022000F0AAFA0A202F4984
:10175000087044F620602E490880642048604FF4E9
:101760007A7088606420C86044F6206008614FF495
:101770007A708882084601214268002000F03EFA13
:101780002348028823A1684602F004FB6A46182118
:10179000002000F085FA1E480221C268002000F0F7
:1017A0002DFA1B481BA1C268684602F0F3FA6A468C
:1017B0002721002000F074FA154816A182686846B7
:1017C00002F0E8FA6A461921002000F069FA0022C6
:1017D0000D21022000F0E9F901220E21022000F083
:1017E000E4F900200C4908700C49487001222A21B4
:1017F00000F0DBF901221621022000F0D6F91CBD11
:1018000047353400B9D800005831300018000020A6
:101810000801002025640000050000205801002078
:1018200000200249088002490880704724080040CF
:101830001600002029B1064AD2690243044BDA613E
:1018400004E0034AD2698243014BDA617047000029
:101850000010024029B1064A12690243044B1A6182
:1018600004E0034A12698243014B1A617047000089
:101870000010024029B1064A92690243044B9A6162
:1018800004E0034A92698243014B9A617047000069
:101890000010024029B1064AD2680243044BDA60C4
:1018A00004E0034AD2688243014BDA6070470000CB
:1018B000001002400F48006840F001000D49086028
:1018C000084640680C4908400A49486008460068D4
:1018D0000A490840074908600846006820F480204B
:1018E00008600846406820F4FE0048604FF41F007E
:1018F00088607047001002400000FFF8FFFFF6FE0E
:1019000030B500210022002400232D4D6D6805F024
:101910000C0121B1042905D0082923D105E0294D66
:10192000056022E0274D05601FE0254D6D6805F438
:101930007012234D6D6805F48034022505EB924248
:101940001CB9214D554305600BE01D4D6D6805F434
:1019500000351DB11C4D5543056002E0194D55433E
:10196000056002E0174D056000BF00BF144D6D68B3
:1019700005F0F0010909154D6B5C0568DD40456017
:101980000F4D6D6805F4E061090A104D6B5C456808
:10199000DD4085600A4D6D6805F46051C90A0B4D44
:1019A0006B5C4568DD40C560054D6D6805F44041E0
:1019B000890B074D6B5CC568B5FBF3F5056130BD60
:1019C0000010024000127A0000093D00440000208F
:1019D0005400002010B501460022002300204A11C7
:1019E000012A02D1094C236806E0022A02D1074CE1
:1019F000236A01E0054C636A01F01F020124944050
:101A00001C400CB1012000E0002010BD001002407D
:101A10000248406800F00C007047000000100240CF
:101A200001460020034A506820F0F000084350604F
:101A30007047000000100240014908607047000034
:101A40000000424201460020034A506820F4E06052
:101A5000084350607047000000100240014600201B
:101A6000034A506820F4605040EAC100506070475B
:101A70000010024001490866704700000000424221
:101A800002460020044B586820F47C1042EA01030F
:101A90001843014B58607047001002400146002077
:101AA000034A506820F0030008435060704700006C
:101AB0000010024010B5044624B102210448FFF78B
:101AC000F9FC03E002210248FFF7F2FC10BD000020
:101AD0000008014010B50849887900F043FB064929
:101AE000087800F00DF804498878FFF735FA0249C4
:101AF000087900F08DFF10BD200100207047000024
:101B000010B5044644B101221146104600F04DF8CC
:101B100001200849087007E000220121084600F072
:101B200044F8002003490870024801780248FFF792
:101B30001AFC10BD2001002000D4000810B508498F
:101B4000C87900F00FFB06494878FFF7D9FF044930
:101B5000C878FFF701FA0249487900F059FF10BD33
:101B60002001002010B504462146094800F04BFF33
:101B700000BF8021064800F095FE0028F9D000BF84
:101B80004021034800F08EFE0028F9D010BD00006F
:101B90000038014010B5044603E02078FFF7E2FF6B
:101BA000641C20780028F8D110BD70B504460D469D
:101BB0001646EE20FFF7D6FFB120FFF7D3FF102027
:101BC000FFF7D0FF200AFFF7CDFFE0B2FFF7CAFF13
:101BD000280AFFF7C7FFE8B2FFF7C4FFF0B2FFF72C
:101BE000C1FFFF20FFF7BEFFFC20FFF7BBFFFF2078
:101BF000FFF7B8FFFF20FFF7B5FF70BD70B50546D2
:101C00000E461446EE20FFF7ADFFB120FFF7AAFF06
:101C10001020FFF7A7FF280AFFF7A4FFE8B2FFF79D
:101C2000A1FF300AFFF79EFFF0B2FFF79BFF200EE7
:101C3000FFF798FFC4F30740FFF794FFC4F30720B2
:101C4000FFF790FFE0B2FFF78DFFFF20FFF78AFF5D
:101C5000FC20FFF787FFFF20FFF784FFFF20FFF73F
:101C600081FF70BD10B50446EE20FFF77BFFB12069
:101C7000FFF778FF0020FFF775FF200AFFF772FFDC
:101C8000E0B2FFF76FFFFF20FFF76CFFFC20FFF7CC
:101C900069FFFF20FFF766FFFF20FFF763FF10BD1E
:101CA00070B504460D461646EE20FFF75BFFB120E7
:101CB000FFF758FF1020FFF755FF200AFFF752FFEC
:101CC000E0B2FFF74FFF280AFFF74CFFE8B2FFF73B
:101CD00049FF3046FFF75EFFFF20FFF743FFFC2080
:101CE000FFF740FFFF20FFF73DFFFF20FFF73AFF20
:101CF00070BD000010B50346064C605C4C1CE2B29F
:101D000004E0044CA45C6040541CE2B29A42F8DD4A
:101D100010BD0000AC00002010B5FFF7CBFD012086
:101D2000FFF78AFE00BF2120FFF754FE0028FAD0FB
:101D30001020FFF7BBFA0220FFF7E8FA0020FFF7B8
:101D40006FFE0020FFF78AFE4FF48060FFF77AFEF7
:101D50004FF420110020FFF793FE0120FFF78AFEC9
:101D600000BF3920FFF736FE0028FAD00220FFF727
:101D700095FE00BFFFF74CFE0828FBD110BD000008
:101D800010B51048FFF706FB0F49887108468079A7
:101D9000C8710E48FFF7FEFA0B4908700846007834
:101DA00048700B48FFF7F6FA0749887008468078B4
:101DB000C8700848FFF7EEFA034908710846007931
:101DC000487110BD00D000082001002000D4000898
:101DD00000D8000800DC000830B585B0104A916AD0
:101DE000D06AFEF7EFFC18D00D49886AFEF7A3FC15
:101DF000044622460B460BA1684601F0CBFF6A461B
:101E000013210020FFF74CFF6A4614210220FFF740
:101E100047FF0348806A0249C86205B030BD000030
:101E2000580100202530392E3266000030B585B0CB
:101E3000104A116B506BFEF7C5FC18D00D49086BAA
:101E4000FEF779FC044622460B460BA1684601F0DA
:101E5000A1FF6A4614210020FFF722FF6A461521E0
:101E60000220FFF71DFF0348006B0249486305B0DD
:101E700030BD0000580100202530392E32660000A8
:101E800010B504462CB901220B210020FFF73AF8C7
:101E900036E0012C05D101221C211046FFF732F853
:101EA0002EE0022C05D101222B210220FFF72AF877
:101EB00026E0062C05D1012221210620FFF722F879
:101EC0001EE00A2C05D1012205210A20FFF71AF88D
:101ED00016E00B2C05D101220D210B20FFF712F883
:101EE0000EE00D2C05D1012209210D20FFF70AF883
:101EF00006E00E2C04D101220C210E20FFF702F87F
:101F000010BD10B504462CB900220B211046FEF777
:101F1000F9FF36E0012C05D100221C210120FEF73B
:101F2000F1FF2EE0022C05D100222B210220FEF72A
:101F3000E9FF26E0062C05D1002221210620FEF72C
:101F4000E1FF1EE00A2C05D1002205210A20FEF740
:101F5000D9FF16E00B2C05D100220D210B20FEF736
:101F6000D1FF0EE00D2C05D1002209210D20FEF736
:101F7000C9FF06E00E2C04D100220C210E20FEF732
:101F8000C1FF10BD30B585B0104A11695069FEF728
:101F900019FC18D00D490869FEF7CDFB044622460E
:101FA0000B460BA1684601F0F5FE6A4610210020A1
:101FB000FFF776FE6A4611210220FFF771FE034803
:101FC00000690249486105B030BD00005801002099
:101FD0002530392E3266000030B585B0104A91693F
:101FE000D069FEF7EFFB18D00D498869FEF7A3FB17
:101FF000044622460B460BA1684601F0CBFE6A461A
:1020000011210020FFF74CFE6A4612210220FFF743
:1020100047FE034880690249C86105B030BD000031
:10202000580100202530392E3266000030B585B0C9
:10203000104A116A506AFEF7C5FB18D00D49086AAC
:10204000FEF779FB044622460B460BA1684601F0D9
:10205000A1FE6A4612210020FFF722FE6A461321E4
:102060000220FFF71DFE0348006A0249486205B0DE
:1020700030BD0000580100202530392E32660000A6
:1020800030B585B028490869FEF755FB044622465D
:102090000B4626A1684601F07DFE6A460921032011
:1020A000FFF7FEFD20498869FEF745FB04462246FE
:1020B0000B461EA1684601F06DFE6A460A21032008
:1020C000FFF7EEFD1849086AFEF735FB0446224685
:1020D0000B4616A1684601F05DFE6A460B210320FF
:1020E000FFF7DEFD1049886AFEF725FB044622460D
:1020F0000B460EA1684601F04DFE6A460C210320F6
:10210000FFF7CEFD0849086BFEF715FB0446224693
:102110000B4606A1684601F03DFE6A460D210320EC
:10212000FFF7BEFD05B030BD580100202530392E27
:102130003266000010B50446EE20FFF713FD932031
:10214000FFF710FDE0B2FFF70DFDFF20FFF70AFDDE
:10215000FC20FFF707FDFF20FFF704FDFF20FFF73E
:1021600001FD10BD10B50446012C0BD10020FFF776
:10217000E1FF01221B211046FFF717FD01200A494C
:1021800088710AE06420FFF7D5FF00221B2101209F
:10219000FFF70BFD0020044988710348817903484B
:1021A000FFF7E1F810BD00002001002000D000087A
:1021B0000EB51E48807D012813D100201B4988756B
:1021C00008461BA10269684601F0E4FD6A46182131
:1021D0000020FFF765FD1548012142680020FFF748
:1021E0000DFD1248C07D01281FD100200F49C87580
:1021F0000846B0F914200EA1684601F0CBFD6A46EE
:1022000019210020FFF74CFD08480221C268002078
:10221000FFF7F4FC054806A1C268684601F0BAFD64
:102220006A4627210020FFF73BFD0EBD0801002074
:1022300025640000042808D14FF0E021096941F02D
:1022400004014FF0E022116107E04FF0E02109693D
:1022500021F004014FF0E02211617047024800684C
:10226000401C0149086070470000002010B5084874
:10227000007860B1FFF786FEFFF7AEFEFFF7D6FEEF
:10228000FFF7AAFDFFF7D2FD00200149087010BD3D
:1022900019000020F0B50C46154600210022068CDE
:1022A0004FF6FE773E400684018B028C4FF60C768B
:1022B00031407E1C06EA03162E4331437E1E324017
:1022C00044F00106324301830284F0BDF0B50C46B0
:1022D0001546002100220026078C4FF6EF7C07EA06
:1022E0000C070784018B028C4FF6FF7707EA041670
:1022F00040F6FF4739404FF6FF7707EA0337394387
:102300004FF6FF7707EA052739434FF6DF773A4064
:1023100046F010073A4301830284F0BDF0B50C4645
:102320001546002100220026078C4FF6FF6C07EAB5
:102330000C070784818B028C4FF6FF7707EA04268F
:102340004FF60C7739404FF6FF7707EA03172F4314
:1023500039434FF6FF573A4046F480773A4381833A
:102360000284F0BDF0B50C4615460021002200267F
:10237000078C4EF6FF7C07EA0C070784818B028CE2
:102380004FF6FF7707EA043640F6FF4739404FF62D
:10239000FF7707EA052739434FF6FF7707EA033748
:1023A00039434DF6FF773A4046F480573A438183EC
:1023B0000284F0BD10B50121880700F045F930B165
:1023C0000121880700F09DF801200149087010BD27
:1023D0001900002010B50121014800F035F910BDA9
:1023E00000040040044800880348008820F00100F1
:1023F0000149088070470000100800401FB5012106
:102400000846FFF717FA40F2E730ADF8080041F64A
:102410001F40ADF804000020ADF80A00ADF806003A
:1024200001A94FF0804000F095F901221146900774
:1024300000F05BF91C208DF8000002208DF80100EF
:1024400003208DF8020001208DF803006846FFF795
:1024500083F80121880700F057F81FBD00B587B049
:1024600001210420FFF7E6F901210820FFF702FA15
:10247000C020ADF8180004208DF81B0003208DF853
:102480001A0006A91B48FEF788FF1B4800F048F811
:1024900003A800F07DF90020ADF80C004FF6FF70A6
:1024A000ADF810000020ADF81200ADF80E0003A941
:1024B000114800F04FF900231A4603210E4800F09E
:1024C0009FF8684600F008F90620ADF80800694654
:1024D000094800F0CAF80121074800F00FF8002071
:1024E0000549243108800121034800F00DF807B0A8
:1024F00000BD0000000C014000080040CA430282F9
:102500007047CA430282704721B1028842F001023B
:10251000028004E0028840F2FE331A4002807047D5
:1025200010B504462F48844208D10121C014FFF79A
:10253000B1F90021E014FFF7ADF952E0B4F1804F9A
:1025400008D101210846FFF785F900210120FFF796
:1025500081F946E02448844208D101210220FFF796
:1025600079F900210220FFF775F93AE01F4884420B
:1025700008D101210420FFF76DF900210420FFF7A5
:1025800069F92EE01A48844208D101210820FFF79A
:1025900061F900210820FFF75DF922E01548844227
:1025A00008D101211020FFF755F900211020FFF775
:1025B00051F916E01048844208D101212020FFF78C
:1025C00049F900212020FFF745F90AE00B48844231
:1025D00007D101214014FFF75DF900216014FFF7D6
:1025E00059F910BD002C01400004004000080040D3
:1025F000000C004000100040001400400034014076
:10260000F0B50C4615461E46002100220023018924
:10261000028B038C4FF6F877394021434FF6FC4785
:102620003A4040F201173A434FF6DD773B404FF610
:10263000FF7707EA06172F433B4301810283038498
:10264000F0BD0146888C704730B50246002000235B
:102650000024158A05EA0103958905EA010413B1EE
:102660000CB1012000E0002030BD70B505460C46DD
:10267000208850B92389A28861882846FFF70AFE7E
:10268000E188284600F03AF825E0208804280AD19D
:102690002389A28861882846FFF718FEE18828462A
:1026A00000F035F817E0208808280AD12389A2888D
:1026B00061882846FFF732FEE188284600F034F8AA
:1026C00009E02389A28861882846FFF74BFEE1884C
:1026D000284600F032F870BD0021018041800121C0
:1026E00081800021C180018170471AB183890B4329
:1026F000838102E083898B4383817047028B4FF68D
:10270000F3731A400283028B0A4302837047028BE1
:102710004FF2FF331A400283028B4FF6FF7303EA36
:1027200001231A4302837047828B4FF6F3731A40DA
:102730008283828B0A4382837047828B4FF2FF33FE
:102740001A408283828B4FF6FF7303EA01231A43F8
:1027500082837047028802F08F020280CA884B8809
:102760001A4303881A4302808A8882850A88028570
:10277000054A904202D0054A904201D10A7A028667
:102780000122828270470000002C01400034014089
:102790004FF6FF71818000210180C180418001726C
:1027A0007047000010B540F22551064800F087F848
:1027B00038B1044800F022F9C4B2204602F044F8CF
:1027C00000BF10BD0038014000B50848008800F087
:1027D000080038B105490988C8B20449091D0988AB
:1027E000C8B200BD01F050F800BFFAE70048004051
:1027F00021B1828942F40052828104E082894DF63F
:10280000FF731A408281704710B504462048844205
:1028100009D101218803FFF73DF800214FF48040E2
:10282000FFF738F832E01B48844209D101214804FF
:10283000FFF710F800214FF40030FFF70BF825E008
:102840001548844209D101218804FFF703F80021CB
:102850004FF48020FEF7FEFF18E01048844209D1B3
:102860000121C804FEF7F6FF00214FF40020FEF717
:10287000F1FF0BE00A48844208D101210805FEF768
:10288000E9FF00214FF48010FEF7E4FF10BD0000C7
:10289000003801400044004000480040004C004027
:1028A0000050004002460020B1F5007F00D100BF7B
:1028B00013880B400BB1012000E00020704770B579
:1028C0000246002400230025002040F66A16B1428B
:1028D00000D100BFC1F3421501F01F03012606FA23
:1028E00003F3012D02D19689334006E0022D02D177
:1028F000168A334001E0968A33400C12012606FA0C
:1029000004F41688344013B10CB1012000E000201B
:1029100070BDF0B50346002400260025002040F6D7
:102920006A17B94200D100BF1846C1F3421401F042
:102930001F06012707FA06F5012C01D10C3004E02F
:10294000022C01D1103000E014301AB107682F4377
:10295000076002E00768AF430760F0BD2DE9F0476C
:1029600086B005460E460024A24600BF00BF0027E1
:10297000B08900B100BF2F462C8A4CF6FF7004408E
:10298000F08804432C82AC894EF6F3100440B088E2
:1029900031890843718908430443AC81AC8A4FF6FE
:1029A000FF400440B0890443AC8201A8FEF7A8FFB1
:1029B0001148874202D1DDF810A001E0DDF80CA03B
:1029C0000AEBCA0000EB0A1031688900B0FBF1F88D
:1029D0006420B8FBF0F004012009642101FB108998
:1029E000322000EB0910B0FBF1F000F00F000443BF
:1029F0002C8106B0BDE8F087003801400146888888
:102A0000C0F308007047C1F30802828070470000DD
:102A100010B5044644B1012203211046FFF7C5F862
:102A200001200849087107E0002203210120FFF777
:102A3000BCF8002003490871024801790248FEF7FA
:102A400092FC10BD2001002000DC000800BFFEE762
:102A500010B586B0044601210520FEF70BFF0121C9
:102A60008803FEF707FF4FF40070ADF8140018203C
:102A70008DF8170003208DF8160005A91848FEF7F9
:102A80008CFC4FF48060ADF8140003208DF8160024
:102A900004208DF8170005A91148FEF77EFC1148A7
:102AA000FFF7B2FE01940020ADF80800ADF80A006F
:102AB000ADF80C00ADF810000C20ADF80E0001A927
:102AC0000848FFF74BFF012240F225510548FFF768
:102AD00020FF01210348FFF78BFE06B010BD000068
:102AE0000008014000380140F0B585B004460F46AB
:102AF0006078FA490870A078F9490870E079F949D6
:102B000008702079E17840EA0120F7490880A0792F
:102B1000617940EA0120F5490880207A0106607A4F
:102B200041EA0041A07A41EA0020E17A0843F049F5
:102B30000860EC480078102802D1607AED490870EE
:102B4000E6480078B1287AD1E7480088162877D27D
:102B5000DFE810F01600200186026F037600A30460
:102B6000CE04030507050B050F0513052E053205D9
:102B700036053A053E057600760076007600420579
:102B80000020DD490870D94800880E287ED00BDC73
:102B9000A0F103000B287AD2DFE800F01533538D43
:102BA000F9F9F9F9F9C1C5002C2871D006DC0F2814
:102BB0006FD02A286ED02B2869D1C8E02D286AD082
:102BC0002E28F9D1DBE0CB480078C8B10120CB49F1
:102BD0008875084640680A384860084640680028FA
:102BE00001DC00204860C5480088C4494968484362
:102BF000642190FBF1F0C14908610020BD490870D3
:102C0000C6E0BC480078C8B10120BC4988750846B8
:102C100040680A30486008464068642801DB642048
:102C20004860B6480088B54949684843642190FB2C
:102C3000F1F0B24908610020AE490870A8E0EEE367
:102C4000EEE3AC48007838B30120AC49C8750846BB
:102C5000C06864280ADC0846C0680A38C8600846AC
:102C6000C068002810DC0020C8600DE0A348C068E0
:102C7000642809DDA148C068B0F5967F04DC9F4850
:102C8000C06819389D49C8609C4806E04FE07EE066
:102C900065E050E053E06AE00CE080689749C9685D
:102CA0004843642190FBF1F000B2944988820020EF
:102CB000904908706CE08F48007878B301208F4904
:102CC000C8750846C068642804DA0846C0680A3037
:102CD000C86015E08948C068642811DB8748C0686F
:102CE000B0F5967F0CDC8548C06819308349C86010
:102CF0000846C068B0F5967F02DB4FF49670C86056
:102D00007E4880687D49C9684843642190FBF1F0A2
:102D100000B27A49888200207649087038E006209F
:102D20007549087034E00B207349087030E00120C9
:102D3000714908702CE002206F49087028E00121D9
:102D40006F48FFF7E1FB00206E49487020E0012149
:102D50006B48FFF7D9FB01206A49487018E0012150
:102D60006748FFF7D1FB02206649487010E0012157
:102D70006348FFF7C9FB03206249487008E001215E
:102D80005F48FFF7C1FB64205E49487000E000BF68
:102D900000BF4DE20120584908705B4800780028C8
:102DA00078D1524800881C2875D2DFE800F0740EF4
:102DB0001924F0EF2F4051627586F1EDECEBEA74C7
:102DC000747474747474747474E94A48007818B133
:102DD00001204E49487002E000204C4948703DE116
:102DE0004448007818B101204849C87002E000202A
:102DF0004649C87032E13F48007818B10120434984
:102E0000487102E000204149487127E104F10800BF
:102E1000FEF7E4FB3D49C860C868FDF78CFC054639
:102E20002A460B463AA1684600F0B4FF16E104F1C9
:102E30000800FEF7D3FB354908610869FDF77BFC04
:102E400005462A460B4635A1684600F0A3FF05E17A
:102E500004F10800FEF7C2FB2C4948614869FDF700
:102E60006AFC05462A460B4630A1684600F092FFF0
:102E7000F4E004F10800FEF7B1FB24498861886999
:102E8000FDF759FC05462A460B462EA1684600F080
:102E900081FFE3E0E3E0E0E004F10800FEF79EFBE1
:102EA0001A49C861C869FDF746FC05462A460B4623
:102EB00029A1684600F06EFFD0E004F10800FEF79B
:102EC0008DFB12490862086AFDF735FC05462A4663
:102ED0000B4626A1684600F05DFFBFE0060000201B
:102EE00007000020090000200A0000200C0000203C
:102EF000100000200800002005000020080100202C
:102F0000000800405801002034000020200100206B
:102F1000536166655F5A3A252E3266004B6E6966CC
:102F2000655F686967683A252E3266004B6E696690
:102F3000655F626C6F636B5F686967683A252E3204
:102F4000660000004B6E6966655F626C6F636B5F65
:102F5000583A252E326600004B6E6966655F626CDA
:102F60006F636B5F593A252E326600004B6E6966BF
:102F7000655F626C6F636B5F5A3A252E32660000A4
:102F80005BE049E037E025E013E001E061E05FE06D
:102F900004F10800FEF722FBF7494862486AFDF792
:102FA000CAFB05462A460B46F4A1684600F0F2FE2D
:102FB00054E004F10800FEF711FBEF498862886ACB
:102FC000FDF7B9FB05462A460B46F1A1684600F01D
:102FD000E1FE43E004F10800FEF700FBE649C862A9
:102FE000C86AFDF7A8FB05462A460B46EDA16846D0
:102FF00000F0D0FE32E004F10800FEF7EFFADE49FF
:103000000863086BFDF797FB05462A460B46EAA1C5
:10301000684600F0BFFE21E004F10800FEF7DEFA8A
:10302000D5494863486BFDF786FB05462A460B46A3
:10303000E6A1684600F0AEFE10E0E948007818B15D
:103040000120CD49C87102E00020CB49C87105E0DC
:1030500004E00120C849487200E000BF00BFD8E288
:103060000220E0490870E04800881B287CD2DFE895
:1030700000F0DD0E151F2E384454606A6B7C86907C
:10308000A0ADB1DDDDDDDDDDB5BDC5CDD500D448FC
:10309000007810B10420D5490870C8E0D048007805
:1030A00010B10A20D14908700020CD490870BEE057
:1030B000CB48007838B10120CC490871FEF79CFA62
:1030C0000720CA4908700020C5490870AFE0C4480D
:1030D000007810B10820C54908700020C049087068
:1030E000A5E0BF48007838B10120C04988711020A0
:1030F00008700020BA49087099E0B948007858B1C2
:103100000320B84908700120B94908700520B74963
:1031100008700020B249087089E0B148007838B1E1
:10312000FDF7B4FF1120B14908700020AC490870C8
:103130007DE0AB48007810B11220AC490870002047
:10314000A749087073E072E0A548007858B10120E3
:10315000A84908700520A34908701320A3490870E6
:1031600000209F49087062E060E09D48007810B13F
:1031700009209E49087000209949087057E0984836
:10318000007810B106209949087000209449087011
:103190004DE00120984908700C20944908700021E6
:1031A0009648FFF7B1F901220D210220FEF7FDFC40
:1031B0003DE000209049087001220E210220FEF718
:1031C000F4FC01218D48FFF79FF930E000208A4987
:1031D00008702CE000208349087028E0012187480E
:1031E000FFF792F900208149487020E001218348CF
:1031F000FFF78AF901207D49487018E001217F48D6
:10320000FFF782F902207949487010E001217B48DC
:10321000FFF77AF903207549487008E001217748E3
:10322000FFF772F964207149487000E000BF00BFE9
:10323000EFE103206B4908706F480078002870D1D7
:10324000694800880E286DD2DFE800F06C07374926
:103250005864727E8ADCEFFCECEB6148007818B3AE
:10326000012067490870012204210320FEF79DFC1C
:10327000012205210320FEF798FC012206210320EC
:10328000FEF793FC012207210320FEF78EFC0122AA
:1032900008210320FEF789FC0120594948708870F5
:1032A000C8700871487107E00020554908704870DF
:1032B0008870C87008714871EDE001214F48FFF730
:1032C00023F94748007818B101204D49C87105E03D
:1032D00000204B49C871022042490870DBE00121FF
:1032E0004648FFF711F93E48007818B101204449DB
:1032F000887102E002203B490870CCE03848007831
:1033000018B101203E49487003E000203C49487054
:103310000870C0E03248007828B101203849887030
:1033200005E0B9E0B6E00020354988700870B2E0E9
:103330002B48007818B101203149C87003E0002003
:103340002F49C8700870A6E02548007818B1012000
:103350002B49087103E000202949087108709AE0A0
:103360001F48007818B101202549487103E000206A
:103370002349487108708EE020010020536F667465
:103380005F6C696D69745F583A252E3266000000E3
:10339000536F66745F6C696D69745F593A252E329C
:1033A00066000000536F66745F6C696D69745F5AE4
:1033B0003A252E3266000000536F66745F6C696DAB
:1033C00069745F413A252E3266000000536F6674BF
:1033D0005F6C696D69745F423A252E3266000000A9
:1033E00008000020050000200C00002058010020EB
:1033F0001A0000203C00002034000020000800409B
:10340000B801002004F10800FEF7E8F8824988605E
:103410000120087708468068804908613BE0F9E0B0
:10342000F6E029E01BE00DE0FFE704F10800FEF7FD
:10343000D5F87949C860012048770846C0687749BF
:10344000886128E004F10800FEF7C8F872490861B5
:103450000120887708460069704908621BE004F182
:103460000800FEF7BBF86C4948610120C8770846A0
:1034700040696A4988620EE004F10800FEF7AEF880
:1034800065498861012081F8200008468069634908
:10349000086300E000BF00BFBBE06148008801286E
:1034A00004D002280FD0032820D115E001205D4967
:1034B000487000208870084640685B490860022018
:1034C0005A49087012E0012056498870002048705F
:1034D00002205649087009E004F10800FEF77EF862
:1034E0000546FDF70FF94F49486000BF00BF90E067
:1034F00006204E4908704A48008804281AD006DC85
:1035000001280BD002280DD0032823D10EE0052876
:1035100014D0122816D013281CD117E007204349D5
:10352000087018E008204149087014E009203F495C
:10353000087010E00A203D4908700CE000203B496B
:10354000087008E000203949087004E00B20374972
:10355000087000E000BF00BF5BE00720334908703F
:1035600057E008203149087053E009202F490870BE
:103570004FE00A202D4908704BE00B202B490870C2
:1035800027480088012804D0022806D003280CD13F
:1035900007E000202549087008E00620234908704C
:1035A00004E00C202149087000E000BF00BF30E0BB
:1035B0000C201E4908702CE00D201C49087028E0E2
:1035C0000E201A49087024E00F201849087020E0E6
:1035D0001020164908701CE0152014490870144882
:1035E0000078A0B90E480088012802D002280CD12A
:1035F00005E001200F4988720020C87206E0002013
:103600000C4988720120C87200BF00BF00BF00E0F3
:1036100000BF00BF05B0F0BDB80100205801002078
:103620000C0000203C0000201C00002005000020B1
:1036300034000020200100202DE9FF475648007883
:1036400000287DD0554890F801A0BAF11D0F03D095
:10365000BAF1290F03D103E00A2000F06FF994E0DA
:103660004E48847890F804900146497901EB09218D
:1036700008B2FDF736F84A4A4A4BCDE90001FCF79B
:10368000BEFFCDE90201210209B2444AD27888186E
:10369000FDF727F80546DDE90223FCF709FF074699
:1036A000FDF774F8404908613C48847990F8089027
:1036B0000146497A01EB092108B2FDF712F80746E5
:1036C000374A384BFCF79BFFCDE90001210209B2D4
:1036D000324AD2798818FDF704F80546DDE900235F
:1036E000FCF7E6FECDE90201FDF750F82E498861AE
:1036F0002A48847A90F80C900146497B01EB092115
:1037000008B2FCF7EEFF264A264BCDE90001FCF794
:1037100076FF05460E46210209B2204AD27A881861
:10372000FCF7DFFF07462A463346FCF7C1FECDE92A
:103730000201FDF72BF81C4908621848847B00E061
:1037400027E090F810900146497C01EB092108B26E
:10375000FCF7C7FF124A134BCDE90001FCF74FFFFE
:1037600005460E46210209B20C4AD27B8818FCF7A6
:10377000B8FF07462A463346FCF79AFECDE9020118
:10378000FDF704F80849886200BF00BF0020024925
:103790000870BDE8FF8700005D000020CA0000201F
:1037A000FCA9F1D24D62503F5801002010B586B0FF
:1037B000044601210920FEF75DF801212E48FEF79D
:1037C00039F84FF48060ADF8140003208DF816002E
:1037D00018208DF8170005A92848FDF7DEFD4FF4E5
:1037E0000060ADF8140003208DF8160004208DF859
:1037F000170005A92148FDF7D0FD0220ADF81400FF
:1038000003208DF8160010208DF8170005A91C481C
:10381000FDF7C3FD27208DF8000001208DF8010081
:1038200000208DF8020001208DF803006846FDF7A6
:1038300093FE01944FF48050ADF808000020ADF8DD
:103840000A00ADF80C00ADF810000C20ADF80E0029
:1038500001A90C48FFF782F8012240F225510948DE
:10386000FFF757F801210748FEF7C2FF0020FEF7D7
:1038700021F906B010BD000001000400000C014059
:10388000000801400048004030B52748008805B2D4
:103890002548001F008820F020002349091F0880C8
:1038A000ECB205F4807058B12046FDF7A7FB002864
:1038B00038D000201D49087001201D49087031E0F2
:1038C0001B48007801282DD1184800781E2803DBFA
:1038D00000201749087030BD16481449097844542F
:1038E00012480078401C11490870124800781E28C0
:1038F00002DD00200E4908700E4800780B49097857
:1039000088420FDA00200A4908700A4A1178074AEB
:103910001278521E074B985CFDF75AFB10B101203C
:103920000549087000BFD6E7044800405A0000204F
:1039300058000020CA0000205D0000202DE9F04161
:103940000546FDF78DFB0646FDF762FB0746FDF7D2
:1039500075FB80461EB917B9B8F1000F29D0FDF7E5
:10396000FBFB0120FEF7A6F800241DE074B9124805
:10397000007840F480701149088000BF0F48001F94
:10398000008800F040000028F8D00BE00A48005DF5
:103990000A49088000BF0948001F008800F0400065
:1039A0000028F8D0601CC4B2AC42DFDB0020FEF778
:1039B00081F8BDE8F0810000AC0000200448004020
:1039C00010B500F0C7F9D448007816287ED2DFE899
:1039D00000F00B1E3D427DF0EFEEEDECEBEAE9E886
:1039E000E7E6E57D7D7D7D29FDF766FDFEF73EFC82
:1039F000FEF7DEFBC948B0F90020C9A1C94800F0B4
:103A0000C9F9C84A16210020FEF74AF981E1C648E3
:103A1000407A30B1FEF75EF80020C3494872BE49D3
:103A2000087076E1C148007878B9BF48807A20B143
:103A3000FEF784F80020B8490870BB48C07A20B16E
:103A4000FEF748F80020B449087062E1FDF734FD44
:103A5000FEF70CFC5DE10021B548FEF755FDB548C9
:103A6000007800283AD0002201210320FEF79DF8BB
:103A7000002204210320FEF798F8002205210320EC
:103A8000FEF793F8002206210320FEF78EF80022AD
:103A900007210320FEF789F8002208210320FEF702
:103AA00084F80020A449087048708870C8700871B4
:103AB0004871A2480069A149C86408468069086540
:103AC0000846006A48650846806A00E020E188658B
:103AD0000846006BC86500209649087096484078F3
:103AE00088B99548807870B99348C07858B9924899
:103AF000007940B99048407928B90022012103207B
:103B0000FEF753F804E0012211460320FEF74DF8BA
:103B100089488079002879D08748407830B9FDF706
:103B20007FFE002085490861C86411E08248007F5B
:103B300060B1FDF775FE80488068804908617E4865
:103B40008068C86400207C49087701E0FDF768FEC2
:103B50007948807830B9FDF763FE002077498861A5
:103B6000086511E07448407F60B1FDF759FE724866
:103B7000C068724988617048C068086500206E4955
:103B8000487701E0FDF74CFE6B48C07890B9FDF72F
:103B900047FE00206949086248651DE0B6E0B4E0D0
:103BA000B2E0B0E0AEE093E091E08FE0AFE08CE017
:103BB0008AE072E06048807F60B1FDF731FE5E48C8
:103BC00000695E4908625C480069486500205A49FE
:103BD000887701E0FDF724FE5748007930B9FDF7FA
:103BE0001FFE002055498862886512E05248C07F58
:103BF00068B1FDF715FE50484069504988624E484B
:103C00004069886500204C49C87702E025E0FDF74F
:103C100007FE4948407930B9FDF702FE00204749C8
:103C20000863C86513E0444890F8200068B1FDF7C8
:103C3000F7FD41488069414908633F488069C8658C
:103C400000203D4981F8200001E0FDF7E9FD00205A
:103C5000394988710220304908703748C079C8B1A5
:103C60003648C06C354908610846006D88610846D1
:103C7000406D08620846806D88620846C06D086322
:103C8000FDF7CEFD00202C498860C86008614861BE
:103C90008861C871FEF7F4F93BE02948007890B1DB
:103CA00028481FA102681F4800F074F81D4A04212B
:103CB0000520FDF7F5FF1B4A03210520FDF7F0FF66
:103CC00000201F49087024E023E022E021E020E0EA
:103CD0001D480078102802D0112810D100E00FE014
:103CE0001A480088072802D0082807D105E0184A9A
:103CF00008210B20FDF7D4FF00BF00BF00E000BF8C
:103D000000BF06E005E004E003E002E001E000E0BF
:103D100000BF00BF10BD00000500002016000020FD
:103D200025640000FC000020200100203400002059
:103D3000000800401A000020B801002058010020AF
:103D40003C0000201C000020090000200C00002086
:103D5000E800002010B50C4800780C49097888422A
:103D600010D009480078012804D109480078FEF7EE
:103D700087F803E006480078FEF7C3F802480078A9
:103D80000249087010BD000034000020140000201B
:103D9000050000200FB4084B10B504A902AA03982F
:103DA00000F0D6F8044602A9002000F068FC204686
:103DB00010BC5DF814FB00007F46000802E008C854
:103DC000121F08C1002AFAD170477047002001E095
:103DD00001C1121F002AFBD1704700002DE9FF5FCF
:103DE000DDE90220010DDDF838B0024318D044F6B9
:103DF0001050A1F2FF3141430D140F98012820D03B
:103E0000A5EB0B00401C5FEA000A4FF00004474E90
:103E1000DFF81C91A046504616D5CAF1000728E0ED
:103E20000F98012443A2012808D0002100980F9B7D
:103E3000C0E90021C0E90243BDE8FF9F6FEA0B0122
:103E4000F4E7CBF10000DEE7074612E0F80707D001
:103E50002246334640464946FCF7D1FB8046894618
:103E60002246334610461946FCF7C9FB04460E4667
:103E70007F10002FEAD1DDE90201BAF1000F4246BE
:103E80004B4602DAFCF7BBFB01E0FCF7E5FD04461C
:103E90000E460022284BFCF761FC03D84FF0FF30A0
:103EA000014607E00022254B20463146FCF700FB87
:103EB000FCF74DFE102409E0002C0ADB0A22002347
:103EC000FCF7A0FC019B30321A55641E50EA010237
:103ED000F2D1641C019AC4F1110314440F9A012A0F
:103EE00003D0012208430DD10AE0084304D000208A
:103EF0004FF0110B0F9080E7A3EB0B056D1E0DE04B
:103F00005B4504DD4FF0000205F1010504E003DA32
:103F10004FF00002A5F10105002AECD000980F999E
:103F2000C0E90231C0E9004586E7000000002440F6
:103F30000000F03F300000000000F0430000E03FD0
:103F400030380A2801D20120704700207047000055
:103F50002DE9FF4F95B09B468946064600250FE2A6
:103F6000252877D100242746F84A0121059400E04E
:103F7000044316F8013F203B01FA03F01042F7D149
:103F800030782A2811D06FF02F033078A0F130025A
:103F9000092A16D8059A44F0020402EB820203EBC8
:103FA00042021044761C0590EFE759F8042B059265
:103FB000002A03DA504244F40054059044F002040D
:103FC000761C30782E2816D116F8010F44F0040420
:103FD0002A280DD06FF02F023078A0F13003092B82
:103FE00009D807EB870302EB4303C718761CF3E7F6
:103FF00059F8047B761C30786C280FD006DC4C28EE
:1040000017D068280DD06A2814D104E0742810D085
:104010007A280FD10DE044F400140AE044F480142F
:1040200001E044F440147278824202D104F5801415
:10403000761C761C307866280BD013DC582877D095
:1040400009DC002875D04528F6D04628F4D047284A
:104050001AD19DE118E0632835D0642879D065280D
:1040600012D195E1702873D008DC6728F1D0692857
:104070006FD06E280DD06F2806D1B5E073282CD0F4
:10408000752875D0782874D05A46179990476D1CBA
:1040900075E1C4F30250022809D003280DD0D9F8E5
:1040A000001004280DD00D6009F1040967E1D9F86A
:1040B0000010EA17C1E90052F6E7D9F800100D80A8
:1040C000F2E70D70F0E719F8041B8DF800100020DE
:1040D0008DF80100EA46012003E059F804AB4FF0E7
:1040E000FF3061074FF0000102D40DE008F101013B
:1040F0008846B9420FDA8045F8DB1AF80810002923
:10410000F4D108E008F1010188468142FADB1AF88F
:1041100008100029F6D105985B46A0EB0807214658
:104120003846179A00F094FA284400EB080507E097
:104130004DE029E10DE01AF8010B5A461799904716
:10414000B8F10108F7D25B4621463846179A13E1C9
:1041500042E00A220092C4F302524FF0000A022AFF
:1041600008D059F804CB032A4FEAEC710AD00DE0CD
:1041700029E02AE009F1070121F00702F2E802C173
:10418000914609E00FFA8CFC4FEAEC71042A03D146
:104190004FFA8CFC4FEAEC71002907DA0A4600213D
:1041A000DCF1000C61EB02012D2202E0220504D5B6
:1041B0002B228DF80420012203E0E20701D0202207
:1041C000F7E7904659E00A2102E010220DE01021A5
:1041D0004FF0000A00910BE010224FF0000A44F06B
:1041E00004040827009203E008224FF0000A00921E
:1041F000C4F30252022A05D059F804CB0021032A45
:1042000008D009E009F1070121F00702F2E802C134
:10421000914605E01FFA8CFC042A01D10CF0FF0C3A
:104220004FF00008220728D5702806D0009B83F0A5
:10423000100353EA0A0305D00EE040228DF8042053
:10424000012208E05CEA010206D030228DF8042049
:104250008DF8050002229046009B83F0080353EA84
:104260000A030AD15CEA010201D1620705D53022B6
:104270008DF804204FF001087F1E582804D034A088
:1042800003900EA802900DE036A0F9E75346604671
:10429000009AFCF7B7FA84460398825C0298401EA5
:1042A000029002705CEA0100F0D1029806A9081A97
:1042B00000F1200A600702D524F4803400E00127D1
:1042C000574502DDA7EB0A0000E0002000EB0A01E1
:1042D000009005984144401A0590E00306D45B46DF
:1042E0002146179A059800F0B3F90544002706E027
:1042F00001A85A46C05D179990476D1C7F1C474521
:10430000F6DBE0030CD55B462146179A059800F0D2
:104310009FF9054404E030205A46179990476D1CD8
:104320000099481E00900029F5DC08E002980299E7
:104330005A460078491C0291179990476D1CBAF1B2
:104340000001AAF1010AF1DC65E100000928010081
:1043500030313233343536373839616263646566FB
:1043600000000000303132333435363738394142BD
:10437000434445460000000000F058F90544761C0F
:10438000307800287FF4ECAD19B02846BDE8F08FF6
:10439000620700D4062709F1070222F0070CFCE8A7
:1043A0000223E14603F000485FEA080C02D00FF256
:1043B000702C0DE05FEA045C02D50FF2682C07E078
:1043C0005FEAC47C02D00FF2602C01E0AFF2700C07
:1043D0004FF0FF3823F00043CDF850C065280CD0D3
:1043E00006DC452809D046281DD047283DD13DE0B0
:1043F000662818D067287ED138E00021112F01DB14
:10440000112000E0781CCDE9000106A90EA8FFF7F5
:10441000E5FCDDE90F010E9A03910021009207F1FE
:10442000010A04914DE04FF000400097CDE90110E2
:1044300006A90EA8FFF7D2FCDDE90F0203920E9B3E
:1044400011990022DDF80CA00093049211B9791C97
:1044500000EB010AB7EB0A0004D4C0F1FF3007F10A
:10446000010A0490AAEB0700019044E0012F00DA52
:1044700001270021112F01DD112000E03846CDE990
:10448000000106A90EA8FFF7A9FCDDE90F010E9AAD
:104490000391002104910092BA4621070CD403999C
:1044A000514500DA8A46BAF1010F05DD009AAAF1FA
:1044B0000101515C302908D0B84202DA10F1040F32
:1044C00006DA0121CDE9011015E0AAF10101E9E7C1
:1044D000002805DC049901440491AAEB000102E0E4
:1044E000411C514500DD8A460499401A401C019048
:1044F0004FF000400290200704D40198504501DBA2
:10450000CDF8048000208DF84F0002980DF14F0780
:10451000B0F1004F25D02B200E9002984FF00208EA
:1045200000280CDA404202902D200E9007E00A216C
:104530000298FCF751F93031029007F8011DB8F1EB
:104540000001A8F10108F2DC02980028EFD1791EE1
:104550000E980870307800F0200040F0450007F811
:10456000020D12A8C01B00F107081498007800B1D2
:10457000012000EB0A01019801EBE071059841442C
:10458000401A401E0590E00306D45B462146179A68
:10459000059800F05DF805441498007818B15A4663
:1045A000179990476D1CE00324D55B462146179A66
:1045B000059800F04DF805441CE00498002807DB3E
:1045C000DDE90301884203DD0098405C179901E0B2
:1045D000179930205A469047049805F10105401C70
:1045E00004900198401E019004D12E205A4617993C
:1045F00090476D1CBAF10001AAF1010ADDDC05E06B
:1046000017F8010B5A46179990476D1CB8F1000135
:10461000A8F10108F4DC5B462146179A0598ABE641
:104620002D0000002B000000200000002DE9F041CB
:10463000044600251E461746880404D405E0394682
:104640002020B0476D1C641EF9D52846BDE8F081D6
:104650002DE9F041044600251E469046C80301D5C9
:10466000302700E02027880404D505E0414638467D
:10467000B0476D1C641EF9D52846BDE8F0810A6874
:10468000531C0B601070704708B500200090FF208D
:10469000009002E00098401E009000980028F9D198
:1046A00008BD0000074A116808E00A22B0FBF2F2D8
:1046B000044B1B685B1A9A4200D200E0F5E700BF8A
:1046C000704700000000002000240026FDF724FBB6
:1046D00000F0F4F8FCF714FF4FF4E130FEF7B8F9FE
:1046E00000F0CAF8FDF78AFEFDF7B8FE4FF49670A9
:1046F000FFF7D8FF4FF4E130FFF758F8FCF7E8FF79
:10470000FDF73EFBFDF7E6F91DE01B484078292840
:1047100019D1701CC6B21848857CC77C07EB0520F0
:1047200016490880052E02DD00201549087015483D
:10473000B0F9002014A11548FFF72CFB134A1621ED
:104740000020FDF7ADFA0E4800780028DDD111E019
:10475000601C84B2FCF7E4FEFEF76EFFFFF730F951
:10476000224609A10948FFF715FB084A1721002036
:10477000FDF796FAECE70000CA000020240800408C
:104780001B0000201600002025640000FC00002013
:10479000F8B504460D460026002000902FE068463C
:1047A00000F038F81948008820B99DF80000EE287C
:1047B00000D024E015480088A84208DA9DF80010CF
:1047C000124802880088401C104B1880A1549DF8A4
:1047D00000000F49096840EA01200D4908600846B9
:1047E00000686FF44031884208D1084806880020EC
:1047F00007490860054908803046F8BD00BF00F051
:104800004BF80028CBDC0020F7E700006800002010
:104810006400002001460B4840880A4A12889042F2
:104820000FD008484288001D805C0870054A5288F5
:10483000501CC21700EBD2525212A0EB4222014B85
:104840005A807047DC01002001460A4B1B88581C27
:10485000C31700EBD3535B12A0EB43239AB2054876
:104860004088904205D003480388001DC154001FB2
:1048700002807047DC010020002004494880088045
:10488000034908600349088070470000DC010020EC
:1048900064000020680000200748008800F50070D0
:1048A000054A5288811AC81701EBD0504012A1EB7B
:1048B000402080B270470000DC01002070B56FF02E
:1048C0000400FDF7B7FC1249B1F1807F00D31DE071
:1048D00021F07F40401E4FF0E022506150170F2220
:1048E000002807DA13071D0E0A4B00F00F04241FDF
:1048F0001D5503E013071C0E074B1C5400BF00207E
:104900004FF0E02290610720106100BF70BD0000F1
:104910000053070018ED00E000E400E0DDDDDDDD20
:10492000DCBBBBDDDDDDDDDDDDDDDDDD9888888840
:1049300088888888777777777788888885555556E7
:10494000666666666666666666688888833333323E
:1049500022222222222222222228888D7C4900081B
:10496000000000206C000000BC3D0008E849000881
:104970006C000020740B0000CC3D0008000000001B
:104980000000000000000000000000000000000027
:10499000000000000000000100000000BEABB5F107
:1049A000B7F0CFF1000000000000000000000000A0
:1049B00000000000000000000000000000000000F7
:1049C00000000000010203040102030406070809B5
:1049D00002040608000000000000000000000000C3
:0849E0000000000000000001CE
:04000005080000ED02
:00000001FF
