:020000040800F2
:10000000A81B002001010008FB160008D5160008F7
:10001000F7160008A11200080D38000800000000C3
:100020000000000000000000000000000D27000894
:100030007113000800000000851800081D2D00083D
:100040001B0100081B0100081B0100081B01000820
:100050001B0100081B01000873130008851300082A
:100060001B0100081B0100081B0100081B01000800
:100070001B0100081B0100081B0100081B010008F0
:100080001B0100081B0100081B0100081B010008E0
:100090001B0100081B0100081B0100081B010008D0
:1000A0001B0100081B0100081B0100081B010008C0
:1000B0005930000879300008E93000081B010008B9
:1000C0001B0100081B0100081B0100081B010008A0
:1000D0001B010008FD340008213500081B01000841
:1000E0001B0100081B0100081B010008DFF80CD0F1
:1000F00000F054FE0048004751470008A81B0020AC
:100100000648804706480047FEE7FEE7FEE7FEE7B1
:10011000FEE7FEE7FEE7FEE7FEE7FEE72D2D00081F
:10012000ED000008A0F14101192900D820307047E6
:1001300040EA01039B0703D009E008C9121F08C069
:10014000042AFAD203E011F8013B00F8013B521EE9
:10015000F9D27047D2B201E000F8012B491EFBD260
:1001600070470022F6E710B513460A4604461946C2
:10017000FFF7F0FF204610BD421C10F8011B0029BC
:10018000FBD1801A704710B5002200E0521C835C3E
:100190008C5CA34201D1002BF8D1D8B2E1B2401A55
:1001A00010BD30B505460020034600E05B1C9342BD
:1001B00005D2EC5CC85C201A01D1002CF6D130BD10
:1001C0000FB400B58DB010A909900B9000914FF0BD
:1001D000FF300A9000200C900548069005480790D3
:1001E0006A4609A80F9900F08FFB0DB05DF814FB6B
:1001F00025090008430900082DE9FF4F087881B060
:100200009946FF2805D0491C2D2804D0002400233E
:1002100008E000230BE00124F9E703EB830300EB84
:100220004303491C0878FF28F7D104B15B42002042
:100230000090147801462D2C01D02B2C04D1521C97
:100240002D2C12D00024009400251678FF2E0ED0FD
:100250000A24A0FB04C801FB0481002700FB07114E
:10026000521C16EB0C006941EFE70124EBE79944BF
:1002700050EA01020ED00024AA4D2646DFF8A882DB
:1002800000F068FD82468B46B9F1000009DAC9F139
:1002900000071BE001980021C0E9001105B0BDE88E
:1002A000F08F074612E0F80707D022462B4630466B
:1002B000414600F0C7F90646884622462B461046BE
:1002C000194600F0BFF904460D467F10002FEAD111
:1002D000B9F1000F324643465046594602DA00F063
:1002E000CAFC01E000F0AEF9009A0AB181F00041C9
:1002F000019AC2E90001D1E72DE9FF4F1F468DB0F9
:10030000D7E901464FF0FF382E2045464FF000094F
:100310000B90B9696D1C0E988847396A82468847E8
:100320000028F6D1BAF1FF3F0AD024F4D064002EA1
:1003300011DDBAF12B0F08D0BAF12D0F0BD102E06D
:10034000404611B0ABE744F48064B9696D1C0E9867
:1003500088478246761E6946600501D52D2000E05B
:100360002B208DF8000001F1010B0DF1200809E0B0
:10037000B9696D1C0E98884782460F9844F4007442
:10038000761E0560002E02DDBAF1300FF0D00B9919
:100390008A453ED144F0800406E00F99681CA9F11B
:1003A000010944F400740860B9696D1C761E0E984A
:1003B000884782463028F0D02BE00B998A4505D13A
:1003C000200603D444F08004761E18E0504603F063
:1003D000B1FC08B30DF11301761E44F400748B4593
:1003E00008D2AAF130000BF8010B200607D5A9F1BD
:1003F000010003E0200602D409F101008146A005B6
:1004000002D50F99681C0860B9696D1C0E98884761
:100410008246002ED1DC53E0002E51DDBAF1650F8B
:1004200002D0BAF1450F4BD1A00549D5B9696D1C71
:1004300024F44074761E0E9888478246002E0CDD08
:100440002B2804D0BAF12D0F07D144F48074B96978
:100450006D1C0E9888478246761EE00501D52D2139
:1004600000E02B2108F8011BCDF82C8021E00DF1D4
:100470002901761E44F4007488450CD2AAF130009C
:1004800010F0FF0088F8000002D10B99884509D9C7
:1004900008F1010806E0E00501D5244801E042F238
:1004A0000F708146B9696D1C0E98884782460F9877
:1004B0000560002E04DD504603F03CFC0028D6D138
:1004C000F9690E988847FF208BF8000088F8000033
:1004D0000020069007904B466A4608A906A8FFF739
:1004E0008BFEA00502D46FF001002AE714F0240F60
:1004F0000AD0E00714D1DDE906123868031D3B601D
:100500000068C0E900120BE0DDE9060100F078F9AF
:100510000146E00704D13868021D3A6000680160B6
:1005200028460EE7000024400000F03FF1D8FFFF0E
:10053000F0B480EA0102D40F4200B2EB410F02D2C4
:100540000246084611464A0042D0C30DDDB2C1F34F
:10055000C752AD1A202D35DAC1F3160141F400025D
:1005600004B15242C5F1200602FA06F12A411044B4
:10057000B3EBD05F23D0C4B1012DA0EBC35009DC95
:10058000F0BC4FF0004202EAC352DBB200F50000BB
:1005900000F03FBA400000F1807000EBC350A0F1C2
:1005A000807040EAD170490009E0490841EAC07111
:1005B000A0EBC35000F50000400800EBC350F0BCB6
:1005C00000F01EBA6142012202EB4101001BF6E776
:1005D000F0BC704781F00041AAE780F00040A7E737
:1005E00080EA010210B502F00043400022D04A0028
:1005F0001FD0010E01EB1261C0F35600C2F3560288
:1006000040F4000042F40002A0FB022000047F3905
:10061000140400D0401C50EA124001D44000491E8E
:10062000C2B20C0604EBD010401C4008802A02D055
:1006300003E0002010BD20F00100002900DA0020B6
:10064000184310BD2DE9FE4F81EA030404F0004475
:1006500021F0004100944FF0000B23F0004350EADA
:1006600001045ED052EA03045BD0C3F30A54C1F321
:100670000A552C44A4F2F3340194A0FB0254C1F3B4
:10068000130141F48011C3F3130343F4801301FBFE
:10069000024400FB034E840A970A44EA815447EA65
:1006A0008357A4FB076802958D0A05FB07854FEA6F
:1006B000932C04FB0C542705029D4FEA065847EA89
:1006C0001637B5EB08056EEB070C870E920E47EA5E
:1006D000811742EA8312A7FB0201B6EB0B0164EB20
:1006E00000042B0D43EA0C335E1844EB1C50DA4631
:1006F0005146E7FB0201C5F313044FEA0B3343EA0B
:1007000014534FEA0432019C43EA0603A4F10C049B
:100710000294009CCDE900B400F0B8F903B0BDE844
:10072000F08F00200146F9E7C10F80EAE07008442D
:10073000CA079623002100F06CB970B5C1F30A52C4
:1007400001F000450024C1F3130140F2FF3341F4EE
:1007500080119A4201DA002070BD40F233439A4280
:10076000A2F2334203DC524200F0B7F800E09040BE
:100770002C43F1D0404270BD00F0004230F0004008
:100780000AD0C10D01F56071C0F3160042EA0151B3
:10079000C20840071143704700200146704700001F
:1007A00030B5041E71F1000404DB4FF000444042F8
:1007B00064EB0101141E73F1000405DB1C464FF0CD
:1007C0000043524263EB04038B4208BF824230BDB8
:1007D00030B5041E71F1000404DB4FF000444042C8
:1007E00064EB0101141E73F1000405DB1C464FF09D
:1007F0000043524263EB0403994208BF904230BD6C
:1008000001F0004330B421F0004150EA010206D06B
:100810000A0DA2F56072C1F31301002A02DC30BC9C
:1008200000207047440F44EAC104C100E01830BC06
:1008300000EBC25000F0E4B8002801DBC0F100403A
:10084000002901DBC1F100418142704730B50B4600
:10085000014600202022012409E021FA02F59D42F0
:1008600005D303FA02F5491B04FA02F52844151EC4
:10087000A2F10102F1DC30BD2DE9F05F0546002058
:1008800092469B4688460646814640241BE0284601
:1008900041464746224600F020F853465A46C01AC1
:1008A000914110D311461846224600F089FA2D1ABC
:1008B00067EB01084F4622460120002100F080FA34
:1008C00017EB00094E41201EA4F10104DFDC48466D
:1008D00031462A464346BDE8F09F202A04DB203AF1
:1008E00021FA02F00021704721FA02F3D040C2F150
:1008F00020029140084319467047000002681144E5
:100900001378016018467047D16004495161044969
:10091000116200211161114600F078BAFD0800084B
:10092000030E0008426842B1016811F8013B23B18F
:10093000521EC0E90012184670470121C160881E8E
:10094000704742685AB1C368016843B983688B42F3
:1009500005D0491E521CC0E90012002070474FF01C
:10096000FF3070470FB4002300B589B00CA9009187
:100970000B996FF00042CB601E4B06931E4B079302
:100980000423CDE901321D4A089202466B4600203D
:10099000FFF7B2FC09B05DF814FB70B586B00646EF
:1009A0004FF0FF300091CDE90101002015460C46C3
:1009B00004903246694604A8FFF7D4FF0246049823
:1009C000211825B108B1084600E0204628600498A7
:1009D00000280DD0002A02DD0098884208D0081BAC
:1009E0000094CDE901043246694604A8FFF7BAFF36
:1009F00006B070BD2509000843090008030E000871
:100A00000029A8BF7047401C490008BF20F0010022
:100A1000704710B4B0FA80FC00FA0CF050EA010400
:100A200004BF10BC704749B1CCF1200421FA04F492
:100A300011FA0CF118BF012121430843A3EB0C016B
:100A4000CB1D4FEA00614FEA102042BF002010BCCE
:100A5000704700EBC35010440029A4BF10BC70477E
:100A6000401C490008BF20F0010010BC704710B5C1
:100A7000141E73F1000408DA401C41F100019218C1
:100A80005B411A4301D120F0010010BD2DE9F04D6A
:100A900092469B4611B1B1FA81F202E0B0FA80F2BF
:100AA0002032904600F08CF904460F4640EA0A00D6
:100AB00041EA0B0153465A46084313D0114653EA04
:100AC000010019D0C8F140025046FFF706FF054665
:100AD0000E4650465946424600F072F9084305D08A
:100AE000012004E020463946BDE8F08D0020054392
:100AF00046EAE0762C4337430A986305E40AA0EB04
:100B000008000022FD0A44EA47540A3002D50020BA
:100B10000146E9E7010510196941DDE908450019B9
:100B20006941BDE8F04DA2E72DE9FE4F804681EA1C
:100B30000300C00F0C46009021F0004123F0004557
:100B4000B8EB0200A94105D24046214690461C461A
:100B50000B46024623F00040104347D0270DC7F351
:100B60000A00C3F30A510290401A019040286BDA40
:100B7000C3F3130040F4801B0098924620B1002379
:100B8000D2EB030A63EB0B0B01985946C0F140020C
:100B9000504600F015F906460D4650465946019A52
:100BA00000F01DF910EB08006141002487EA1152A2
:100BB00084EAE7731A4340D0009A62B3019A012A8B
:100BC0004FEA075215DC001B61EB02014FF00042B7
:100BD00002EA0752CDE90042001C41F5801132467D
:100BE0002B46FFF753FF03B0BDE8F08F4046214688
:100BF000F9E7001B61EB0201001C41F580130018AE
:100C00005B412018A2F5001747EB030140EAD570BD
:100C1000B6196D4111E06D084FEA360645EAC07518
:100C20004FEA0752001B61EB0201001C41F58011E5
:100C300049084FEA30000019514132462B4603B0B3
:100C4000BDE8F04FFFF713BF0098012240000023DA
:100C5000D0EB020263EBE073009821464FEAE074A8
:100C6000B8EB000061EB0401E9E783F000435BE7C8
:100C700081F0004158E72DE9F04D81EA030404F0CA
:100C8000004B21F0004514464FF0000A23F00041CC
:100C900050EA050220D054EA01021DD0C5F30A57DC
:100CA0000246C5F31303C1F31300C1F30A5640F41F
:100CB000801543F48013A7EB0608101BD64608F2F4
:100CC000FD3873EB050002D308F1010801E092182A
:100CD0005B41B8F1000F03DA00200146BDE8F08D5A
:100CE00000204FF48011064684460EE0171B73EB7C
:100CF000050705D3121B63EB050306434CEA010C01
:100D000049084FEA300092185B4150EA0107EDD1E3
:100D100052EA030012D082EA040083EA0501084384
:100D200005D0101BAB4106D20122002306E00022B1
:100D30004FF0004302E06FF0010253101AEB06007F
:100D40004CEB085110EB0A0041EB0B01BDE8F04DF4
:100D5000FFF78DBE0EB540F2334202920022CDE97C
:100D600000221346FFF792FE03B000BDC1F30A5202
:100D7000C1F3130140F2FF3341F480119A4202DAC9
:100D800000200146704740F233439A42A2F23342B8
:100D900002DC5242FFF7A1BD00F012B8064C074D2D
:100DA00006E0E06840F0010394E80700984710343B
:100DB000AC42F6D3FFF79EF9845A0008A45A000803
:100DC000202A04DB203A00FA02F10020704791400B
:100DD000C2F1200320FA03F3194390407047202A00
:100DE00006DBCB17203A41FA02F043EAE07306E053
:100DF00041FA02F3D040C2F1200291400843194663
:100E00007047C0B24FF4F05100F096B92DE9F34F9E
:100E10008BB04FF0000801F10C000C464FF0010BB5
:100E200046460DF1080A0190626901210198904738
:100E3000051E2DD0252D2CD0216A8847C0B16269AE
:100E4000012101989047216A88470028F7D1411E67
:100E500062690198904700E0761CA1690B98884769
:100E6000216A88470028F7D1E1690B988847DBE7BA
:100E7000A1690B9888470746A84201D1761CD3E7A1
:100E8000E1690B9888477F1C02D1B8F1000F6FD041
:100E900046E1002762693D463946019890472A2875
:100EA00004D162690121019890470125DFF88492FD
:100EB0006269012101989047A0F130010A290AD204
:100EC0004F45E5DC07EB870100EB4107303FDFD4FE
:100ED00045F01005ECE7E90601D46FF000476C28F7
:100EE0000AD04C2814D0682815D06A280DD0742850
:100EF0001CD07A281AD01DE0626901210198904720
:100F00006C2802D045F0040514E045F002050DE020
:100F100045F020050AE062690121019890476828A0
:100F200002D045F0080505E045F40065626901213D
:100F300001989047C4E9015765283DD019DC58282D
:100F40007AD00CDC452837D004DC252826D041286F
:100F500031D131E046282FD047282CD12CE05B2816
:100F600077D0612828D063287CD0642823D15AE028
:100F7000D0E06F2848D008DC66281DD067281BD039
:100F8000692821D06E2816D127E0702845D0732813
:100F900068D0752847D078280DD14DE0A1690B980D
:100FA0008847054625283FF469AFE1690B988847D3
:100FB0006D1C3FF46AAFB3E023466A466FF0010050
:100FC0000B99FFF799F99EE045F040006060A80793
:100FD00023464FF0000236D43EE0E8077FF447AFE7
:100FE0002068011D21600068290501D506701BE7F6
:100FF000290701D5068017E7A90703D5F117C0E92E
:10100000006111E706600FE745F040006060A80747
:1010100023464FF0080216D41EE040F60E0125EAE2
:101020000100606016E045F040006060A8072346BC
:101030004FF00A0207D40FE045F040006060A807B7
:1010400008D5234610226FF001000B99AFF3008002
:1010500059E007E0234610226FF001000B99AFF32F
:10106000008050E04FF000094F464B46632802D005
:101070005B2806D040E0E80601D40120A0600127EB
:101080003AE062690121019890475E2805D14FF04E
:1010900001096269494601989047216939B90021DF
:1010A0000A46534643F82120491C0829FADBB0B30D
:1010B000216969B9C11700EBD16253110AEB8301B1
:1010C00022F01F02821A01200B68904003430B603C
:1010D00062690121019890475D28E8D1B9F1000FBC
:1010E00009D00020514651F82020D24341F8202059
:1010F000401C0828F7DB02AB224600976FF0010086
:101100000B99AFF3008000280CDA401C08D1BBF12A
:10111000000F05D04FF0FF300DB0BDE8F08FFFE7B6
:101120004046F9E7E90701D108F1010806444FF00C
:10113000000B79E6CCCCCC0C7F2801D9002208E04A
:10114000064A02EB5002C007127800D1120902F0E1
:101150000F0201209040084070470000445A0008E8
:1011600010B505A21421022001F09CFC02A213215B
:10117000002001F097FC10BD3030303030302E3080
:101180003000000010B50024102406E00AA2214619
:10119000002001F087FC601CC4B2152CF6DB112482
:1011A00006E005A22146022001F07CFC601CC4B2CE
:1011B000162CF6DB10BD00003030303030302E30D1
:1011C0003000000070B504460D461646EE2001F0D2
:1011D000D7FAB12001F0D4FA232001F0D1FA200A85
:1011E00001F0CEFAE0B201F0CBFA280A01F0C8FA19
:1011F000E8B201F0C5FAF0B201F0C2FAFF2001F046
:10120000BFFAFC2001F0BCFAFF2001F0B9FAFF2080
:1012100001F0B6FA70BD000010B5044664B10122B9
:101220000221104601F04CFB01200C4988700CA1F2
:10123000104802F098FB0BE000220221012001F08F
:101240003FFB00200549887005A10A4802F08BFB8E
:1012500002488178084800F068F910BD0C010020B0
:101260004175746F5F4B6E6966653A6D6F64653288
:10127000000000000044004000D8000810B505A29E
:101280001521022001F00EFC02A21421002001F021
:1012900009FC10BD3030303030302E3030000000CE
:1012A00000BFFEE710B52B480078401C29490870A4
:1012B0000846007807284AD2DFE800F049040F1AF0
:1012C00025303B0024A21B21002001F0EBFB22A2D1
:1012D0001E21022001F0E6FB39E020A21B210020A4
:1012E00001F0E0FB1DA21E21022001F0DBFB2EE03D
:1012F0001BA21B21002001F0D5FB19A21E210220F8
:1013000001F0D0FB23E017A21B21002001F0CAFB53
:1013100014A21E21022001F0C5FB18E012A21B211D
:10132000002001F0BFFB10A21E21022001F0BAFB39
:101330000DE00EA21B21002001F0B4FB0BA21E2128
:10134000022001F0AFFB00200249087000BF00BF7F
:1013500010BD00002A000020473535004735360013
:1013600047353700473538004735390047353400B1
:10137000704710B5012000F015F810B1012000F001
:101380000BF810BD10B5022000F00CF810B10220CF
:1013900000F002F810BD000001490860704700002D
:1013A00014040140014600200022074B1B6803EA99
:1013B0000102054B14331B680B4013B10AB1012025
:1013C00000E0002070470000000401400149C860AF
:1013D000704700000020024070B50546042440F626
:1013E000FF7000F08DF80446042C19D10D480069F7
:1013F00040F002000B49086108464561006940F071
:101400004000086140F6FF7000F07AF80446052CB1
:1014100006D00448006941F6FD71084001490861A1
:10142000204670BD0020024004200B49C96801F02D
:10143000010109B101200EE00749C96801F004016A
:1014400009B1022007E00449C96801F0100109B19F
:10145000032000E004207047002002400348006998
:1014600040F0800001490861704700000020024000
:101470000549096821F01001034A11601146096805
:1014800001431160704700000020024070B505461E
:101490000E4604240F2000F033F80446042C13D128
:1014A0000A48006940F00100084908612E800F20B9
:1014B00000F026F80446052C06D00448006941F6E1
:1014C000FE71084001490861204670BD00200240BD
:1014D00001460020034A106800F0380008431060FD
:1014E000704700000020024002480349486003485A
:1014F000486070472301674500200240AB89EFCD6B
:1015000070B504460425FFF78FFF054605E003F09C
:10151000ABF8FFF789FF0546641E012D01D1002CB1
:10152000F5D104B90525284670BD70B504460D46B1
:101530000426FFF7D9FF3520FFF748FF2046FFF7C5
:101540004BFF0646042E04D129462046FFF79EFF96
:101550000646FFF783FF70BD0146087870472DE906
:10156000F041024600250026002000230024002729
:1015700091F803C00CF00F0591F803C00CF0100CAB
:10158000BCF1000F03D091F802C04CEA050591F8B8
:1015900000C0BCF1000F31D0146800202BE04FF0E8
:1015A000010C0CFA00F3B1F800C00CEA03069E42ED
:1015B00020D183004FF00F0C0CFA03F7BC4305FA5F
:1015C00003FC4CEA040491F803C0BCF1280F06D1D7
:1015D0004FF0010C0CFA00FCC2F814C00AE091F8BC
:1015E00003C0BCF1480F05D14FF0010C0CFA00FC10
:1015F000C2F810C0401C0828D1D31460B1F800C054
:10160000BCF1FF0F34DD546800202EE000F1080C1F
:101610004FF0010808FA0CF3B1F800C00CEA030619
:101620009E4221D183004FF00F0C0CFA03F7BC430C
:1016300005FA03FC4CEA040491F803C0BCF1280F3E
:1016400005D100F1080C08FA0CF8C2F8148091F8E2
:1016500003C0BCF1480F07D100F1080C4FF001089E
:1016600008FA0CF8C2F81080401C0828CED3546049
:10167000BDE8F08170B5144801F08FFE0446E11713
:1016800004EB91718910A4EB810101B170BD20467A
:10169000E11704EB9171C1F38F05B5F5FA5F02DA3A
:1016A0000A48056003E0A5F580400849086008483D
:1016B0000068064909680844054908600020024995
:1016C0002431088000BFE1E700080040200000202E
:1016D0001400002000BFFEE708B54FF4C06000F022
:1016E00045F825208DF8000001208DF8010068469E
:1016F00000F004F808BD00BFFEE7704770B5002198
:1017000000230F22C47804B3154C246804F4E06469
:10171000C4F5E064210AC1F10403CA40447804FA24
:1017200003F184781440214309010E4C0678A15539
:10173000047804F01F050124AC4005786D11AD005C
:1017400005F1E025C5F8004109E0047804F01F0523
:101750000124AC40044D0678761145F8264070BD52
:101760000CED00E000E400E080E100E0024901430C
:10177000024A1160704700000000FA050CED00E01D
:1017800038B50446002000906A4603A12046FEF7C3
:1017900017FD009838BD00002566000010B52D48E3
:1017A0000078401C2B4908700846007806284DD266
:1017B000DFE800F04C03111F2D3B27A21D21002064
:1017C00001F070F924A22021022001F06BF92348D6
:1017D000234908603BE023A21D21002001F062F9AB
:1017E00020A22021022001F05DF91F481C49086059
:1017F0002DE01EA21D21002001F054F91BA2202182
:10180000022001F04FF91A48154908601FE019A29B
:101810001D21002001F046F916A22021022001F02E
:1018200041F915480E49086011E014A21D2100205D
:1018300001F038F911A22021022001F033F91048FB
:101840000749086000200349087000E000BF00BF9E
:1018500010BD00002B000020583100000AD7233CA7
:10186000DC000020583200000AD7A33C58350000A5
:10187000CDCC4C3D58313000CDCCCC3D5832300031
:10188000CDCC4C3E704700001CB50024112001F067
:1018900074F80A2002F0F6FE112001F06EF80A201A
:1018A00002F0F0FE00BF09E022460321112001F002
:1018B00030F8052002F0E6FE601CC4B2652CF3DBB4
:1018C000002001F05AF80A2002F0DCFEFFF75AFC73
:1018D000222409E04AA22146002001F0E3F8052075
:1018E00002F0D0FE601CC4B2272CF3DB262409E0F2
:1018F00043A22146022001F0D5F8052002F0C2FEE5
:10190000601CC4B22B2CF3DB162409E00022214614
:10191000022000F0D5FF052002F0B4FE601CC4B226
:101920001B2CF3DB39A21B21002001F0BBF837A2EE
:101930001E21022001F0B6F835A21C21002001F082
:10194000B1F833A21F21022001F0ACF831A21D2111
:10195000002001F0A7F82FA22021022001F0A2F818
:1019600044F620602C490880642048604FF47A7067
:1019700088606420C86044F6206008614FF47A7083
:101980008882084601214268002000F0C2FF2248F8
:10199000028822A1684602F091F86A4618210020C8
:1019A00001F080F81C480221C268002000F0B1FF5D
:1019B00019481AA1C268684602F080F86A462721D1
:1019C000002001F06FF8144814A18268684602F004
:1019D00075F86A461921002001F064F800220D21F3
:1019E000022000F06DFF01220E21022000F068FFAE
:1019F0000B480C49086000200B4908701CBD000012
:101A00003030303030302E30300000004735340078
:101A1000B9D8000058310000F4000020256400000F
:101A20000AD7233CDC00002005000020F0B585B07B
:101A300004460F466078FE490870A078FD4908709A
:101A4000E079FD4908702079E17840EA0120FB49FE
:101A50000880A079617940EA0120F9490880207A5C
:101A60000106607A41EA0041A07A41EA0020E17A69
:101A70000843F4490860F0480078102802D1607AE1
:101A8000F1490870EA480078B1287DD1EB48008818
:101A900016287AD2DFE810F01600DF008202EE038B
:101AA0007900F203F6035D047900610465046B04B8
:101AB00086048A048E0492049604790079007900E1
:101AC0009A049E040020E1490870DD480088C01E89
:101AD0000D2878D2DFE800F007254378BCBCBCBCF9
:101AE000BCACB0B4B800D8480078C8B10120D8491F
:101AF0008875084640680A384860084640680028EB
:101B000001DC00204860D2480088D1494968484338
:101B1000642190FBF1F0CE4908610020CA490870A9
:101B200097E0C9480078C8B10120C94988750846BE
:101B300040680A30486008464068642801DB642039
:101B40004860C3480088C24949684843642190FB03
:101B5000F1F0BF4908610020BB49087079E0BA483C
:101B6000007878B30120BA49C8750846C06864286F
:101B70000CDC0846C0680A38C8600846C0680028FF
:101B800012DC0020C8600FE0EFE3EFE3B048C0686C
:101B9000642809DDAE48C068B0F5967F04DCAC4827
:101BA000C0681938AA49C860A9488068A849C968A6
:101BB0004843642190FBF1F000B2A54988820020DF
:101BC000A149087045E043E09F48007878B30120C0
:101BD0009F49C8750846C068642804DA0846C0688A
:101BE0000A30C86015E09A48C068642811DB98483C
:101BF000C068B0F5967F0CDC9548C06819309449F0
:101C0000C8600846C068B0F5967F02DB4FF4967056
:101C1000C8608F4880688E49C9684843642190FB3A
:101C2000F1F000B28A49888200208749087010E0EC
:101C30000520864908700CE00A208449087008E0F5
:101C400001208249087004E002208049087000E009
:101C500000BF00BFDBE301207C4908707D480078AD
:101C6000002873D1764800881C2870D2DFE800F085
:101C70006F0E1924DEDD2F445970859AAFC4DCDB6A
:101C8000DA6F6F6F6F6F6F6F6F6F6FD96E4800781D
:101C900018B101207049487002E000206E49487078
:101CA0007AE16948007818B101206B49C87002E0F8
:101CB00000206949C8706FE16348007818B10120BD
:101CC0006549487102E000206349487164E104F10C
:101CD0000800FFF755FD6049C860C868FEF74CFD75
:101CE00005462A460B465DA1684601F0E7FE6946B7
:101CF0005D4801F038FE4FE104F10800FFF740FDB8
:101D0000554908610869FEF737FD05462A460B4626
:101D100056A1684601F0D2FE6946534801F023FE01
:101D20003AE104F10800FFF72BFD4B49486148698F
:101D3000FEF722FD05462A460B4650A1684601F0F3
:101D4000BDFE6946484801F00EFE25E125E122E18D
:101D500004F10800FFF714FD3F4988618869FEF728
:101D60000BFD05462A460B464AA1684601F0A6FE31
:101D700069463D4801F0F7FD0EE104F10800FFF768
:101D8000FFFC3549C861C869FEF7F6FC05462A46DE
:101D90000B4645A1684601F091FE6946324801F0C4
:101DA000E2FDF9E004F10800FFF7EAFC2A490862C5
:101DB000086AFEF7E1FC05462A460B463FA1684645
:101DC00001F07CFE6946284801F0CDFDE4E004F115
:101DD0000800FFF7D5FC20494862486AFEF7CCFCB2
:101DE00005462A460B463AA1684601F067FE694659
:101DF0001D4801F0B8FDCFE004F10800FFF7C0FC7A
:101E000015498862886AFEF7B7FC05462A460B46E4
:101E100034A1684601F052FE6946134801F0A3FD63
:101E2000BAE0A8E092E07CE066E0B0E0AEE000005E
:101E30000600002007000020090000200A00002002
:101E40000C000020100000200800002005000020E9
:101E5000F4000020240000200C010020536166657E
:101E60005F5A3A252E326600004400404B6E696688
:101E7000655F686967683A252E3266004B6E696651
:101E8000655F626C6F636B5F686967683A252E32C5
:101E9000660000004B6E6966655F626C6F636B5F26
:101EA000583A252E326600004B6E6966655F626C9B
:101EB0006F636B5F593A252E326600004B6E696680
:101EC000655F626C6F636B5F5A3A252E3266000065
:101ED000536F66745F6C696D69745F583A252E3272
:101EE00066000000536F66745F6C696D69745F59BA
:101EF0003A252E326600000004F10800FFF740FC8E
:101F0000F749C862C86AFEF737FC05462A460B4601
:101F1000F4A1684601F0D2FD6946F74801F023FDBF
:101F20003AE004F10800FFF72BFCED490863086B69
:101F3000FEF722FC05462A460B46F0A1684601F052
:101F4000BDFD6946EC4801F00EFD25E004F10800F6
:101F5000FFF716FCE2494863486BFEF70DFC0546A7
:101F60002A460B46EAA1684601F0A8FD6946E24808
:101F700001F0F9FC10E0EB48007818B10120D849D5
:101F8000C87102E00020D649C87105E004E00120D4
:101F9000D349487200E000BF00BF38E20220E249A6
:101FA0000870E24800881B287AD2DFE800F0790E3A
:101FB00016172728343C494A4B535B637A9FB17903
:101FC00079797979B5D6FBF9F800D94800780128F4
:101FD00002D00120D74948714AE149E1D44800784C
:101FE00001280AD0CF48007820B10120D14988715A
:101FF000FFF7D4FB0020CB49087039E138E1CC4829
:102000000078012806D00120CA49C8710021CA48B9
:1020100001F026F92CE1C6480078012802D00320FF
:10202000C149087024E1C2480078012807D0BD48A2
:10203000007820B1FFF736F90020BA49087017E19F
:1020400016E115E1BA480078012802D00420B6490B
:1020500008700DE1B6480078012802D00420B2498A
:10206000087005E1B2480078012802D00420AE498A
:102070000870FDE00120AE4908700121AF4801F071
:10208000EFF80021AC4801F0EBF800220E2102200D
:1020900000F016FC01220D21022000F011FCE7E007
:1020A000E5E00020A24908700021A44801F0D8F81A
:1020B00000220D21022000F003FC01220E2102204B
:1020C00000F0FEFB9B48007858B99A48407840B928
:1020D0009848807828B99748C07810B99548007911
:1020E00018B10121944801F0BBF8C1E000209049EB
:1020F00008700021914801F0B3F800220D21022060
:1021000000F0DEFB01220E21022000F0D9FBAFE03F
:10211000002085490870ABE001221621022000F062
:10212000CFFB0121844801F09BF88248007858B920
:102130008048C0684FF6FF7101EA80007E49243173
:10214000088000207E49086001207A49087000203C
:1021500048708870C87008718AE001221721022037
:1021600000F0AEFB0121744801F07AF87148407824
:1021700058B9704800694FF6FF7101EA80006E4956
:102180002431088000206E490860002069490870E9
:102190000120487000208870C870087168E045E030
:1021A00022E0FFE701221821022000F089FB012133
:1021B000614801F055F85F48807858B95D4840693A
:1021C0004FF6FF7101EA80005B492431088000204E
:1021D0005B490860002057490870487001208870EA
:1021E0000020C870087143E001221921022000F08C
:1021F00067FB0121504801F033F84E48C07858B9C8
:102200004C4880694FF6FF7101EA80004A49243149
:10221000088000204A49086000204649087048703C
:1022200088700120C8700020087121E001221A2165
:10223000022000F045FB01213F4801F011F83D4824
:10224000007958B93B48C0694FF6FF7101EA800038
:102250003949243108800020394908600020354977
:10226000087048708870C8700120087100E000BFD5
:1022700000BFCCE003202C490870C8E004202A49A4
:102280000870C4E005202849087028480088042800
:102290001AD006DC01280BD002280DD0032855D116
:1022A0000EE0052814D0122816D013284ED149E08C
:1022B00006201D4908704AE007201B49087046E0C7
:1022C00008201949087042E00920174908703EE0CB
:1022D0000020154908703AE000201349087036E0E4
:1022E0000C010020536F66745F6C696D69745F5AEE
:1022F0003A252E326600000000440040536F667499
:102300005F6C696D69745F413A252E32660000008A
:10231000536F66745F6C696D69745F423A252E3243
:102320006600000008000020050000200C000020CE
:102330002400002044010020000800400004004068
:10234000140000200A203349087000E000BF00BFDD
:102350005DE006202F49087059E008202D490870DB
:1023600055E009202B49087051E051E04EE00A2069
:102370002849087028480088012804D0022806D07F
:1023800003280CD107E000202249087008E005204E
:102390002049087004E00B201E49087000E000BFCF
:1023A00000BF34E00B201B49087030E00C201949B5
:1023B00008702CE00D201749087028E00E20154900
:1023C000087024E00F201349087020E0072011490D
:1023D00008701CE010200F49087010480078A0B960
:1023E0000D480088012802D002280CD105E0012008
:1023F0000B4988720020C87206E0002008498872E4
:102400000120C87200BF00BF00BF00E000BF00BFD6
:1024100005B0F0BD050000200C00002024000020C5
:102420000C01002000200B4908800B4908600B4973
:1024300008600B49C860086148618861C86108622A
:1024400088620863886308644862C8624863C86336
:102450004864704724080040140000202000002039
:102460004401002029B1064AD2690243044BDA61D3
:1024700004E0034AD2698243014BDA6170470000ED
:102480000010024029B1064A12690243044B1A6146
:1024900004E0034A12698243014B1A61704700004D
:1024A0000010024029B1064A92690243044B9A6126
:1024B00004E0034A92698243014B9A61704700002D
:1024C0000010024029B1064AD2680243044BDA6088
:1024D00004E0034AD2688243014BDA60704700008F
:1024E000001002400F48006840F001000D490860EC
:1024F000084640680C4908400A4948600846006898
:102500000A490840074908600846006820F480200E
:1025100008600846406820F4FE0048604FF41F0041
:1025200088607047001002400000FFF8FFFFF6FED1
:1025300030B500210022002400232D4D6D6805F0E8
:102540000C0121B1042905D0082923D105E0294D2A
:10255000056022E0274D05601FE0254D6D6805F4FC
:102560007012234D6D6805F48034022505EB92420C
:102570001CB9214D554305600BE01D4D6D6805F4F8
:1025800000351DB11C4D5543056002E0194D554302
:10259000056002E0174D056000BF00BF144D6D6877
:1025A00005F0F0010909154D6B5C0568DD404560DB
:1025B0000F4D6D6805F4E061090A104D6B5C4568CC
:1025C000DD4085600A4D6D6805F46051C90A0B4D08
:1025D0006B5C4568DD40C560054D6D6805F44041A4
:1025E000890B074D6B5CC568B5FBF3F5056130BD24
:1025F0000010024000127A0000093D004000002057
:102600005000002010B501460022002300204A118E
:10261000012A02D1094C236806E0022A02D1074CA4
:10262000236A01E0054C636A01F01F020124944013
:102630001C400CB1012000E0002010BD0010024041
:102640000248406800F00C00704700000010024093
:1026500001460020034A506820F0F0000843506013
:1026600070470000001002400149086070470000F8
:102670000000424201460020034A506820F4E06016
:1026800008435060704700000010024001460020DF
:10269000034A506820F4605040EAC100506070471F
:1026A00000100240014908667047000000004242E5
:1026B00002460020044B586820F47C1042EA0103D3
:1026C0001843014B5860704700100240014600203B
:1026D000034A506820F00300084350607047000030
:1026E0000010024010B50849887900F07BFA0649CD
:1026F000087800F00DF804498878FEF78DFD02494E
:10270000087901F04FF810BD0C010020704700005F
:1027100010B5044664B101221146104600F0D0F80D
:1027200001200C4908700CA10F4801F01CF90BE0C6
:1027300000220121084600F0C3F800200549087076
:102740000AA1094801F00FF9024801780B48FEF789
:10275000ECFE10BD0C010020536166655F7A3A6D96
:102760006F646532000000000044004053616665FC
:102770005F7A3A6D6F6465310000000000D4000894
:1027800010B504462146094801F007F800BF802132
:10279000064800F051FF0028F9D000BF402103484F
:1027A00000F04AFF0028F9D010BD000000380140B9
:1027B00010B5044603E02078FFF7E2FF641C2078A0
:1027C0000028F8D110BD000030B585B02649086A50
:1027D000FDF7D2FF044622460B4624A1684601F0CD
:1027E0006DF96946254801F0BEF81F49886AFDF772
:1027F000C3FF044622460B4621A1684601F05EF95C
:1028000069461E4801F0AFF81749086BFDF7B4FFA1
:10281000044622460B461EA1684601F04FF9694660
:10282000164801F0A0F81049886BFDF7A5FF044693
:1028300022460B461AA1684601F040F969460F4846
:1028400001F091F80849086CFDF796FF044622460E
:102850000B4617A1684601F031F96946074801F0B7
:1028600082F805B030BD0000440100205820706F90
:10287000736974696F6E3A25660000000044004079
:102880005920706F736974696F6E3A256600000095
:102890005A20706F736974696F6E3A256600000084
:1028A0004120706F736974696F6E3A25660000008D
:1028B0004220706F736974696F6E3A25660000007C
:1028C00070B504460D461646EE20FFF759FFB120BD
:1028D000FFF756FF1020FFF753FF200AFFF750FFC6
:1028E000E0B2FFF74DFF280AFFF74AFFE8B2FFF713
:1028F00047FFF0B2FFF744FFFF20FFF741FFFC2046
:10290000FFF73EFFFF20FFF73BFFFF20FFF738FFF9
:1029100070BD70B505460E461446EE20FFF730FF39
:10292000B120FFF72DFF1020FFF72AFF280AFFF73D
:1029300027FFE8B2FFF724FF300AFFF721FFF0B2CC
:10294000FFF71EFF200EFFF71BFFC4F30740FFF742
:1029500017FFC4F30720FFF713FFE0B2FFF710FFE4
:10296000FF20FFF70DFFFC20FFF70AFFFF20FFF716
:1029700007FFFF20FFF704FF70BD10B50446EE20EF
:10298000FFF7FEFEB120FFF7FBFE0020FFF7F8FE89
:10299000200AFFF7F5FEE0B2FFF7F2FEFF20FFF797
:1029A000EFFEFC20FFF7ECFEFF20FFF7E9FEFF2023
:1029B000FFF7E6FE10BD10B500F002F810BD0000F4
:1029C0000CB50020019000903448006840F480303D
:1029D0003249086000BF3148006800F400300090C0
:1029E0000198401C0190009818B90198B0F5A06FAB
:1029F000F1D12A48006800F4003010B101200090A5
:102A000001E0002000900098012844D1244800688B
:102A100040F01000224908600846006820F00300DA
:102A200008600846006840F0020008601B484068E3
:102A30001A4948600846406848600846406840F4C3
:102A4000806048600846406820F47C104860084672
:102A5000406840F4E81048600846006840F0807024
:102A6000086000BF0D48006800F000700028F9D031
:102A70000A48406820F0030008494860084640685A
:102A800040F00200486000BF0448406800F00C00BD
:102A90000828F9D101E000BFFEE70CBD001002409C
:102AA0000020024070B504460D461646EE20FFF7A2
:102AB00067FEB120FFF764FE1020FFF761FE200AD9
:102AC000FFF75EFEE0B2FFF75BFE280AFFF758FE55
:102AD000E8B2FFF755FE3046FFF76AFEFF20FFF72A
:102AE0004FFEFC20FFF74CFEFF20FFF749FEFF20C2
:102AF000FFF746FE70BD10B5FFF7F4FC0120FFF7AD
:102B0000B3FD00BF2120FFF77DFD0028FAD0102083
:102B1000FEF7AEFC0220FEF7DBFC0020FFF798FD7D
:102B20000020FFF7B3FD4FF48060FFF7A3FD4FF4E3
:102B300020110020FFF7BCFD0120FFF7B3FD00BF0F
:102B40003920FFF75FFD0028FAD00220FFF7BEFD15
:102B500000BFFFF775FD0828FBD110BD10B5104868
:102B6000FEF7FAFC0F49887108468079C8710E4853
:102B7000FEF7F2FC0B4908700846007848700B48D5
:102B8000FEF7EAFC0749887008468078C870084854
:102B9000FEF7E2FC0349087108460079487110BD50
:102BA00000D000080C01002000D4000800D8000864
:102BB00000DC000810B50446EE20FFF7E1FD93208D
:102BC000FFF7DEFDE0B2FFF7DBFDFF20FFF7D8FDEA
:102BD000FC20FFF7D5FDFF20FFF7D2FDFF20FFF718
:102BE000CFFD10BD10B50446012C0BD10020FFF71E
:102BF000E1FF01221B211046FFF762FE01200A4976
:102C000088710AE06420FFF7D5FF00221B21012014
:102C1000FFF756FE00200449887103488179034874
:102C2000FEF783FC10BD00000C01002000D000085E
:102C30000EB52948807D01281DD1002026498875C0
:102C4000084626A10269684600F038FF6A46182146
:102C50000020FFF727FF2048012142680020FFF7EE
:102C600058FE1D481EA10269684600F027FF69460C
:102C70001D4800F078FE1848C07D01282AD10020A8
:102C80001549C8750846B0F9142014A1684600F02B
:102C900015FF6A4619210020FFF704FF0E480221A4
:102CA000C2680020FFF735FE0B480CA1C2686846D9
:102CB00000F004FF6A4627210020FFF7F3FE0648D4
:102CC000B0F9142009A1684600F0F8FE69460648EC
:102CD00000F049FE0EBD0000F40000202564000055
:102CE0002478766D3A2564000044004024786672AA
:102CF0003A256400042808D14FF0E021096941F029
:102D000004014FF0E022116107E04FF0E021096972
:102D100021F004014FF0E022116170470248006881
:102D2000401C0149086070470000002010B51148A0
:102D3000006840F001000F490860084640680E49ED
:102D400008400C494860084600680C490840094999
:102D500008600846006820F4802008600846406843
:102D600020F4FE0048604FF41F008860FFF723FE48
:102D700010BD0000001002400000FFF8FFFFF6FE4B
:102D800030B585B06949086AFDF7F6FC044622466D
:102D90000B4667A1684600F091FE6A4611210220A9
:102DA000FFF780FE6A4610210020FFF77BFE5F4997
:102DB000886AFDF7E1FC044622460B465CA16846A2
:102DC00000F07CFE6A4612210220FFF76BFE6A4685
:102DD00011210020FFF766FE5449086BFDF7CCFC7B
:102DE000044622460B4652A1684600F067FE6A463A
:102DF00013210220FFF756FE6A4612210020FFF73A
:102E000051FE4A49886BFDF7B7FC044622460B4643
:102E100047A1684600F052FE6A4614210220FFF7DF
:102E200041FE6A4613210020FFF73CFE3F49086C33
:102E3000FDF7A2FC044622460B463DA1684600F081
:102E40003DFE6A4615210220FFF72CFE6A4614213A
:102E50000020FFF727FE3549886CFDF78DFC0446FE
:102E600022460B4632A1684600F028FE6A4626211B
:102E70000220FFF717FE6A4622210020FFF712FE0C
:102E80002A49C86CFDF778FC044622460B4628A167
:102E9000684600F013FE6A4627210220FFF702FE73
:102EA0006A4623210020FFF7FDFD2049086DFDF74C
:102EB00063FC044622460B461DA1684600F0FEFD59
:102EC0006A4628210220FFF7EDFD6A4624210020F2
:102ED000FFF7E8FD1549486DFDF74EFC0446224614
:102EE0000B4613A1684600F0E9FD6A46292102203D
:102EF000FFF7D8FD6A4625210020FFF7D3FD0B49D7
:102F0000886DFDF739FC044622460B4608A1684649
:102F100000F0D4FD6A462A210220FFF7C3FD6A466D
:102F200026210020FFF7BEFD05B030BD4401002082
:102F30002530392E32660000F0B50C4615460021CA
:102F40000022068C4FF6FE773E400684018B028CF1
:102F50004FF60C7631407E1C06EA03162E433143B1
:102F60007E1E324044F00106324301830284F0BDEC
:102F7000F0B50C461546002100220026078C4FF6BE
:102F8000EF7C07EA0C070784018B028C4FF6FF7772
:102F900007EA041640F6FF4739404FF6FF7707EA85
:102FA000033739434FF6FF7707EA052739434FF6D2
:102FB000DF773A4046F010073A4301830284F0BDC0
:102FC000F0B50C461546002100220026078C4FF66E
:102FD000FF6C07EA0C070784818B028C4FF6FF77A2
:102FE00007EA04264FF60C7739404FF6FF7707EAD9
:102FF00003172F4339434FF6FF573A4046F4807783
:103000003A4381830284F0BDF0B50C461546002199
:1030100000220026078C4EF6FF7C07EA0C07078487
:10302000818B028C4FF6FF7707EA043640F6FF47A4
:1030300039404FF6FF7707EA052739434FF6FF7708
:1030400007EA033739434DF6FF773A4046F4805795
:103050003A4381830284F0BD10B50121880700F056
:103060009FF930B10121880700F0F7F801200149EC
:10307000087010BD1900002010B501210F4800F0A4
:103080008FF9D0B10E480078401C0D49087001211D
:103090000A4800F0E2F80A48007818B109A10D4882
:1030A00000F061FC06480078022806D10AA1094810
:1030B00000F059FC00200249087010BD00040040D7
:1030C000290000207B22706F73223A6E756C6C0DA4
:1030D0000A7D0000004400407B226D706F223A6E32
:1030E000756C6C0D0A7D0000044800880348008858
:1030F00020F00100014908807047000010080040DE
:103100001FB501210846FFF7ADF940F2CF70ADF8C9
:10311000080041F61F40ADF804000020ADF80A0099
:10312000ADF8060001A94FF0804000F0BFF9012280
:103130001146900700F085F91C208DF80000022050
:103140008DF8010003208DF8020001208DF80300A6
:103150006846FEF7D3FA1FBD1FB501210220FFF715
:1031600081F940F2CF70ADF8080041F61F40ADF88C
:1031700004000020ADF80A00ADF8060001A90C48D3
:1031800000F094F901221146094800F05AF91D2077
:103190008DF8000002208DF8010003208DF8020058
:1031A00001208DF803006846FEF7A8FA1FBD000055
:1031B0000004004000B587B001210420FFF752F958
:1031C00001210820FFF76EF9C020ADF81800042097
:1031D0008DF81B0003208DF81A0006A91B48FEF786
:1031E000BEF91B4800F048F803A800F07DF9002064
:1031F000ADF80C004FF6FF70ADF810000020ADF8F0
:103200001200ADF80E0003A9114800F04FF9002399
:103210001A4603210E4800F09FF8684600F008F9AE
:103220000620ADF808006946094800F0CAF80121F7
:10323000074800F00FF800200549243108800121DB
:10324000034800F00DF807B000BD0000000C01407D
:1032500000080040CA4302827047CA430282704796
:1032600021B1028842F00102028004E0028840F2AB
:10327000FE331A400280704710B504462F4884423E
:1032800008D10121C014FFF71DF90021E014FFF758
:1032900019F952E0B4F1804F08D101210846FFF737
:1032A000F1F800210120FFF7EDF846E024488442C0
:1032B00008D101210220FFF7E5F800210220FFF7E5
:1032C000E1F83AE01F48844208D101210420FFF7C9
:1032D000D9F800210420FFF7D5F82EE01A488442DF
:1032E00008D101210820FFF7CDF800210820FFF7C1
:1032F000C9F822E01548844208D101211020FFF7C7
:10330000C1F800211020FFF7BDF816E010488442F4
:1033100008D101212020FFF7B5F800212020FFF778
:10332000B1F80AE00B48844207D101214014FFF7AD
:10333000C9F800216014FFF7C5F810BD002C01404A
:103340000004004000080040000C00400010004055
:103350000014004000340140F0B50C4615461E46EE
:103360000021002200230189028B038C4FF6F8779D
:10337000394021434FF6FC473A4040F201173A43A7
:103380004FF6DD773B404FF6FF7707EA06172F43EE
:103390003B43018102830384F0BD0146888C704762
:1033A00030B50246002000230024158A05EA0103F7
:1033B000958905EA010413B10CB1012000E0002059
:1033C00030BD70B505460C46208850B92389A288C7
:1033D00061882846FFF7B0FDE188284600F03AF8FA
:1033E00025E0208804280AD12389A28861882846FC
:1033F000FFF7BEFDE188284600F035F817E0208889
:1034000008280AD12389A28861882846FFF7D8FDB9
:10341000E188284600F034F809E02389A288618811
:103420002846FFF7F1FDE188284600F032F870BD2C
:10343000002101804180012181800021C180018122
:1034400070471AB183890B43838102E083898B43E0
:1034500083817047028B4FF6F3731A400283028B0D
:103460000A4302837047028B4FF2FF331A400283F4
:10347000028B4FF6FF7303EA01231A43028370475E
:10348000828B4FF6F3731A408283828B0A438283C6
:103490007047828B4FF2FF331A408283828B4FF644
:1034A000FF7303EA01231A4382837047028802F004
:1034B0008F020280CA884B881A4303881A4302800D
:1034C0008A8882850A880285054A904202D0054A88
:1034D000904201D10A7A028601228282704700005E
:1034E000002C0140003401404FF6FF718180002123
:1034F0000180C180418001727047000010B540F228
:103500002551064800F0A5F838B1044800F040F90C
:10351000C4B2204602F06AF800BF10BD0038014076
:1035200010B540F22551134800F093F800B311484C
:1035300000F02EF9C4B2202C01DD7E2C03DD0D2C11
:1035400001D00A2C14D10C480C49097844540B487A
:103550000078401C0949087008460078B0F5006FF3
:1035600001DB002008700A2C02D1012004490870F8
:1035700010BD000000440040A001002054000020C5
:103580000400002021B1828942F40052828104E0CB
:1035900082894DF6FF731A408281704710B5044648
:1035A0002048844209D101218803FEF78BFF0021C6
:1035B0004FF48040FEF786FF32E01B48844209D179
:1035C00001214804FEF75EFF00214FF40030FEF7B2
:1035D00059FF25E01548844209D101218804FEF7EE
:1035E00051FF00214FF48020FEF74CFF18E01048F7
:1035F000844209D10121C804FEF744FF00214FF4A1
:103600000020FEF73FFF0BE00A48844208D1012169
:103610000805FEF737FF00214FF48010FEF732FF58
:1036200010BD000000380140004400400048004048
:10363000004C00400050004002460020B1F5007FE1
:1036400000D100BF13880B400BB1012000E0002027
:10365000704770B50246002400230025002040F684
:103660006A16B14200D100BFC1F3421501F01F0339
:10367000012606FA03F3012D02D19689334006E0B4
:10368000022D02D1168A334001E0968A33400C1293
:10369000012606FA04F41688344013B10CB1012057
:1036A00000E0002070BDF0B5034600240026002590
:1036B000002040F66A17B94200D100BF1846C1F396
:1036C000421401F01F06012707FA06F5012C01D16B
:1036D0000C3004E0022C01D1103000E014301AB19B
:1036E00007682F43076002E00768AF430760F0BD3B
:1036F0002DE9F04786B005460E460024A24600BFDD
:1037000000BF0027B08900B100BF2F462C8A4CF6BD
:10371000FF700440F08804432C82AC894EF6F3100D
:103720000440B08831890843718908430443AC815F
:10373000AC8A4FF6FF400440B0890443AC8201A834
:10374000FEF7F6FE1148874202D1DDF810A001E035
:10375000DDF80CA00AEBCA0000EB0A103168890002
:10376000B0FBF1F86420B8FBF0F0040120096421FB
:1037700001FB1089322000EB0910B0FBF1F000F0E2
:103780000F0004432C8106B0BDE8F08700380140EB
:1037900001468888C0F308007047C1F308028280A0
:1037A0007047000010B5044664B1012203211046A1
:1037B000FFF786F801200C4908710CA10E4800F0B3
:1037C000D2F80BE0002203210120FFF779F8002056
:1037D0000549087109A1084800F0C5F802480179B7
:1037E0000948FDF7A2FE10BD0C010020556E69745A
:1037F0003A6D6F646532000000440040556E697494
:103800003A6D6F646531000000DC000800BFFEE720
:1038100010B586B0044601210520FEF743FE0121C4
:103820008803FEF73FFE4FF40070ADF81400182037
:103830008DF8170003208DF8160005A91648FDF72E
:103840008EFE4FF48060ADF8140004208DF8170050
:1038500005A91148FDF783FE1048FFF79FFE01946C
:103860000020ADF80800ADF80A00ADF80C00ADF886
:1038700010000C20ADF80E0001A90848FFF738FF32
:10388000012240F225510548FFF70DFF01210348B1
:10389000FFF778FE06B010BD000801400038014077
:1038A00010B586B0044601210520FEF7FBFD01217D
:1038B0002248FEF7D7FD0420ADF8140003208DF850
:1038C000160018208DF8170005A91D48FDF747FEC2
:1038D0000820ADF8140004208DF8170005A9184839
:1038E000FDF73DFE26208DF8000001208DF8010037
:1038F00000208DF8020001208DF803006846FDF7D6
:10390000FDFE01940020ADF80800ADF80A00ADF806
:103910000C00ADF810000C20ADF80E0001A909480C
:10392000FFF7E6FE012240F225510648FFF7BBFEF5
:1039300001210448FFF726FE06B010BD0100020079
:10394000000801400044004070B504460D46294679
:103950002046FFF722FF00BF80212046FFF76CFEC4
:103960000028F9D070BD70B505460C4604E02178FA
:103970002846FFF7E9FF641C20780028F7D100BF34
:1039800040212846FFF758FE0028F9D070BD10B539
:1039900001220B210020FDF715FC01221C211046FD
:1039A000FDF710FC01222B210220FDF70BFC012268
:1039B00021210620FDF706FC012205210A20FDF742
:1039C00001FC01220D210B20FDF7FCFB0122092146
:1039D0000D20FDF7F7FB01220C210E20FDF7F2FB75
:1039E00010BD10B500220B211046FDF7EBFB0022A5
:1039F0001C210120FDF7E6FB00222B210220FDF710
:103A0000E1FB002221210620FDF7DCFB002205213D
:103A10000A20FDF7D7FB00220D210B20FDF7D2FB7A
:103A2000002209210D20FDF7CDFB00220C210E20E4
:103A3000FDF7C8FB10BD10B5162406E00022214694
:103A40000220FEF73DFF601CC4B21B2CF6DB10BD4C
:103A500010B505A211210220FFF724F802A21021BF
:103A60000020FFF71FF810BD3030303030302E30DE
:103A70003000000010B505A212210220FFF712F855
:103A800002A211210020FFF70DF810BD30303030B8
:103A900030302E303000000010B505A21321022076
:103AA000FFF700F802A212210020FEF7FBFF10BD75
:103AB0003030303030302E30300000000FB4084B42
:103AC00010B504A902AA039800F03CF9044602A923
:103AD000002000F0CEFC204610BC5DF814FB000076
:103AE0007344000830B528B1144C031F002021682E
:103AF0000A4605E0084630BD9A4203D8104652688F
:103B0000002AF9D1002800D041680BD00468A3EB4B
:103B10000005A54204D11B681C440346046002E072
:103B2000436000E023603AB11C68D51AA54203D176
:103B300015682C441C6052685A6030BD600000203B
:103B40002DE9F04782460F4C10480D4E0E4F001BDA
:103B50004FF0000820F007054FF001090022114640
:103B6000504600F0CDFD002802D1306810B1002091
:103B7000BDE8F0873C60C4E90058C6F80090EDE766
:103B800064000020AC0B002060000020A81700207B
:103B900002E008C8121F08C1002AFAD17047704716
:103BA000002001E001C1121F002AFBD17047000074
:103BB0002DE9FF5F82B00021DDE90430020DDDF860
:103BC00040B0034318D044F61050A2F2FF324243F3
:103BD0001514119801281FD0A5EB0B00401C5FEABB
:103BE000000A4FF000064E4FDFF83891B0465046BD
:103BF00015D5CAF1000413E0119801244AA3012845
:103C000001D16FEA0B010298119AC0E90031C0E9B5
:103C1000024206B0BDE8F09FCBF10000DFE70446AA
:103C20000021404A491842EB0450CDE9001012E04F
:103C3000E00707D032463B4640464946FCF702FDC6
:103C40008046894632463B4610461946FCF7FAFC48
:103C500006460F466410002CEAD1DDE90401DDE9D7
:103C60000023BAF1000F06DAFCF7ECFC42464B46A3
:103C7000FCF7E8FC05E0FCF7FEFF42464B46FCF78C
:103C8000FAFF04460E460022284BFCF7A1FD03D89C
:103C90004FF0FF30014607E00022254B2046314619
:103CA000FCF742FFFDF762F8102409E0002C0ADB64
:103CB0000A220023FCF7E0FD039B30321A55641EF4
:103CC00050EA0102F2D1641C039AC4F111031444B6
:103CD000119A012A03D0012208430DD10AE00843BA
:103CE00004D000204FF0110B119072E7A3EB0B05ED
:103CF0006D1E0DE05B4504DD4FF0000205F101058E
:103D000004E003DA4FF00002A5F10105002AECD02F
:103D100002981199C0E90231C0E9004579E7000035
:103D2000000014400000F03F300000000000F043AD
:103D30000000E03F30380A2801D2012070470020FF
:103D4000704700002DE9FF4F95B09B468946064617
:103D500000250FE2252877D100242746F84A0121C3
:103D6000059400E0044316F8013F203B01FA03F0FC
:103D70001042F7D130782A2811D06FF02F03307815
:103D8000A0F13002092A16D8059A44F0020402EB89
:103D9000820203EB42021044761C0590EFE759F8CB
:103DA000042B0592002A03DA504244F40054059093
:103DB00044F00204761C30782E2816D116F8010F34
:103DC00044F004042A280DD06FF02F023078A0F1BF
:103DD0003003092B09D807EB870302EB4303C7180D
:103DE000761CF3E759F8047B761C30786C280FD0EA
:103DF00006DC4C2817D068280DD06A2814D104E0BE
:103E0000742810D07A280FD10DE044F400140AE091
:103E100044F4801401E044F440147278824202D1E8
:103E200004F58014761C761C307866280BD013DCE1
:103E3000582877D009DC002875D04528F6D04628C8
:103E4000F4D047281AD19DE118E0632835D06428C2
:103E500079D0652812D195E1702873D008DC6728E5
:103E6000F1D069286FD06E280DD06F2806D1B5E04B
:103E700073282CD0752875D0782874D05A46179995
:103E800090476D1C75E1C4F30250022809D0032845
:103E90000DD0D9F8001004280DD00D6009F10409E7
:103EA00067E1D9F80010EA17C1E90052F6E7D9F83E
:103EB00000100D80F2E70D70F0E719F8041B8DF883
:103EC000001000208DF80100EA46012003E059F8B7
:103ED00004AB4FF0FF3061074FF0000102D40DE05A
:103EE00008F101018846B9420FDA8045F8DB1AF87B
:103EF00008100029F4D108E008F101018846814248
:103F0000FADB1AF808100029F6D105985B46A0EBF9
:103F1000080721463846179A00F094FA284400EB27
:103F2000080507E04DE029E10DE01AF8010B5A46BB
:103F300017999047B8F10108F7D25B4621463846F9
:103F4000179A13E142E00A220092C4F302524FF0A2
:103F5000000A022A08D059F804CB032A4FEAEC7170
:103F60000AD00DE029E02AE009F1070121F007025B
:103F7000F2E802C1914609E00FFA8CFC4FEAEC71BD
:103F8000042A03D14FFA8CFC4FEAEC71002907DABE
:103F90000A460021DCF1000C61EB02012D2202E057
:103FA000220504D52B228DF80420012203E0E2072C
:103FB00001D02022F7E7904659E00A2102E01022C2
:103FC0000DE010214FF0000A00910BE010224FF09D
:103FD000000A44F004040827009203E008224FF08E
:103FE000000A0092C4F30252022A05D059F804CB09
:103FF0000021032A08D009E009F1070121F0070296
:10400000F2E802C1914605E01FFA8CFC042A01D1B6
:104010000CF0FF0C4FF00008220728D5702806D0BE
:10402000009B83F0100353EA0A0305D00EE0402200
:104030008DF80420012208E05CEA010206D030225B
:104040008DF804208DF8050002229046009B83F035
:10405000080353EA0A030AD15CEA010201D16207AC
:1040600005D530228DF804204FF001087F1E582816
:1040700004D034A003900EA802900DE036A0F9E71A
:1040800053466046009AFCF7F7FB84460398825C2F
:104090000298401E029002705CEA0100F0D1029882
:1040A00006A9081A00F1200A600702D524F480341A
:1040B00000E00127574502DDA7EB0A0000E00020E1
:1040C00000EB0A01009005984144401A0590E00376
:1040D00006D45B462146179A059800F0B3F90544CB
:1040E000002706E001A85A46C05D179990476D1C4D
:1040F0007F1C4745F6DBE0030CD55B462146179A4B
:10410000059800F09FF9054404E030205A461799BD
:1041100090476D1C0099481E00900029F5DC08E0CE
:10412000029802995A460078491C029117999047C3
:104130006D1CBAF10001AAF1010AF1DC65E1000091
:10414000092801003031323334353637383961626D
:104150006364656600000000303132333435363731
:1041600038394142434445460000000000F058F908
:104170000544761C307800287FF4ECAD19B0284651
:10418000BDE8F08F620700D4062709F1070222F08C
:10419000070CFCE80223E14603F000485FEA080C44
:1041A00002D00FF2702C0DE05FEA045C02D50FF232
:1041B000682C07E05FEAC47C02D00FF2602C01E0BB
:1041C000AFF2700C4FF0FF3823F00043CDF850C031
:1041D00065280CD006DC452809D046281DD0472884
:1041E0003DD13DE0662818D067287ED138E0002117
:1041F000112F01DB112000E0781CCDE9000106A998
:104200000EA8FFF7D5FCDDE90F010E9A03910021FE
:10421000009207F1010A04914DE04FF00040009731
:10422000CDE9011006A90EA8FFF7C2FCDDE90F02D7
:1042300003920E9B11990022DDF80CA000930492CA
:1042400011B9791C00EB010AB7EB0A0004D4C0F1E4
:10425000FF3007F1010A0490AAEB0700019044E047
:10426000012F00DA01270021112F01DD112000E0CC
:104270003846CDE9000106A90EA8FFF799FCDDE953
:104280000F010E9A0391002104910092BA46210772
:104290000CD40399514500DA8A46BAF1010F05DDC5
:1042A000009AAAF10101515C302908D0B84202DA23
:1042B00010F1040F06DA0121CDE9011015E0AAF191
:1042C0000101E9E7002805DC049901440491AAEB07
:1042D000000102E0411C514500DD8A460499401A64
:1042E000401C01904FF000400290200704D4019838
:1042F000504501DBCDF8048000208DF84F00029876
:104300000DF14F07B0F1004F25D02B200E900298F1
:104310004FF0020800280CDA404202902D200E9047
:1043200007E00A210298FCF791FA3031029007F871
:10433000011DB8F10001A8F10108F2DC0298002883
:10434000EFD1791E0E980870307800F0200040F010
:10435000450007F8020D12A8C01B00F107081498C9
:10436000007800B1012000EB0A01019801EBE07137
:1043700005984144401A401E0590E00306D45B4670
:104380002146179A059800F05DF8054414980078C6
:1043900018B15A46179990476D1CE00324D55B4627
:1043A0002146179A059800F04DF805441CE0049842
:1043B000002807DBDDE90301884203DD0098405C4B
:1043C000179901E0179930205A469047049805F153
:1043D0000105401C04900198401E019004D12E203C
:1043E0005A46179990476D1CBAF10001AAF1010ACB
:1043F000DDDC05E017F8010B5A46179990476D1C54
:10440000B8F10001A8F10108F4DC5B462146179AD7
:104410000598ABE62D0000002B00000020000000F6
:104420002DE9F041044600251E461746880404D4B1
:1044300005E039462020B0476D1C641EF9D528469A
:10444000BDE8F0812DE9F041044600251E46904666
:10445000C80301D5302700E02027880404D505E0F3
:1044600041463846B0476D1C641EF9D52846BDE864
:10447000F0810A68531C0B6010707047014609B147
:10448000086808B90020704702E08868401C88600E
:1044900041B1D1E90120904204D28A680868805C69
:1044A0002028F2DDD1E90120904202D18868401E27
:1044B00088600846E7E7000070B50446002522E062
:1044C0002568A08900F4807020B9A06810B1A068A8
:1044D000FFF7F2FFA08900F4807028B9206918B1B5
:1044E0000A4A206951688847A08900F4007028B9F9
:1044F000206A18B1054A206A516888470348416814
:10450000204688472C46002CDAD170BD34000020AC
:1045100070B504460D4600222946204600F0C6F834
:1045200070BD70B5044628202168884705461DB136
:1045300028212846FBF715FE284670BD10B5044615
:1045400000221146204600F001F810BD2DE9F0438D
:1045500089B004460D4617461C2102A8FBF701FE50
:10456000002600202C490860486004B934E0029419
:104570002046FBF701FE401C039000200490274AD0
:1045800007CA06AB07C32548FFF7CBFF064606B9A7
:1045900022E002A801F09AF88146FFF76FFF8046FB
:1045A0004146304600F028FF00B915E05FB102A88F
:1045B000FFF764FFDDE90310884203D204990298F3
:1045C000405C00B108E01DB10499029808442860DD
:1045D000304609B0BDE8F08316B13046FFF76CFFF6
:1045E000C4B1009400200190DDE90310884202D29A
:1045F0000498019004E0039810B10398401E0190C4
:104600001DB1DDE90001084428600348DDE900121E
:1046100006C000BF0020DCE72C0000203400002092
:1046200070B504460D4604B10DB9012070BDAC4211
:1046300001D10020FAE705E0207808B90020F5E76D
:10464000641C6D1C2078FBF76DFD06462878FBF78F
:1046500069FD8642F0D02078FBF764FD0646287895
:10466000FBF760FD301AE1E708B500200090FF205D
:10467000009002E00098401E009000980028F9D1B8
:1046800008BD0000074A116808E00A22B0FBF2F2F8
:10469000044B1B685B1A9A4200D200E0F5E700BFAA
:1046A00070470000000000202E2070472DE9F041E7
:1046B00005460E461746002405B116B90020BDE890
:1046C000F081AC685FB100E024688CB1206A78B1F9
:1046D0003046216AFBF757FD0028F5D108E000E0DD
:1046E00024682CB13046216AFFF79AFF0028F7D1E1
:1046F0000CB1206A08B90020E1E72046DFE700009E
:104700002DE9F0410B3020F00706104D19E020682C
:10471000B04215D3B0420AD9871B201DD4F80480BB
:10472000FBF706FDA019C0E90078286004E0606886
:104730002860201DFBF7FCFC201D2660BDE8F081F1
:10474000251D2C68002CE2D10020F7E76000002036
:1047500086B00024FEF7CFF9FCF7BEFF00F0E2FFC1
:104760004FF4E130FFF754F84FF4E130FFF798F8D9
:1047700000F054FFFEF7C4FCFEF7EEFCFEF71AFD56
:104780000021FD48FEF76CFD4FF49670FFF77AFFAD
:10479000FDF77AF8FEF7E2F9F848007820B9FDF75E
:1047A000A1FF0120F549087062E34021F44800F0C0
:1047B000C1FE0446002C0BDDF1484078072807D0E5
:1047C0002146EF48FDF732F94021ED48FBF7C9FCDF
:1047D000EC48007808B100F0D5FFEB4800780128DC
:1047E00002D1FFF7D4F801E0FFF7FBF8E7480078C3
:1047F00011287DD2DFE810F011002A0057001403C1
:104800001503160317033903180319031A03340396
:1048100035033603370338033500FEF709FADA4863
:104820000078012811D1FEF7ABFAD94A15210020F2
:10483000FEF738F9D748D8A10268D848FFF73EF903
:10484000D64A16210020FEF72DF910E3D448407A0D
:1048500030B1FDF747FF0020D1494872CB490870BD
:1048600005E3C9480078E8B9CD48807A90B1CC49D1
:10487000C879FEF7B7F9CA494878FDF749FFC84932
:10488000C878FCF7C9FCC6494879FEF78BFF0020C1
:10489000BE490870C248C07A20B1FDF723FF00204E
:1048A000BA490870E3E2B8480078002877D1BD48DB
:1048B0000078002875D0BB484079002847D1B94816
:1048C000C079002843D1B84A11685068FBF7B4FF9B
:1048D00011D0B448006AB3494862B3480068B2498D
:1048E00048600020A44924310880B049086000E0F5
:1048F000BCE2AF490860FCF7BDFEAC480068A949BE
:10490000C860AA480068FBF70FFF0646A648016882
:104910003046FBF765FE0546A248416A2846FBF78C
:1049200007FEA0490862086AFBF726FF05462A46EB
:104930000B46A0A101A8FFF7C1F801AA112102208E
:10494000FEF7B0F801AA10210020FEF7ABF8954859
:10495000407990B19348C07978B9002086492431D4
:10496000088092490860924908608E494862C86090
:10497000FFF76EF800208B4948718A48407900287B
:104980000CD18848C079002808D0FDF74BFDFCF712
:10499000F9FBFFF750F800208249C87106E227E2D0
:1049A000FFE780484078002875D07E48407900288D
:1049B00045D17C48C079002841D17B4A1168906874
:1049C000FBF73AFF0FD07748806A7649C86276488D
:1049D0000068754988600020674924310880734960
:1049E000086073490860FCF745FE704800686D492F
:1049F00008616E480068FBF797FE06466A48016842
:104A00003046FBF7EDFD05466648C16A2846FBF7D0
:104A10008FFD64498862886AFBF7AEFE05462A4628
:104A20000B4664A101A8FFF749F801AA1221022050
:104A3000FEF738F801AA11210020FEF733F8594893
:104A40004079A8B15748C07990B900204A4924312B
:104A5000088056490860564908605249C862086192
:104A60001420FFF70FFEFFF705F800204D494871AD
:104A70004C484079002891D14A48C07900288DD00F
:104A8000FDF7D0FCFCF77EFBFEF7D5FF0020454983
:104A9000C8718BE1FFE74348807800286BD041481C
:104AA0004079E8BB3F48C079D0BB3F4A1168D06825
:104AB000FBF7C2FE0FD03B48006B3A4948633A48C7
:104AC00000683949C86000202B49243108803749E3
:104AD000086037490860FCF7CDFD3448006831496B
:104AE000486132480068FBF71FFE06462E48016801
:104AF0003046FBF775FD05462A48416B2846FBF713
:104B000017FD28490863086BFBF736FE05462A4661
:104B10000B4628A101A8FEF7D1FF01AA132100E04E
:104B200007E00220FDF7BEFF01AA12210020FDF7D9
:104B3000B9FF1C484079A8B11A48C07990B9002043
:104B40000D49243108801949086019490860154940
:104B5000486348611420FFF795FDFEF79DFF002094
:104B6000104948710F484079002892D10D48C0790A
:104B700000288ED022E02BE0000800401800002022
:104B80006800002004000020240000200500002010
:104B9000BC0000201C00002025640000D000002084
:104BA0000C01002044010020DC0000201400002043
:104BB000200000202530392E32660000FDF732FC3F
:104BC000FCF7E0FAFEF737FF0020AA49C871EDE0D4
:104BD000A848C078002874D0A6484079F0BBA54802
:104BE000C079D8BBA44A11681069FBF725FE0ED026
:104BF000A048806B9F49C8639F4800689E49086130
:104C000000209E4908809E4908609E490860FCF784
:104C100031FD9B4800689749886199480068FBF717
:104C200083FD0646944801683046FBF7D9FC0546EB
:104C30009048C16B2846FBF77BFC8E498863886BE4
:104C4000FBF79AFD05462A460B46AFF2980101A8EC
:104C5000FEF734FF01AA1421022000E006E0FDF770
:104C600021FF01AA13210020FDF71CFF8148407994
:104C7000A0B18048C07988B9002080490880804967
:104C80000860804908607B49C86388611420FFF789
:104C9000F9FCFCF765FA00207649487175484079BF
:104CA000002894D17348C07900287FD0FDF7BAFB63
:104CB000FCF768FAFEF7BFFE00206E49C87175E088
:104CC000FFE76C480079002870D06A484079E8BB5B
:104CD0006848C079D0BB684A11685069FBF7ACFDE1
:104CE0000ED06448006C63494864634800686249B8
:104CF0004861002061490880614908606149086095
:104D0000FCF7B8FC5E4800685A49C8615C48006816
:104D1000FBF70AFD0646584801683046FBF760FC81
:104D200005465448416C2846FBF702FC514908648B
:104D3000086CFBF721FD05462A460B46AFF28C11A5
:104D400001A8FEF7BBFE01AA152100E007E0022042
:104D5000FDF7A8FE01AA14210020FDF7A3FE454897
:104D60004079A0B14348C07988B900204349088000
:104D700043490860434908603E494864C8611420BB
:104D8000FFF780FCFCF77AFA00203A49487139486D
:104D9000407958B93748C07940B1FDF743FBFCF77B
:104DA000F1F9FEF748FE00203249C8713148007819
:104DB00058B93048407840B92E48807828B92D48F5
:104DC000C07810B92B48007960B101218807FEF73F
:104DD00047FA2D48007810B3FDF7F6FC00202A4969
:104DE00008701CE000214FF08040FEF739FA16E011
:104DF00001212648FEF734FAFDF7C2FF244A1521A7
:104E00000020FDF74FFE2348AFF2742102682248CC
:104E1000FEF754FE204A16210020FDF743FE26E04F
:104E200025E024E023E022E021E020E01B48007898
:104E3000102802D0112810D100E00FE01848008897
:104E4000072802D0082807D105E0164A08210B20C0
:104E5000FDF728FE00BF00BF00E000BF00BF06E076
:104E600005E004E003E002E001E000E000BF00BF75
:104E70009BE4000044010020DC00002024080040E6
:104E80001400002020000020190000200004004031
:104E9000BC0000201C000020D000002009000020E1
:104EA0000C000020A80000202DE9F04107460C4628
:104EB0000026B046E068B0F57A7F02D30020BDE856
:104EC000F081E068401CE060A1682068405C5B28DD
:104ED00000D05DE0A068401CA0602046FFF7CEFA3D
:104EE0004CB1D4E90110884205D2A1682068405C29
:104EF0005D2800D141E01CB1D4E90110884203D300
:104F0000A068401EA06043E0A068401EA06000BFF3
:104F100004F11000FFF705FB054605B938E016B9A6
:104F20002E46A84604E0C8F80050C5F80480A846FC
:104F3000A068401CA0602046FFF7A0FA214640462A
:104F400000F05AFA00B923E02046FFF797FA44B17F
:104F5000D4E90110884204D2A1682068405C2C2862
:104F6000D6D044B1D4E90110884204D2A1682068A7
:104F7000405C5D2800D00BE000BFE068401EE060B0
:104F80002020F860BE60A068401CA060012096E769
:104F900016B13046FFF790FA002090E70246002352
:104FA000002100BF23E0505C302806DB505C39282C
:104FB00003DC505C3038034415E0505C412806DBCC
:104FC000505C462803DC505C373803440BE0505CEF
:104FD000612806DB505C662803DC505C57380344CC
:104FE00001E000207047032900D21B01491C04295D
:104FF000D9D31846F6E700002DE9F04391B080467A
:105000000C4600BF00201090FFF74EFB81460025A4
:105010000CB1206818B9002011B0BDE8F08300255C
:105020003CE0A16820680844405D342820D00ADCB8
:10503000A0F12B0009282ED2DFE800F0202D212A34
:105040002D1617181900382816D006DC352810D070
:1050500036280FD037281ED10DE039280DD045282D
:105060000FD0652817D10BE000BF00BF00BF00BF05
:1050700000BF00BF00BF00BF00BF00BF00BF00BF38
:1050800000BFA16820680844405D0DF8050003E0FA
:105090000DF8059000E00AE000BF6D1C3F2D05D221
:1050A00024B1A068284461688842BAD300BF0020B8
:1050B0000DF8050010A9684600F026FB06460F46CD
:1050C00068461099884201D10020A5E7C8E9066723
:1050D000144A154B30463946FBF77AFB04D86FF07B
:1050E0000040C8F8140011E00022104B3046394649
:1050F000FBF756FB04D84FF00040C8F8140005E059
:1051000030463946FBF719FBC8F814000820C8F8E8
:105110000C00A0686A461099891A0844A060012012
:105120007AE700000000C0FFFFFFDF410000E0C1A0
:105130002DE9F04180460C4600270025E068B0F5D7
:105140007A7F02D30020BDE8F081E068401CE06077
:1051500044B1D4E90110884204D2A1682068405CBF
:105160007B2800D07BE0A068401CA0602046FFF7B1
:1051700085F94CB1D4E90110884205D2A1682068B4
:10518000405C7D2800D15DE01CB1D4E9011088426B
:1051900003D3A068401EA06061E0A068401EA0602C
:1051A00000BF04F11000FFF7BCF9064606B956E04F
:1051B00017B93746354602E02E6075603546A0685F
:1051C000401CA0602046FFF759F92146284600F010
:1051D0004CF800B943E02046FFF750F928692862EF
:1051E0000020286144B1D4E90110884204D2A168AA
:1051F0002068405C3A2800D031E0A068401CA060E4
:105200002046FFF73BF92146284600F0F5F800B9A3
:1052100025E02046FFF732F944B1D4E90110884275
:1052200004D2A1682068405C2C28BAD044B1D4E9EB
:105230000110884204D2A1682068405C7D2800D01B
:105240000DE000BFE068401EE0604020C8F80C00A0
:10525000C8F80870A068401CA060012073E717B16F
:105260003846FFF729F900206DE72DE9F84F804611
:105270000C46A16820680844461CA16820680844C0
:10528000451C002000900027A1682068405C22286F
:1052900000D0A6E04FF0000AD1460DE028785C2847
:1052A00009D1681C2168401A6168884200D398E0DF
:1052B00009F101096D1C6D1C2068281A616888427B
:1052C00002D228782228E9D12068281A6168884209
:1052D00002D22878222800D083E0A1682068084400
:1052E000281AA0EB090A0AF101002169884707463C
:1052F00007B976E0009761E030785C2807D016F8AF
:10530000010B009908700098401C009056E04FF087
:105310000209A81B012800DA63E07078662819D01A
:1053200008DC222832D02F2832D05C282FD06228E7
:1053300040D108E06E2814D0722819D074281ED0ED
:10534000752837D12BE00820009908700098401C80
:10535000009030E00C20009908700098401C0090EC
:1053600029E00A20009908700098401C009022E073
:105370000D20009908700098401C00901BE0092047
:10538000009908700098401C009014E000BF00BF16
:105390007078009908700098401C00900BE06A46F5
:1053A0002946304600F0B8FA8146B9F1000F00D125
:1053B00017E000E015E000BF4E4400BFAE429BD3B3
:1053C0000020009908701020C8F80C00C8F8107070
:1053D0002068281AA060A068401CA0600120BDE8D9
:1053E000F88F17B138466169884716B12068301ABE
:1053F000A0600020F3E7000070B505460C460CB134
:10540000206808B9002070BD9CB1A068001D6168CB
:1054100088420ED8A2682168881804223FA1FAF7B2
:10542000C0FE30B90420E860A068001DA060012023
:10543000E9E79CB1A068401D616888420ED8A26867
:1054400021688818052237A1FAF7ABFE30B9012090
:10545000E860A068401DA0600120D4E7ACB1A0685E
:10546000001D6168884210D8A2682168881804224B
:105470002EA1FAF796FE40B90220E860012068618B
:10548000A068001DA0600120BDE76CB1D4E9011047
:10549000884209D2A1682068405C222804D12146B4
:1054A0002846FFF7E2FEAEE7BCB1D4E9011088421E
:1054B00013D2A1682068405C2D2809D0A16820681B
:1054C000405C302809DBA1682068405C392804DC96
:1054D00021462846FFF790FD95E76CB1D4E901100D
:1054E000884209D2A1682068405C5B2804D121462B
:1054F0002846FFF7D9FC86E76CB1D4E90110884251
:1055000009D2A1682068405C7B2804D12146284646
:10551000FFF70EFE77E7002075E700006E756C6CF4
:105520000000000066616C736500000074727565B0
:1055300000000000F8B504460D460026002000904B
:105540002FE0684600F038F81948008820B99DF827
:105550000000EE2800D024E015480088A84208DAB0
:105560009DF80010124802880088401C104B1880DB
:10557000A1549DF800000F49096840EA01200D4937
:105580000860084600686FF44031884208D1084836
:105590000688002007490860054908803046F8BDA4
:1055A00000BF00F04BF80028CBDC0020F7E700003C
:1055B0005C0000205800002001460B4840880A4A41
:1055C000128890420FD008484288001D805C087005
:1055D000054A5288501CC21700EBD2525212A0EB5F
:1055E0004222014B5A807047A009002001460A4B15
:1055F0001B88581CC31700EBD3535B12A0EB43234B
:105600009AB205484088904205D003480388001D9F
:10561000C154001F02807047A009002000200449E7
:1056200048800880034908600349088070470000EB
:10563000A0090020580000205C00002007480088D6
:1056400000F50070054A5288811AC81701EBD05046
:105650004012A1EB402080B270470000A00900205A
:105660002DE9F04704008A4616D054F8047CD4F89B
:1056700000903E1F564500D956462046FEF732FAA6
:1056800005468846324621465046FFF739F840B174
:10569000C0F80090BDE8F087BDE8F0470846FEF787
:1056A0004FBA44E9017955B129686A18211F8A4225
:1056B00002D9611B091F2960C5F80480EAE7024A84
:1056C000C2F80080E6E700006000002010B5044644
:1056D0001CB1206808B1A06808B1002010BD7CB1E1
:1056E000A068001D616888420AD2A26821688818F3
:1056F000032204A1FAF755FD10B9A068C01CA060F0
:105700002046EBE7EFBBBF0000B583B00A4600219F
:10571000CDE9001101466846FBF73FF9DDE90001DC
:1057200003B000BD70B56FF00400FDF7E3FA124955
:10573000B1F1807F00D31DE021F07F40401E4FF08B
:10574000E022506150170F22002807DA13071D0EC0
:105750000A4B00F00F04241F1D5503E013071C0E15
:10576000074B1C5400BF00204FF0E022906107203F
:10577000106100BF70BD00000053070018ED00E08D
:1057800000E400E02DE9F041DFF85C814046FEF7DF
:10579000D5FE0746002F7DD054A13846FEF7B8FE4F
:1057A0000646002EF7D052A13046FEF7B1FE054660
:1057B000002D40D04FA12846FEF7AAFE044634B182
:1057C000D4E906211046FBF71BF84B4908624BA1B0
:1057D0002846FEF79DFE044634B1D4E90621104662
:1057E000FBF70EF84449886245A12846FEF790FE73
:1057F000044634B1D4E906211046FBF701F83E49CE
:10580000086340A12846FEF783FE044634B1D4E97C
:1058100006211046FAF7F4FF374988633AA1284673
:10582000FEF776FE044634B1D4E906211046FAF7B5
:10583000E7FF3149086435A13046FEF769FE0546A9
:10584000002D42D02BA12846FEF762FE044634B15B
:10585000D4E906211046FAF7D3FF2749886427A127
:105860002846FEF755FE044634B1D4E90621104619
:10587000FAF7C6FF2049C86421A12846FEF748FE72
:10588000044634B1D4E906211046FAF7B9FF1A49A3
:10589000086500E019E01BA12846FEF739FE044622
:1058A00034B1D4E906211046FAF7AAFF1249486537
:1058B00015A12846FEF72CFE044634B1D4E9062192
:1058C0001046FAF79DFF0C4988653846FEF7F4FD4F
:1058D0000F4801780448FAF744FC00200D4908708D
:1058E0000B490870BDE8F081A001002072000000A3
:1058F000706F730078000000440100207900000000
:105900007A00000061000000620000006D706F000E
:1059100054000020040000202DE9FF5F80468946E6
:10592000154600240026C2460020039083460290BC
:105930000190A9EB0A00062800DA81E00AF10200D2
:10594000FFF72CFB0646B6F55C4F03D3B6F5604F68
:1059500000D275E0B6F5584F29D3B6F55C4F26D284
:105960000AF10607002000900C200290A9EB070026
:10597000062800DA64E038785C2802D17878752847
:1059800000D05DE0B81CFFF709FB00900098B0F56F
:105990005C4F03D30098B0F5604F00D350E0C6F3DE
:1059A0000901009861F39F2000F5803402E0062091
:1059B00002903446802C02D20120039018E0B4F506
:1059C000006F04D202200390C020019010E0B4F5D3
:1059D000803F04D203200390E020019008E0B4F55A
:1059E000881F04D204200390F020019000E027E0FB
:1059F0000398401E00F0FF0B0BE004F0BF0040F0E6
:105A00008000296801F80B00A409ABF1010000F047
:105A1000FF0BBBF1000FF0DC0398012804DD0198B7
:105A200020432968087003E004F07F0029680870AB
:105A30002968039808442860029804B0BDE8F09FE4
:105A40000020FAE7DDDDDDDDDCBBBBDDDDDDDDDD3E
:105A5000DDDDDDDD988888888888888877777777A6
:105A60007788888885555556666666666666666672
:105A7000666888888333333222222222222222221D
:105A80002228888DA45A0008000000206800000029
:105A9000903B00080C5B000868000020401B0000E1
:105AA000A03B000800000000000000000000000013
:105AB00000000000000000000000000000000000E6
:105AC00000000000000000000000000000000001D5
:105AD0000000000000000000413B0008E53A00081B
