:020000040800F2
:10000000F006002001010008650300084303000812
:1000100063030008C9010008590F00080000000030
:100020000000000000000000000000002D08000893
:10003000710200080000000085040008AD0C0008F3
:100040001B0100081B0100081B0100081B01000820
:100050001B0100081B0100081B0100081B01000810
:100060001B0100081B0100081B0100081B01000800
:100070001B0100081B0100081B0100081B010008F0
:100080001B0100081B0100081B0100081B010008E0
:100090001B0100081B0100081B0100081B010008D0
:1000A0001B0100081B0100081B0100081B010008C0
:1000B0001B0100081B0100081B0100081B010008B0
:1000C0001B0100081B0100081B0100081B010008A0
:1000D0001B010008FD0C00081B0100081B010008A3
:1000E0001B0100081B0100081B010008DFF80CD0F1
:1000F00000F02EF80048004731120008F0060020FA
:100100000648804706480047FEE7FEE7FEE7FEE7B1
:10011000FEE7FEE7FEE7FEE7FEE7FEE7BD0C0008B0
:10012000ED00000830B50B460146002020220124D6
:1001300009E021FA02F59D4205D303FA02F5491BB5
:1001400004FA02F52844151EA2F10102F1DC30BDCB
:10015000064C074D06E0E06840F0010394E8070014
:1001600098471034AC42F6D3FFF7C4FF9C14000844
:10017000BC14000870B5054616460C46EE2000F08B
:1001800057FBB12000F054FB232000F051FB280A5C
:1001900000F04EFBE8B200F04BFB200A00F048FBF9
:1001A000E0B200F045FB304600F042FBFF2000F0DB
:1001B0003FFBFC2000F03CFBFF2000F039FBBDE8DA
:1001C0007040FF2000F034BBFEE7000010B5214C6A
:1001D000E078401CC0B2E070072839D2DFE800F0B8
:1001E00038040B1219202C001BA21B21002000F048
:1001F00058FC19A21AE019A21B21002000F051FCA2
:1002000016A213E016A21B21002000F04AFC14A243
:100210000CE014A21B21002000F043FC11A205E019
:1002200011A21B21002000F03CFC0FA21E21BDE802
:100230001040022000F035BC0CA21B21002000F071
:1002400030FC0AA21E21022000F02BFC0020E070EE
:1002500010BD000000000020473534004735350050
:1002600047353600473537004735380047353900C0
:100270007047000004490A6822F010020A600A6808
:1002800002430A607047000000200240034A1168E0
:1002900001F0380101431160704700000020024066
:1002A000F0B5CA78002502F00F03D20601D58A788E
:1002B00013430A784FF00F0E12F0FF0F4FF00102B8
:1002C0001CD004680F8802FA05F63740B74211D1F6
:1002D0004FEA850C0EFA0CF724EA070703FA0CF430
:1002E0003C43CF78282F02D0482F02D002E046614D
:1002F00000E006616D1C082DE4D304600C88FF2C1F
:100300001ED944685FF0000606F1080702FA07F5F7
:100310000F882F40AF420FD14FEA860C0EFA0CF730
:10032000BC4303FA0CF73C43CF78282F00D145613A
:10033000CF78482F00D10561761C082EE4D34460A5
:10034000F0BDFEE708B54FF4C06000F03FF825208F
:100350008DF8000001208DF80100684600F004F8D7
:1003600008BDFEE77047000070B50F23C478017820
:100370000122F4B1144C2468457804F4E064C4F517
:10038000E064240AC4F10406E3408478B5401C40CC
:100390002C4301F1E021230181F80034007800F0C2
:1003A0001F018A404009800000F1E020C0F80021D0
:1003B00070BD01F01F0082404809800000F1E0207C
:1003C000C0F8802170BD00000CED00E00249084338
:1003D00002490860704700000000FA050CED00E0DB
:1003E00010B5214C2079401CC0B22071072839D2A9
:1003F000DFE800F038040B1219202C001BA21D218D
:10040000002000F04EFB19A21AE019A21D210020C5
:1004100000F047FB16A213E016A21D21002000F0F9
:1004200040FB14A20CE014A21D21002000F039FBB7
:1004300011A205E011A21D21002000F032FB0FA245
:100440002021BDE81040022000F02BBB0CA21D2192
:10045000002000F026FB0AA22021022000F021FB50
:100460000020207110BD0000000000205831000065
:100470005832000058330000583500005831300021
:1004800058323000704700003EB50024112000F0C3
:100490004FFA0A2000F0BEFE112000F049FA0A20AF
:1004A00000F0B8FE22460321112000F00CFA1420BF
:1004B00000F0B0FE641CE4B2652CF3D3002000F021
:1004C00037FA0A2000F0A6FE102431A221460020AF
:1004D00000F0E7FA641CE4B2152CF6D322242CA217
:1004E0002146002000F0DDFA641CE4B2272CF6D38C
:1004F0002AA21B21002000F0D4FA28A21E210220EB
:1005000000F0CFFA26A21C21002000F0CAFA24A293
:100510001F21022000F0C5FA22A21D21002000F0B8
:10052000C0FA20A22021022000F0BBFA642201219F
:10053000002000F0C8F91C481CA1428901A800F065
:1005400063FD01AA1821002000F0ABFA6422022109
:10055000002000F0B8F90320002300906422272136
:10056000184600F059FA0220002300904FF47A72E6
:100570001921184600F050FA00220D21022000F047
:1005800078F901220E21022000F073F93EBD00002F
:100590003030303030302E303000000047353900F8
:1005A000B9D8000058300000000000202564000089
:1005B00010B5264C417800F1080261718178A17173
:1005C000417AE171C1792172B0F8031049BAA18171
:1005D000B0F805101F4849BAE1811DA100F014FDD3
:1005E0006079B12813D1A089162810D2DFE800F075
:1005F0000B0D10120F1416180F1A1C1E2022242681
:10060000280F0F0F2A2C002000E00120A07010BD41
:100610000220FBE70320F9E70420F7E70520F5E7D0
:100620000620F3E70820F1E70920EFE70A20EDE7CD
:100630000B20EBE70C20E9E70D20E7E70E20E5E7CC
:100640000F20E3E70720E1E71020DFE700000020AC
:100650002573000044000020044A0029116901D0DC
:10066000014300E081431161704700000010024027
:10067000044A0029916901D0014300E0814391615E
:100680007047000000100240044A0029D16801D0E0
:10069000014300E08143D160704700000010024038
:1006A0000C48016841F00101016041680A4A1140AB
:1006B00041600168094A11400160016821F480210C
:1006C0000160416821F4FE0141604FF41F01816027
:1006D00070470000001002400000FFF8FFFFF6FE28
:1006E00030B51F494A6812F00C031E4A03D0042B90
:1006F00001D0082B21D002604A680F231A4C03EA6C
:100700001212A35C0268DA4042604B68072505EAD2
:100710001323E35C22FA03F383604B6805EAD323D7
:10072000E35CDA40C2604968032303EA9131231F86
:10073000595CB2FBF1F1016130BD4A684B6802F4CB
:1007400070124FF0020413F4803F04EB924202D087
:100750004B689B0301D5054B00E0024B5A43CAE7A7
:100760000010024000127A002C00002000093D0019
:100770000246002053090949012B0BD0022B0BD054
:10078000D1F8241002F01F02012393400B4200D045
:10079000012070470968F5E7096AF3E70010024095
:1007A0000248406800F00C00704700000010024052
:1007B000034A516821F0F001014351607047000085
:1007C00000100240014908607047000000004242EA
:1007D000034A516821F4E061014351607047000011
:1007E0000010024003494A6822F4605242EAC00005
:1007F00048607047001002400149086670470000D9
:1008000000004242034A5368084323F47C13184310
:100810005060704700100240034A516821F0030104
:100820000143516070470000001002407047000013
:1008300010B5094C0146204600F040FB80212046BF
:1008400000F0B4FA0028F9D04021204600F0AEFABA
:100850000028F9D010BD00000038014010B5044652
:1008600003E000BFFFF7E4FF641C20780028F9D103
:1008700010BD70B5054616460C46EE20FFF7D8FFB2
:10088000B120FFF7D5FF1020FFF7D2FF280AFFF7AE
:10089000CFFFE8B2FFF7CCFF200AFFF7C9FFE0B2B5
:1008A000FFF7C6FF3046FFF7C3FFFF20FFF7C0FF8B
:1008B000FC20FFF7BDFFFF20FFF7BAFFBDE8704047
:1008C000FF20FFF7B5BF70B5064614460D46EE2073
:1008D000FFF7AEFFB120FFF7ABFF1020FFF7A8FF37
:1008E000300AFFF7A5FFF0B2FFF7A2FF280AFFF7D3
:1008F0009FFFE8B2FFF79CFF200EFFF799FFC4F3BC
:100900000740FFF795FFC4F30720FFF791FFE0B220
:10091000FFF78EFFFF20FFF78BFFFC20FFF788FF1C
:10092000FF20FFF785FFBDE87040FF20FFF780BF85
:1009300010B50446EE20FFF77BFFB120FFF778FFEC
:100940000020FFF775FF200AFFF772FFE0B2FFF704
:100950006FFFFF20FFF76CFFFC20FFF769FFFF2010
:10096000FFF766FFBDE81040FF20FFF761BF000002
:100970000CB50021264801910091026842F48032B2
:1009800002604FF4A063026802F400320092019A00
:10099000521C0192009A12B9019A9A42F3D102684C
:1009A000920333D5012100911A490A6842F01002DE
:1009B0000A600A6822F003020A600A6842F0020232
:1009C0000A604168416041684160416841F480616A
:1009D0004160416821F47C114160416841F4E811B3
:1009E0004160016841F08071016001688901FCD5B6
:1009F000416821F003014160416841F0020141601A
:100A00004168C1F381010229FAD10CBD0091FEE7D2
:100A100000100240002002402DE9F04106461F462A
:100A200014460D46EE20DDF81880FFF701FFB120D7
:100A3000FFF7FEFE0720FFF7FBFE300AFFF7F8FE88
:100A4000F0B2FFF7F5FE280AFFF7F2FEE8B2FFF773
:100A5000EFFE0FB1012000E00020FFF7E9FE08F0F3
:100A60000F0040F08000FFF7E3FE200EFFF7E0FEEE
:100A7000C4F30740FFF7DCFEC4F30720FFF7D8FEFE
:100A8000E0B2FFF7D5FEFF20FFF7D2FEFC20FFF714
:100A9000CFFEFF20FFF7CCFEBDE8F041FF20FFF7BF
:100AA000C7BE70B5054616460C46EE20FFF7C0FEE1
:100AB000B120FFF7BDFE1020FFF7BAFE280AFFF7AE
:100AC000B7FEE8B2FFF7B4FE200AFFF7B1FEE0B2CE
:100AD000FFF7AEFE3046FFF7C1FEFF20FFF7A8FE8E
:100AE000FC20FFF7A5FEFF20FFF7A2FEBDE8704047
:100AF000FF20FFF79DBE000010B5FFF7D1FD0120DC
:100B0000FFF760FE2120FFF733FE0028FAD0102007
:100B1000FFF7B0FB0220FFF7B9FB0020FFF748FE0C
:100B20000020FFF75FFE4FF48060FFF751FE4FF4A7
:100B300020110020FFF766FE0120FFF75DFE39203F
:100B4000FFF716FE0028FAD00220FFF765FE00BF6F
:100B5000FFF726FE0828FBD110BD10B50446EE2095
:100B6000FFF766FE9320FFF763FE2046FFF760FE67
:100B7000FF20FFF75DFEFC20FFF75AFEFF20FFF786
:100B800057FEBDE81040FF20FFF752BE10B5074CDE
:100B9000012805D06420FFF7E0FF0020207010BD81
:100BA0000020FFF7DAFF0120F8E700000000002036
:100BB000FEB5364C0023642562892169032810D0D4
:100BC000042814D02246032102269269052823D046
:100BD000062846D1642A45DA0A32A261009600232B
:100BE0004EE00A392161002906DC236104E00A3164
:100BF0002161642900DB2561206925A1424392FB24
:100C0000F5F201A800F000FA01AA18210020FFF770
:100C100048FF0121226921E0642A06DC0A3AA26128
:100C2000002A00DCA361009628E0A2F16500C72835
:100C300003D8193AA2610091D1E7D4E905014843EC
:100C400090FBF5F002B212A101A800F0DDF901AAB3
:100C500019210020FFF725FFA26902210020FFF7DC
:100C600032FEFEBDA2F16400C828E6D819324FF466
:100C70009670A261824200DBA0610091A26900230C
:100C800027210020FFF7C8FED7E700000000002062
:100C9000256400004FF0E0210428086903D020F00B
:100CA00004000861704740F00400FAE70248016858
:100CB000491C016070470000240000200C480168B6
:100CC00041F00101016041680A4A11404160016838
:100CD000094A11400160016821F4802101604168E6
:100CE00021F4FE0141604FF41F018160FFF740BE17
:100CF000001002400000FFF8FFFFF6FE10B5084CA0
:100D000040F22551204600F058F8002807D0204630
:100D100000F0D0F8BDE81040C0B200F08DBB10BDAF
:100D2000003801400029818902D041F4005101E0DE
:100D300021F4005181817047174910B588420AD1CA
:100D400001218C032046FFF79FFC2046BDE81040A0
:100D50000021FFF799BC1149884202D101214C04BE
:100D600010E00F49884202D101218C040AE00D49AC
:100D7000884202D10121CC0404E00B4988420AD107
:100D800001210C052046FFF767FC2046BDE8104016
:100D90000021FFF761BC10BD003801400044004055
:100DA00000480040004C0040005000400246002037
:100DB00012880A4200D00120704730B501F01F02AE
:100DC00001240025C1F3421304FA02F2012B0FD0D3
:100DD000022B0FD0838A4FEA11210088134204FAB4
:100DE00001F400EA040001D000B10125284630BD1D
:100DF0008389F0E7038AEEE710B5C1F3421301F0EF
:100E00001F040121A140012B07D0022B07D0143071
:100E1000002A026805D00A4304E00C30F8E71030DD
:100E2000F6E78A43026010BD30B50446008A85B0FB
:100E30000D464CF6FF710840E98801432182A189E3
:100E40004EF6F3100140A8882A8910436A890A43A4
:100E50001043A081A08A4FF6FF410840A9890143B1
:100E6000A1826846FFF73CFC1148844201D10398F7
:100E700000E00298642200EBC00101EB0010296839
:100E80006FF018058900B0FBF1F0B0FBF2F1090139
:100E90000B096B4300EB8300322303EB0010B0FB24
:100EA000F2F000F00F000843208105B030BD0000D3
:100EB000003801408088C0F308007047C1F3080182
:100EC0008180704730B5044685B001210520FFF7C9
:100ED000CFFB01218803FFF7CBFB4FF40070ADF887
:100EE000100018208DF813000320194D8DF8120002
:100EF00004A92846FFF7D4F92815ADF810000420FE
:100F00008DF8130004A92846FFF7CAF9114D2846A9
:100F1000FFF712FF0020ADF80400ADF80600ADF8B1
:100F20000800ADF80C000C20ADF80A0000946946EA
:100F30002846FFF779FF012240F225512846FFF7A6
:100F40005BFF01212846FFF7EDFE05B030BD000034
:100F50000008014000380140FEE710B501220B21D6
:100F60000020FFF707F901221C211046FFF702F9C4
:100F700001222B210220FFF7FDF80122212106206A
:100F8000FFF7F8F8012205210A20FFF7F3F8012204
:100F90000D210B20FFF7EEF8012209210D20FFF7AC
:100FA000E9F801220C21BDE810400E20FFF7E2B85D
:100FB00010B500220B211046FFF7DCF800221C219F
:100FC0000120FFF7D7F800222B210220FFF7D2F8EB
:100FD000002221210620FFF7CDF8002205210A205A
:100FE000FFF7C8F800220D210B20FFF7C3F80022FD
:100FF00009210D20FFF7BEF800220C21BDE81040AA
:101000000E20FFF7B7B800000FB4084B10B504A9C5
:1010100002AA039800F01CF8044602A9002000F080
:10102000F3F8204610BC5DF814FB0000091200081C
:1010300002E008C8121F08C1002AFAD170477047A1
:10104000002001E001C1121F002AFBD170470000FF
:101050002DE9FF4F8BB09A460F460546002606E065
:1010600025280BD052460D9990476D1C761C287888
:101070000028F5D10FB03046BDE8F08F0024A0461F
:101080000122604900E0044315F8013F203B02FAC9
:1010900003F00842F7D128782E2817D115F8010F50
:1010A00044F004042A280ED06FF02F022878A0F113
:1010B000300109290AD808EB880102EB410100EB55
:1010C00001086D1CF2E757F8048B6D1C287869281D
:1010D0003ED006DC0028CDD063280BD0642804D194
:1010E00036E0732810D075284BD052460D999047A2
:1010F000761C85E017F8040B8DF8000000208DF8B1
:101100000100E946012003E057F8049B4FF0FF304F
:1011100061074FF0000401D40AE0641C44450DDA75
:101120008442FADB19F804100029F6D106E0641CA9
:101130008442FCDB19F804100029F8D1264404E0AD
:1011400019F8010B52460D999047641EF8D257E0EA
:1011500001CF4FF00A0B002802DA40422D2102E0B5
:10116000210504D52B218DF82410012103E0E1078E
:1011700005D02021F7E70DF1200908910CE00021AE
:10118000F9E701CF4FF00A0BF9E75946FEF7CAFF1E
:1011900001F1300209F8012D0028F6D1ADEB09006C
:1011A00000F1200B600701D44FF00108D84502DDA3
:1011B000A8EB0B0000E000208046002406E009A810
:1011C0005246005D0D999047641C761C0898844235
:1011D000F5DB04E0302052460D999047761CB8F1BB
:1011E0000001A8F10108F5DC05E019F8010B5246F1
:1011F0000D999047761CBBF10001ABF1010BF4DCBB
:101200006D1C34E7092801000A68531C0B6010703C
:101210007047000030B5054A11680A23B0FBF3F4AB
:1012200015686D1AAC42F9D230BD000024000020D0
:10123000FFF762FCFFF786F800F01AF94FF4E1308F
:10124000FFF740FE00F008F94FF49670FFF7E2FF59
:10125000FFF71AF9564C00250126A5704021554884
:1012600000F0AEF8010006D052484078072810D0B0
:101270005048FFF79DF9A07811281FD2DFE800F051
:10128000141F448F8F8F8F8F8F8F818F8F8F8F8FB2
:10129000350071B648480168484A01F4E0611143DD
:1012A0000160BFF34F8FFEE7207A102877D1E079F5
:1012B000002874D0A07BFFF77BFCE5716FE0207AFB
:1012C00010286CD1E0891B2802D0052806D066E0E2
:1012D000E07908B1667262E0657260E0207801280A
:1012E00010D000221B21012041E0207A102856D185
:1012F000E089012802D1607AFFF748FCE0890228E2
:10130000ECD04CE00122EDE7207A102847D1E079BB
:1013100048B1E089072801D1FEF758FFE08903288A
:1013200001D1FFF75DF8E0890D2804D00E2810D018
:101330000F2834D11EE0667000220E210220FFF734
:1013400098FAE07958BBC820FFF764FF01220D210D
:101350000CE0657000220D210220FFF78AFAE07987
:10136000E8B9C820FFF756FF01220E210220FFF73F
:1013700080FA14E0657000220D210220FFF779FA4F
:10138000F2E7207A10280AD0112808D1E08907282E
:1013900005D1084A0821143A0B20FFF782FB607838
:1013A00010B1FFF7DAFD59E7FFF702FE56E700003C
:1013B00000000020580000200CED00E00400FA05B9
:1013C000F0B51C4D00273A46194CB5F800C019E09D
:1013D000664506D0174A121DB25C761CC6F3080398
:1013E0006B8023880BB9EE2A0CD18B4202D2C254F7
:1013F0005B1C2380636842EA032303F54036636085
:10140000761C11D06E88ACEB060303F500734FEA2F
:10141000E37E03EBDE5E6FF3080EA3EB0E031B040B
:101420001B0CD5D10020F0BD208867602780F0BD5F
:101430003C000020EA000020064910B50B884C88CB
:101440005A1CC2F30802944202D00C1D18550A809F
:1014500010BD0000EA0000200349002048800880F9
:101460000249486008807047EA0000203C000020E4
:1014700010B56FF00400FFF70DFC4FF0E0200549B8
:101480004161054AF02182F8141D00218161072184
:10149000016110BDFF5207000FE000E0BC1400081E
:1014A0000000002044000000301000080015000873
:1014B00044000020AC0600004010000800000000BE
:1014C000000000000000204E00000000640000004A
:1014D000E8030000640000000000000000000000BD
:1014E00000000000020406080000000001020304DE
:1014F00001020304060708090000000000000000C4
:04000005080000ED02
:00000001FF
