:020000040800F2
:10000000F80B002001010008DD160008511500085A
:10001000D9160008CD0F0008F133000800000000D9
:10002000000000000000000000000000D51C0008D7
:10003000F11100080000000041180008A126000886
:100040001701000817010008170100081701000830
:100050001701000817010008F31100080512000835
:100060001701000817010008170100081701000810
:100070001701000817010008170100081701000800
:1000800017010008170100081701000817010008F0
:1000900017010008170100081701000817010008E0
:1000A00017010008170100081701000817010008D0
:1000B000512D00081701000817010008170100085A
:1000C00017010008170100081701000817010008B0
:1000D00017010008493100087131000817010008B4
:1000E000170100081701000817010008DFF80CD0FD
:1000F00000F046FD00480047CD4C0008F80B0020FA
:1001000005480047FEE7FEE7FEE7FEE7FEE7FEE7FD
:10011000FEE7FEE7FEE7FEE7ED000008D2B201E0F1
:1001200000F8012B491EFBD270470022F6E710B5FC
:1001300013460A4604461946FFF7F0FF204610BD55
:100140000FB400B58DB010A909900B9000914FF03D
:10015000FF300A9000200C90054806900548079053
:100160006A4609A80F9900F0B5FB0DB05DF814FBC5
:10017000F10800080F0900082DE9FF4F087881B049
:100180009946FF2805D0491C2D2804D000240023BF
:1001900008E000230BE00124F9E703EB830300EB05
:1001A0004303491C0878FF28F7D104B15B420020C3
:1001B0000090147801462D2C01D02B2C04D1521C18
:1001C0002D2C12D00024009400251678FF2E0ED07E
:1001D0000A24A0FB04C801FB0481002700FB0711CF
:1001E000521C16EB0C006941EFE70124EBE7994440
:1001F00050EA01020ED00024AA4D2646DFF8A8825C
:1002000000F099FC82468B46B9F1000009DAC9F189
:1002100000071BE001980021C0E9001105B0BDE80E
:10022000F08F074612E0F80707D022462B463046EB
:10023000414600F0E4F90646884622462B46104621
:10024000194600F0DCF904460D467F10002FEAD174
:10025000B9F1000F324643465046594602DA00F0E3
:10026000FBFB01E000F0CBF9009A0AB181F00041FC
:10027000019AC2E90001D1E72DE9FF4F1F468DB079
:10028000D7E901464FF0FF382E2045464FF00009D0
:100290000B90B9696D1C0E988847396A8246884769
:1002A0000028F6D1BAF1FF3F0AD024F4D064002E22
:1002B00011DDBAF12B0F08D0BAF12D0F0BD102E0EE
:1002C000404611B0ABE744F48064B9696D1C0E98E8
:1002D00088478246761E6946600501D52D2000E0DC
:1002E0002B208DF8000001F1010B0DF1200809E031
:1002F000B9696D1C0E98884782460F9844F40074C3
:10030000761E0560002E02DDBAF1300FF0D00B9999
:100310008A453ED144F0800406E00F99681CA9F19B
:10032000010944F400740860B9696D1C761E0E98CA
:10033000884782463028F0D02BE00B998A4505D1BA
:10034000200603D444F08004761E18E0504604F0E2
:10035000F9F808B30DF11301761E44F400748B45CF
:1003600008D2AAF130000BF8010B200607D5A9F13D
:10037000010003E0200602D409F101008146A00536
:1003800002D50F99681C0860B9696D1C0E988847E2
:100390008246002ED1DC53E0002E51DDBAF1650F0C
:1003A00002D0BAF1450F4BD1A00549D5B9696D1CF2
:1003B00024F44074761E0E9888478246002E0CDD89
:1003C0002B2804D0BAF12D0F07D144F48074B969F9
:1003D0006D1C0E9888478246761EE00501D52D21BA
:1003E00000E02B2108F8011BCDF82C8021E00DF155
:1003F0002901761E44F4007488450CD2AAF130001D
:1004000010F0FF0088F8000002D10B99884509D947
:1004100008F1010806E0E00501D5244801E042F2B8
:100420000F708146B9696D1C0E98884782460F98F7
:100430000560002E04DD504604F084F80028D6D173
:10044000F9690E988847FF208BF8000088F80000B3
:100450000020069007904B466A4608A906A8FFF7B9
:100460008BFEA00502D46FF001002AE714F0240FE0
:100470000AD0E00714D1DDE906123868031D3B609D
:100480000068C0E900120BE0DDE9060100F07EF92A
:100490000146E00704D13868021D3A600068016037
:1004A00028460EE7000024400000F03FF1D8FFFF8F
:1004B0002DE9FE4F804681EA0300C00F0C460090F4
:1004C00021F0004123F00045B8EB0200A94105D21C
:1004D0004046214690461C460B46024623F000400B
:1004E000104347D0270DC7F30A00C3F30A51029007
:1004F000401A019040286BDAC3F3130040F4801BCC
:100500000098924620B10023D2EB030A63EB0B0B59
:1005100001985946C0F14002504600F0A4F9064641
:100520000D4650465946019A00F0BCF910EB080000
:100530006141002487EA115284EAE7731A4340D0EC
:10054000009A62B3019A012A4FEA075215DC001B98
:1005500061EB02014FF0004202EA0752CDE900428E
:10056000001C41F5801132462B4600F027FA03B0FB
:10057000BDE8F08F40462146F9E7001B61EB020120
:10058000001C41F5801300185B412018A2F50017EC
:1005900047EB030140EAD570B6196D4111E06D08D3
:1005A0004FEA360645EAC0754FEA0752001B61EB79
:1005B0000201001C41F5801149084FEA3000001982
:1005C000514132462B4603B0BDE8F04F00F0E7B989
:1005D0000098012240000023D0EB020263EBE0739D
:1005E000009821464FEAE074B8EB000061EB04018B
:1005F000E9E783F000435BE781F0004158E72DE92C
:10060000FE4F81EA030404F0004421F0004100940D
:100610004FF0000B23F0004350EA01045ED052EA91
:1006200003045BD0C3F30A54C1F30A552C44A4F26B
:10063000F3340194A0FB0254C1F3130141F480117F
:10064000C3F3130343F4801301FB024400FB034E86
:10065000840A970A44EA815447EA8357A4FB07684F
:1006600002958D0A05FB07854FEA932C04FB0C5479
:100670002705029D4FEA065847EA1637B5EB0805ED
:100680006EEB070C870E920E47EA811742EA83123F
:10069000A7FB0201B6EB0B0164EB00042B0D43EA50
:1006A0000C335E1844EB1C50DA465146E7FB02015E
:1006B000C5F313044FEA0B3343EA14534FEA0432F1
:1006C000019C43EA0603A4F10C040294009CCDE9CA
:1006D00000B400F073F903B0BDE8F08F00200146CC
:1006E000F9E70EB5C10F80EAE0700844CA0700219F
:1006F00040F233438DE80E000A460B4600F05EF9E7
:1007000003B000BD00F0004220F00040C10DC0F376
:10071000160040F400007F2901DA00207047962976
:1007200003DCC1F19601C84001E096398840002AF7
:10073000F4D04042704700F0004230F000400AD050
:10074000C10D01F56071C0F3160042EA0151C20803
:1007500040071143704700200146704730B5041E22
:1007600071F1000404DB4FF00044404264EB0101EE
:10077000141E73F1000405DB1C464FF00043524287
:1007800063EB0403994208BF904230BD01F000437F
:1007900030B421F0004150EA010206D00A0DA2F562
:1007A0006072C1F31301002A02DC30BC00207047E4
:1007B000440F44EAC104C100E01830BC00EBC25051
:1007C00000F0B6B8002801DBC0F10040002901DBD1
:1007D000C1F100418142704730B50B46014600200F
:1007E0002022012409E021FA02F59D4205D303FAF3
:1007F00002F5491B04FA02F52844151EA2F1010274
:10080000F1DC30BD2DE9F05F0546002092469B46A5
:1008100088460646814640241BE028464146474616
:10082000224600F02FF853465A46C01A914110D381
:1008300011461846224600F016F82D1A67EB0108FB
:100840004F4622460120002100F00DF817EB000969
:100850004E41201EA4F10104DFDC484631462A4601
:100860004346BDE8F09F202A04DB203A00FA02F15B
:10087000002070479140C2F1200320FA03F319438E
:1008800090407047202A04DB203A21FA02F0002130
:10089000704721FA02F3D040C2F120029140084390
:1008A00019467047202A06DBCB17203A41FA02F09E
:1008B00043EAE07306E041FA02F3D040C2F12002BD
:1008C000914008431946704702681144137801604B
:1008D00018467047D16004495161044911620021F2
:1008E0001161114600F064B9C9080008A50B0008A1
:1008F000426842B1016811F8013B23B1521EC0E9C0
:100900000012184670470121C160881E7047426876
:100910005AB1C368016843B983688B4205D0491E48
:10092000521CC0E90012002070474FF0FF307047A2
:100930000029A8BF7047401C490008BF20F00100F3
:10094000704710B4B0FA80FC00FA0CF050EA0104D1
:1009500004BF10BC704749B1CCF1200421FA04F463
:1009600011FA0CF118BF012121430843A3EB0C013C
:10097000CB1D4FEA00614FEA102042BF002010BC9F
:10098000704700EBC35010440029A4BF10BC70474F
:10099000401C490008BF20F0010010BC704710B592
:1009A000141E73F1000408DA401C41F10001921892
:1009B0005B411A4301D120F0010010BD2DE9F04D3B
:1009C00092469B4611B1B1FA81F202E0B0FA80F290
:1009D00020329046FFF747FF04460F4640EA0A00E0
:1009E00041EA0B0153465A46084313D0114653EAD5
:1009F000010019D0C8F140025046FFF743FF0546F9
:100A00000E46504659464246FFF72DFF084305D093
:100A1000012004E020463946BDE8F08D0020054362
:100A200046EAE0762C4337430A986305E40AA0EBD4
:100A300008000022FD0A44EA47540A3002D500208B
:100A40000146E9E7010510196941DDE9084500198A
:100A50006941BDE8F04DA2E72DE9F04D81EA0304BC
:100A600004F0004B21F0004514464FF0000A23F03B
:100A7000004150EA050220D054EA01021DD0C5F31E
:100A80000A570246C5F31303C1F31300C1F30A5614
:100A900040F4801543F48013A7EB0608101BD646DC
:100AA00008F2FD3873EB050002D308F1010801E0FC
:100AB00092185B41B8F1000F03DA00200146BDE84F
:100AC000F08D00204FF48011064684460EE0171B7F
:100AD00073EB050705D3121B63EB050306434CEAD2
:100AE000010C49084FEA300092185B4150EA0107B7
:100AF000EDD152EA030012D082EA040083EA050134
:100B0000084305D0101BAB4106D20122002306E0AA
:100B100000224FF0004302E06FF0010253101AEB85
:100B200006004CEB085110EB0A0041EB0B01BDE84D
:100B3000F04DFFF734BF0EB540F23342029200226F
:100B4000CDE900221346FFF739FF03B000BDC1F322
:100B50000A52C1F3130140F2FF3341F480119A426B
:100B600002DA00200146704740F233439A42A2F273
:100B7000334202DC5242FFF785BEFFF774BE00002D
:100B8000064C074D06E0E06840F0010394E80700DA
:100B900098471034AC42F6D3FFF7ACFA184F000870
:100BA000384F0008C0B24FF4F05100F097B9000080
:100BB0002DE9F34F8BB04FF0000801F10C000C460B
:100BC0004FF0010B46460DF1080A019062690121C0
:100BD00001989047051E2DD0252D2CD0216A8847DD
:100BE000C0B16269012101989047216A88470028B5
:100BF000F7D1411E62690198904700E0761CA16917
:100C00000B988847216A88470028F7D1E1690B983B
:100C10008847DBE7A1690B9888470746A84201D1BE
:100C2000761CD3E7E1690B9888477F1C02D1B8F1A5
:100C3000000F6FD046E1002762693D4639460198B2
:100C400090472A2804D16269012101989047012523
:100C5000DFF884926269012101989047A0F1300188
:100C60000A290AD24F45E5DC07EB870100EB410773
:100C7000303FDFD445F01005ECE7E90601D46FF012
:100C800000476C280AD04C2814D0682815D06A2850
:100C90000DD074281CD07A281AD01DE06269012179
:100CA000019890476C2802D045F0040514E045F007
:100CB00002050DE045F020050AE062690121019876
:100CC0009047682802D045F0080505E045F4006526
:100CD0006269012101989047C4E9015765283DD018
:100CE00019DC58287AD00CDC452837D004DC2528BC
:100CF00026D0412831D131E046282FD047282CD1A9
:100D00002CE05B2877D0612828D063287CD0642829
:100D100023D15AE0D0E06F2848D008DC66281DD0E7
:100D200067281BD0692821D06E2816D127E07028AB
:100D300045D0732868D0752847D078280DD14DE06C
:100D4000A1690B988847054625283FF469AFE169FA
:100D50000B9888476D1C3FF46AAFB3E023466A46A0
:100D60006FF001000B99FFF787FA9EE045F0400015
:100D70006060A80723464FF0000236D43EE0E80743
:100D80007FF447AF2068011D21600068290501D567
:100D900006701BE7290701D5068017E7A90703D5C9
:100DA000F117C0E9006111E706600FE745F0400068
:100DB0006060A80723464FF0080216D41EE040F6F4
:100DC0000E0125EA0100606016E045F04000606019
:100DD000A80723464FF00A0207D40FE045F0400071
:100DE0006060A80708D5234610226FF001000B9918
:100DF000AFF3008059E007E0234610226FF00100B6
:100E00000B99AFF3008050E04FF000094F464B467E
:100E1000632802D05B2806D040E0E80601D4012018
:100E2000A06001273AE062690121019890475E289D
:100E300005D14FF00109626949460198904721693F
:100E400039B900210A46534643F82120491C082994
:100E5000FADBB0B3216969B9C11700EBD162531154
:100E60000AEB830122F01F02821A01200B689040D6
:100E700003430B6062690121019890475D28E8D126
:100E8000B9F1000F09D00020514651F82020D2437B
:100E900041F82020401C0828F7DB02AB22460097CF
:100EA0006FF001000B99AFF3008000280CDA401CB2
:100EB00008D1BBF1000F05D04FF0FF300DB0BDE8F9
:100EC000F08FFFE74046F9E7E90701D108F1010893
:100ED00006444FF0000B79E6CCCCCC0C7F2801D92E
:100EE000002208E0064A02EB5002C007127800D147
:100EF000120902F00F0201209040084070470000E4
:100F0000D84E000870B504460D461646EE2000F097
:100F100015FFB12000F012FF232000F00FFF200A80
:100F200000F00CFFE0B200F009FF280A00F006FF15
:100F3000E8B200F003FFF0B200F000FFFF2000F085
:100F4000FDFEFC2000F0FAFEFF2000F0F7FEFF207F
:100F500000F0F4FE70BD000010B5044644B101225B
:100F60000221104600F00DFF01200849887007E0BB
:100F700000220221012000F004FF002003498870B4
:100F800002488178024800F010FA10BDD402002017
:100F900000D800080C49097802290DD003DC39B1CA
:100FA00001290FD106E0032908D064290AD107E0FE
:100FB0000A2007E00B2005E00C2003E00D2001E0F3
:100FC0000E2000BF00BF70470C03002000BFFEE7EB
:100FD00030B505460848445C0378012204E0064821
:100FE000805C4340501CC2B28A42F8DB9C4201D173
:100FF000012030BD0020FCE79A000020014601F0EE
:101000001F02022A01D1012070470020FCE70000E6
:1010100008490978084A1278914204D1FF21064A0A
:101020001170002004E004490978024A117001207F
:10103000704700002700002058000020064909786A
:10104000064A1278914201D1002004E00349097850
:10105000014A117001207047260000203100002055
:1010600006490988064A1288914205D00449098830
:10107000024A1180012000E0002070472400002077
:101080003200002070B504460D46EE2000F056FEFA
:10109000B12000F053FE102000F050FE200A00F0B6
:1010A0004DFEE0B200F04AFE280A00F047FEE8B22A
:1010B00000F044FEFF2000F041FEFC2000F03EFE68
:1010C000FF2000F03BFEFF2000F038FE70BD000066
:1010D00010B52B480078401C294908700846007854
:1010E00007284AD2DFE800F049040F1A25303B00F8
:1010F00024A21B21002000F0E8FE22A21E210220D3
:1011000000F0E3FE39E020A21B21002000F0DDFE0C
:101110001DA21E21022000F0D8FE2EE01BA21B21E2
:10112000002000F0D2FE19A21E21022000F0CDFE08
:1011300023E017A21B21002000F0C7FE14A21E21ED
:10114000022000F0C2FE18E012A21B21002000F0D5
:10115000BCFE10A21E21022000F0B7FE0DE00EA280
:101160001B21002000F0B1FE0BA21E21022000F086
:10117000ACFE00200249087000BF00BF10BD000097
:1011800034000020473535004735360047353700F5
:1011900047353800473539004735340000B5002061
:1011A0000F49087008204870242088700D48008876
:1011B0000012C8700B48007808710B48007848711D
:1011C0000A4800788871FFF7E5FE0549C8710420D8
:1011D00008724878012100F0A1FE0149487200BD63
:1011E0007C00002032000020310000205800002048
:1011F000704710B5012000F015F810B1012000F083
:101200000BF810BD10B5022000F00CF810B1022050
:1012100000F002F810BD00000149086070470000AE
:1012200014040140014600200022074B1B6803EA1A
:101230000102054B14331B680B4013B10AB10120A6
:1012400000E0002070470000000401400149C86030
:10125000704700000020024070B50546042440F6A7
:10126000FF7000F08DF80446042C19D10D48006978
:1012700040F002000B49086108464561006940F0F2
:101280004000086140F6FF7000F07AF80446052C33
:1012900006D00448006941F6FD7108400149086123
:1012A000204670BD0020024004200B49C96801F0AF
:1012B000010109B101200EE00749C96801F00401EC
:1012C00009B1022007E00449C96801F0100109B121
:1012D000032000E00420704700200240034800691A
:1012E00040F0800001490861704700000020024082
:1012F0000549096821F01001034A11601146096887
:1013000001431160704700000020024070B505469F
:101310000E4604240F2000F033F80446042C13D1A9
:101320000A48006940F00100084908612E800F203A
:1013300000F026F80446052C06D00448006941F662
:10134000FE71084001490861204670BD002002403E
:1013500001460020034A106800F03800084310607E
:1013600070470000002002400248034948600348DB
:10137000486070472301674500200240AB89EFCDEC
:1013800070B504460425FFF78FFF054605E003F01E
:101390007DFCFFF789FF0546641E012D01D1002C5D
:1013A000F5D104B90525284670BD70B504460D4633
:1013B0000426FFF7D9FF3520FFF748FF2046FFF747
:1013C0004BFF0646042E04D129462046FFF79EFF18
:1013D0000646FFF783FF70BD0146087870472DE988
:1013E000F0410246002500260020002300240027AB
:1013F00091F803C00CF00F0591F803C00CF0100C2D
:10140000BCF1000F03D091F802C04CEA050591F839
:1014100000C0BCF1000F31D0146800202BE04FF069
:10142000010C0CFA00F3B1F800C00CEA03069E426E
:1014300020D183004FF00F0C0CFA03F7BC4305FAE0
:1014400003FC4CEA040491F803C0BCF1280F06D158
:101450004FF0010C0CFA00FCC2F814C00AE091F83D
:1014600003C0BCF1480F05D14FF0010C0CFA00FC91
:10147000C2F810C0401C0828D1D31460B1F800C0D5
:10148000BCF1FF0F34DD546800202EE000F1080CA1
:101490004FF0010808FA0CF3B1F800C00CEA03069B
:1014A0009E4221D183004FF00F0C0CFA03F7BC438E
:1014B00005FA03FC4CEA040491F803C0BCF1280FC0
:1014C00005D100F1080C08FA0CF8C2F8148091F864
:1014D00003C0BCF1480F07D100F1080C4FF0010820
:1014E00008FA0CF8C2F81080401C0828CED35460CB
:1014F000BDE8F0810246002093680B400BB101204B
:1015000000E00020704741617047016170470000B2
:1015100010B50D4801F067FD0446E11704EB917129
:101520008910A4EB810111B9084804800BE0204622
:10153000E11704EB91718910A4EB8101C1F1040161
:101540002144024A118010BD0008004032000020F2
:1015500000BFFEE708B501210C2000F077FA10204B
:10156000ADF8000048208DF8030069461B48FFF7DE
:1015700036FF2020ADF8000048208DF803006946B2
:101580001648FFF72CFF4020ADF8000048208DF8EA
:10159000030069461148FFF722FF0120ADF8000063
:1015A00048208DF8030069460D48FFF718FF022018
:1015B000ADF8000048208DF8030069460848FFF7A1
:1015C0000EFF4FF48050ADF8000048208DF8030066
:1015D00069460348FFF703FF08BD0000000801400B
:1015E000000C014010B510213748FFF783FFD0B140
:1015F00020213548FFF77EFFA8B140213248FFF790
:1016000079FF80B101213148FFF774FF58B1022101
:101610002E48FFF76FFF30B14FF480512B48FFF792
:1016200069FF00284FD1FFF7B5FC04460A2003F0FC
:101630003BFB10212448FFF75DFF38B90020244907
:1016400008700A2C3FD000F023FE3CE020211E4809
:10165000FFF750FF38B901201D4908700B2C32D01C
:1016600000F074FE2FE040211748FFF743FF38B920
:101670000220174908700C2C25D000F0C5FE22E08E
:1016800001211248FFF736FF38B9032010490870CE
:101690000D2C18D000F0DDFC15E002210B48FFF7FF
:1016A00029FF38B964200A4908700E2C0BD000F0CD
:1016B0002FFD08E04FF480510448FFF71BFF10B9DD
:1016C0000F200449087010BD00080140000C0140C3
:1016D0000C0300205800002000BFFEE77047000008
:1016E00070B5002100230F22C47804B3154C246880
:1016F00004F4E064C4F5E064210AC1F10403CA40C3
:10170000447804FA03F184781440214309010E4C13
:101710000678A155047804F01F050124AC40057833
:101720006D11AD0005F1E025C5F8004109E0047830
:1017300004F01F050124AC40044D0678761145F8ED
:10174000264070BD0CED00E000E400E080E100E028
:1017500038B50446002000906A4603A12046FEF7F3
:10176000EFFC009838BD00002566000010B52D483C
:101770000078401C2B4908700846007806284DD296
:10178000DFE800F04C03111F2D3B27A21D21002094
:1017900000F09BFB24A22021022000F096FB0A20EF
:1017A000224908703BE022A21D21002000F08DFBA1
:1017B0001FA22021022000F088FB14201B49087082
:1017C0002DE01CA21D21002000F07FFB19A220218A
:1017D000022000F07AFB0120144908701FE016A2D5
:1017E0001D21002000F071FB13A22021022000F037
:1017F0006CFB02200D49087011E010A21D21002091
:1018000000F063FB0DA22021022000F05EFB05200A
:101810000649087000200349087000E000BF00BFBF
:1018200010BD00003500002058313000310000208C
:10183000583230005831000058320000583500004E
:10184000704700001CB50024112000F020FB4FF46D
:10185000FA7003F029FA00BF09E0620003211120A9
:1018600000F0E1FA052003F01FFA601CC4B2322C2C
:10187000F3DB002000F00BFB0A2003F015FA3CA27A
:101880001B21002000F021FB39A21E21022000F0C4
:101890001CFB38A21C21002000F017FB35A21F21E1
:1018A000022000F012FB34A21D21002000F00DFBED
:1018B00031A22021022000F008FB0A202F490870E5
:1018C00044F620602E490880642048604FF47A7006
:1018D00088606420C86044F6206008614FF47A7024
:1018E0008882084601214268002000F09CFA2448C2
:1018F000028824A1684602F03FFD6A4618210020B4
:1019000000F0E3FA1E480221C268002000F08BFAC2
:101910001B481CA1C268684602F02EFD6A462721BA
:10192000002000F0D2FA164816A18268684602F03C
:1019300023FD6A461921002000F0C7FA00220D217C
:10194000022000F01EFA01220E21022000F019FAF6
:1019500000200D4908700D49087001222A2100F06D
:1019600010FA01221621022000F00BFA1CBD000023
:1019700047353400B9D8000058313000310000201C
:10198000BC020020256400004B0000200C03002056
:10199000002002490880024908807047240800405E
:1019A0003200002010B51348007818B111480078B3
:1019B000022814D10121104801F078FA00200F49C3
:1019C0000870FFF7A5FD0E4802880EA10E4802F030
:1019D000D3FC0D4A1621002000F077FA09E00748F1
:1019E000007830B90021044801F060FA0120034971
:1019F000087010BD4B000020000800403600002099
:101A00003200002025750000D003002029B1064ACD
:101A1000D2690243044BDA6104E0034AD26982438B
:101A2000014BDA61704700000010024029B1064AFC
:101A300012690243044B1A6104E0034A12698243AB
:101A4000014B1A61704700000010024029B1064A9C
:101A500092690243044B9A6104E0034A926982430B
:101A6000014B9A61704700000010024029B1064AFC
:101A7000D2680243044BDA6004E0034AD26882432E
:101A8000014BDA6070470000001002400F48006808
:101A900040F001000D490860084640680C490840C4
:101AA0000A494860084600680A4908400749086032
:101AB0000846006820F4802008600846406820F44A
:101AC000FE0048604FF41F0088607047001002401D
:101AD0000000FFF8FFFFF6FE30B5002100220024D1
:101AE00000232D4D6D6805F00C0121B1042905D0AE
:101AF000082923D105E0294D056022E0274D056026
:101B00001FE0254D6D6805F47012234D6D6805F4D6
:101B10008034022505EB92421CB9214D55430560E6
:101B20000BE01D4D6D6805F400351DB11C4D55438E
:101B3000056002E0194D5543056002E0174D056050
:101B400000BF00BF144D6D6805F0F0010909154D87
:101B50006B5C0568DD4045600F4D6D6805F4E06124
:101B6000090A104D6B5C4568DD4085600A4D6D6863
:101B700005F46051C90A0B4D6B5C4568DD40C560DA
:101B8000054D6D6805F44041890B074D6B5CC568D8
:101B9000B5FBF3F5056130BD0010024000127A007C
:101BA00000093D000A0000201A00002010B501467F
:101BB0000022002300204A11012A02D1094C236887
:101BC00006E0022A02D1074C236A01E0054C636A51
:101BD00001F01F02012494401C400CB1012000E0E0
:101BE000002010BD001002400248406800F00C00C8
:101BF000704700000010024001460020034A506870
:101C000020F0F000084350607047000000100240D0
:101C10000149086070470000000042420146002070
:101C2000034A506820F4E0600843506070470000A9
:101C30000010024001460020034A506820F4605022
:101C400040EAC10050607047001002400149086638
:101C5000704700000000424202460020044B5868D2
:101C600020F47C1042EA01031843014B586070478E
:101C70000010024001460020034A506820F0030093
:101C800008435060704700000010024010B5044641
:101C900024B180210448FFF738FC03E0802102488A
:101CA000FFF731FC10BD00000008014010B50849E5
:101CB000887900F079FC0649087800F00DF80449AD
:101CC0008878FFF749F90249087901F073FB10BDE4
:101CD000D40200207047000010B5044644B1012230
:101CE0001146104600F04DF801200849087007E041
:101CF00000220121084600F044F800200349087042
:101D0000024801780248FFF750FB10BDD4020020C2
:101D100000D4000810B50849C87900F045FC064910
:101D20004878FFF7D9FF0449C878FFF715F9024949
:101D3000487901F03FFB10BDD402002010B50446E5
:101D40002146094801F031FB00BF8021064801F01F
:101D50007BFA0028F9D000BF4021034801F074FA53
:101D60000028F9D010BD00000044004010B5044622
:101D700003E02078FFF7E2FF641C20780028F8D108
:101D800010BD70B504460D461646EE20FFF7D6FF8F
:101D9000B120FFF7D3FF1020FFF7D0FF200AFFF795
:101DA000CDFFE0B2FFF7CAFF280AFFF7C7FFE8B28E
:101DB000FFF7C4FFF0B2FFF7C1FFFF20FFF7BEFF40
:101DC000FC20FFF7BBFFFF20FFF7B8FFFF20FFF766
:101DD000B5FF70BD70B504460D461646EE20FFF700
:101DE000ADFFB120FFF7AAFF0420FFF7A7FF200AED
:101DF000FFF7A4FFE0B2FFF7A1FF280AFFF79EFF5D
:101E0000E8B2FFF79BFFF0B2FFF798FFFF20FFF764
:101E100095FFFC20FFF792FFFF20FFF78FFFFF20C9
:101E2000FFF78CFF70BD70B505460E461446EE20D8
:101E3000FFF784FFB120FFF781FF1020FFF77EFF3F
:101E4000280AFFF77BFFE8B2FFF778FF300AFFF7B9
:101E500075FFF0B2FFF772FF200EFFF76FFFC4F3BC
:101E60000740FFF76BFFC4F30720FFF767FFE0B2FF
:101E7000FFF764FFFF20FFF761FFFC20FFF75EFF25
:101E8000FF20FFF75BFFFF20FFF758FF70BD10B585
:101E90000446EE20FFF752FFB120FFF74FFF00206E
:101EA000FFF74CFF200AFFF749FFE0B2FFF746FFBC
:101EB000FF20FFF743FFFC20FFF740FFFF20FFF765
:101EC0003DFFFF20FFF73AFF10BD70B504460D46F9
:101ED0001646EE20FFF732FFB120FFF72FFF10204C
:101EE000FFF72CFF200AFFF729FFE0B2FFF726FFDC
:101EF000280AFFF723FFE8B2FFF720FF3046FFF77D
:101F000035FFFF20FFF71AFFFC20FFF717FFFF2028
:101F1000FFF714FFFF20FFF711FF70BD10B5034658
:101F2000064C605C4C1CE2B204E0044CA45C6040D3
:101F3000541CE2B29A42F8DD10BD00007C00002083
:101F400010B5FFF7A3FD0120FFF762FE00BF2120BF
:101F5000FFF72CFE0028FAD01020FFF7C9F9022065
:101F6000FFF7F6F90020FFF747FE0020FFF762FEBB
:101F70004FF48060FFF752FE4FF420110020FFF76E
:101F80006BFE0120FFF762FE00BF3920FFF70EFE57
:101F90000028FAD00220FFF76DFE00BFFFF724FEF5
:101FA0000828FBD110BD000010B51048FFF714FA47
:101FB0000F49887108468079C8710E48FFF70CFAFE
:101FC0000B4908700846007848700B48FFF704FA80
:101FD0000749887008468078C8700848FFF7FCF900
:101FE0000349087108460079487110BD00D0000807
:101FF000D402002000D4000800D8000800DC00084B
:1020000070B504460D461646EE20FFF797FEB12048
:10201000FFF794FE0320FFF791FE200AFFF78EFEE4
:10202000E0B2FFF78BFE280AFFF788FEE8B2FFF761
:1020300085FEF0B2FFF782FEFF20FFF77FFEFC2057
:10204000FFF77CFEFF20FFF779FEFF20FFF776FE0B
:1020500070BD10B500222A211046FFF792FE002223
:102060002B211046FFF78DFE00222C211046FFF792
:1020700088FE01222D210020FFF783FE00222E2161
:102080001046FFF77EFE002216210220FFF779FEA0
:10209000002217210220FFF774FE002218210220DF
:1020A000FFF76FFE012219210220FFF76AFE0022CE
:1020B0001A210220FFF765FE10BD000030B585B083
:1020C000104A916AD06AFEF77DFB18D00D49886AE4
:1020D000FEF731FB044622460B460BA1684602F090
:1020E0004BF96A4613210020FFF7EFFE6A461421E0
:1020F0000220FFF7EAFE0348806A0249C86205B081
:1021000030BD00000C0300202530392E326600005F
:1021100010B500222A211046FFF733FE00222B21A2
:102120001046FFF72EFE00222C211046FFF729FE55
:1021300000222D211046FFF724FE01222E2100202F
:10214000FFF71FFE002216210220FFF71AFE0022D1
:1021500017210220FFF715FE002218210220FFF7A9
:1021600010FE002219210220FFF70BFE01221A2186
:102170000220FFF706FE10BD30B585B0104A116B86
:10218000506BFEF71FFB18D00D49086BFEF7D3FA12
:10219000044622460B460BA1684602F0EDF86A465B
:1021A00014210020FFF791FE6A4615210220FFF757
:1021B0008CFE0348006B0249486305B030BD000047
:1021C0000C0300202530392E3266000010B504467D
:1021D0002CB901220B210020FEF794FE26E0012CF1
:1021E00005D101221C211046FEF78CFE1EE0022CB8
:1021F00005D101222B210220FEF784FE16E0062CD9
:1022000005D1012221210620FEF77CFE0EE00A2CDA
:1022100005D1012205210A20FEF774FE06E00B2CF1
:1022200004D101220D210B20FEF76CFE10BD10B56C
:1022300004462CB900220B211046FEF763FE26E06F
:10224000012C05D100221C210120FEF75BFE1EE0BF
:10225000022C05D100222B210220FEF753FE16E0AE
:10226000062C05D1002221210620FEF74BFE0EE0B0
:102270000A2C05D1002205210A20FEF743FE06E0C4
:102280000B2C04D100220D210B20FEF73BFE10BDCC
:1022900010B501222A210020FFF773FD00222B2117
:1022A0001046FFF76EFD00222C211046FFF769FD56
:1022B00000222D211046FFF764FD00222E2110463A
:1022C000FFF75FFD012216210220FFF75AFD0022D1
:1022D00017210220FFF755FD002218210220FFF7E9
:1022E00050FD002219210220FFF74BFD00221A2188
:1022F0000220FFF746FD10BD30B585B0104A1169C8
:102300005069FEF75FFA18D00D490869FEF713FA15
:10231000044622460B460BA1684602F02DF86A4699
:1023200010210020FFF7D1FD6A4611210220FFF79E
:10233000CCFD034800690249486105B030BD00008A
:102340000C0300202530392E3266000010B5002223
:102350002A211046FFF715FD01222B210020FFF74F
:1023600010FD00222C211046FFF70BFD00222D212D
:102370001046FFF706FD00222E211046FFF701FD53
:10238000002216210220FFF7FCFC01221721022067
:10239000FFF7F7FC002218210220FFF7F2FC0022D1
:1023A00019210220FFF7EDFC00221A210220FFF77D
:1023B000E8FC10BD30B585B0104A9169D069FEF7D0
:1023C00001FA18D00D498869FEF7B5F9044622468E
:1023D0000B460BA1684601F0CFFF6A461121002091
:1023E000FFF773FD6A4612210220FFF76EFD0348D6
:1023F00080690249C86105B030BD00000C030020AF
:102400002530392E3266000010B500222A211046F0
:10241000FFF7B7FC00222B211046FFF7B2FC012288
:102420002C210020FFF7ADFC00222D211046FFF7E4
:10243000A8FC00222E211046FFF7A3FC0022162143
:102440000220FFF79EFC002217210220FFF799FCD3
:10245000012218210220FFF794FC002219210220FA
:10246000FFF78FFC00221A210220FFF78AFC10BD23
:1024700030B585B0104A116A506AFEF7A3F918D03A
:102480000D49086AFEF757F9044622460B460BA190
:10249000684601F071FF6A4612210020FFF715FD22
:1024A0006A4613210220FFF710FD0348006A024923
:1024B000486205B030BD00000C0300202530392EE5
:1024C0003266000030B585B028490869FEF733F957
:1024D000044622460B4626A1684601F04DFF6A4697
:1024E00009210320FFF7F1FC20498869FEF723F951
:1024F000044622460B461EA1684601F03DFF6A468F
:102500000A210320FFF7E1FC1849086AFEF713F9D6
:10251000044622460B4616A1684601F02DFF6A4686
:102520000B210320FFF7D1FC1049886AFEF703F95D
:10253000044622460B460EA1684601F01DFF6A467E
:102540000C210320FFF7C1FC0849086BFEF7F3F8E4
:10255000044622460B4606A1684601F00DFF6A4676
:102560000D210320FFF7B1FC05B030BD0C030020A6
:102570002530392E3266000010B50446EE20FFF7F4
:10258000DDFB9320FFF7DAFBE0B2FFF7D7FBFF207C
:10259000FFF7D4FBFC20FFF7D1FBFF20FFF7CEFBBA
:1025A000FF20FFF7CBFB10BD10B50446012C0BD16B
:1025B0000020FFF7E1FF01221B211046FFF7E1FB9E
:1025C00001200A4988710AE06420FFF7D5FF002244
:1025D0001B210120FFF7D5FB002004498871034827
:1025E00081790348FEF7E1FE10BD0000D40200200F
:1025F00000D000080EB51E48807D012813D10020B0
:102600001B49887508461BA10269684601F0B4FEA3
:102610006A4618210020FFF758FC1548012142683E
:102620000020FFF700FC1248C07D01281FD10020C8
:102630000F49C8750846B0F914200EA1684601F08C
:102640009BFE6A4619210020FFF73FFC0848022143
:10265000C2680020FFF7E7FB054806A1C26868468C
:1026600001F08AFE6A4627210020FFF72EFC0EBDEE
:10267000BC02002025640000042808D14FF0E021AE
:10268000096941F004014FF0E022116107E04FF0C9
:10269000E021096921F004014FF0E0221161704747
:1026A00002480068401C0149086070470000002093
:1026B00010B5FFF721FEFFF77DFEFFF7D9FEFFF70C
:1026C000FDFCFFF759FD10BD10B50024402109485D
:1026D00002F03CFB0446002C0BDD0648407807283E
:1026E00007D02146034801F0AFF840210148FDF72B
:1026F0001CFD10BD9003002000B585B0F84800789F
:1027000016287DD2DFE800F00B0E2D2E7CF3F2F1BF
:10271000F0EFEEEDEC7C7CEBEA7C7C7CE919FFF7DA
:1027200069FF75E2EF48407A30B1FFF7BFFA002049
:10273000EC494872EA4908706AE2EB48007878B9D7
:10274000E848807A20B1FFF7E5FA0020E4490870F4
:10275000E448C07A20B1FFF7A9FA0020E0490870E8
:1027600056E255E2E1480078002838D000220121E5
:102770000320FFF706FB002204210320FFF701FBE3
:10278000002205210320FFF7FCFA00220621032086
:10279000FFF7F7FA002207210320FFF7F2FA0022E1
:1027A00008210320FFF7EDFA0020D1490870487096
:1027B0008870C87008714871CE480069CD49C864F6
:1027C0000846806908650846006A48650846806AC8
:1027D00088650846006BC8650020C4490870C44875
:1027E000407898B9C248807880B9C148C07868B943
:1027F000BF48007950B9BE48407938B9002200E09E
:1028000005E201210320FFF7BCFA04E00122114692
:102810000320FFF7B6FAB6488079002868D0B4489C
:10282000407830B9FFF7B4F80020B2490861C864B5
:1028300011E0AF48007F60B1FFF7AAF8AC488068AC
:10284000AC490861AA488068C8640020A849087794
:1028500001E0FFF79DF8A648807830B9FFF798F8B7
:102860000020A4498861086511E0A148407F60B15B
:10287000FFF78EF89E48C0689E4988619C48C068F2
:10288000086500209A49487701E0FFF781F89848E9
:10289000C07830B9FFF77CF8002096490862486597
:1028A00011E09348807F60B1FFF772F890480069AB
:1028B000904908628E480069486500208C498877F5
:1028C00001E0FFF765F88A48007990B9FFF760F8F2
:1028D00000208849886288651DE097E195E193E1D1
:1028E0007BE12DE12BE129E127E125E16EE056E0D6
:1028F00035E07F48C07F60B1FFF74AF87C48406907
:102900007C4988627A484069886500207849C877A0
:1029100001E0FFF73DF87648407930B9FFF738F825
:10292000002074490863C86513E0714890F82000DE
:1029300068B1FFF72DF86E4880696E4908636C48EE
:102940008069C86500206A4981F8200001E0FFF72E
:102950001FF80020664988710220614908706448A8
:10296000C079C8B16348C06C624908610846006D0F
:1029700088610846406D08620846806D8862084696
:10298000C06D0863FFF704F8002059498860C860EB
:10299000086148618861C871FFF794FD38E15648C5
:1029A000007890B1554856A10268564801F0E4FC01
:1029B000544A04210520FFF788FA524A03210520D2
:1029C000FFF783FA00204C49087021E14E48007857
:1029D00025280FD101204D490870012211460620FB
:1029E000FFF7CFF9002201210620FFF7F3F9FF20BE
:1029F000454908704548007808B34548027845A124
:102A0000684601F0B9FC6A4626210620FFF75DFA08
:102A10003F480078642812D100203D4908703B49A6
:102A2000087026210620FEF72DFB01221146062004
:102A3000FFF7D0F9002201210620FFF7A2F9324862
:102A40000078262815D100203049087030490870D8
:102A500026210620FEF716FB012211460620FFF76D
:102A6000B9F9002201210620FFF78BF9FF20264942
:102A700008702B4800782B49097888420ED02948E5
:102A8000027829A1684601F077FC6A4614210620E5
:102A9000FFF71BFA23480078214908702348007883
:102AA0002349097888420ED0214802781EA1684641
:102AB00001F062FC6A4615210620FFF706FA1C4861
:102AC00000781A49087010480078272807D1194A59
:102AD00003210920FFF7F9F9FF200B49087097E05F
:102AE0004B000020D40200206F0000206000002076
:102AF0006C0300200C030020740000205C00002008
:102B000025640000D003002058000020640000204D
:102B100063000020D2D1CFC2D4D82564252500007F
:102B20006600002065000020257500006800002078
:102B300067000020370000206AE069E068E067E095
:102B400035480078052805D1032034490870002055
:102B50003149087032480078052805D103203149F1
:102B6000087000202E4908702C48007820B10328F6
:102B700003D0042813D109E011E0012212210B2017
:102B8000FFF73EFA00202549087008E000221221D4
:102B90000B20FFF735FA00202049087000BF00BF66
:102BA0002048007820B1032803D0042813D109E07D
:102BB00011E0012213210B20FFF722FA0020174910
:102BC000087008E0002213210B20FFF719FA0020FB
:102BD0001249087000BF00BF1AE01348007813497B
:102BE000097888420FD011480278AFF2C4016846D4
:102BF00001F0C2FB6A460B210C20FFF766F90B4877
:102C000000780949087003E002E001E000E000BF3D
:102C100000BF05B000BD00006D0000206B0000206B
:102C20006E0000206C0000206A0000206900002077
:102C3000F0B50C46154600210022068C4FF6FE77B3
:102C40003E400684018B028C4FF60C7631407E1C90
:102C500006EA03162E4331437E1E324044F001063D
:102C6000324301830284F0BDF0B50C4615460021C5
:102C700000220026078C4FF6EF7C07EA0C0707843A
:102C8000018B028C4FF6FF7707EA041640F6FF47E8
:102C900039404FF6FF7707EA033739434FF6FF779E
:102CA00007EA052739434FF6DF773A4046F0100729
:102CB0003A4301830284F0BDF0B50C46154600216D
:102CC00000220026078C4FF6FF6C07EA0C070784EA
:102CD000818B028C4FF6FF7707EA04264FF60C77BC
:102CE00039404FF6FF7707EA03172F4339434FF672
:102CF000FF573A4046F480773A4381830284F0BD1F
:102D0000F0B50C461546002100220026078C4EF631
:102D1000FF7C07EA0C070784818B028C4FF6FF7754
:102D200007EA043640F6FF4739404FF6FF7707EAD7
:102D3000052739434FF6FF7707EA033739434DF646
:102D4000FF773A4046F480573A4381830284F0BDCE
:102D500010B50121880700F049F9C0B101218807A9
:102D600000F0A1F801200A49087000200949087004
:102D700009480078401C0849087008460078032874
:102D800005D101200549087000200349087010BDD5
:102D90000700002006000020080000200900002095
:102DA0001FB501210846FEF731FEC720ADF8080027
:102DB00041F61F40ADF804000020ADF80A00ADF860
:102DC000060001A94FF0804000F096F9012211465B
:102DD000900700F05CF91C208DF8000001208DF8B0
:102DE000010002208DF8020001208DF803006846E2
:102DF000FEF776FC0121880700F058F81FBD00009F
:102E000000B587B001210420FEF700FE0121082053
:102E1000FEF71CFEC020ADF8180004208DF81B0042
:102E200003208DF81A0006A91B48FEF7D8FA1B48A4
:102E300000F048F803A800F07DF90020ADF80C0080
:102E40004FF6FF70ADF810000020ADF81200ADF89D
:102E50000E0003A9114800F04FF900231A46032180
:102E60000E4800F09FF8684600F008F90420ADF81D
:102E700008006946094800F0CAF80121074800F037
:102E80000FF800200549243108800121034800F093
:102E90000DF807B000BD0000000C01400008004024
:102EA000CA4302827047CA430282704721B1028836
:102EB00042F00102028004E0028840F2FE331A4030
:102EC0000280704710B504462F48844208D1012182
:102ED000C014FEF7CBFD0021E014FEF7C7FD52E061
:102EE000B4F1804F08D101210846FEF79FFD002173
:102EF0000120FEF79BFD46E02448844208D10121D1
:102F00000220FEF793FD00210220FEF78FFD3AE03C
:102F10001F48844208D101210420FEF787FD0021CB
:102F20000420FEF783FD2EE01A48844208D10121D7
:102F30000820FEF77BFD00210820FEF777FD22E048
:102F40001548844208D101211020FEF76FFD0021B1
:102F50001020FEF76BFD16E01048844208D10121D5
:102F60002020FEF763FD00212020FEF75FFD0AE030
:102F70000B48844207D101214014FEF777FD002160
:102F80006014FEF773FD10BD002C014000040040EA
:102F900000080040000C00400010004000140040F9
:102FA00000340140F0B50C4615461E4600210022B3
:102FB00000230189028B038C4FF6F87739402143B7
:102FC0004FF6FC473A4040F201173A434FF6DD779F
:102FD0003B404FF6FF7707EA06172F433B4301813B
:102FE00002830384F0BD0146888C704730B50246E9
:102FF000002000230024158A05EA0103958905EACB
:10300000010413B10CB1012000E0002030BD70B507
:1030100005460C46208850B92389A2886188284635
:10302000FFF706FEE188284600F03AF825E0208800
:1030300004280AD12389A28861882846FFF714FE54
:10304000E188284600F035F817E0208808280AD1E2
:103050002389A28861882846FFF72EFEE18828464A
:1030600000F034F809E02389A28861882846FFF738
:1030700047FEE188284600F032F870BD002101804B
:103080004180012181800021C180018170471AB1F6
:1030900083890B43838102E083898B43838170475B
:1030A000028B4FF6F3731A400283028B0A430283AA
:1030B0007047028B4FF2FF331A400283028B4FF6A8
:1030C000FF7303EA01231A4302837047828B4FF692
:1030D000F3731A408283828B0A4382837047828B08
:1030E0004FF2FF331A408283828B4FF6FF7303EA5D
:1030F00001231A4382837047028802F08F02028004
:10310000CA884B881A4303881A4302808A888285BA
:103110000A880285054A904202D0054A904201D1B0
:103120000A7A02860122828270470000002C014048
:10313000003401404FF6FF71818000210180C18081
:10314000418001727047000000B50848008800F017
:10315000080038B105490988C8B20449091D098821
:10316000C8B200BD00F06AFA00BFFAE700380140BB
:1031700010B540F22551064800F073F838B1044804
:1031800000F00EF9C4B2204601F03CFE00BF10BDB5
:103190000044004021B1828942F40052828104E05F
:1031A00082894DF6FF731A408281704710B504463C
:1031B0002048844209D101218803FEF757FC0021F1
:1031C0004FF48040FEF752FC32E01B48844209D1A4
:1031D00001214804FEF72AFC00214FF40030FEF7DD
:1031E00025FC25E01548844209D101218804FEF719
:1031F0001DFC00214FF48020FEF718FC18E0104859
:10320000844209D10121C804FEF710FC00214FF4CB
:103210000020FEF70BFC0BE00A48844208D1012194
:103220000805FEF703FC00214FF48010FEF7FEFBBB
:1032300010BD00000038014000440040004800403C
:10324000004C00400050004002460020B1F5007FD5
:1032500000D100BF13880B400BB1012000E000201B
:10326000704770B50246002400230025002040F678
:103270006A16B14200D100BFC1F3421501F01F032D
:10328000012606FA03F3012D02D19689334006E0A8
:10329000022D02D1168A334001E0968A33400C1287
:1032A000012606FA04F41688344013B10CB101204B
:1032B00000E0002070BDF0B5034600240026002584
:1032C000002040F66A17B94200D100BF1846C1F38A
:1032D000421401F01F06012707FA06F5012C01D15F
:1032E0000C3004E0022C01D1103000E014301AB18F
:1032F00007682F43076002E00768AF430760F0BD2F
:103300002DE9F04786B005460E460024A24600BFD0
:1033100000BF0027B08900B100BF2F462C8A4CF6B1
:10332000FF700440F08804432C82AC894EF6F31001
:103330000440B08831890843718908430443AC8153
:10334000AC8A4FF6FF400440B0890443AC8201A828
:10335000FEF7C2FB1148874202D1DDF810A001E060
:10336000DDF80CA00AEBCA0000EB0A1031688900F6
:10337000B0FBF1F86420B8FBF0F0040120096421EF
:1033800001FB1089322000EB0910B0FBF1F000F0D6
:103390000F0004432C8106B0BDE8F08700380140DF
:1033A00001468888C0F308007047C1F30802828094
:1033B0007047000010B5044644B1012203211046B5
:1033C000FEF7DFFC01200849087107E00022032115
:1033D0000120FEF7D6FC002003490871024801795C
:1033E0000248FDF7E2FF10BDD402002000DC000817
:1033F00000BFFEE710B586B0044601210420FEF7A9
:1034000025FB01218803FEF721FB4FF40070ADF886
:10341000140003208DF8160018208DF8170005A958
:103420002748FDF7DCFF4FF48060ADF8140003205F
:103430008DF8160004208DF8170005A92048FDF727
:10344000CEFF8020ADF8140003208DF81600102068
:103450008DF8170005A91A48FDF7C1FF1948FFF7B5
:10346000A5FE01944FF48050ADF808000020ADF89F
:103470000A00ADF80C00ADF810000C20ADF80E00FD
:1034800001A91048FFF73CFF25208DF8000001201E
:103490008DF801008DF802008DF803006846FEF7F4
:1034A0001FF9012240F225510648FFF704FF0121D0
:1034B0000448FFF76FFE0020FEF7E8FB06B010BDE2
:1034C00000080140003801402DE9FF4756480078C8
:1034D00000287DD0554890F801A0BAF11D0F03D007
:1034E000BAF1290F03D103E00A2000F001F994E0BA
:1034F0004E48847890F804900146497901EB0921FF
:1035000008B2FDF7EEF84A4A4A4BCDE90001FDF753
:1035100076F8CDE90201210209B2444AD27888182E
:10352000FDF7DFF80546DDE90223FCF7C1FF07469A
:10353000FDF72CF9404908613C48847990F80890DF
:103540000146497A01EB092108B2FDF7CAF807469E
:10355000374A384BFDF753F8CDE90001210209B293
:10356000324AD2798818FDF7BCF80546DDE9002318
:10357000FCF79EFFCDE90201FDF708F92E498861AD
:103580002A48847A90F80C900146497B01EB092186
:1035900008B2FDF7A6F8264A264BCDE90001FDF753
:1035A0002EF805460E46210209B2204AD27A881822
:1035B000FDF797F807462A463346FCF779FFCDE931
:1035C0000201FDF7E3F81C4908621848847B00E01B
:1035D00027E090F810900146497C01EB092108B2E0
:1035E000FDF77FF8124A134BCDE90001FDF707F80C
:1035F00005460E46210209B20C4AD27B8818FDF717
:1036000070F807462A463346FCF752FFCDE902011F
:10361000FDF7BCF80849886200BF00BF00200249DE
:103620000870BDE8FF870000230000209A000020FA
:10363000FCA9F1D24D62503F0C03002030B5274861
:10364000008805B22548001F008820F0200023498B
:10365000091F0880ECB205F4807058B12046FDF7D0
:10366000CDFC002838D000201D49087001201D49DC
:10367000087031E01B48007801282DD118480078E7
:103680001E2803DB00201749087030BD1648144976
:103690000978445412480078401C114908701248B7
:1036A00000781E2802DD00200E4908700E480078C0
:1036B0000B49097888420FDA00200A4908700A4A43
:1036C0001178074A1278521E074B985CFDF780FC70
:1036D00010B101200549087000BFD6E70438014049
:1036E000200000201E0000209A000020230000205F
:1036F0002DE9FE430546FDF7B3FC0746FDF788FCC0
:103700008046FDF79BFC81462FB9B8F1000F02D12E
:10371000B9F1000F3AD0FDF741FD0120FEF7B6FAEE
:1037200000242EE074B91A48007840F480701949DA
:10373000088000BF1748001F008800F040000028E4
:10374000F8D01CE01248005D1249088000BF114803
:10375000001F008800F040000028F8D00C480079D5
:103760000B49C97800EB012086B232460AA16846AF
:1037700000F002FE6A4615210020FEF7A6FB601C41
:10378000C4B2AC42CEDB0020FEF780FABDE8FE8377
:103790007C000020043801402575000010B586B07B
:1037A000044601210420FEF751F901214804FEF7E7
:1037B0002DF90420ADF8140003208DF81600182010
:1037C0008DF8170005A91E48FDF709FE0820ADF881
:1037D000140003208DF8160004208DF8170005A9A9
:1037E0001748FDF7FCFD1748FFF7E0FC01940020A7
:1037F000ADF80800ADF80A00ADF80C00ADF8100007
:103800000C20ADF80E0001A90E48FFF779FD262027
:103810008DF8000001208DF801008DF802008DF870
:1038200003006846FDF75CFF012240F22551054880
:10383000FFF741FD01210348FFF7ACFC06B010BDC6
:10384000000801400044004070B504460E46607810
:10385000FB490870A078FB490870E079FA490870C4
:103860002079E17840EA0120F8490880A07961795F
:1038700040EA0120F6490880207A0106607A41EA90
:103880000041A07A41EA0020E17A0843F14908604A
:10389000ED480078102802D1607AEF490870E848B6
:1038A0000078B1287AD1E9480088162877D2DFE875
:1038B00010F016000A01A801A90276009103BC03CA
:1038C0005B045F04630473047704A4047600760049
:1038D000DA04E404760076007600EE0405050020A4
:1038E000DE490870DA4800880E286ED00BDCA0F1A3
:1038F00003000B286AD2DFE800F01533538BE3E3B3
:10390000E3E3E3BFC3002C287ED006DC0F287CD085
:103910002A287BD02B2859D1C2E02D2877D02E28F9
:10392000F9D1C9E0CC480078C8B10120CC498875EC
:10393000084640680A38486008464068002801DCAC
:1039400000204860C6480088C5494968484364214A
:1039500090FBF1F0C24908610020BF490870B0E057
:10396000BD480078C8B10120BD4988750846406847
:103970000A30486008464068642801DB64204860DB
:10398000B7480088B64949684843642190FBF1F084
:10399000B34908610020B049087092E0FAE3FAE305
:1039A000AD48007878B30120AD49C8750846C068B5
:1039B00064280CDC0846C0680A38C8600846C0683D
:1039C000002812DC0020C8600FE05DE078E0A44829
:1039D000C068642809DDA248C068B0F5967F04DCA1
:1039E0009F48C06819389E49C8609D4880689C49B6
:1039F000C9684843642190FBF1F000B2984988827D
:103A00000020954908705CE04EE041E044E04FE062
:103A10009148007878B301209149C8750846C0687C
:103A2000642804DA0846C0680A30C86015E08C488B
:103A3000C068642811DB8A48C068B0F5967F0CDC4A
:103A40008748C06819308649C8600846C068B0F524
:103A5000967F02DB4FF49670C86081488068804989
:103A6000C9684843642190FBF1F000B27C49888228
:103A700000207949087024E006207849087020E089
:103A80000B20764908701CE001207449087018E08A
:103A900002207249087014E000207249087010E09A
:103AA0000120704908700CE002206E49087008E09F
:103AB00003206C49087004E064206A49087000E043
:103AC00000BF00BF85E201206449087066480078A5
:103AD000002873D15E4800881C2870D2DFE800F00F
:103AE0008E0E1924898A2F363D444B5259606770D7
:103AF000778E8E8E8E8E8E8E8E8E8E7E564800782F
:103B000018B101205949487002E000205749487017
:103B100075E05148007818B101205449C87002E09E
:103B200000205249C8706AE04B48007818B1012063
:103B30004E49487102E000204C4948715FE004F1B1
:103B40000800FDF705FE4949C86058E004F1080087
:103B5000FDF7FEFD4549086151E004F10800FDF75D
:103B6000F7FD424948614AE004F10800FDF7F0FD25
:103B70003E49886143E004F10800FDF7E9FD3B4957
:103B8000C8613CE004F10800FDF7E2FD3749086236
:103B900035E004F10800FDF7DBFD344948622EE012
:103BA00004F10800FDF7D4FD3049886227E004F1F4
:103BB0000800FDF7CDFD2D49C86220E020E01DE0A2
:103BC00004F10800FDF7C4FD2849086317E004F17B
:103BD0000800FDF7BDFD2549486310E01E48007848
:103BE00018B101202149C87102E000201F49C871A5
:103BF00005E004E001201D49487200E000BF00BF5D
:103C000079E3022015490870114800881B2871D2F9
:103C1000DFE800F0F50E303A495360717D8791A1DD
:103C2000ABB5C5D5DCF5F5F5F5F5E0E4E8ECF1006C
:103C30000948007810B104200D490870E0E0000048
:103C40004C0000204D0000204F00002050000020BC
:103C500052000020540000204E0000204B000020A5
:103C6000BC0200200C0300206F000020D4020020C2
:103C700058000020FA48007810B10A20F94908706D
:103C80000020F7490870BBE0F548007838B1012002
:103C9000F549C870FDF76AFD0720F2490870002059
:103CA000EF490870ACE0EE48007810B10820ED490B
:103CB00008700020EA490870A2E0E948007840B1A5
:103CC0000120E94948711120E64908700020E449C3
:103CD000087095E0E248007858B10320E349087085
:103CE0000120E34908700520DE4908700020DC4906
:103CF000087085E083E0DA48007838B1FDF7E8F92C
:103D00001220D84908700020D549087078E0D448BE
:103D1000007810B11320D34908700020D0490870F2
:103D20006EE0CF48007810B11520CE490870002011
:103D3000CB49087064E0CA48007858B10120CD49E9
:103D400008700520C94908701420C6490870002071
:103D5000C349087054E0C248007810B10920C14935
:103D600008700020BE4908704AE0BD48007810B1D4
:103D70000620BC4908700020B949087040E00120C5
:103D8000BD4908700C20B74908700021BB48FFF7F7
:103D90008DF801220D210220FDF7F3FF30E0002015
:103DA000B549087001220E210220FDF7EAFF172015
:103DB000AC4908700121B148FFF778F820E00020F5
:103DC000AD4908701620A749087019E00020A749DE
:103DD000087015E00020A449087011E00120A249F4
:103DE00008700DE00220A049087009E003209E49F8
:103DF000087005E0FFE764209B49087000E000BF01
:103E000000BF78E20320994908709B480078002899
:103E100070D19B4800880E286DD2DFE800F0D807EB
:103E200037495864727E8A96A3B0BDCA8C48007820
:103E300018B3012093490870012204210320FDF7E3
:103E4000A0FF012205210320FDF79BFF012206218F
:103E50000320FDF796FF012207210320FDF791FFC4
:103E6000012208210320FDF78CFF012085494870BD
:103E70008870C8700871487107E000208149087097
:103E800048708870C87008714871A1E001217B48B2
:103E9000FFF70CF87248007818B101207949C87111
:103EA00005E000207749C8710220704908708FE052
:103EB00001217248FEF7FAFF6948007818B1012025
:103EC0007049887102E002206849087080E0644807
:103ED000007818B101206B49487003E0002069495F
:103EE0004870087074E05E48007828B10120654988
:103EF000887005E06DE06AE0002062498870087013
:103F000066E05748007818B101205E49C87003E0A8
:103F100000205C49C87008705AE05148007818B118
:103F200001205849087103E00020564908710870C3
:103F30004EE04B48007818B101205249487103E027
:103F4000002050494871087042E004F10800FDF774
:103F5000FFFB4C4988600120087708468068424989
:103F6000086135E004F10800FDF7F2FB4549C8603F
:103F7000012048770846C0683B49886128E004F181
:103F80000800FDF7E5FB3F490861012088770846F6
:103F90000069354908621BE004F10800FDF7D8FB11
:103FA000384948610120C877084640692E4988622F
:103FB0000EE004F10800FDF7CBFB324988610120D7
:103FC00081F82000084680692749086300E000BFA7
:103FD00000BF90E12A480088012804D002280FD0B1
:103FE000032820D115E00120224948700020887064
:103FF000084640682449086002201C49087012E005
:1040000001201C4988700020487002201749087060
:1040100009E004F10800FDF79BFB0546FCF772FB85
:104020001449486000BF00BF65E106200F490870D1
:104030001348008814286FD2DFE800F0930A28297B
:10404000303A3E4B54616A6F73777B7F83878B8FE7
:104050000348007810B125200249087082E0000072
:104060004E000020580000200C0300204B000020D0
:1040700060000020740000206F0000200008004055
:10408000520000206C0300205C0000206AE09B4886
:10409000007810B127209A49087063E00A209949F6
:1040A00008709648007810B128209549087059E0AA
:1040B00002209449087055E09048007840B1924839
:1040C0000078012804DD90480078401E8E49087071
:1040D00048E08A48007820B18B480078401C8A4923
:1040E00008703FE08548007840B188480078012892
:1040F00004DD86480078401E8449087032E07F481D
:10410000007820B181480078401C8049087029E07F
:1041100001207F49087025E023E002207C490870D7
:1041200020E003207A4908701CE0042078490870D8
:1041300018E001207749087014E0022075490870E2
:1041400010E00320734908700CE0042071490870E6
:1041500008E000206B49087004E00B2069490870F2
:1041600000E000BF00BFC6E0072066490870C2E05B
:10417000082064490870BEE009206249087066485A
:104180000088012805D15D48007810B12B205C49DA
:104190000870B0E0B0E0ADE00A205A490870AAE02B
:1041A0000B20584908705C480088062822D2DFE8B6
:1041B00000F02103070B0F180020524908701AE085
:1041C00006205049087016E00C204E49087012E095
:1041D0004A48007820B151480078401C4F49087087
:1041E00009E04648007820B14D480078401C4C4911
:1041F000087000BF00BF00BF7DE00C20414908707F
:104200004548008807282BD2DFE800F02A04080C74
:1042100010141D000B203B49087022E00B20394987
:1042200008701EE00B20374908701AE00B20354952
:10423000087016E03148007820B13A480078401CF8
:10424000384908700DE02D48007840B135480078B5
:10425000012804DD33480078401E3249087000E030
:1042600000BF00BF47E02C480088012803D104208C
:104270002D49087000BF00BF3DE027480088012895
:1042800003D104202949087000BF00BF33E0224851
:104290000088012802D002280ED106E017480078D5
:1042A00010B126201649087006E01448007810B1B5
:1042B000FF201349087000BF00BF1CE01520114902
:1042C00008701B480078A0B913480088012802D064
:1042D00002280CD105E00120164988720020C8721E
:1042E00006E00020134988720120C87200BF00BF99
:1042F00000BF00E000BF00BF70BD00004E00002006
:10430000580000204B0000206500002067000020BE
:104310006100002062000020520000206D0000209B
:104320006E000020690000206B0000206C0000205F
:104330006F000020D402002010B50C4800780C4912
:104340000978884210D009480078012804D109482A
:104350000078FDF73BFF03E006480078FDF767FFB4
:10436000024800780249087010BD00006F0000206C
:10437000590000204B0000200FB4084B10B504A9D1
:1043800002AA039800F0E6F8044602A9002000F013
:1043900078FC204610BC5DF814FB0000834C00083C
:1043A00002E008C8121F08C1002AFAD170477047FE
:1043B000002001E001C1121F002AFBD1704700005C
:1043C0002DE9FF5F82B00021DDE90430020DDDF848
:1043D00040B0034318D044F61050A2F2FF324243DB
:1043E0001514119801281FD0A5EB0B00401C5FEAA3
:1043F000000A4FF000064E4FDFF83891B0465046A5
:1044000015D5CAF1000413E0119801244AA301282C
:1044100001D16FEA0B010298119AC0E90031C0E99D
:10442000024206B0BDE8F09FCBF10000DFE7044692
:104430000021404A491842EB0450CDE9001012E037
:10444000E00707D032463B4640464946FCF7D7F8DE
:104450008046894632463B4610461946FCF7CFF85F
:1044600006460F466410002CEAD1DDE90401DDE9BF
:104470000023BAF1000F06DAFCF7C1F842464B46BA
:10448000FCF7BDF805E0FCF7E7FA42464B46FCF7BF
:10449000E3FA04460E460022284BFCF75FF903D8E6
:1044A0004FF0FF30014607E00022254B2046314601
:1044B000FBF7FEFFFCF74BFB102409E0002C0ADBA6
:1044C0000A220023FCF79EF9039B30321A55641E22
:1044D00050EA0102F2D1641C039AC4F1110314449E
:1044E000119A012A03D0012208430DD10AE00843A2
:1044F00004D000204FF0110B119072E7A3EB0B05D5
:104500006D1E0DE05B4504DD4FF0000205F1010575
:1045100004E003DA4FF00002A5F10105002AECD017
:1045200002981199C0E90231C0E9004579E700001D
:10453000000014400000F03F300000000000F04395
:104540000000E03F30380A2801D2012070470020E7
:10455000704700002DE9FF4F95B09B4689460646FF
:1045600000250FE2252877D100242746F84A0121AB
:10457000059400E0044316F8013F203B01FA03F0E4
:104580001042F7D130782A2811D06FF02F033078FD
:10459000A0F13002092A16D8059A44F0020402EB71
:1045A000820203EB42021044761C0590EFE759F8B3
:1045B000042B0592002A03DA504244F4005405907B
:1045C00044F00204761C30782E2816D116F8010F1C
:1045D00044F004042A280DD06FF02F023078A0F1A7
:1045E0003003092B09D807EB870302EB4303C718F5
:1045F000761CF3E759F8047B761C30786C280FD0D2
:1046000006DC4C2817D068280DD06A2814D104E0A5
:10461000742810D07A280FD10DE044F400140AE079
:1046200044F4801401E044F440147278824202D1D0
:1046300004F58014761C761C307866280BD013DCC9
:10464000582877D009DC002875D04528F6D04628B0
:10465000F4D047281AD19DE118E0632835D06428AA
:1046600079D0652812D195E1702873D008DC6728CD
:10467000F1D069286FD06E280DD06F2806D1B5E033
:1046800073282CD0752875D0782874D05A4617997D
:1046900090476D1C75E1C4F30250022809D003282D
:1046A0000DD0D9F8001004280DD00D6009F10409CF
:1046B00067E1D9F80010EA17C1E90052F6E7D9F826
:1046C00000100D80F2E70D70F0E719F8041B8DF86B
:1046D000001000208DF80100EA46012003E059F89F
:1046E00004AB4FF0FF3061074FF0000102D40DE042
:1046F00008F101018846B9420FDA8045F8DB1AF863
:1047000008100029F4D108E008F10101884681422F
:10471000FADB1AF808100029F6D105985B46A0EBE1
:10472000080721463846179A00F094FA284400EB0F
:10473000080507E04DE029E10DE01AF8010B5A46A3
:1047400017999047B8F10108F7D25B4621463846E1
:10475000179A13E142E00A220092C4F302524FF08A
:10476000000A022A08D059F804CB032A4FEAEC7158
:104770000AD00DE029E02AE009F1070121F0070243
:10478000F2E802C1914609E00FFA8CFC4FEAEC71A5
:10479000042A03D14FFA8CFC4FEAEC71002907DAA6
:1047A0000A460021DCF1000C61EB02012D2202E03F
:1047B000220504D52B228DF80420012203E0E20714
:1047C00001D02022F7E7904659E00A2102E01022AA
:1047D0000DE010214FF0000A00910BE010224FF085
:1047E000000A44F004040827009203E008224FF076
:1047F000000A0092C4F30252022A05D059F804CBF1
:104800000021032A08D009E009F1070121F007027D
:10481000F2E802C1914605E01FFA8CFC042A01D19E
:104820000CF0FF0C4FF00008220728D5702806D0A6
:10483000009B83F0100353EA0A0305D00EE04022E8
:104840008DF80420012208E05CEA010206D0302243
:104850008DF804208DF8050002229046009B83F01D
:10486000080353EA0A030AD15CEA010201D1620794
:1048700005D530228DF804204FF001087F1E5828FE
:1048800004D034A003900EA802900DE036A0F9E702
:1048900053466046009AFBF7B5FF84460398825C56
:1048A0000298401E029002705CEA0100F0D102986A
:1048B00006A9081A00F1200A600702D524F4803402
:1048C00000E00127574502DDA7EB0A0000E00020C9
:1048D00000EB0A01009005984144401A0590E0035E
:1048E00006D45B462146179A059800F0B3F90544B3
:1048F000002706E001A85A46C05D179990476D1C35
:104900007F1C4745F6DBE0030CD55B462146179A32
:10491000059800F09FF9054404E030205A461799A5
:1049200090476D1C0099481E00900029F5DC08E0B6
:10493000029802995A460078491C029117999047AB
:104940006D1CBAF10001AAF1010AF1DC65E1000079
:104950000928010030313233343536373839616255
:104960006364656600000000303132333435363719
:1049700038394142434445460000000000F058F9F0
:104980000544761C307800287FF4ECAD19B0284639
:10499000BDE8F08F620700D4062709F1070222F074
:1049A000070CFCE80223E14603F000485FEA080C2C
:1049B00002D00FF2702C0DE05FEA045C02D50FF21A
:1049C000682C07E05FEAC47C02D00FF2602C01E0A3
:1049D000AFF2700C4FF0FF3823F00043CDF850C019
:1049E00065280CD006DC452809D046281DD047286C
:1049F0003DD13DE0662818D067287ED138E00021FF
:104A0000112F01DB112000E0781CCDE9000106A97F
:104A10000EA8FFF7D5FCDDE90F010E9A03910021E6
:104A2000009207F1010A04914DE04FF00040009719
:104A3000CDE9011006A90EA8FFF7C2FCDDE90F02BF
:104A400003920E9B11990022DDF80CA000930492B2
:104A500011B9791C00EB010AB7EB0A0004D4C0F1CC
:104A6000FF3007F1010A0490AAEB0700019044E02F
:104A7000012F00DA01270021112F01DD112000E0B4
:104A80003846CDE9000106A90EA8FFF799FCDDE93B
:104A90000F010E9A0391002104910092BA4621075A
:104AA0000CD40399514500DA8A46BAF1010F05DDAD
:104AB000009AAAF10101515C302908D0B84202DA0B
:104AC00010F1040F06DA0121CDE9011015E0AAF179
:104AD0000101E9E7002805DC049901440491AAEBEF
:104AE000000102E0411C514500DD8A460499401A4C
:104AF000401C01904FF000400290200704D4019820
:104B0000504501DBCDF8048000208DF84F0002985D
:104B10000DF14F07B0F1004F25D02B200E900298D9
:104B20004FF0020800280CDA404202902D200E902F
:104B300007E00A210298FBF74FFE3031029007F898
:104B4000011DB8F10001A8F10108F2DC029800286B
:104B5000EFD1791E0E980870307800F0200040F0F8
:104B6000450007F8020D12A8C01B00F107081498B1
:104B7000007800B1012000EB0A01019801EBE0711F
:104B800005984144401A401E0590E00306D45B4658
:104B90002146179A059800F05DF8054414980078AE
:104BA00018B15A46179990476D1CE00324D55B460F
:104BB0002146179A059800F04DF805441CE004982A
:104BC000002807DBDDE90301884203DD0098405C33
:104BD000179901E0179930205A469047049805F13B
:104BE0000105401C04900198401E019004D12E2024
:104BF0005A46179990476D1CBAF10001AAF1010AB3
:104C0000DDDC05E017F8010B5A46179990476D1C3B
:104C1000B8F10001A8F10108F4DC5B462146179ABF
:104C20000598ABE62D0000002B00000020000000DE
:104C30002DE9F041044600251E461746880404D499
:104C400005E039462020B0476D1C641EF9D5284682
:104C5000BDE8F0812DE9F041044600251E4690464E
:104C6000C80301D5302700E02027880404D505E0DB
:104C700041463846B0476D1C641EF9D52846BDE84C
:104C8000F0810A68531C0B601070704708B5002053
:104C90000090FF20009002E00098401E00900098D5
:104CA0000028F9D108BD0000074A116808E00A226F
:104CB000B0FBF2F2044B1B685B1A9A4200D200E090
:104CC000F5E700BF704700000000002000BFFDF7BF
:104CD00037F900F0D1F84FF4E130FEF78BFB4FF4D9
:104CE000E130FEF75BFD00F0A5F8FEF759F8FCF7A0
:104CF00031FCFEF785F84FF49670FFF7D5FFFCF70F
:104D0000A1FDFDF751F9FCF7D1FF19E0FCF74AFED0
:104D1000FEF7DAFBFDF7F0FC0A48007830B1FCF74B
:104D200061FCFDF7D1FC00200649087006480078B8
:104D300030B1FDF7BDFCFFF7FFFA00200249087013
:104D4000E4E700000700002009000020F8B5044651
:104D50000D460026002000902FE0684600F038F84D
:104D60001948008820B99DF80000EE2800D024E002
:104D700015480088A84208DA9DF8001012480288F9
:104D80000088401C104B1880A1549DF800000F496A
:104D9000096840EA01200D490860084600686FF480
:104DA0004031884208D10848068800200749086039
:104DB000054908803046F8BD00BF00F04BF80028D8
:104DC000CBDC0020F7E700002C00002028000020AA
:104DD00001460B4840880A4A128890420FD0084882
:104DE0004288001D805C0870054A5288501CC2171A
:104DF00000EBD2525212A0EB4222014B5A80704774
:104E0000B800002001460A4B1B88581CC31700EB52
:104E1000D3535B12A0EB43239AB2054840889042DB
:104E200005D003480388001DC154001F028070474D
:104E3000B800002000200449488008800349086029
:104E40000349088070470000B800002028000020B7
:104E50002C0000200748008800F50070054A5288A1
:104E6000811AC81701EBD0504012A1EB402080B24C
:104E700070470000B800002070B56FF00400FDF727
:104E8000FBFB1249B1F1807F00D31DE021F07F4090
:104E9000401E4FF0E022506150170F22002807DA21
:104EA00013071D0E0A4B00F00F04241F1D5503E0CD
:104EB00013071C0E074B1C5400BF00204FF0E022CC
:104EC00090610720106100BF70BD00000053070013
:104ED00018ED00E000E400E0DDDDDDDDDCBBBBDD86
:104EE000DDDDDDDDDDDDDDDD98888888888888888A
:104EF00077777777778888888555555666666666AA
:104F00006666666666688888833333322222222288
:104F1000222222222228888D384F000800000020FB
:104F20007C000000A0430008B44F00087C00002073
:104F30007C0B0000B04300080000000001000000EE
:104F40000000000000000102030401020304060740
:104F5000080902040608000000000000000000002C
:104F6000000000000000000000000000000101BE81
:104F7000ABB5F1B7F0CFF100000000000000000079
:104F80000000000000000000000000000000000021
:104F9000FF00000000000000000000000001000110
:104FA00000010004040000000000000000000000F8
:044FB00000000000FD
:04000005080000ED02
:00000001FF
