:020000040800F2
:10000000E81F0020010100084B1600082516000813
:1000100047160008F1110008C5370008000000006D
:100020000000000000000000000000006D26000835
:10003000C112000800000000D5170008012D0008BB
:100040001B0100081B0100081B0100081B01000820
:100050001B0100081B010008C3120008D51200088C
:100060001B0100081B0100081B0100081B01000800
:100070001B0100081B0100081B0100081B010008F0
:100080001B0100081B0100081B0100081B010008E0
:100090001B0100081B0100081B0100081B010008D0
:1000A0001B0100081B0100081B0100081B010008C0
:1000B0000930000829300008A13000081B010008A1
:1000C0001B0100081B0100081B0100081B010008A0
:1000D0001B010008B5340008D93400081B010008D2
:1000E0001B0100081B0100081B010008DFF80CD0F1
:1000F00000F01CFE00480047F1460008E81F002001
:100100000648804706480047FEE7FEE7FEE7FEE7B1
:10011000FEE7FEE7FEE7FEE7FEE7FEE7112D00083B
:10012000ED000008A0F14101192900D820307047E6
:1001300040EA01039B0703D009E008C9121F08C069
:10014000042AFAD203E011F8013B00F8013B521EE9
:10015000F9D27047D2B201E000F8012B491EFBD260
:1001600070470022F6E710B513460A4604461946C2
:10017000FFF7F0FF204610BD421C10F8011B0029BC
:10018000FBD1801A704710B5002200E0521C835C3E
:100190008C5CA34201D1002BF8D1D8B2E1B2401A55
:1001A00010BD30B505460020034600E05B1C9342BD
:1001B00005D2EC5CC85C201A01D1002CF6D130BD10
:1001C0000FB400B58DB010A909900B9000914FF0BD
:1001D000FF300A9000200C900548069005480790D3
:1001E0006A4609A80F9900F0E1FB0DB05DF814FB19
:1001F000C9090008E70900082DE9FF4F087881B018
:100200009946FF2805D0491C2D2804D0002400233E
:1002100008E000230BE00124F9E703EB830300EB84
:100220004303491C0878FF28F7D104B15B42002042
:100230000090147801462D2C01D02B2C04D1521C97
:100240002D2C12D00024009400251678FF2E0ED0FD
:100250000A24A0FB04C801FB0481002700FB07114E
:10026000521C16EB0C006941EFE70124EBE79944BF
:1002700050EA01020ED00024AA4D2646DFF8A882DB
:1002800000F013FD82468B46B9F1000009DAC9F18E
:1002900000071BE001980021C0E9001105B0BDE88E
:1002A000F08F074612E0F80707D022462B4630466B
:1002B000414600F016FA0646884622462B4610466E
:1002C000194600F00EFA04460D467F10002FEAD1C1
:1002D000B9F1000F324643465046594602DA00F063
:1002E00075FC01E000F0FDF9009A0AB181F00041CF
:1002F000019AC2E90001D1E72DE9FF4F1F468DB0F9
:10030000D7E901464FF0FF382E2045464FF000094F
:100310000B90B9696D1C0E988847396A82468847E8
:100320000028F6D1BAF1FF3F0AD024F4D064002EA1
:1003300011DDBAF12B0F08D0BAF12D0F0BD102E06D
:10034000404611B0ABE744F48064B9696D1C0E9867
:1003500088478246761E6946600501D52D2000E05B
:100360002B208DF8000001F1010B0DF1200809E0B0
:10037000B9696D1C0E98884782460F9844F4007442
:10038000761E0560002E02DDBAF1300FF0D00B9919
:100390008A453ED144F0800406E00F99681CA9F11B
:1003A000010944F400740860B9696D1C761E0E984A
:1003B000884782463028F0D02BE00B998A4505D13A
:1003C000200603D444F08004761E18E0504603F063
:1003D00081FC08B30DF11301761E44F400748B45C3
:1003E00008D2AAF130000BF8010B200607D5A9F1BD
:1003F000010003E0200602D409F101008146A005B6
:1004000002D50F99681C0860B9696D1C0E98884761
:100410008246002ED1DC53E0002E51DDBAF1650F8B
:1004200002D0BAF1450F4BD1A00549D5B9696D1C71
:1004300024F44074761E0E9888478246002E0CDD08
:100440002B2804D0BAF12D0F07D144F48074B96978
:100450006D1C0E9888478246761EE00501D52D2139
:1004600000E02B2108F8011BCDF82C8021E00DF1D4
:100470002901761E44F4007488450CD2AAF130009C
:1004800010F0FF0088F8000002D10B99884509D9C7
:1004900008F1010806E0E00501D5244801E042F238
:1004A0000F708146B9696D1C0E98884782460F9877
:1004B0000560002E04DD504603F00CFC0028D6D168
:1004C000F9690E988847FF208BF8000088F8000033
:1004D0000020069007904B466A4608A906A8FFF739
:1004E0008BFEA00502D46FF001002AE714F0240F60
:1004F0000AD0E00714D1DDE906123868031D3B601D
:100500000068C0E900120BE0DDE9060100F0F1FB34
:100510000146E00704D13868021D3A6000680160B6
:1005200028460EE7000024400000F03FF1D8FFFF0E
:1005300080EA010210B502F00043400022D04A00D8
:100540001FD0010E01EB1261C0F35600C2F3560238
:1005500040F4000042F40002A0FB022000047F39B6
:10056000140400D0401C50EA124001D44000491E3F
:10057000C2B20C0604EBD010401C4008802A02D006
:1005800003E0002010BD20F00100002900DA002067
:10059000184310BD2DE9FE4F804681EA0300C00FCD
:1005A0000C46009021F0004123F00045B8EB02001A
:1005B000A94105D24046214690461C460B460246BC
:1005C00023F00040104347D0270DC7F30A00C3F3C0
:1005D0000A510290401A019040286BDAC3F31300CD
:1005E00040F4801B0098924620B10023D2EB030A0E
:1005F00063EB0B0B01985946C0F14002504600F0E6
:100600009EF906460D4650465946019A00F0B6F945
:1006100010EB08006141002487EA115284EAE77375
:100620001A4340D0009A62B3019A012A4FEA075256
:1006300015DC001B61EB02014FF0004202EA075299
:10064000CDE90042001C41F5801132462B4600F0F6
:100650006FFA03B0BDE8F08F40462146F9E7001B72
:1006600061EB0201001C41F5801300185B4120186A
:10067000A2F5001747EB030140EAD570B6196D41AA
:1006800011E06D084FEA360645EAC0754FEA075299
:10069000001B61EB0201001C41F5801149084FEA83
:1006A00030000019514132462B4603B0BDE8F04FEF
:1006B00000F02FBA0098012240000023D0EB020284
:1006C00063EBE073009821464FEAE074B8EB00005A
:1006D00061EB0401E9E783F000435BE781F000414F
:1006E00058E72DE9FE4F81EA030404F0004421F0AD
:1006F000004100944FF0000B23F0004350EA010446
:100700005ED052EA03045BD0C3F30A54C1F30A5526
:100710002C44A4F2F3340194A0FB0254C1F313015E
:1007200041F48011C3F3130343F4801301FB02442B
:1007300000FB034E840A970A44EA815447EA835730
:10074000A4FB076802958D0A05FB07854FEA932CE9
:1007500004FB0C542705029D4FEA065847EA16375A
:10076000B5EB08056EEB070C870E920E47EA811772
:1007700042EA8312A7FB0201B6EB0B0164EB000413
:100780002B0D43EA0C335E1844EB1C50DA465146FD
:10079000E7FB0201C5F313044FEA0B3343EA14539A
:1007A0004FEA0432019C43EA0603A4F10C040294CC
:1007B000009CCDE900B400F0BBF903B0BDE8F08FB8
:1007C00000200146F9E7C10F80EAE0700844CA073B
:1007D0009623002100F06FB970B5C1F30A5201F001
:1007E00000450024C1F3130140F2FF3341F48011AE
:1007F0009A4201DA002070BD40F233439A42A2F2DD
:10080000334203DC524200F0A9F800E090402C4350
:10081000F1D0404270BD00F0004230F000400AD0FC
:10082000C10D01F56071C0F3160042EA0151C20822
:1008300040071143704700200146704730B5041E41
:1008400071F1000404DB4FF00044404264EB01010D
:10085000141E73F1000405DB1C464FF000435242A6
:1008600063EB04038B4208BF824230BD30B5041EE7
:1008700071F1000404DB4FF00044404264EB0101DD
:10088000141E73F1000405DB1C464FF00043524276
:1008900063EB0403994208BF904230BD002801DB9E
:1008A000C0F10040002901DBC1F1004181427047E5
:1008B00030B50B46014600202022012409E021FA30
:1008C00002F59D4205D303FA02F5491B04FA02F52D
:1008D0002844151EA2F10102F1DC30BD2DE9F05FC4
:1008E0000546002092469B4688460646814640249F
:1008F0001BE0284641464746224600F02FF8534663
:100900005A46C01A914110D311461846224600F0AB
:1009100016F82D1A67EB01084F46224601200021E8
:1009200000F00DF817EB00094E41201EA4F1010460
:10093000DFDC484631462A464346BDE8F09F202A80
:1009400004DB203A00FA02F1002070479140C2F126
:10095000200320FA03F3194390407047202A04DB58
:10096000203A21FA02F00021704721FA02F3D04028
:10097000C2F120029140084319467047202A06DB45
:10098000CB17203A41FA02F043EAE07306E041FA5D
:1009900002F3D040C2F1200291400843194670474B
:1009A000026811441378016018467047D160044909
:1009B00051610449116200211161114600F0CEB964
:1009C000A1090008510D0008426842B1016811F800
:1009D000013B23B1521EC0E90012184670470121A5
:1009E000C160881E704742685AB1C368016843B944
:1009F00083688B4205D0491E521CC0E900120020BA
:100A000070474FF0FF3070470FB4002300B589B036
:100A10000CA900910B996FF00042CB601E4B06931E
:100A20001E4B07930423CDE901321D4A089202466A
:100A30006B460020FFF760FC09B05DF814FB70B551
:100A400086B006464FF0FF300091CDE9010100204D
:100A500015460C4604903246694604A8FFF7D4FFB9
:100A600002460498211825B108B1084600E0204646
:100A70002860049800280DD0002A02DD00988842E2
:100A800008D0081B0094CDE901043246694604A849
:100A9000FFF7BAFF06B070BDC9090008E7090008F2
:100AA000510D00080029A8BF7047401C490008BF2D
:100AB00020F00100704710B4B0FA80FC00FA0CF08E
:100AC00050EA010404BF10BC704749B1CCF12004C6
:100AD00021FA04F411FA0CF118BF01212143084353
:100AE000A3EB0C01CB1D4FEA00614FEA102042BF7F
:100AF000002010BC704700EBC35010440029A4BF75
:100B000010BC7047401C490008BF20F0010010BC19
:100B1000704710B5141E73F1000408DA401C41F14F
:100B2000000192185B411A4301D120F0010010BD71
:100B30002DE9F04D92469B4611B1B1FA81F202E0E7
:100B4000B0FA80F220329046FFF7F9FE04460F46D5
:100B500040EA0A0041EA0B0153465A46084313D0C3
:100B6000114653EA010019D0C8F140025046FFF780
:100B7000F5FE05460E46504659464246FFF7DFFE53
:100B8000084305D0012004E020463946BDE8F08D39
:100B90000020054346EAE0762C4337430A98630574
:100BA000E40AA0EB08000022FD0A44EA47540A3098
:100BB00002D500200146E9E7010510196941DDE988
:100BC000084500196941BDE8F04DA2E72DE9F04D57
:100BD00081EA030404F0004B21F0004514464FF075
:100BE000000A23F0004150EA050220D054EA010235
:100BF0001DD0C5F30A570246C5F31303C1F3130012
:100C0000C1F30A5640F4801543F48013A7EB06089D
:100C1000101BD64608F2FD3873EB050002D308F12D
:100C2000010801E092185B41B8F1000F03DA0020DF
:100C30000146BDE8F08D00204FF480110646844641
:100C40000EE0171B73EB050705D3121B63EB0503BF
:100C500006434CEA010C49084FEA300092185B4108
:100C600050EA0107EDD152EA030012D082EA0400F3
:100C700083EA0501084305D0101BAB4106D20122CF
:100C8000002306E000224FF0004302E06FF0010273
:100C900053101AEB06004CEB085110EB0A0041EB25
:100CA0000B01BDE8F04DFFF734BF0EB540F2334203
:100CB00002920022CDE900221346FFF739FF03B06C
:100CC00000BDC1F30A52C1F3130140F2FF3341F4F6
:100CD00080119A4202DA00200146704740F2334305
:100CE0009A42A2F2334202DC5242FFF737BEFFF7CC
:100CF00026BE01F0004330B421F0004150EA010269
:100D000006D00A0DA2F56072C1F31301002A02DCBD
:100D100030BC00207047440F44EAC104C100E01811
:100D200030BC00EBC250FFF7BDBE0000064C074DC3
:100D300006E0E06840F0010394E8070098471034AB
:100D4000AC42F6D3FFF7D6F9785A0008985A000853
:100D5000C0B24FF4F05100F097B900002DE9F34F05
:100D60008BB04FF0000801F10C000C464FF0010B66
:100D700046460DF1080A01906269012101989047E9
:100D8000051E2DD0252D2CD0216A8847C0B162695F
:100D9000012101989047216A88470028F7D1411E18
:100DA00062690198904700E0761CA1690B9888471A
:100DB000216A88470028F7D1E1690B988847DBE76B
:100DC000A1690B9888470746A84201D1761CD3E752
:100DD000E1690B9888477F1C02D1B8F1000F6FD0F2
:100DE00046E1002762693D463946019890472A2826
:100DF00004D162690121019890470125DFF88492AE
:100E00006269012101989047A0F130010A290AD2B4
:100E10004F45E5DC07EB870100EB4107303FDFD4AE
:100E200045F01005ECE7E90601D46FF000476C28A7
:100E30000AD04C2814D0682815D06A280DD0742800
:100E40001CD07A281AD01DE06269012101989047D0
:100E50006C2802D045F0040514E045F002050DE0D1
:100E600045F020050AE06269012101989047682851
:100E700002D045F0080505E045F4006562690121EE
:100E800001989047C4E9015765283DD019DC5828DE
:100E90007AD00CDC452837D004DC252826D0412820
:100EA00031D131E046282FD047282CD12CE05B28C7
:100EB00077D0612828D063287CD0642823D15AE0D9
:100EC000D0E06F2848D008DC66281DD067281BD0EA
:100ED000692821D06E2816D127E0702845D07328C4
:100EE00068D0752847D078280DD14DE0A1690B98BE
:100EF0008847054625283FF469AFE1690B98884784
:100F00006D1C3FF46AAFB3E023466A466FF0010000
:100F10000B99FFF7F1F99EE045F040006060A807EB
:100F200023464FF0000236D43EE0E8077FF447AF97
:100F30002068011D21600068290501D506701BE7A6
:100F4000290701D5068017E7A90703D5F117C0E9DE
:100F5000006111E706600FE745F040006060A807F8
:100F600023464FF0080216D41EE040F60E0125EA93
:100F70000100606016E045F040006060A80723466D
:100F80004FF00A0207D40FE045F040006060A80768
:100F900008D5234610226FF001000B99AFF30080B3
:100FA00059E007E0234610226FF001000B99AFF3E0
:100FB000008050E04FF000094F464B46632802D0B6
:100FC0005B2806D040E0E80601D40120A06001279C
:100FD0003AE062690121019890475E2805D14FF0FF
:100FE00001096269494601989047216939B9002190
:100FF0000A46534643F82120491C0829FADBB0B3BE
:10100000216969B9C11700EBD16253110AEB830161
:1010100022F01F02821A01200B68904003430B60EC
:1010200062690121019890475D28E8D1B9F1000F6C
:1010300009D00020514651F82020D24341F8202009
:10104000401C0828F7DB02AB224600976FF0010036
:101050000B99AFF3008000280CDA401C08D1BBF1DB
:10106000000F05D04FF0FF300DB0BDE8F08FFFE767
:101070004046F9E7E90701D108F1010806444FF0BD
:10108000000B79E6CCCCCC0C7F2801D9002208E0FB
:10109000064A02EB5002C007127800D1120902F092
:1010A0000F0201209040084070470000385A0008A5
:1010B00010B505A21421022001F0E6FC02A21321C2
:1010C000002001F0E1FC10BD3030303030302E30E7
:1010D0003000000010B50024102406E00AA22146CA
:1010E000002001F0D1FC601CC4B2152CF6DB1124E9
:1010F00006E005A22146022001F0C6FC601CC4B235
:10110000162CF6DB10BD00003030303030302E3081
:101110003000000070B504460D461646EE2001F082
:10112000F3FAB12001F0F0FA232001F0EDFA200AE1
:1011300001F0EAFAE0B201F0E7FA280A01F0E4FA75
:10114000E8B201F0E1FAF0B201F0DEFAFF2001F0BE
:10115000DBFAFC2001F0D8FAFF2001F0D5FAFF20DD
:1011600001F0D2FA70BD000010B5044664B101224E
:101170000221104601F096FB01200C4988700CA159
:10118000104802F0CCFB0BE000220221012001F00C
:1011900089FB00200549887005A10A4802F0BFFBC1
:1011A00002488178084800F068F910BD0C01002061
:1011B0004175746F5F4B6E6966653A6D6F64653239
:1011C000000000000044004000D8000810B505A24F
:1011D0001521022001F058FC02A21421002001F088
:1011E00053FC10BD3030303030302E303000000035
:1011F00000BFFEE710B52B480078401C2949087055
:101200000846007807284AD2DFE800F049040F1AA0
:1012100025303B0024A21B21002001F035FC22A236
:101220001E21022001F030FC39E020A21B21002009
:1012300001F02AFC1DA21E21022001F025FC2EE057
:101240001BA21B21002001F01FFC19A21E2102205D
:1012500001F01AFC23E017A21B21002001F014FC6E
:1012600014A21E21022001F00FFC18E012A21B2183
:10127000002001F009FC10A21E21022001F004FC54
:101280000DE00EA21B21002001F0FEFB0BA21E218F
:10129000022001F0F9FB00200249087000BF00BFE6
:1012A00010BD00002A0000204735350047353600C4
:1012B0004735370047353800473539004735340062
:1012C000704710B5012000F015F810B1012000F0B2
:1012D0000BF810BD10B5022000F00CF810B1022080
:1012E00000F002F810BD00000149086070470000DE
:1012F00014040140014600200022074B1B6803EA4A
:101300000102054B14331B680B4013B10AB10120D5
:1013100000E0002070470000000401400149C8605F
:10132000704700000020024070B50546042440F6D6
:10133000FF7000F08DF80446042C19D10D480069A7
:1013400040F002000B49086108464561006940F021
:101350004000086140F6FF7000F07AF80446052C62
:1013600006D00448006941F6FD7108400149086152
:10137000204670BD0020024004200B49C96801F0DE
:10138000010109B101200EE00749C96801F004011B
:1013900009B1022007E00449C96801F0100109B150
:1013A000032000E004207047002002400348006949
:1013B00040F08000014908617047000000200240B1
:1013C0000549096821F01001034A116011460968B6
:1013D00001431160704700000020024070B50546CF
:1013E0000E4604240F2000F033F80446042C13D1D9
:1013F0000A48006940F00100084908612E800F206A
:1014000000F026F80446052C06D00448006941F691
:10141000FE71084001490861204670BD002002406D
:1014200001460020034A106800F0380008431060AD
:10143000704700000020024002480349486003480A
:10144000486070472301674500200240AB89EFCD1B
:1014500070B504460425FFF78FFF054605E003F04D
:10146000D3F8FFF789FF0546641E012D01D1002C3A
:10147000F5D104B90525284670BD70B504460D4662
:101480000426FFF7D9FF3520FFF748FF2046FFF776
:101490004BFF0646042E04D129462046FFF79EFF47
:1014A0000646FFF783FF70BD0146087870472DE9B7
:1014B000F0410246002500260020002300240027DA
:1014C00091F803C00CF00F0591F803C00CF0100C5C
:1014D000BCF1000F03D091F802C04CEA050591F869
:1014E00000C0BCF1000F31D0146800202BE04FF099
:1014F000010C0CFA00F3B1F800C00CEA03069E429E
:1015000020D183004FF00F0C0CFA03F7BC4305FA0F
:1015100003FC4CEA040491F803C0BCF1280F06D187
:101520004FF0010C0CFA00FCC2F814C00AE091F86C
:1015300003C0BCF1480F05D14FF0010C0CFA00FCC0
:10154000C2F810C0401C0828D1D31460B1F800C004
:10155000BCF1FF0F34DD546800202EE000F1080CD0
:101560004FF0010808FA0CF3B1F800C00CEA0306CA
:101570009E4221D183004FF00F0C0CFA03F7BC43BD
:1015800005FA03FC4CEA040491F803C0BCF1280FEF
:1015900005D100F1080C08FA0CF8C2F8148091F893
:1015A00003C0BCF1480F07D100F1080C4FF001084F
:1015B00008FA0CF8C2F81080401C0828CED35460FA
:1015C000BDE8F08170B5144801F0C3FE0446E11790
:1015D00004EB91718910A4EB810101B170BD20462B
:1015E000E11704EB9171C1F38F05B5F5FA5F02DAEB
:1015F0000A48056003E0A5F58040084908600848EE
:101600000068064909680844054908600020024945
:101610002431088000BFE1E70008004020000020DE
:101620001400002000BFFEE708B54FF4C06000F0D2
:1016300045F825208DF8000001208DF8010068464E
:1016400000F004F808BD00BFFEE7704770B5002148
:1016500000230F22C47804B3154C246804F4E0641A
:10166000C4F5E064210AC1F10403CA40447804FAD5
:1016700003F184781440214309010E4C0678A155EA
:10168000047804F01F050124AC4005786D11AD000D
:1016900005F1E025C5F8004109E0047804F01F05D4
:1016A0000124AC40044D0678761145F8264070BD03
:1016B0000CED00E000E400E080E100E002490143BD
:1016C000024A1160704700000000FA050CED00E0CE
:1016D00038B50446002000906A4603A12046FEF774
:1016E0006FFD009838BD00002566000010B52D483C
:1016F0000078401C2B4908700846007806284DD217
:10170000DFE800F04C03111F2D3B27A21D21002014
:1017100001F0BAF924A22021022001F0B5F92348F2
:10172000234908603BE023A21D21002001F0ACF911
:1017300020A22021022001F0A7F91F481C490860BF
:101740002DE01EA21D21002001F09EF91BA22021E8
:10175000022001F099F91A48154908601FE019A202
:101760001D21002001F090F916A22021022001F095
:101770008BF915480E49086011E014A21D210020C4
:1017800001F082F911A22021022001F07DF9104818
:101790000749086000200349087000E000BF00BF4F
:1017A00010BD00002B000020583100000AD7233C58
:1017B000DC000020583200000AD7A33C5835000056
:1017C000CDCC4C3D58313000CDCCCC3D58323000E2
:1017D000CDCC4C3E704700001CB50024112001F018
:1017E000BEF80A2002F01EFF112001F0B8F80A200E
:1017F00002F018FF00BF09E022460321112001F08A
:101800007AF8052002F00EFF601CC4B2652CF3DBF1
:10181000002001F0A4F80A2002F004FFFFF75AFCB0
:10182000222409E04AA22146002001F02DF90520DA
:1018300002F0F8FE601CC4B2272CF3DB262409E07A
:1018400043A22146022001F01FF9052002F0EAFE22
:10185000601CC4B22B2CF3DB162409E000222146C5
:10186000022001F01FF8052002F0DCFE601CC4B26B
:101870001B2CF3DB39A21B21002001F005F937A254
:101880001E21022001F000F935A21C21002001F0E8
:10189000FBF833A21F21022001F0F6F831A21D212E
:1018A000002001F0F1F82FA22021022001F0ECF835
:1018B00044F620602C490880642048604FF47A7018
:1018C00088606420C86044F6206008614FF47A7034
:1018D0008882084601214268002001F00CF8224865
:1018E000028822A1684602F0B9F86A461821002051
:1018F00001F0CAF81C480221C268002000F0FBFF7A
:1019000019481AA1C268684602F0A8F86A46272159
:10191000002001F0B9F8144814A18268684602F06A
:101920009DF86A461921002001F0AEF800220D2131
:10193000022000F0B7FF01220E21022000F0B2FFCA
:101940000B480C49086000200B4908701CBD0000C2
:101950003030303030302E30300000004735340029
:10196000B9D8000058310000F400002025640000C0
:101970000AD7233CDC00002005000020F0B585B02C
:1019800004460F466078FE490870A078FD4908704B
:10199000E079FD4908702079E17840EA0120FB49AF
:1019A0000880A079617940EA0120F9490880207A0D
:1019B0000106607A41EA0041A07A41EA0020E17A1A
:1019C0000843F4490860F0480078102802D1607A92
:1019D000F1490870EA480078B1287DD1EB480088C9
:1019E00016287AD2DFE810F01600DF008202EA0340
:1019F0007900EE03F203590479005D046104650483
:101A0000820486048A048E049204790079007900A5
:101A100096049A040020E1490870DD480088C01E41
:101A20000D2878D2DFE800F007254378BCBCBCBCA9
:101A3000BCACB0B4B800D8480078C8B10120D849CF
:101A40008875084640680A3848600846406800289B
:101A500001DC00204860D2480088D14949684843E9
:101A6000642190FBF1F0CE4908610020CA4908705A
:101A700097E0C9480078C8B10120C949887508466F
:101A800040680A30486008464068642801DB6420EA
:101A90004860C3480088C24949684843642190FBB4
:101AA000F1F0BF4908610020BB49087079E0BA48ED
:101AB000007878B30120BA49C8750846C068642820
:101AC0000CDC0846C0680A38C8600846C0680028B0
:101AD00012DC0020C8600FE0F7E3F7E3B048C0680D
:101AE000642809DDAE48C068B0F5967F04DCAC48D8
:101AF000C0681938AA49C860A9488068A849C96857
:101B00004843642190FBF1F000B2A549888200208F
:101B1000A149087045E043E09F48007878B3012070
:101B20009F49C8750846C068642804DA0846C0683A
:101B30000A30C86015E09A48C068642811DB9848EC
:101B4000C068B0F5967F0CDC9548C06819309449A0
:101B5000C8600846C068B0F5967F02DB4FF4967007
:101B6000C8608F4880688E49C9684843642190FBEB
:101B7000F1F000B28A49888200208749087010E09D
:101B80000520864908700CE00A208449087008E0A6
:101B900001208249087004E002208049087000E0BA
:101BA00000BF00BFD7E301207C4908707D48007862
:101BB000002873D1764800881C2870D2DFE800F036
:101BC0006F0E1924DEDD2F445970859AAFC4DCDB1B
:101BD000DA6F6F6F6F6F6F6F6F6F6FD96E480078CE
:101BE00018B101207049487002E000206E49487029
:101BF0007AE16948007818B101206B49C87002E0A9
:101C000000206949C8706FE16348007818B101206D
:101C10006549487102E000206349487164E104F1BC
:101C20000800FFF755FD6049C860C868FEF7F3FD7E
:101C300005462A460B465DA1684601F00FFF69463E
:101C40005D4801F06CFE4FE104F10800FFF740FD34
:101C5000554908610869FEF7DEFD05462A460B4630
:101C600056A1684601F0FAFE6946534801F057FE56
:101C70003AE104F10800FFF72BFD4B494861486940
:101C8000FEF7C9FD05462A460B4650A1684601F0FD
:101C9000E5FE6946484801F042FE25E125E122E1E2
:101CA00004F10800FFF714FD3F4988618869FEF7D9
:101CB000B2FD05462A460B464AA1684601F0CEFE13
:101CC00069463D4801F02BFE0EE104F10800FFF7E4
:101CD000FFFC3549C861C869FEF79DFD05462A46E7
:101CE0000B4645A1684601F0B9FE6946324801F04D
:101CF00016FEF9E004F10800FFF7EAFC2A49086241
:101D0000086AFEF788FD05462A460B463FA168464D
:101D100001F0A4FE6946284801F001FEE4E004F168
:101D20000800FFF7D5FC20494862486AFEF773FDBA
:101D300005462A460B463AA1684601F08FFE6946E1
:101D40001D4801F0ECFDCFE004F10800FFF7C0FCF6
:101D500015498862886AFEF75EFD05462A460B46ED
:101D600034A1684601F07AFE6946134801F0D7FDB8
:101D7000BAE0A8E092E07CE066E0B0E0AEE000000F
:101D80000600002007000020090000200A000020B3
:101D90000C0000201000002008000020050000209A
:101DA000F4000020240000200C010020536166652F
:101DB0005F5A3A252E326600004400404B6E696639
:101DC000655F686967683A252E3266004B6E696602
:101DD000655F626C6F636B5F686967683A252E3276
:101DE000660000004B6E6966655F626C6F636B5FD7
:101DF000583A252E326600004B6E6966655F626C4C
:101E00006F636B5F593A252E326600004B6E696630
:101E1000655F626C6F636B5F5A3A252E3266000015
:101E2000536F66745F6C696D69745F583A252E3222
:101E300066000000536F66745F6C696D69745F596A
:101E40003A252E326600000004F10800FFF740FC3E
:101E5000F749C862C86AFEF7DEFC05462A460B460B
:101E6000F4A1684601F0FAFD6946F74801F057FD14
:101E70003AE004F10800FFF72BFCED490863086B1A
:101E8000FEF7C9FC05462A460B46F0A1684601F05C
:101E9000E5FD6946EC4801F042FD25E004F108004B
:101EA000FFF716FCE2494863486BFEF7B4FC0546B1
:101EB0002A460B46EAA1684601F0D0FD6946E24891
:101EC00001F02DFD10E0EB48007818B10120D84951
:101ED000C87102E00020D649C87105E004E0012085
:101EE000D349487200E000BF00BF34E20220E2495B
:101EF0000870E24800881B2876D2DFE800F0750EF3
:101F00001617272830384546474F575F769BAD75E3
:101F100075757575B1D2F7F5F400D94800780128C8
:101F200002D00120D749487146E145E1D448007804
:101F300001280AD0CF48007820B10120D14988710A
:101F4000FFF7D4FB0020CB49087035E134E1CC48E1
:101F50000078012802D00120CA49C8712CE1C84884
:101F60000078012802D00320C349087024E1C44846
:101F70000078012807D0BF48007820B1FFF73AF970
:101F80000020BC49087017E116E115E1BC48007853
:101F9000012802D00420B84908700DE1B848007843
:101FA000012802D00420B449087005E1B448007843
:101FB000012802D00420B0490870FDE00120B0499A
:101FC00008700121B04801F027F90021AF4801F065
:101FD00023F900220E21022000F064FC01220D21D1
:101FE000022000F05FFCE7E0E5E00020A449087073
:101FF0000021A54801F010F900220D21022000F077
:1020000051FC01220E21022000F04CFC9D4800787A
:1020100058B99C48407840B99A48807828B999487E
:10202000C07810B99748007918B10121974801F09C
:10203000F3F8C1E00020924908700021924801F0B5
:10204000EBF800220D21022000F02CFC01220E21D1
:10205000022000F027FCAFE0002087490870ABE0C9
:1020600001221621022000F01DFC0121874801F009
:10207000D3F88448007858B98248C0684FF6FF7199
:1020800001EA8000814924310880002080490860ED
:1020900001207C490870002048708870C870087161
:1020A0008AE001221721022000F0FCFB0121774881
:1020B00001F0B2F87348407858B9724800694FF699
:1020C000FF7101EA800071492431088000207049C5
:1020D000086000206B49087001204870002088705B
:1020E000C870087168E045E022E0FFE7012218218E
:1020F000022000F0D7FB0121644801F08DF861480F
:10210000807858B95F4840694FF6FF7101EA800056
:102110005E492431088000205D490860002059494B
:1021200008704870012088700020C870087143E072
:1021300001221921022000F0B5FB0121534801F0D2
:102140006BF85048C07858B94E4880694FF6FF7117
:1021500001EA80004D492431088000204C49086084
:10216000002048490870487088700120C87000201D
:10217000087121E001221A21022000F093FB0121C5
:10218000424801F049F83F48007958B93D48C069D4
:102190004FF6FF7101EA80003C492431088000209D
:1021A0003B49086000203749087048708870C87043
:1021B0000120087100E000BF00BFCCE003202E49E1
:1021C0000870C8E004202C490870C4E005202A49A2
:1021D00008702A48008804281AD006DC01280BD091
:1021E00002280DD0032855D10EE0052814D012285E
:1021F00016D013284ED117E006201F4908704AE078
:1022000007201D49087046E008201B49087042E07D
:102210000920194908703EE00020174908703AE08B
:1022200000201549087036E00A201349087032E092
:102230000C010020536F66745F6C696D69745F5A9E
:102240003A252E326600000000440040536F667449
:102250005F6C696D69745F413A252E32660000003B
:10226000536F66745F6C696D69745F423A252E32F4
:102270006600000008000020050000200C0000207F
:102280002400002048010020000400400008004015
:102290001400002000BF00BF5DE006202F49087039
:1022A00059E008202D49087055E009202B49087095
:1022B00051E00A202949087029480088012806D0E1
:1022C000022808D003280ED109E045E042E00020B2
:1022D0002249087008E005202049087004E00B201E
:1022E0001E49087000E000BF00BF34E00B201B490E
:1022F000087030E00C20194908702CE00D201749B7
:10230000087028E00E201549087024E00F201349BA
:10231000087020E00720114908701CE010200F49C8
:10232000087010480078A0B90D480088012802D034
:1023300002280CD105E001200B4988720020C872E8
:1023400006E00020084988720120C87200BF00BF63
:1023500000BF00E000BF00BF05B0F0BD05000020D9
:102360000C000020240000200C0100200020114956
:10237000088011490860114908601149C860086166
:1023800048618861C86100210D4A11625162106381
:102390005063116451641165516511665166906214
:1023A000D0629163D1639064D0649165D165916688
:1023B000D16670472408004014000020200000204F
:1023C0004801002029B1064AD2690243044BDA6170
:1023D00004E0034AD2698243014BDA61704700008E
:1023E0000010024029B1064A12690243044B1A61E7
:1023F00004E0034A12698243014B1A6170470000EE
:102400000010024029B1064A92690243044B9A61C6
:1024100004E0034A92698243014B9A6170470000CD
:102420000010024029B1064AD2680243044BDA6028
:1024300004E0034AD2688243014BDA60704700002F
:10244000001002400F48006840F001000D4908608C
:10245000084640680C4908400A4948600846006838
:102460000A490840074908600846006820F48020AF
:1024700008600846406820F4FE0048604FF41F00E2
:1024800088607047001002400000FFF8FFFFF6FE72
:1024900030B500210022002400232D4D6D6805F089
:1024A0000C0121B1042905D0082923D105E0294DCB
:1024B000056022E0274D05601FE0254D6D6805F49D
:1024C0007012234D6D6805F48034022505EB9242AD
:1024D0001CB9214D554305600BE01D4D6D6805F499
:1024E00000351DB11C4D5543056002E0194D5543A3
:1024F000056002E0174D056000BF00BF144D6D6818
:1025000005F0F0010909154D6B5C0568DD4045607B
:102510000F4D6D6805F4E061090A104D6B5C45686C
:10252000DD4085600A4D6D6805F46051C90A0B4DA8
:102530006B5C4568DD40C560054D6D6805F4404144
:10254000890B074D6B5CC568B5FBF3F5056130BDC4
:102550000010024000127A0000093D0040000020F7
:102560005000002010B501460022002300204A112F
:10257000012A02D1094C236806E0022A02D1074C45
:10258000236A01E0054C636A01F01F0201249440B4
:102590001C400CB1012000E0002010BD00100240E2
:1025A0000248406800F00C00704700000010024034
:1025B00001460020034A506820F0F00008435060B4
:1025C0007047000000100240014908607047000099
:1025D0000000424201460020034A506820F4E060B7
:1025E0000843506070470000001002400146002080
:1025F000034A506820F4605040EAC10050607047C0
:102600000010024001490866704700000000424285
:1026100002460020044B586820F47C1042EA010373
:102620001843014B586070470010024001460020DB
:10263000034A506820F003000843506070470000D0
:102640000010024010B50849887900F0BDFA06492B
:10265000087800F00DF804498878FEF785FD0249F6
:10266000087901F07BF810BD0C01002070470000D4
:1026700010B5044664B101221146104600F012F96B
:1026800001200C4908700CA10F4801F048F90BE03B
:1026900000220121084600F005F9002005490870D4
:1026A0000AA1094801F03BF9024801780B48FEF7FE
:1026B000E4FE10BD0C010020536166655F7A3A6D3F
:1026C0006F6465320000000000440040536166659D
:1026D0005F7A3A6D6F6465310000000000D4000835
:1026E00010B50849C87900F06FFA06494878FFF735
:1026F000BFFF0449C878FEF737FD0249487901F069
:102700002DF810BD0C01002010B5044621460948E3
:1027100001F01FF800BF8021064800F069FF002883
:10272000F9D000BF4021034800F062FF0028F9D033
:1027300010BD00000038014010B5044603E02078C9
:10274000FFF7E2FF641C20780028F8D110BD0000DC
:1027500030B587B007A000900848D0E9144322465E
:1027600007A102A801F07AF902A9094801F0D7F8F7
:1027700007B030BD7D5C725C6E0000004801002037
:102780007B226A6F6761223A252E3266257300002C
:102790000044004030B587B007A000900848D0E959
:1027A0001843224607A102A801F058F902A90948D6
:1027B00001F0B5F807B030BD7D5C725C6E000000C2
:1027C000480100207B226A6F6762223A252E32661A
:1027D000257300000044004030B587B007A000908A
:1027E0000848D0E90843224607A102A801F036F9BB
:1027F00002A9094801F093F807B030BD7D5C725C16
:102800006E000000480100207B226A6F6778223A40
:10281000252E3266257300000044004030B587B095
:1028200007A000900848D0E90C43224607A102A85F
:1028300001F014F902A9094801F071F807B030BDA0
:102840007D5C725C6E000000480100207B226A6F94
:102850006779223A252E3266257300000044004035
:1028600030B587B007A000900848D0E91043224651
:1028700007A102A801F0F2F802A9094801F04FF8F7
:1028800007B030BD7D5C725C6E0000004801002026
:102890007B226A6F677A223A252E32662573000002
:1028A0000044004070B504460D461646EE20FFF782
:1028B0002BFFB120FFF728FF1020FFF725FF200A8C
:1028C000FFF722FFE0B2FFF71FFF280AFFF71CFF08
:1028D000E8B2FFF719FFF0B2FFF716FFFF20FFF78E
:1028E00013FFFC20FFF710FFFF20FFF70DFFFF2075
:1028F000FFF70AFF70BD70B505460E461446EE2080
:10290000FFF702FFB120FFF7FFFE1020FFF7FCFEEC
:10291000280AFFF7F9FEE8B2FFF7F6FE300AFFF7E4
:10292000F3FEF0B2FFF7F0FE200EFFF7EDFEC4F36A
:102930000740FFF7E9FEC4F30720FFF7E5FEE0B22A
:10294000FFF7E2FEFF20FFF7DFFEFC20FFF7DCFED3
:10295000FF20FFF7D9FEFF20FFF7D6FE70BD10B5B0
:102960000446EE20FFF7D0FEB120FFF7CDFE002099
:10297000FFF7CAFE200AFFF7C7FEE0B2FFF7C4FE6A
:10298000FF20FFF7C1FEFC20FFF7BEFEFF20FFF790
:10299000BBFEFF20FFF7B8FE10BD10B500F002F837
:1029A00010BD00000CB50020019000903448006874
:1029B00040F480303249086000BF3148006800F4BC
:1029C000003000900198401C0190009818B90198BF
:1029D000B0F5A06FF1D12A48006800F4003010B1C2
:1029E0000120009001E0002000900098012844D1CF
:1029F0002448006840F0100022490860084600683A
:102A000020F0030008600846006840F002000860FB
:102A10001B4840681A4948600846406848600846B4
:102A2000406840F4806048600846406820F47C10AC
:102A300048600846406840F4E8104860084600686E
:102A400040F08070086000BF0D48006800F0007022
:102A50000028F9D00A48406820F00300084948607F
:102A60000846406840F00200486000BF04484068E3
:102A700000F00C000828F9D101E000BFFEE70CBD12
:102A8000001002400020024070B504460D46164674
:102A9000EE20FFF739FEB120FFF736FE1020FFF7DA
:102AA00033FE200AFFF730FEE0B2FFF72DFE280AC2
:102AB000FFF72AFEE8B2FFF727FE3046FFF73CFE9D
:102AC000FF20FFF721FEFC20FFF71EFEFF20FFF78F
:102AD0001BFEFF20FFF718FE70BD10B5FFF7B2FC1C
:102AE0000120FFF771FD00BF2120FFF73BFD00280B
:102AF000FAD01020FEF764FC0220FEF791FC0020C3
:102B0000FFF756FD0020FFF771FD4FF48060FFF7DF
:102B100061FD4FF420110020FFF77AFD0120FFF73F
:102B200071FD00BF3920FFF71DFD0028FAD00220FB
:102B3000FFF77CFD00BFFFF733FD0828FBD110BD78
:102B400010B51048FEF7B0FC0F498871084680792F
:102B5000C8710E48FEF7A8FC0B49087008460078BB
:102B600048700B48FEF7A0FC07498870084680783B
:102B7000C8700848FEF798FC0349087108460079B8
:102B8000487110BD00D000080C01002000D40008DE
:102B900000D8000800DC000810B50446EE20FFF75E
:102BA000B3FD9320FFF7B0FDE0B2FFF7ADFDFF20CE
:102BB000FFF7AAFDFC20FFF7A7FDFF20FFF7A4FD0C
:102BC000FF20FFF7A1FD10BD10B50446012C0BD16D
:102BD0000020FFF7E1FF01221B211046FFF762FEF4
:102BE00001200A4988710AE06420FFF7D5FF00221E
:102BF0001B210120FFF756FE00200449887103487D
:102C000081790348FEF739FC10BD00000C0100205B
:102C100000D000080EB52948807D01281DD1002074
:102C200026498875084626A10269684600F016FF05
:102C30006A4618210020FFF727FF2048012142683B
:102C40000020FFF758FE1D481EA10269684600F0EB
:102C500005FF69461D4800F062FE1848C07D012846
:102C60002AD100201549C8750846B0F9142014A1CE
:102C7000684600F0F3FE6A4619210020FFF704FFC2
:102C80000E480221C2680020FFF735FE0B480CA158
:102C9000C268684600F0E2FE6A4627210020FFF77E
:102CA000F3FE0648B0F9142009A1684600F0D6FEEC
:102CB0006946064800F033FE0EBD0000F400002017
:102CC000256400002478766D3A25640000440040B5
:102CD000247866723A256400042808D14FF0E02178
:102CE000096941F004014FF0E022116107E04FF063
:102CF000E021096921F004014FF0E02211617047E1
:102D000002480068401C014908607047000000202C
:102D100010B51148006840F001000F4908600846EE
:102D200040680E4908400C494860084600680C4954
:102D30000840094908600846006820F480200860BF
:102D40000846406820F4FE0048604FF41F00886089
:102D5000FFF723FE10BD0000001002400000FFF846
:102D6000FFFFF6FE30B585B05C48D0E90843224647
:102D70005BA1684600F072FE6A4611210220FFF74F
:102D800083FE6A4610210020FFF77EFE5348D0E9FB
:102D90000C43224652A1684600F060FE6A461221AA
:102DA0000220FFF771FE6A4611210020FFF76CFE3A
:102DB0004A48D0E91043224649A1684600F04EFE39
:102DC0006A4613210220FFF75FFE6A4612210020A7
:102DD000FFF75AFE4149D1E91443224640A1684613
:102DE00000F03CFE6A4614210220FFF74DFE6A46C1
:102DF00013210020FFF748FE3848D0E91843224647
:102E000037A1684600F02AFE6A4615210220FFF726
:102E10003BFE6A4614210020FFF736FE2F48D0E91A
:102E20001C4322462EA1684600F018FE6A46262161
:102E30000220FFF729FE6A4622210020FFF724FE28
:102E40002648D0E91E43224625A1684600F006FE2A
:102E50006A4627210220FFF717FE6A462321002039
:102E6000FFF712FE1D488030D0E9004322461CA126
:102E7000684600F0F3FD6A4628210220FFF704FEB1
:102E80006A4624210020FFF7FFFD14488830D0E96E
:102E90000043224612A1684600F0E0FD6A4629215F
:102EA0000220FFF7F1FD6A4625210020FFF7ECFD27
:102EB0000A489030D0E90043224609A1684600F054
:102EC000CDFD6A462A210220FFF7DEFD6A46262153
:102ED0000020FFF7D9FD05B030BD000048010020FB
:102EE0002530392E32660000F0B50C46154600211B
:102EF0000022068C4FF6FE773E400684018B028C42
:102F00004FF60C7631407E1C06EA03162E43314301
:102F10007E1E324044F00106324301830284F0BD3C
:102F2000F0B50C461546002100220026078C4FF60E
:102F3000EF7C07EA0C070784018B028C4FF6FF77C2
:102F400007EA041640F6FF4739404FF6FF7707EAD5
:102F5000033739434FF6FF7707EA052739434FF622
:102F6000DF773A4046F010073A4301830284F0BD10
:102F7000F0B50C461546002100220026078C4FF6BE
:102F8000FF6C07EA0C070784818B028C4FF6FF77F2
:102F900007EA04264FF60C7739404FF6FF7707EA29
:102FA00003172F4339434FF6FF573A4046F48077D3
:102FB0003A4381830284F0BDF0B50C4615460021EA
:102FC00000220026078C4EF6FF7C07EA0C070784D8
:102FD000818B028C4FF6FF7707EA043640F6FF47F5
:102FE00039404FF6FF7707EA052739434FF6FF7759
:102FF00007EA033739434DF6FF773A4046F48057E6
:103000003A4381830284F0BD10B50121880700F0A6
:10301000A3F930B10121880700F0FBF80120014934
:10302000087010BD1900002010B501210F4800F0F4
:1030300093F9D0B10E480078401C0D490870012169
:103040000A4800F0E6F80A48007818B109A10E48CD
:1030500000F065FC06480078022806D10BA10A485A
:1030600000F05DFC00200249087010BD0004004023
:10307000290000207B22706F73223A6E756C6C7D84
:103080005C725C6E00000000004400407B226D70AA
:103090006F223A6E756C6C7D5C725C6E0000000095
:1030A000044800880348008820F001000149088096
:1030B00070470000100800401FB501210846FFF7C7
:1030C00081F940F2CF70ADF8080041F61F40ADF82D
:1030D00004000020ADF80A00ADF8060001A94FF089
:1030E000804000F0BFF901221146900700F085F9F9
:1030F0001C208DF8000002208DF8010003208DF8BF
:10310000020001208DF803006846FEF79FFA1FBDFC
:103110001FB501210220FFF755F940F2CF70ADF83D
:10312000080041F61F40ADF804000020ADF80A0089
:10313000ADF8060001A90C4800F094F901221146EF
:10314000094800F05AF91D208DF8000002208DF882
:10315000010003208DF8020001208DF8030068466D
:10316000FEF774FA1FBD00000004004000B587B0F0
:1031700001210420FFF726F901210820FFF742F979
:10318000C020ADF8180004208DF81B0003208DF836
:103190001A0006A91B48FEF78AF91B4800F048F8F8
:1031A00003A800F07DF90020ADF80C004FF6FF7089
:1031B000ADF810000020ADF81200ADF80E0003A924
:1031C000114800F04FF900231A4603210E4800F081
:1031D0009FF8684600F008F90620ADF80800694637
:1031E000094800F0CAF80121074800F00FF8002054
:1031F0000549243108800121034800F00DF807B08B
:1032000000BD0000000C014000080040CA430282DB
:103210007047CA430282704721B1028842F001021E
:10322000028004E0028840F2FE331A4002807047B8
:1032300010B504462F48844208D10121C014FFF77D
:10324000F1F80021E014FFF7EDF852E0B4F1804FFF
:1032500008D101210846FFF7C5F800210120FFF73A
:10326000C1F846E02448844208D101210220FFF73A
:10327000B9F800210220FFF7B5F83AE01F48844270
:1032800008D101210420FFF7ADF800210420FFF749
:10329000A9F82EE01A48844208D101210820FFF73E
:1032A000A1F800210820FFF79DF822E0154884428C
:1032B00008D101211020FFF795F800211020FFF719
:1032C00091F816E01048844208D101212020FFF730
:1032D00089F800212020FFF785F80AE00B48844296
:1032E00007D101214014FFF79DF800216014FFF77A
:1032F00099F810BD002C0140000400400008004077
:10330000000C004000100040001400400034014058
:10331000F0B50C4615461E46002100220023018907
:10332000028B038C4FF6F877394021434FF6FC4768
:103330003A4040F201173A434FF6DD773B404FF6F3
:10334000FF7707EA06172F433B430181028303847B
:10335000F0BD0146888C704730B50246002000233E
:103360000024158A05EA0103958905EA010413B1D1
:103370000CB1012000E0002030BD70B505460C46C0
:10338000208850B92389A28861882846FFF7ACFDC0
:10339000E188284600F03AF825E0208804280AD180
:1033A0002389A28861882846FFF7BAFDE18828466C
:1033B00000F035F817E0208808280AD12389A28870
:1033C00061882846FFF7D4FDE188284600F034F8EC
:1033D00009E02389A28861882846FFF7EDFDE1888E
:1033E000284600F032F870BD0021018041800121A3
:1033F00081800021C180018170471AB183890B430C
:10340000838102E083898B4383817047028B4FF66F
:10341000F3731A400283028B0A4302837047028BC4
:103420004FF2FF331A400283028B4FF6FF7303EA19
:1034300001231A4302837047828B4FF6F3731A40BD
:103440008283828B0A4382837047828B4FF2FF33E1
:103450001A408283828B4FF6FF7303EA01231A43DB
:1034600082837047028802F08F020280CA884B88EC
:103470001A4303881A4302808A8882850A88028553
:10348000054A904202D0054A904201D10A7A02864A
:103490000122828270470000002C0140003401406C
:1034A0004FF6FF71818000210180C180418001724F
:1034B0007047000010B540F22551064800F0A5F80D
:1034C00038B1044800F040F9C4B2204602F09AF83E
:1034D00000BF10BD0038014010B540F2255113481F
:1034E00000F093F800B3114800F02EF9C4B2202C7C
:1034F00001DD7E2C03DD0D2C01D00A2C14D10C48EB
:103500000C49097844540B480078401C094908705C
:1035100008460078B0F5006F01DB002008700A2C27
:1035200002D101200449087010BD00000044004091
:10353000E0010020540000200400002021B1828915
:1035400042F40052828104E082894DF6FF731A40F2
:103550008281704710B504462048844209D1012178
:103560008803FEF75FFF00214FF48040FEF75AFF0B
:1035700032E01B48844209D101214804FEF732FFA2
:1035800000214FF40030FEF72DFF25E0154884425E
:1035900009D101218804FEF725FF00214FF4802086
:1035A000FEF720FF18E01048844209D10121C80429
:1035B000FEF718FF00214FF40020FEF713FF0BE089
:1035C0000A48844208D101210805FEF70BFF0021BB
:1035D0004FF48010FEF706FF10BD000000380140D8
:1035E0000044004000480040004C004000500040B3
:1035F00002460020B1F5007F00D100BF13880B40C8
:103600000BB1012000E00020704770B50246002495
:1036100000230025002040F66A16B14200D100BF09
:10362000C1F3421501F01F03012606FA03F3012D31
:1036300002D19689334006E0022D02D1168A33402A
:1036400001E0968A33400C12012606FA04F416882B
:10365000344013B10CB1012000E0002070BDF0B582
:103660000346002400260025002040F66A17B942D0
:1036700000D100BF1846C1F3421401F01F06012714
:1036800007FA06F5012C01D10C3004E0022C01D11F
:10369000103000E014301AB107682F43076002E0D1
:1036A0000768AF430760F0BD2DE9F04786B00546D7
:1036B0000E460024A24600BF00BF0027B08900B11B
:1036C00000BF2F462C8A4CF6FF700440F08804435C
:1036D0002C82AC894EF6F3100440B088318908433F
:1036E000718908430443AC81AC8A4FF6FF40044023
:1036F000B0890443AC8201A8FEF7CAFE1148874294
:1037000002D1DDF810A001E0DDF80CA00AEBCA0040
:1037100000EB0A1031688900B0FBF1F86420B8FBB7
:10372000F0F004012009642101FB1089322000EB34
:103730000910B0FBF1F000F00F0004432C8106B03B
:10374000BDE8F0870038014001468888C0F30800D2
:103750007047C1F3080282807047000010B504462C
:1037600064B1012203211046FFF79CF801200C49A7
:1037700008710CA10E4800F0D2F80BE000220321E2
:103780000120FFF78FF800200549087109A10848BA
:1037900000F0C5F8024801790948FDF76EFE10BD3A
:1037A0000C010020556E69743A6D6F64653200003B
:1037B00000440040556E69743A6D6F6465310000D5
:1037C00000DC000800BFFEE710B586B0044601210A
:1037D0000520FEF717FE01218803FEF713FE4FF4C4
:1037E0000070ADF8140018208DF8170003208DF834
:1037F000160005A91648FDF75AFE4FF48060ADF893
:10380000140004208DF8170005A91148FDF74FFE9C
:103810001048FFF79FFE01940020ADF80800ADF8B6
:103820000A00ADF80C00ADF810000C20ADF80E0049
:1038300001A90848FFF738FF012240F22551054849
:10384000FFF70DFF01210348FFF778FE06B010BD1A
:10385000000801400038014010B586B0044601213F
:103860000520FEF7CFFD01212248FEF7ABFD042025
:10387000ADF8140003208DF8160018208DF81700FD
:1038800005A91D48FDF713FE0820ADF8140004201B
:103890008DF8170005A91848FDF709FE26208DF8B8
:1038A000000001208DF8010000208DF802000120A9
:1038B0008DF803006846FDF7C9FE01940020ADF8BD
:1038C0000800ADF80A00ADF80C00ADF810000C20AF
:1038D000ADF80E0001A90948FFF7E6FE012240F20B
:1038E00025510648FFF7BBFE01210448FFF726FEDD
:1038F00006B010BD01000200000801400044004075
:1039000070B504460D4629462046FFF722FF00BF4A
:1039100080212046FFF76CFE0028F9D070BD70B5FD
:1039200005460C4604E021782846FFF7E9FF641CB1
:1039300020780028F7D100BF40212846FFF758FE25
:103940000028F9D070BD10B501220B210020FDF731
:10395000E1FB01221C211046FDF7DCFB01222B219B
:103960000220FDF7D7FB012221210620FDF7D2FB23
:10397000012205210A20FDF7CDFB01220D210B209C
:10398000FDF7C8FB012209210D20FDF7C3FB012231
:103990000C210E20FDF7BEFB10BD10B500220B213F
:1039A0001046FDF7B7FB00221C210120FDF7B2FBFA
:1039B00000222B210220FDF7ADFB00222121062051
:1039C000FDF7A8FB002205210A20FDF7A3FB00223A
:1039D0000D210B20FDF79EFB002209210D20FDF794
:1039E00099FB00220C210E20FDF794FB10BD000076
:1039F00010B505A211210220FFF746F802A21021FE
:103A00000020FFF741F810BD3030303030302E301C
:103A10003000000010B505A212210220FFF734F893
:103A200002A211210020FFF72FF810BD30303030F6
:103A300030302E303000000010B505A213210220D6
:103A4000FFF722F802A212210020FFF71DF810BD97
:103A50003030303030302E30300000000FB4084BA2
:103A600010B504A902AA039800F03CF9044602A983
:103A7000002000F0CEFC204610BC5DF814FB0000D6
:103A80001344000830B528B1144C031F00202168EE
:103A90000A4605E0084630BD9A4203D810465268EF
:103AA000002AF9D1002800D041680BD00468A3EBAC
:103AB0000005A54204D11B681C440346046002E0D3
:103AC000436000E023603AB11C68D51AA54203D1D7
:103AD00015682C441C6052685A6030BD600000209C
:103AE0002DE9F04782460F4C10480D4E0E4F001B3B
:103AF0004FF0000820F007054FF0010900221146A1
:103B0000504600F0CDFD002802D1306810B10020F1
:103B1000BDE8F0873C60C4E90058C6F80090EDE7C6
:103B200064000020EC0B002060000020E81B002057
:103B300002E008C8121F08C1002AFAD17047704776
:103B4000002001E001C1121F002AFBD170470000D4
:103B50002DE9FF5F82B00021DDE90430020DDDF8C0
:103B600040B0034318D044F61050A2F2FF32424353
:103B70001514119801281FD0A5EB0B00401C5FEA1B
:103B8000000A4FF000064E4FDFF83891B04650461D
:103B900015D5CAF1000413E0119801244AA30128A5
:103BA00001D16FEA0B010298119AC0E90031C0E916
:103BB000024206B0BDE8F09FCBF10000DFE704460B
:103BC0000021404A491842EB0450CDE9001012E0B0
:103BD000E00707D032463B4640464946FCF781FDA8
:103BE0008046894632463B4610461946FCF779FD29
:103BF00006460F466410002CEAD1DDE90401DDE938
:103C00000023BAF1000F06DAFCF76BFD42464B4683
:103C1000FCF767FD05E0FCF7D9FF42464B46FCF791
:103C2000D5FF04460E460022284BFCF71FFE03D8A2
:103C30004FF0FF30014607E00022254B2046314679
:103C4000FCF7A8FCFDF73DF8102409E0002C0ADB86
:103C50000A220023FCF742FE039B30321A55641EF1
:103C600050EA0102F2D1641C039AC4F11103144416
:103C7000119A012A03D0012208430DD10AE008431A
:103C800004D000204FF0110B119072E7A3EB0B054D
:103C90006D1E0DE05B4504DD4FF0000205F10105EE
:103CA00004E003DA4FF00002A5F10105002AECD090
:103CB00002981199C0E90231C0E9004579E7000096
:103CC000000014400000F03F300000000000F0430E
:103CD0000000E03F30380A2801D201207047002060
:103CE000704700002DE9FF4F95B09B468946064678
:103CF00000250FE2252877D100242746F84A012124
:103D0000059400E0044316F8013F203B01FA03F05C
:103D10001042F7D130782A2811D06FF02F03307875
:103D2000A0F13002092A16D8059A44F0020402EBE9
:103D3000820203EB42021044761C0590EFE759F82B
:103D4000042B0592002A03DA504244F400540590F3
:103D500044F00204761C30782E2816D116F8010F94
:103D600044F004042A280DD06FF02F023078A0F11F
:103D70003003092B09D807EB870302EB4303C7186D
:103D8000761CF3E759F8047B761C30786C280FD04A
:103D900006DC4C2817D068280DD06A2814D104E01E
:103DA000742810D07A280FD10DE044F400140AE0F2
:103DB00044F4801401E044F440147278824202D149
:103DC00004F58014761C761C307866280BD013DC42
:103DD000582877D009DC002875D04528F6D0462829
:103DE000F4D047281AD19DE118E0632835D0642823
:103DF00079D0652812D195E1702873D008DC672846
:103E0000F1D069286FD06E280DD06F2806D1B5E0AB
:103E100073282CD0752875D0782874D05A461799F5
:103E200090476D1C75E1C4F30250022809D00328A5
:103E30000DD0D9F8001004280DD00D6009F1040947
:103E400067E1D9F80010EA17C1E90052F6E7D9F89E
:103E500000100D80F2E70D70F0E719F8041B8DF8E3
:103E6000001000208DF80100EA46012003E059F817
:103E700004AB4FF0FF3061074FF0000102D40DE0BA
:103E800008F101018846B9420FDA8045F8DB1AF8DB
:103E900008100029F4D108E008F1010188468142A8
:103EA000FADB1AF808100029F6D105985B46A0EB5A
:103EB000080721463846179A00F094FA284400EB88
:103EC000080507E04DE029E10DE01AF8010B5A461C
:103ED00017999047B8F10108F7D25B46214638465A
:103EE000179A13E142E00A220092C4F302524FF003
:103EF000000A022A08D059F804CB032A4FEAEC71D1
:103F00000AD00DE029E02AE009F1070121F00702BB
:103F1000F2E802C1914609E00FFA8CFC4FEAEC711D
:103F2000042A03D14FFA8CFC4FEAEC71002907DA1E
:103F30000A460021DCF1000C61EB02012D2202E0B7
:103F4000220504D52B228DF80420012203E0E2078C
:103F500001D02022F7E7904659E00A2102E0102222
:103F60000DE010214FF0000A00910BE010224FF0FD
:103F7000000A44F004040827009203E008224FF0EE
:103F8000000A0092C4F30252022A05D059F804CB69
:103F90000021032A08D009E009F1070121F00702F6
:103FA000F2E802C1914605E01FFA8CFC042A01D117
:103FB0000CF0FF0C4FF00008220728D5702806D01F
:103FC000009B83F0100353EA0A0305D00EE0402261
:103FD0008DF80420012208E05CEA010206D03022BC
:103FE0008DF804208DF8050002229046009B83F096
:103FF000080353EA0A030AD15CEA010201D162070D
:1040000005D530228DF804204FF001087F1E582876
:1040100004D034A003900EA802900DE036A0F9E77A
:1040200053466046009AFCF759FC84460398825C2C
:104030000298401E029002705CEA0100F0D10298E2
:1040400006A9081A00F1200A600702D524F480347A
:1040500000E00127574502DDA7EB0A0000E0002041
:1040600000EB0A01009005984144401A0590E003D6
:1040700006D45B462146179A059800F0B3F905442B
:10408000002706E001A85A46C05D179990476D1CAD
:104090007F1C4745F6DBE0030CD55B462146179AAB
:1040A000059800F09FF9054404E030205A4617991E
:1040B00090476D1C0099481E00900029F5DC08E02F
:1040C000029802995A460078491C02911799904724
:1040D0006D1CBAF10001AAF1010AF1DC65E10000F2
:1040E00009280100303132333435363738396162CE
:1040F0006364656600000000303132333435363792
:1041000038394142434445460000000000F058F968
:104110000544761C307800287FF4ECAD19B02846B1
:10412000BDE8F08F620700D4062709F1070222F0EC
:10413000070CFCE80223E14603F000485FEA080CA4
:1041400002D00FF2702C0DE05FEA045C02D50FF292
:10415000682C07E05FEAC47C02D00FF2602C01E01B
:10416000AFF2700C4FF0FF3823F00043CDF850C091
:1041700065280CD006DC452809D046281DD04728E4
:104180003DD13DE0662818D067287ED138E0002177
:10419000112F01DB112000E0781CCDE9000106A9F8
:1041A0000EA8FFF7D5FCDDE90F010E9A039100215F
:1041B000009207F1010A04914DE04FF00040009792
:1041C000CDE9011006A90EA8FFF7C2FCDDE90F0238
:1041D00003920E9B11990022DDF80CA0009304922B
:1041E00011B9791C00EB010AB7EB0A0004D4C0F145
:1041F000FF3007F1010A0490AAEB0700019044E0A8
:10420000012F00DA01270021112F01DD112000E02C
:104210003846CDE9000106A90EA8FFF799FCDDE9B3
:104220000F010E9A0391002104910092BA462107D2
:104230000CD40399514500DA8A46BAF1010F05DD25
:10424000009AAAF10101515C302908D0B84202DA83
:1042500010F1040F06DA0121CDE9011015E0AAF1F1
:104260000101E9E7002805DC049901440491AAEB67
:10427000000102E0411C514500DD8A460499401AC4
:10428000401C01904FF000400290200704D4019898
:10429000504501DBCDF8048000208DF84F000298D6
:1042A0000DF14F07B0F1004F25D02B200E90029852
:1042B0004FF0020800280CDA404202902D200E90A8
:1042C00007E00A210298FCF7F3FA3031029007F870
:1042D000011DB8F10001A8F10108F2DC02980028E4
:1042E000EFD1791E0E980870307800F0200040F071
:1042F000450007F8020D12A8C01B00F1070814982A
:10430000007800B1012000EB0A01019801EBE07197
:1043100005984144401A401E0590E00306D45B46D0
:104320002146179A059800F05DF805441498007826
:1043300018B15A46179990476D1CE00324D55B4687
:104340002146179A059800F04DF805441CE00498A2
:10435000002807DBDDE90301884203DD0098405CAB
:10436000179901E0179930205A469047049805F1B3
:104370000105401C04900198401E019004D12E209C
:104380005A46179990476D1CBAF10001AAF1010A2B
:10439000DDDC05E017F8010B5A46179990476D1CB4
:1043A000B8F10001A8F10108F4DC5B462146179A38
:1043B0000598ABE62D0000002B0000002000000057
:1043C0002DE9F041044600251E461746880404D412
:1043D00005E039462020B0476D1C641EF9D52846FB
:1043E000BDE8F0812DE9F041044600251E469046C7
:1043F000C80301D5302700E02027880404D505E054
:1044000041463846B0476D1C641EF9D52846BDE8C4
:10441000F0810A68531C0B6010707047014609B1A7
:10442000086808B90020704702E08868401C88606E
:1044300041B1D1E90120904204D28A680868805CC9
:104440002028F2DDD1E90120904202D18868401E87
:1044500088600846E7E7000070B50446002522E0C2
:104460002568A08900F4807020B9A06810B1A06808
:10447000FFF7F2FFA08900F4807028B9206918B115
:104480000A4A206951688847A08900F4007028B959
:10449000206A18B1054A206A516888470348416874
:1044A000204688472C46002CDAD170BD340000200D
:1044B00070B504460D4600222946204600F0C6F895
:1044C00070BD70B5044628202168884705461DB197
:1044D00028212846FBF745FE284670BD10B5044646
:1044E00000221146204600F001F810BD2DE9F043EE
:1044F00089B004460D4617461C2102A8FBF731FE81
:10450000002600202C490860486004B934E0029479
:104510002046FBF731FE401C039000200490274A00
:1045200007CA06AB07C32548FFF7CBFF064606B907
:1045300022E002A801F0D6F88146FFF76FFF80461F
:104540004146304600F064FF00B915E05FB102A8B3
:10455000FFF764FFDDE90310884203D20499029853
:10456000405C00B108E01DB104990298084428603D
:10457000304609B0BDE8F08316B13046FFF76CFF56
:10458000C4B1009400200190DDE90310884202D2FA
:104590000498019004E0039810B10398401E019024
:1045A0001DB1DDE90001084428600348DDE900127F
:1045B00006C000BF0020DCE72C00002034000020F3
:1045C00070B504460D4604B10DB9012070BDAC4272
:1045D00001D10020FAE705E0207808B90020F5E7CE
:1045E000641C6D1C2078FBF79DFD06462878FBF7C0
:1045F00099FD8642F0D02078FBF794FD0646287896
:10460000FBF790FD301AE1E708B500200090FF208D
:10461000009002E00098401E009000980028F9D118
:1046200008BD0000074A116808E00A22B0FBF2F258
:10463000044B1B685B1A9A4200D200E0F5E700BF0A
:1046400070470000000000202E2070472DE9F04147
:1046500005460E461746002405B116B90020BDE8F0
:10466000F081AC685FB100E024688CB1206A78B159
:104670003046216AFBF787FD0028F5D108E000E00D
:1046800024682CB13046216AFFF79AFF0028F7D141
:104690000CB1206A08B90020E1E72046DFE70000FE
:1046A0002DE9F0410B3020F00706104D19E020688D
:1046B000B04215D3B0420AD9871B201DD4F804801C
:1046C000FBF736FDA019C0E90078286004E06068B7
:1046D0002860201DFBF72CFD201D2660BDE8F08121
:1046E000251D2C68002CE2D10020F7E76000002097
:1046F00086B00024FEF7F1F9FCF796FF01F01EF8F2
:104700004FF4E130FFF760F84FF4E130FFF7A4F821
:1047100000F090FFFEF7D0FCFEF7FAFCFEF726FD56
:104720000021FE48FEF778FD4FF49670FFF77AFF00
:10473000FDF752F8FEF704FAF948007820B9FDF7C2
:1047400081FF0120F64908709EE34021F54800F002
:10475000FDFE0446002C0BDDF2484078072807D008
:104760002146F048FDF70AF94021EE48FBF7F9FC35
:10477000ED48007808B101F011F8EC480078012804
:1047800002D1FFF7E0F801E0FFF707F9E848007809
:1047900011287DD2DFE810F011002A0049005003F3
:1047A0005103520353037503540355035603700317
:1047B00071037203730374033500FEF72BFADB48B1
:1047C0000078012811D1FEF7CDFADA4A1521002030
:1047D000FEF75AF9D848D9A10268D948FFF73EF93F
:1047E000D74A16210020FEF74FF94CE3D548407A0E
:1047F00030B1FDF727FF0020D2494872CC4908703C
:1048000041E3CA48007878B9CE48807A20B1FDF7F4
:1048100067FF0020C6490870CA48C07A20B1FDF77A
:1048200011FF0020C24908702DE3C048007800281D
:104830007ED1C548007800287BD0C3484079002845
:104840004DD1C148C079002849D1C04A116850688B
:10485000FCF724F811D0BC48D0E90810BA4AC2E9E4
:104860000A10BA480068B94948600020AB492431B1
:104870000880B7490860B7490860FCF7A3FEB44850
:104880000068B149C860B2480068FBF79CFF00E0CF
:10489000F8E28046AD4801684046FBF749FE054610
:1048A000FBF7B9FF0646A848D0E90A8342463046DE
:1048B000FBF770FEA44AC2E908011046D0E908538C
:1048C0002A46A5A101A8FFF7C9F801AA11210220D3
:1048D000FEF7DAF801AA10210020FEF7D5F89A4871
:1048E0004079A8B19848C07990B900208B4924310B
:1048F000088097490860974908600021924A9162B0
:10490000D1621146C860FFF773F800208E494871E4
:104910008D48407948B98C48C07930B1FDF726FD03
:10492000FCF7D8FB00208849C8718D48007801E069
:104930006AE207E0002804D0FDF74EFF0020884916
:10494000087044E28048407800287DD07E48407955
:1049500000284BD17C48C079002847D17B4A116898
:104960009068FBF79BFF11D07748D0E90C10764A8E
:10497000C2E90E10754800687449886000206749D4
:10498000243108807249086072490860FCF71AFEF9
:104990006F4800686C4908616D480068FBF713FFB9
:1049A00080466A4801684046FBF7C2FD0546FBF7B2
:1049B00032FF06466448D0E90E8342463046FBF794
:1049C000E9FD614AC2E90C011046D0E90C532A46C0
:1049D00061A101A8FFF742F801AA12210220FEF707
:1049E00053F801AA11210020FEF74EF856484079ED
:1049F000C0B15548C079A8B9002048492431088081
:104A0000534908605349086000214F4A9163D163BC
:104A1000114608611420FFF705FEFEF7FBFF00209A
:104A2000494948714848407948B94748C07930B148
:104A3000FDF79CFCFCF74EFB00204349C871484839
:104A40000078002806D000E005E0FDF7E7FE002032
:104A500043490870BBE13C48807800285CD03A4864
:104A6000407900284BD13848C079002847D1374ACF
:104A70001168D068FBF712FF11D03348D0E910104D
:104A8000314AC2E91210314800683049C86000203C
:104A90002249243108802E4908602E490860FCF71D
:104AA00091FD2B4800682849486129480068FBF7B8
:104AB0008AFE8046254801684046FBF739FD0546D9
:104AC000FBF7A9FE06462048D0E91283424630464D
:104AD000FBF760FD1C4AC2E910011046D0E91053F3
:104AE0002A461DA101A8FEF7B9FF01AA1321022041
:104AF000FDF7CAFF01AA12210020FDF7C5FF1248E9
:104B0000407950B11048C07938B9002003492431A8
:104B100008800F49086025E04BE033E000080040C2
:104B2000180000206800002004000020240000205D
:104B300005000020BC0000201C00002025640000AF
:104B4000D00000200C01002048010020DC000020E3
:104B500014000020200000202530392E326600008D
:104B600019000020C94908600021C94A9164D16434
:104B7000114648611420FFF755FDFEF75DFF002048
:104B8000C3494871C248407948B9C148C07930B179
:104B9000FDF7ECFBFCF79EFA0020BD49C871BD484B
:104BA0000078002804D0FDF75BFE0020B9490870AA
:104BB0000DE1B748C07800287ED0B5484079E8BB01
:104BC000B348C079D0BBB44A11681069FBF766FEE0
:104BD00010D0AF49D1E91401AD4AC2E91601AE487F
:104BE0000068AD4908610020AC490880AC49086004
:104BF000A6490860FCF7E6FCA9480068A44988615A
:104C0000A7480068FBF7DFFD8046A34801684046DF
:104C1000FBF78EFC0546FBF7FEFD06460F469C495A
:104C2000D1E9168342463946FBF7B4FC984AC2E9FB
:104C300014011046D0E914532A4600E00EE0AFF20A
:104C4000E80101A8FEF70AFF01AA14210220FDF7DE
:104C50001BFF01AA13210020FDF716FF8C484079A5
:104C6000B0B18B48C07998B900208C4908808C4934
:104C7000086086490860864A9065D065114688615B
:104C80001420FFF7CFFCFCF713FA0020804948718D
:104C90007F48407948B97E48C07930B1FDF766FB5E
:104CA000FCF718FA00207A49C8717A480078002881
:104CB00006D0FDF74DFD00E003E0002075490870C7
:104CC00085E07348007900287ED071484079E0BBC8
:104CD0006F48C079C8BB704A11685069FBF7DEFDA8
:104CE00010D06B49D1E91801694AC2E91A016A4832
:104CF000006869494861002068490880684908607F
:104D000062490860FCF75EFC654800686049C8615C
:104D100063480068FBF757FD80465F4801684046DE
:104D2000FBF706FC0546FBF776FD06465848D0E93A
:104D30001A8342463046FBF72DFC554AC2E918015A
:104D40001146D1E918532A4600E00EE0AFF2F811FF
:104D500001A8FEF783FE01AA15210220FDF794FEAB
:104D600001AA14210020FDF78FFE49484079B8B10F
:104D70004748C079A0B900204849088048490860E0
:104D8000424908600021424A9166D1661146C861D5
:104D90001420FFF747FCFCF719FA00203C49487142
:104DA0003B48407948B93A48C07930B1FDF7DEFA5E
:104DB000FCF790F900203649C8713648007818B1E0
:104DC000FDF7E8FC002000E001E0324908703048BF
:104DD000007858B92E48407840B92D48807828B9D5
:104DE0002B48C07810B92A48007920B101218807E2
:104DF000FEF712FA1FE000214FF08040FEF70CFA98
:104E000000202449087016E001212648FEF704FA24
:104E1000FDF7A8FF244A15210020FDF735FE2348A1
:104E2000AFF2E82102682248FEF718FE204A162158
:104E30000020FDF729FE26E025E024E023E022E023
:104E400021E020E01B480078102802D0112810D162
:104E500000E00FE018480088072802D0082807D192
:104E600005E0164A08210B20FDF70EFE00BF00BF2B
:104E700000E000BF00BF06E005E004E003E002E060
:104E800001E000E000BF00BF5FE400002000002060
:104E90004801002019000020DC0000202408004008
:104EA0001400002000040040BC0000201C00002072
:104EB000D0000020090000200C000020A8000020E5
:104EC0002DE9F04107460C460026B046E068B0F5F3
:104ED0007A7F02D30020BDE8F081E068401CE060EA
:104EE000A1682068405C5B2800D05DE0A068401CA1
:104EF000A0602046FFF792FA4CB1D4E90110884235
:104F000005D2A1682068405C5D2800D141E01CB159
:104F1000D4E90110884203D3A068401EA06043E09A
:104F2000A068401EA06000BF04F11000FFF7C9FA9E
:104F3000054605B938E016B92E46A84604E0C8F87B
:104F40000050C5F80480A846A068401CA060204618
:104F5000FFF764FA2146404600F05AFA00B923E010
:104F60002046FFF75BFA44B1D4E90110884204D22D
:104F7000A1682068405C2C28D6D044B1D4E9011047
:104F8000884204D2A1682068405C5D2800D00BE014
:104F900000BFE068401EE0602020F860BE60A068AE
:104FA000401CA060012096E716B13046FFF754FA86
:104FB000002090E702460023002100BF23E0505C60
:104FC000302806DB505C392803DC505C3038034461
:104FD00015E0505C412806DB505C462803DC505C41
:104FE000373803440BE0505C612806DB505C6628D0
:104FF00003DC505C5738034401E00020704703296C
:1050000000D21B01491C0429D9D31846F6E7000039
:105010002DE9F04391B080460C4600BF002010906F
:10502000FFF712FB814600250CB1206818B900205B
:1050300011B0BDE8F08300253CE0A1682068084479
:10504000405D342820D00ADCA0F12B0009282ED2A4
:10505000DFE800F0202D212A2D1617181900382816
:1050600016D006DC352810D036280FD037281ED1B0
:105070000DE039280DD045280FD0652817D10BE059
:1050800000BF00BF00BF00BF00BF00BF00BF00BF28
:1050900000BF00BF00BF00BF00BFA1682068084478
:1050A000405D0DF8050003E00DF8059000E00AE012
:1050B00000BF6D1C3F2D05D224B1A0682844616853
:1050C0008842BAD300BF00200DF8050010A9684639
:1050D00000F026FB06460F4668461099884201D12B
:1050E0000020A5E7C8E90667144A154B3046394643
:1050F000FBF7BCFB04D86FF00040C8F8140011E0C7
:105100000022104B30463946FBF798FB04D84FF08D
:105110000040C8F8140005E030463946FBF75CFB58
:10512000C8F814000820C8F80C00A0686A46109956
:10513000891A0844A06001207AE700000000C0FF3F
:10514000FFFFDF410000E0C12DE9F04180460C4641
:1051500000270025E068B0F57A7F02D30020BDE883
:10516000F081E068401CE06044B1D4E9011088425D
:1051700004D2A1682068405C7B2800D07BE0A06856
:10518000401CA0602046FFF749F94CB1D4E901105A
:10519000884205D2A1682068405C7D2800D15DE08E
:1051A0001CB1D4E90110884203D3A068401EA0605E
:1051B00061E0A068401EA06000BF04F11000FFF78E
:1051C00080F9064606B956E017B93746354602E07B
:1051D0002E6075603546A068401CA0602046FFF731
:1051E0001DF92146284600F04CF800B943E020465E
:1051F000FFF714F9286928620020286144B1D4E936
:105200000110884204D2A1682068405C3A2800D08E
:1052100031E0A068401CA0602046FFF7FFF821465F
:10522000284600F0F5F800B925E02046FFF7F6F82B
:1052300044B1D4E90110884204D2A1682068405CDE
:105240002C28BAD044B1D4E90110884204D2A16814
:105250002068405C7D2800D00DE000BFE068401E63
:10526000E0604020C8F80C00C8F80870A068401C36
:10527000A060012073E717B13846FFF7EDF8002072
:105280006DE72DE9F84F80460C46A1682068084478
:10529000461CA16820680844451C00200090002797
:1052A000A1682068405C222800D0A6E04FF0000AE8
:1052B000D1460DE028785C2809D1681C2168401A85
:1052C0006168884200D398E009F101096D1C6D1CEA
:1052D0002068281A6168884202D228782228E9D1F9
:1052E0002068281A6168884202D22878222800D0D3
:1052F00083E0A16820680844281AA0EB090A0AF193
:10530000010021698847074607B976E0009761E008
:1053100030785C2807D016F8010B009908700098C7
:10532000401C009056E04FF00209A81B012800DA4B
:1053300063E07078662819D008DC222832D02F2844
:1053400032D05C282FD0622840D108E06E2814D0DB
:10535000722819D074281ED0752837D12BE0082068
:10536000009908700098401C009030E00C200099D3
:1053700008700098401C009029E00A2000990870ED
:105380000098401C009022E00D20009908700098C1
:10539000401C00901BE00920009908700098401CF8
:1053A000009014E000BF00BF70780099087000986A
:1053B000401C00900BE06A462946304600F0A6FAF1
:1053C0008146B9F1000F00D117E000E015E000BF01
:1053D0004E4400BFAE429BD30020009908701020BD
:1053E000C8F80C00C8F810702068281AA060A068DF
:1053F000401CA0600120BDE8F88F17B138466169F4
:10540000884716B12068301AA0600020F3E700003A
:1054100070B505460C460CB1206808B9002070BD77
:105420009CB1A068001D616888420ED8A2682168FE
:10543000881804223FA1FAF7B4FE30B90420E860CE
:10544000A068001DA0600120E9E79CB1A068401D94
:10545000616888420ED8A26821688818052237A1A1
:10546000FAF79FFE30B90120E860A068401DA060F7
:105470000120D4E7ACB1A068001D6168884210D853
:10548000A2682168881804222EA1FAF78AFE40B982
:105490000220E86001206861A068001DA060012072
:1054A000BDE76CB1D4E90110884209D2A168206837
:1054B000405C222804D121462846FFF7E2FEAEE7F1
:1054C000BCB1D4E90110884213D2A1682068405CC5
:1054D0002D2809D0A1682068405C302809DBA1682C
:1054E0002068405C392804DC21462846FFF790FDFF
:1054F00095E76CB1D4E90110884209D2A16820680F
:10550000405C5B2804D121462846FFF7D9FC86E79A
:105510006CB1D4E90110884209D2A1682068405CCE
:105520007B2804D121462846FFF70EFE77E70020AE
:1055300075E700006E756C6C0000000066616C73AE
:10554000650000007472756500000000F8B504463F
:105550000D460026002000902FE0684600F038F845
:105560001948008820B99DF80000EE2800D024E0FA
:1055700015480088A84208DA9DF8001012480288F1
:105580000088401C104B1880A1549DF800000F4962
:10559000096840EA01200D490860084600686FF478
:1055A0004031884208D10848068800200749086031
:1055B000054908803046F8BD00BF00F04BF80028D0
:1055C000CBDC0020F7E700005C0000205800002042
:1055D00001460B4840880A4A128890420FD008487A
:1055E0004288001D805C0870054A5288501CC21712
:1055F00000EBD2525212A0EB4222014B5A8070476C
:10560000E009002001460A4B1B88581CC31700EB19
:10561000D3535B12A0EB43239AB2054840889042D3
:1056200005D003480388001DC154001F0280704745
:10563000E0090020002004494880088003490860F0
:105640000349088070470000E0090020580000204E
:105650005C0000200748008800F50070054A528869
:10566000811AC81701EBD0504012A1EB402080B244
:1056700070470000E00900202DE9F04704008A4649
:1056800016D054F8047CD4F800903E1F564500D93B
:1056900056462046FEF7F6F905468846324621462C
:1056A0005046FEF7FDFF40B1C0F80090BDE8F0871E
:1056B000BDE8F0470846FEF713BA44E9017955B151
:1056C00029686A18211F8A4202D9611B091F2960B3
:1056D000C5F80480EAE7024AC2F80080E6E7000065
:1056E0006000002010B504461CB1206808B1A06815
:1056F00008B1002010BD7CB1A068001D616888421F
:105700000AD2A26821688818032204A1FAF749FD89
:1057100010B9A068C01CA0602046EBE7EFBBBF003B
:1057200000B583B00A460021CDE900110146684664
:10573000FBF785F9DDE9000103B000BD70B56FF03E
:105740000400FDF7C9FA1249B1F1807F00D31DE0D2
:1057500021F07F40401E4FF0E022506150170F2291
:10576000002807DA13071D0E0A4B00F00F04241F50
:105770001D5503E013071C0E074B1C5400BF0020EF
:105780004FF0E02290610720106100BF70BD000063
:105790000053070018ED00E000E400E02DE9F041BF
:1057A000DFF838814046FEF799FE0746002F7DD08E
:1057B0004BA13846FEF77CFE0646002E7ED049A15E
:1057C0003046FEF775FE0546002D36D046A1284628
:1057D000FEF76EFE044624B1444AD4E90610C2E93D
:1057E000081043A12846FEF763FE044624B13F4A51
:1057F000D4E90610C2E90C103EA12846FEF758FE77
:10580000044624B1394AD4E90610C2E910103AA17D
:105810002846FEF74DFE044624B1344AD4E906106A
:10582000C2E9141035A12846FEF742FE044624B111
:105830002E4AD4E90601C2E9180131A13046FEF72B
:1058400037FE0546002D39D027A12846FEF730FE49
:10585000044624B1254AD4E90601C2E91C0124A169
:105860002846FEF725FE044624B1204AD4E9061056
:10587000C2E91E101FA12846FEF71AFE044624B1F5
:105880001A4A8032D4E9060103C21BA12846FEF75A
:105890000FFE04462CB1154A8832D4E90610C2E93D
:1058A000001016A12846FEF703FE00E006E00446BD
:1058B00024B10E4A9032D4E9060103C23846FEF7FD
:1058C000CBFD104801780548FAF74BFC00200E4943
:1058D00008700C490870BDE8F0810000E00100206C
:1058E00072000000706F7300780000004801002013
:1058F000790000007A0000006100000062000000F2
:105900006D706F0054000020040000202DE9FF5F3F
:1059100080468946154600240026C2460020039092
:10592000834602900190A9EB0A00062800DA81E084
:105930000AF10200FFF73EFB0646B6F55C4F03D3C3
:10594000B6F5604F00D275E0B6F5584F29D3B6F5DD
:105950005C4F26D20AF10607002000900C2002902E
:10596000A9EB0700062800DA64E038785C2802D149
:105970007878752800D05DE0B81CFFF71BFB00901D
:105980000098B0F55C4F03D30098B0F5604F00D39A
:1059900050E0C6F30901009861F39F2000F58034C0
:1059A00002E0062002903446802C02D201200390AF
:1059B00018E0B4F5006F04D202200390C0200190DB
:1059C00010E0B4F5803F04D203200390E020019062
:1059D00008E0B4F5881F04D204200390F020019061
:1059E00000E027E00398401E00F0FF0B0BE004F0FE
:1059F000BF0040F08000296801F80B00A409ABF15A
:105A0000010000F0FF0BBBF1000FF0DC0398012850
:105A100004DD019820432968087003E004F07F004A
:105A2000296808702968039808442860029804B01F
:105A3000BDE8F09F0020FAE7DDDDDDDDDCBBBBDD8E
:105A4000DDDDDDDDDDDDDDDD98888888888888881E
:105A5000777777777788888885555556666666663E
:105A6000666666666668888883333332222222221D
:105A7000222222222228888D985A00080000002025
:105A800068000000303B0008005B00086800002050
:105A9000801F0000403B00080000000000000000E4
:105AA00000000000000000000000000000000000F6
:105AB00000000000000000000000000000000000E6
:105AC000000000010000000000000000E13A0008B2
:105AD000853A00087956000800000000010203041E
