:020000040800F2
:10000000D00B002001010008DF140008B91400081B
:10001000DB140008B90F0008FD33000800000000E1
:100020000000000000000000000000008D26000815
:10003000991100080000000055160008452B000823
:100040001701000817010008170100081701000830
:1000500017010008170100089B110008AD110008E6
:100060001701000817010008170100081701000810
:100070001701000817010008170100081701000800
:1000800017010008170100081701000817010008F0
:1000900017010008170100081701000817010008E0
:1000A00017010008170100081701000817010008D0
:1000B000D52D0008F52D0008052E000817010008B1
:1000C00017010008170100081701000817010008B0
:1000D00017010008553100081701000879310008A0
:1000E000170100081701000817010008DFF80CD0FD
:1000F00000F03CFD0048004775460008D00B00208A
:1001000005480047FEE7FEE7FEE7FEE7FEE7FEE7FD
:10011000FEE7FEE7FEE7FEE7ED000008D2B201E0F1
:1001200000F8012B491EFBD270470022F6E710B5FC
:1001300013460A4604461946FFF7F0FF204610BD55
:100140000FB400B58DB010A909900B9000914FF03D
:10015000FF300A9000200C90054806900548079053
:100160006A4609A80F9900F0ABFB0DB05DF814FBCF
:10017000DD080008FB0800082DE9FF4F087881B072
:100180009946FF2805D0491C2D2804D000240023BF
:1001900008E000230BE00124F9E703EB830300EB05
:1001A0004303491C0878FF28F7D104B15B420020C3
:1001B0000090147801462D2C01D02B2C04D1521C18
:1001C0002D2C12D00024009400251678FF2E0ED07E
:1001D0000A24A0FB04C801FB0481002700FB0711CF
:1001E000521C16EB0C006941EFE70124EBE7994440
:1001F00050EA01020ED00024AA4D2646DFF8A8825C
:1002000000F08FFC82468B46B9F1000009DAC9F193
:1002100000071BE001980021C0E9001105B0BDE80E
:10022000F08F074612E0F80707D022462B463046EB
:10023000414600F0E4F90646884622462B46104621
:10024000194600F0DCF904460D467F10002FEAD174
:10025000B9F1000F324643465046594602DA00F0E3
:10026000F1FB01E000F0CBF9009A0AB181F0004106
:10027000019AC2E90001D1E72DE9FF4F1F468DB079
:10028000D7E901464FF0FF382E2045464FF00009D0
:100290000B90B9696D1C0E988847396A8246884769
:1002A0000028F6D1BAF1FF3F0AD024F4D064002E22
:1002B00011DDBAF12B0F08D0BAF12D0F0BD102E0EE
:1002C000404611B0ABE744F48064B9696D1C0E98E8
:1002D00088478246761E6946600501D52D2000E0DC
:1002E0002B208DF8000001F1010B0DF1200809E031
:1002F000B9696D1C0E98884782460F9844F40074C3
:10030000761E0560002E02DDBAF1300FF0D00B9999
:100310008A453ED144F0800406E00F99681CA9F19B
:10032000010944F400740860B9696D1C761E0E98CA
:10033000884782463028F0D02BE00B998A4505D1BA
:10034000200603D444F08004761E18E0504603F0E3
:10035000CDFD08B30DF11301761E44F400748B45F6
:1003600008D2AAF130000BF8010B200607D5A9F13D
:10037000010003E0200602D409F101008146A00536
:1003800002D50F99681C0860B9696D1C0E988847E2
:100390008246002ED1DC53E0002E51DDBAF1650F0C
:1003A00002D0BAF1450F4BD1A00549D5B9696D1CF2
:1003B00024F44074761E0E9888478246002E0CDD89
:1003C0002B2804D0BAF12D0F07D144F48074B969F9
:1003D0006D1C0E9888478246761EE00501D52D21BA
:1003E00000E02B2108F8011BCDF82C8021E00DF155
:1003F0002901761E44F4007488450CD2AAF130001D
:1004000010F0FF0088F8000002D10B99884509D947
:1004100008F1010806E0E00501D5244801E042F2B8
:100420000F708146B9696D1C0E98884782460F98F7
:100430000560002E04DD504603F058FD0028D6D19B
:10044000F9690E988847FF208BF8000088F80000B3
:100450000020069007904B466A4608A906A8FFF7B9
:100460008BFEA00502D46FF001002AE714F0240FE0
:100470000AD0E00714D1DDE906123868031D3B609D
:100480000068C0E900120BE0DDE9060100F07EF92A
:100490000146E00704D13868021D3A600068016037
:1004A00028460EE7000024400000F03FF1D8FFFF8F
:1004B0002DE9FE4F804681EA0300C00F0C460090F4
:1004C00021F0004123F00045B8EB0200A94105D21C
:1004D0004046214690461C460B46024623F000400B
:1004E000104347D0270DC7F30A00C3F30A51029007
:1004F000401A019040286BDAC3F3130040F4801BCC
:100500000098924620B10023D2EB030A63EB0B0B59
:1005100001985946C0F14002504600F09AF906464B
:100520000D4650465946019A00F0B2F910EB08000A
:100530006141002487EA115284EAE7731A4340D0EC
:10054000009A62B3019A012A4FEA075215DC001B98
:1005500061EB02014FF0004202EA0752CDE900428E
:10056000001C41F5801132462B4600F01DFA03B005
:10057000BDE8F08F40462146F9E7001B61EB020120
:10058000001C41F5801300185B412018A2F50017EC
:1005900047EB030140EAD570B6196D4111E06D08D3
:1005A0004FEA360645EAC0754FEA0752001B61EB79
:1005B0000201001C41F5801149084FEA3000001982
:1005C000514132462B4603B0BDE8F04F00F0DDB993
:1005D0000098012240000023D0EB020263EBE0739D
:1005E000009821464FEAE074B8EB000061EB04018B
:1005F000E9E783F000435BE781F0004158E72DE92C
:10060000FE4F81EA030404F0004421F0004100940D
:100610004FF0000B23F0004350EA01045ED052EA91
:1006200003045BD0C3F30A54C1F30A552C44A4F26B
:10063000F3340194A0FB0254C1F3130141F480117F
:10064000C3F3130343F4801301FB024400FB034E86
:10065000840A970A44EA815447EA8357A4FB07684F
:1006600002958D0A05FB07854FEA932C04FB0C5479
:100670002705029D4FEA065847EA1637B5EB0805ED
:100680006EEB070C870E920E47EA811742EA83123F
:10069000A7FB0201B6EB0B0164EB00042B0D43EA50
:1006A0000C335E1844EB1C50DA465146E7FB02015E
:1006B000C5F313044FEA0B3343EA14534FEA0432F1
:1006C000019C43EA0603A4F10C040294009CCDE9CA
:1006D00000B400F069F903B0BDE8F08F00200146D6
:1006E000F9E70EB5C10F80EAE0700844CA0700219F
:1006F00040F233438DE80E000A460B4600F054F9F1
:1007000003B000BD00F0004220F00040C10DC0F376
:10071000160040F400007F2901DA00207047962976
:1007200003DCC1F19601C84001E096398840002AF7
:10073000F4D04042704700F0004230F000400AD050
:10074000C10D01F56071C0F3160042EA0151C20803
:1007500040071143704700200146704730B5041E22
:1007600071F1000404DB4FF00044404264EB0101EE
:10077000141E73F1000405DB1C464FF00043524287
:1007800063EB0403994208BF904230BD01F000437F
:1007900030B421F0004150EA010206D00A0DA2F562
:1007A0006072C1F31301002A02DC30BC00207047E4
:1007B000440F44EAC104C100E01830BC00EBC25051
:1007C00000F0ACB830B50B460146002020220124D1
:1007D00009E021FA02F59D4205D303FA02F5491B0F
:1007E00004FA02F52844151EA2F10102F1DC30BD25
:1007F0002DE9F05F0546002092469B468846064656
:10080000814640241BE0284641464746224600F0E8
:100810002FF853465A46C01A914110D31146184634
:10082000224600F016F82D1A67EB01084F462246C3
:100830000120002100F00DF817EB00094E41201EA9
:10084000A4F10104DFDC484631462A464346BDE8B0
:10085000F09F202A04DB203A00FA02F100207047C2
:100860009140C2F1200320FA03F3194390407047EE
:10087000202A04DB203A21FA02F00021704721FAF5
:1008800002F3D040C2F1200291400843194670475C
:10089000202A06DBCB17203A41FA02F043EAE07344
:1008A00006E041FA02F3D040C2F120029140084331
:1008B0001946704702681144137801601846704762
:1008C000D16004495161044911620021116111464E
:1008D00000F064B9B5080008910B0008426842B105
:1008E000016811F8013B23B1521EC0E900121846FD
:1008F00070470121C160881E704742685AB1C368C1
:10090000016843B983688B4205D0491E521CC0E977
:100910000012002070474FF0FF3070470029A8BF39
:100920007047401C490008BF20F00100704710B418
:10093000B0FA80FC00FA0CF050EA010404BF10BCCD
:10094000704749B1CCF1200421FA04F411FA0CF1FA
:1009500018BF012121430843A3EB0C01CB1D4FEA33
:1009600000614FEA102042BF002010BC704700EB2E
:10097000C35010440029A4BF10BC7047401C49005C
:1009800008BF20F0010010BC704710B5141E73F1B1
:10099000000408DA401C41F1000192185B411A433F
:1009A00001D120F0010010BD2DE9F04D92469B468B
:1009B00011B1B1FA81F202E0B0FA80F22032904631
:1009C000FFF747FF04460F4640EA0A0041EA0B01E1
:1009D00053465A46084313D0114653EA010019D032
:1009E000C8F140025046FFF743FF05460E46504609
:1009F00059464246FFF72DFF084305D0012004E089
:100A000020463946BDE8F08D0020054346EAE076F1
:100A10002C4337430A986305E40AA0EB0800002240
:100A2000FD0A44EA47540A3002D500200146E9E7AE
:100A3000010510196941DDE9084500196941BDE862
:100A4000F04DA2E72DE9F04D81EA030404F0004BDC
:100A500021F0004514464FF0000A23F0004150EA0F
:100A6000050220D054EA01021DD0C5F30A57024600
:100A7000C5F31303C1F31300C1F30A5640F4801504
:100A800043F48013A7EB0608101BD64608F2FD3886
:100A900073EB050002D308F1010801E092185B41F5
:100AA000B8F1000F03DA00200146BDE8F08D002008
:100AB0004FF48011064684460EE0171B73EB0507C2
:100AC00005D3121B63EB050306434CEA010C4908EE
:100AD0004FEA300092185B4150EA0107EDD152EA2B
:100AE000030012D082EA040083EA0501084305D01E
:100AF000101BAB4106D20122002306E000224FF07A
:100B0000004302E06FF0010253101AEB06004CEBB9
:100B1000085110EB0A0041EB0B01BDE8F04DFFF767
:100B200034BF0EB540F2334202920022CDE90022DA
:100B30001346FFF739FF03B000BDC1F30A52C1F3FA
:100B4000130140F2FF3341F480119A4202DA00208F
:100B50000146704740F233439A42A2F2334202DC2C
:100B60005242FFF785BEFFF774BE0000064C074DEA
:100B700006E0E06840F0010394E80700984710346D
:100B8000AC42F6D3FFF7B6FAEC4800080C4900086F
:100B9000C0B24FF4F05100F097B900002DE9F34FC7
:100BA0008BB04FF0000801F10C000C464FF0010B28
:100BB00046460DF1080A01906269012101989047AB
:100BC00005002DD0252D2CD0216A8847C0B162693F
:100BD000012101989047216A88470028F7D1411EDA
:100BE00062690198904700E0761CA1690B988847DC
:100BF000216A88470028F7D1E1690B988847DBE72D
:100C0000A1690B9888470746A84201D1761CD3E713
:100C1000E1690B9888477F1C02D1B8F1000F6FD0B3
:100C200046E1002762693D463946019890472A28E7
:100C300004D162690121019890470125DFF884926F
:100C40006269012101989047A0F130010A290AD276
:100C50004F45E5DC07EB870100EB4107303FDFD470
:100C600045F01005ECE7E90601D46FF000476C2869
:100C70000AD04C2814D0682815D06A280DD07428C2
:100C80001CD07A281AD01DE0626901210198904792
:100C90006C2802D045F0040514E045F002050DE093
:100CA00045F020050AE06269012101989047682813
:100CB00002D045F0080505E045F4006562690121B0
:100CC00001989047C4E9015765283DD019DC5828A0
:100CD0007AD00CDC452837D004DC252826D04128E2
:100CE00031D131E046282FD047282CD12CE05B2889
:100CF00077D0612828D063287CD0642823D15AE09B
:100D0000D0E06F2848D008DC66281DD067281BD0AB
:100D1000692821D06E2816D127E0702845D0732885
:100D200068D0752847D078280DD14DE0A1690B987F
:100D30008847054625283FF469AFE1690B98884745
:100D40006D1C3FF46AAFB3E023466A466FF00100C2
:100D50000B99FFF791FA9EE045F040006060A8070C
:100D600023464FF0000236D43EE0E8077FF447AF59
:100D70002068011D21600068290501D506701BE768
:100D8000290701D5068017E7A90703D5F117C0E9A0
:100D9000006111E706600FE745F040006060A807BA
:100DA00023464FF0080216D41EE040F60E0125EA55
:100DB0000100606016E045F040006060A80723462F
:100DC0004FF00A0207D40FE045F040006060A8072A
:100DD00008D5234610226FF001000B99AFF3008075
:100DE00059E007E0234610226FF001000B99AFF3A2
:100DF000008050E04FF000094F464B46632802D078
:100E00005B2806D040E0E80601D40120A06001275D
:100E10003AE062690121019890475E2805D14FF0C0
:100E200001096269494601989047216939B9002151
:100E30000A46534643F82120491C0829FADBB0B37F
:100E4000216969B9C11700EBD16253110AEB830123
:100E500022F01F02821A01200B68904003430B60AE
:100E600062690121019890475D28E8D1B9F1000F2E
:100E700009D00020514651F82020D24341F82020CB
:100E8000401C0828F7DB02AB224600976FF00100F8
:100E90000B99AFF3008000280CDA401C08D1BBF19D
:100EA000000F05D04FF0FF300DB0BDE8F08FFFE729
:100EB0004046F9E7E90701D108F1010806444FF07F
:100EC000000B79E6CCCCCC0C7F2801D9002208E0BD
:100ED000064A02EB5002C007127800D1120902F054
:100EE0000F0201209040084070470000AC48000805
:100EF00070B504460D461646EE2001F0FBFBB1200E
:100F000001F0F8FB232001F0F5FB200A01F0F2FBD1
:100F1000E0B201F0EFFB280A01F0ECFBE8B201F0CF
:100F2000E9FBF0B201F0E6FBFF2001F0E3FBFC205F
:100F300001F0E0FBFF2001F0DDFBFF2001F0DAFB18
:100F400070BD000010B5044644B1012202211046D4
:100F500001F0F3FB01200849887007E0002202211C
:100F6000012001F0EAFB00200349887002488178E3
:100F7000024800F0EEF910BD2001002000D8000862
:100F80000C49497802290DD003DC39B101290FD170
:100F900006E0032908D064290AD107E00A2007E007
:100FA0000B2005E00C2003E00D2001E00E2000BF27
:100FB00000BF70475801002000BFFEE730B505466E
:100FC0000848445C0378012204E00648805C434002
:100FD000501CC2B28A42F8DB9C4201D1012030BDD4
:100FE0000020FCE7CA000020014601F01F02022A8F
:100FF00001D1012070470020FCE700000849097872
:10100000084A1278914204D1FF21054A117000204C
:1010100004E003490978034A117001207047000079
:10102000580100206100002006490978064A12781C
:10103000914201D1002004E003490978014A11706E
:101040000120704760000020180000200849B1F915
:101050000010084AB2F90020914201D1002005E0B9
:101060000449B1F90010024A1180012070470000C4
:101070005E0000201600002010B52B480078401CB0
:10108000294908700846007807284AD2DFE800F0AE
:1010900049040F1A25303B0024A21B21002001F037
:1010A000C7FB22A21E21022001F0C2FB39E020A2D0
:1010B0001B21002001F0BCFB1DA21E21022001F01B
:1010C000B7FB2EE01BA21B21002001F0B1FB19A2EF
:1010D0001E21022001F0ACFB23E017A21B210020FF
:1010E00001F0A6FB14A21E21022001F0A1FB18E0D2
:1010F00012A21B21002001F09BFB10A21E21022046
:1011000001F096FB0DE00EA21B21002001F090FBE8
:101110000BA21E21022001F08BFB00200249087067
:1011200000BF00BF10BD00006A0000204735350039
:1011300047353600473537004735380047353900E1
:101140004735340000B500200F490870082048706A
:10115000242088700D480088000AC8700B48007869
:1011600008710B48007848710A4800788871FFF7C9
:1011700007FF0549C871042008724878012101F071
:1011800081FB0149487200BDAC0000201600002020
:101190001800002058010020704710B5012000F011
:1011A00015F810B1012000F00BF810BD10B50220A9
:1011B00000F00CF810B1022000F002F810BD0000A1
:1011C00001490860704700001404014001460020F6
:1011D0000022074B1B6803EA0102054B14331B680E
:1011E0000B4013B10AB1012000E00020704700005D
:1011F000000401400149C86070470000002002401F
:1012000070B50546042440F6FF7000F08DF80446E2
:10121000042C19D10D48006940F002000B49086107
:1012200008464561006940F04000086140F6FF70E3
:1012300000F07AF80446052C06D00448006941F60F
:10124000FD71084001490861204670BD0020024040
:1012500004200B49C96801F0010109B101200EE029
:101260000749C96801F0040109B1022007E00449F7
:10127000C96801F0100109B1032000E004207047A3
:10128000002002400348006940F0800001490861E5
:1012900070470000002002400549096821F0100154
:1012A000034A11601146096801431160704700004C
:1012B0000020024070B505460E4604240F2000F0C1
:1012C00033F80446042C13D10A48006940F00100A9
:1012D000084908612E800F2000F026F80446052CEE
:1012E00006D00448006941F6FE71084001490861D2
:1012F000204670BD0020024001460020034A1068CD
:1013000000F03800084310607047000000200240E1
:101310000248034948600348486070472301674515
:1013200000200240AB89EFCD70B504460425FFF7DD
:101330008FFF054605E003F07DF9FFF789FF0546BD
:10134000641E012D01D1002CF5D104B905252846D4
:1013500070BD70B504460D460426FFF7D9FF352051
:10136000FFF748FF2046FFF74BFF0646042E04D147
:1013700029462046FFF79EFF0646FFF783FF70BD14
:101380000146087870472DE9F04102460025002605
:10139000002000230024002791F803C00CF00F0563
:1013A00091F803C00CF0100CBCF1000F03D091F8C1
:1013B00002C04CEA050591F800C0BCF1000F31D025
:1013C000146800202BE04FF0010C0CFA00F3B1F888
:1013D00000C00CEA03069E4220D183004FF00F0CA0
:1013E0000CFA03F7BC4305FA03FC4CEA040491F839
:1013F00003C0BCF1280F06D14FF0010C0CFA00FC21
:10140000C2F814C00AE091F803C0BCF1480F05D13E
:101410004FF0010C0CFA00FCC2F810C0401C082868
:10142000D1D31460B1F800C0BCF1FF0F34DD5468B3
:1014300000202EE000F1080C4FF0010808FA0CF330
:10144000B1F800C00CEA03069E4221D183004FF0A0
:101450000F0C0CFA03F7BC4305FA03FC4CEA040436
:1014600091F803C0BCF1280F05D100F1080C08FA6F
:101470000CF8C2F8148091F803C0BCF1480F07D1F2
:1014800000F1080C4FF0010808FA0CF8C2F81080BF
:10149000401C0828CED35460BDE8F08141617047FC
:1014A0000161704710B5034801F0ABFD04B220465E
:1014B00010BD00000008004000BFFEE708B54FF473
:1014C000C06000F045F825208DF8000001208DF85F
:1014D0000100684600F004F808BD00BFFEE7704751
:1014E00070B5002100230F22C47804B3154C246882
:1014F00004F4E064C4F5E064210AC1F10403CA40C5
:10150000447804FA03F184781440214309010E4C15
:101510000678A155047804F01F050124AC40057835
:101520006D11AD0005F1E025C5F8004109E0047832
:1015300004F01F050124AC40044D0678761145F8EF
:10154000264070BD0CED00E000E400E080E100E02A
:1015500002490143024A1160704700000000FA0589
:101560000CED00E038B50446002000906A4603A167
:101570002046FEF7E5FD009838BD00002566000016
:1015800010B52D480078401C2B490870084600789B
:1015900006284DD2DFE800F04C03111F2D3B27A297
:1015A0001D21002001F044F924A22021022001F095
:1015B0003FF90120224908703BE022A21D210020B2
:1015C00001F036F91FA22021022001F031F902209A
:1015D0001B4908702DE01CA21D21002001F028F9F4
:1015E00019A22021022001F023F9052014490870D6
:1015F0001FE016A21D21002001F01AF913A22021DC
:10160000022001F015F90A200D49087011E010A21E
:101610001D21002001F00CF90DA22021022001F073
:1016200007F914200649087000200349087000E0FB
:1016300000BF00BF10BD00006B000020583100004B
:101640001800002058320000583500005831300092
:1016500058323000704700001CB50024112001F002
:10166000C9F80A2002F0F4FF112001F0C3F80A20A3
:1016700002F0EEFF00BF09E022460321112001F035
:1016800085F8052002F0E4FF601CC4B2652CF3DB92
:10169000002001F0AFF80A2002F0DAFF222409E06E
:1016A0004FA22146002001F0C3F8052002F0D0FF30
:1016B000601CC4B2272CF3DB262409E048A2214693
:1016C000022001F0B5F8052002F0C2FF601CC4B290
:1016D0002B2CF3DB162409E000222146022001F026
:1016E0002CF8052002F0B4FF601CC4B21B2CF3DB05
:1016F0003EA21B21002001F09BF83CA21E210220EB
:1017000001F096F83AA21C21002001F091F838A2CD
:101710001F21022001F08CF836A21D21002001F0CB
:1017200087F834A22021022001F082F844F62060DC
:1017300031490880642048604FF47A7088606420E2
:10174000C86044F6206008614FF47A7088820846C9
:1017500001214268002001F019F82748028827A1DA
:10176000684602F0EDFA6A461821002001F060F8A0
:1017700021480221C268002001F008F81E481FA17C
:10178000C268684602F0DCFA6A462721002001F0B0
:101790004FF8194819A18268684602F0D1FA6A46E2
:1017A0001921002001F044F800220D21022000F050
:1017B000C4FF01220E21022000F0BFFF01201049CA
:1017C000087000200F4908700F49487001222A2133
:1017D00000F0B3FF01221621022000F0AEFF1CBD75
:1017E0003030303030302E3030000000473534009B
:1017F000B9D800005831000008010020256400001D
:10180000180000200500002058010020F0B585B028
:1018100004460F466078FB490870A078FA490870C2
:10182000E079FA4908702079E17840EA0120F84926
:101830000880A079617940EA0120F6490880207A81
:101840000106607A41EA0041A07A41EA0020E17A8B
:101850000843F1490860ED480078102802D1607A09
:10186000EE490870E7480078B1287AD1E848008846
:10187000162877D2DFE810F01600200184028B03CF
:101880007600CA04F5042A0576002E0532053605D1
:101890005105550559055D05610576007600760010
:1018A000650569050020DE490870DA4800880E28C1
:1018B0007ED00BDCA0F103000B287AD2DFE800F029
:1018C0001533538DF9F9F9F9F9C1C5002C2871D0F8
:1018D00006DC0F286FD02A286ED02B2869D1C8E0EB
:1018E0002D286AD02E28F9D1DBE0CC480078C8B189
:1018F0000120CC498875084640680A384860084687
:101900004068002801DC00204860C6480088C549BE
:1019100049684843642190FBF1F0C2490861002006
:10192000BE490870C6E0BD480078C8B10120BD4975
:101930008875084640680A30486008464068642850
:1019400001DB64204860B7480088B64949684843CD
:10195000642190FBF1F0B34908610020AF490870A1
:10196000A8E0F0E3F0E3AD48007838B30120AD49DA
:10197000C8750846C06864280ADC0846C0680A388A
:10198000C8600846C068002810DC0020C8600DE070
:10199000A448C068642809DDA248C068B0F5967FF5
:1019A00004DCA048C06819389E49C8609D4806E01C
:1019B0004FE07EE065E050E053E06AE00CE08068D4
:1019C0009849C9684843642190FBF1F000B29549F9
:1019D00088820020914908706CE09048007878B3C4
:1019E00001209049C8750846C068642804DA084692
:1019F000C0680A30C86015E08A48C068642811DBF6
:101A00008848C068B0F5967F0CDC8648C0681930FD
:101A10008449C8600846C068B0F5967F02DB4FF481
:101A20009670C8607F4880687E49C96848436421D1
:101A300090FBF1F000B27B49888200207749087062
:101A400038E005207649087034E00A2074490870AF
:101A500030E00120724908702CE0022070490870C3
:101A600028E00121704801F02FFA00206F494870EA
:101A700020E001216C4801F027FA01206B494870F1
:101A800018E00121684801F01FFA022067494870F8
:101A900010E00121644801F017FA032063494870FF
:101AA00008E00121604801F00FFA64205F494870A6
:101AB00000E000BF00BF69E20120594908705C489E
:101AC0000078002878D1534800881C2875D2DFE8B8
:101AD00000F0740E1924E9E82F4055667A8BEFE682
:101AE000E5E4E374747474747474747474984B4897
:101AF000007818B101204F49487002E000204D499C
:101B000048703BE14548007818B101204949C87048
:101B100002E000204749C87030E14048007818B121
:101B200001204449487102E000204249487125E102
:101B300004F10800FFF716FD3E49C860C868FEF7CB
:101B4000FAFD05462A460B463BA1684602F0F8F826
:101B500014E104F10800FFF705FD36490861086942
:101B6000FEF7E9FD05462A460B4636A1684602F017
:101B7000E7F86946374801F084FEFFE004F1080009
:101B8000FFF7F0FC2B4948614869FEF7D4FD054694
:101B90002A460B4630A1684602F0D2F8EEE004F186
:101BA0000800FFF7DFFC234988618869FEF7C3FD61
:101BB00005462A460B4601E0E1E0DEE02CA168463E
:101BC00002F0BEF8DAE004F10800FFF7CBFC194997
:101BD000C861C869FEF7AFFD05462A460B4629A134
:101BE000684602F0ADF8C9E004F10800FFF7BAFC5E
:101BF00010490862086AFEF79EFD05462A460B4614
:101C000051E0AAE0060000200700002009000020A3
:101C10000A0000200C000020100000200800002016
:101C200005000020080100200008004058010020A5
:101C30003400002020010020536166655F5A3A2578
:101C40002E3266004B6E6966655F686967683A2583
:101C50002E326600004400404B6E6966655F626C20
:101C60006F636B5F686967683A252E326600000013
:101C70004B6E6966655F626C6F636B5F583A252EC9
:101C8000326600004B6E6966655F626C6F636B5F06
:101C9000593A252E326600004EE03CE02AE018E07A
:101CA00006E066E064E0F7A1684602F049F865E006
:101CB00004F10800FFF756FCF7494862486AFEF74E
:101CC0003AFD05462A460B46F4A1684602F038F86C
:101CD00054E004F10800FFF745FCEF498862886A88
:101CE000FEF729FD05462A460B46F1A1684602F09B
:101CF00027F843E004F10800FFF734FCE649C86226
:101D0000C86AFEF718FD05462A460B46EDA168464F
:101D100002F016F832E004F10800FFF723FCDE4978
:101D20000863086BFEF707FD05462A460B46EAA145
:101D3000684602F005F821E004F10800FFF712FC04
:101D4000D5494863486BFEF7F6FC05462A460B4624
:101D5000E6A1684601F0F4FF10E0E948007818B108
:101D60000120CD49C87102E00020CB49C87105E0CF
:101D700004E00120C849487200E000BF00BF01E351
:101D80000220E0490870E04800881B2874D2DFE890
:101D900000F0FB0E192737454D58657475808E9CF1
:101DA000AEC0CEFBFBFBFBFBD2DAE2EAF300D74886
:101DB0000078012805D0D248007810B10420D44919
:101DC0000870E2E0D1480078012808D0CC480078BB
:101DD00010B10A20CE4908700020C9490870D4E02B
:101DE000CA48007801280AD0C548007820B10120EF
:101DF000C7490871FFF7C4FB0020C1490870C4E05F
:101E0000C2480078012808D0BD48007810B10820E9
:101E1000BF4908700020BA490870B6E0BB48007896
:101E2000012802D00120BA498871AEE0B748007895
:101E3000012805D00320B34908700120B549087076
:101E4000A3E0B2480078012807D0AD48007820B15F
:101E5000FFF712F90020AA49087096E0AB48007815
:101E6000012808D0A648007810B11220A8490870AF
:101E70000020A349087088E086E086E0A348007847
:101E8000012805D00120A449087004209D4908704C
:101E90007BE09E480078012808D09948007810B16E
:101EA00009209B4908700020954908706DE097480B
:101EB0000078012808D09248007810B10620944993
:101EC000087000208E4908705FE001208F4908707B
:101ED0000021924800F0F8FF00220E21022000F0BD
:101EE0002CFC01220D21022000F027FC4DE00020F7
:101EF0008649087000220D21022000F01EFC0122FC
:101F00000E21022000F019FC0121844800F0DCFFC2
:101F10003BE000207D49087000220D21022000F0E6
:101F20000CFC01220E21022000F007FC2DE0002015
:101F30007449087029E00121784800F0C5FF0020AD
:101F40007349487021E00121744800F0BDFF012071
:101F50006F49487019E00121704800F0B5FF022078
:101F60006B49487011E001216C4800F0ADFF03207F
:101F70006749487009E0FFE70121684800F0A4FFC5
:101F800064206349487000E000BF00BFFAE103200D
:101F90005C4908705D480078002870D15A48008874
:101FA0000E286DD2DFE800F06C0737495864C3D1C2
:101FB000DDE9FAF8F7F65248007818B301205849DD
:101FC000087001220421032000F0B7FB0122052143
:101FD000032000F0B2FB01220621032000F0ADFB3C
:101FE00001220721032000F0A8FB01220821032081
:101FF00000F0A3FB01204A4948708870C87008713E
:10200000487107E000204649087048708870C87021
:1020100008714871F8E00121404800F055FF384848
:10202000007818B101203E49C87105E000203C4904
:10203000C871022033490870E6E00121374800F0FA
:1020400043FF2F48007818B101203549887102E01C
:1020500002202C490870D7E02948007818B10120E7
:102060002F49487003E000202D4948700870CBE0EC
:102070002348007828B101202949887056E0C4E03F
:10208000C1E04FE04B6E6966655F626C6F636B5FCA
:102090005A3A252E3266000020010020536F6674E4
:1020A0005F6C696D69745F583A252E3266000000D6
:1020B000536F66745F6C696D69745F593A252E328F
:1020C00066000000536F66745F6C696D69745F5AD7
:1020D0003A252E3266000000536F66745F6C696D9E
:1020E00069745F413A252E3266000000536F6674B2
:1020F0005F6C696D69745F423A252E32660000009C
:1021000008000020050000200C0000203400002002
:10211000580100201A0000203C0000200008004068
:10212000A401002000209949887008706CE098484C
:10213000007818B101209549C87003E00020934948
:10214000C870087060E01EE11BE19148007818B18A
:1021500001208E49087103E000208C490871087045
:1021600052E08B48007818B101208849487103E09B
:10217000002086494871087046E004F10800FFF726
:10218000F1F9824988600120087708468068814912
:10219000086139E029E01BE00DE0FFE704F10800E9
:1021A000FFF7E0F97949C860012048770846C06820
:1021B0007849486128E004F10800FFF7D3F9734932
:1021C00008610120887708460069724988611BE030
:1021D00004F10800FFF7C6F96C4948610120C8778F
:1021E000084640696B49C8610EE004F10800FFF73A
:1021F000B9F966498861012081F8200008468069A4
:102200006449086200E000BF00BFBBE0624800888C
:10221000012804D002280FD0032820D115E0012086
:102220005E49487000208870084640685C49086034
:1022300002205C49087012E0012058498870002093
:10224000487002205749087009E004F10800FFF7C0
:1022500089F90546FEF756FA5049486000BF00BFAD
:1022600090E005204F4908704B48008804281AD098
:1022700006DC01280BD002280DD0032823D10EE064
:10228000052814D0122816D013281CD117E00620D8
:102290004449087018E007204249087014E00820FB
:1022A0004049087010E009203E4908700CE0002009
:1022B0003C49087008E000203A49087004E00A2010
:1022C0003849087000E000BF00BF5BE006203549D8
:1022D000087057E008203349087053E0092031495D
:1022E00008704FE00A202F4908702B480088012809
:1022F00004D0022806D003280CD107E00020294989
:10230000087008E005202749087004E00B202549E3
:10231000087000E000BF00BF34E00B2021490870C6
:1023200030E00C201F4908702CE00D201D4908707A
:1023300028E00E201B49087024E00F20194908707E
:1023400020E00720174908701CE01020154908708C
:1023500015480078A0B910480088012802D002284A
:102360000CD105E00120114988720020C87206E0F6
:1023700000200E4988720120C87200BF00BF00BF54
:1023800000E000BF00BF05B0F0BD0000A4010020C8
:1023900008000020580100200C0000203C00002014
:1023A0001C00002005000020340000202001002037
:1023B0000020024908800249088070472408004034
:1023C0001600002029B1064AD2690243044BDA61A3
:1023D00004E0034AD2698243014BDA61704700008E
:1023E0000010024029B1064A12690243044B1A61E7
:1023F00004E0034A12698243014B1A6170470000EE
:102400000010024029B1064A92690243044B9A61C6
:1024100004E0034A92698243014B9A6170470000CD
:102420000010024029B1064AD2680243044BDA6028
:1024300004E0034AD2688243014BDA60704700002F
:10244000001002400F48006840F001000D4908608C
:10245000084640680C4908400A4948600846006838
:102460000A490840074908600846006820F48020AF
:1024700008600846406820F4FE0048604FF41F00E2
:1024800088607047001002400000FFF8FFFFF6FE72
:1024900030B500210022002400232D4D6D6805F089
:1024A0000C0121B1042905D0082923D105E0294DCB
:1024B000056022E0274D05601FE0254D6D6805F49D
:1024C0007012234D6D6805F48034022505EB9242AD
:1024D0001CB9214D554305600BE01D4D6D6805F499
:1024E00000351DB11C4D5543056002E0194D5543A3
:1024F000056002E0174D056000BF00BF144D6D6818
:1025000005F0F0010909154D6B5C0568DD4045607B
:102510000F4D6D6805F4E061090A104D6B5C45686C
:10252000DD4085600A4D6D6805F46051C90A0B4DA8
:102530006B5C4568DD40C560054D6D6805F4404144
:10254000890B074D6B5CC568B5FBF3F5056130BDC4
:102550000010024000127A0000093D0044000020F3
:102560005400002010B501460022002300204A112B
:10257000012A02D1094C236806E0022A02D1074C45
:10258000236A01E0054C636A01F01F0201249440B4
:102590001C400CB1012000E0002010BD00100240E2
:1025A0000248406800F00C00704700000010024034
:1025B00001460020034A506820F0F00008435060B4
:1025C0007047000000100240014908607047000099
:1025D0000000424201460020034A506820F4E060B7
:1025E0000843506070470000001002400146002080
:1025F000034A506820F4605040EAC10050607047C0
:102600000010024001490866704700000000424285
:1026100002460020044B586820F47C1042EA010373
:102620001843014B586070470010024001460020DB
:10263000034A506820F003000843506070470000D0
:102640000010024010B5044624B102210448FEF7F0
:1026500027FF03E002210248FEF720FF10BD000023
:102660000008014010B50849887900F0EFF90649E3
:10267000087800F00DF804498878FEF763FC0249F9
:10268000087900F09DFE10BD200100207047000079
:1026900010B5044644B101221146104600F04DF831
:1026A00001200849087007E000220121084600F0D7
:1026B00044F8002003490870024801780248FEF7F8
:1026C00048FE10BD2001002000D4000810B50849C4
:1026D000C87900F0BBF906494878FFF7D9FF0449EB
:1026E000C878FEF72FFC0249487900F069FE10BD5A
:1026F0002001002010B504462146094800F05BFE89
:1027000000BF8021064800F0A5FD0028F9D000BFD9
:102710004021034800F09EFD0028F9D010BD0000C4
:102720000038014010B5044603E02078FFF7E2FFCF
:10273000641C20780028F8D110BD70B504460D4601
:102740001646EE20FFF7D6FFB120FFF7D3FF10208B
:10275000FFF7D0FF200AFFF7CDFFE0B2FFF7CAFF77
:10276000280AFFF7C7FFE8B2FFF7C4FFF0B2FFF790
:10277000C1FFFF20FFF7BEFFFC20FFF7BBFFFF20DC
:10278000FFF7B8FFFF20FFF7B5FF70BD70B5054636
:102790000E461446EE20FFF7ADFFB120FFF7AAFF6B
:1027A0001020FFF7A7FF280AFFF7A4FFE8B2FFF702
:1027B000A1FF300AFFF79EFFF0B2FFF79BFF200E4C
:1027C000FFF798FFC4F30740FFF794FFC4F3072017
:1027D000FFF790FFE0B2FFF78DFFFF20FFF78AFFC2
:1027E000FC20FFF787FFFF20FFF784FFFF20FFF7A4
:1027F00081FF70BD10B50446EE20FFF77BFFB120CE
:10280000FFF778FF0020FFF775FF200AFFF772FF40
:10281000E0B2FFF76FFFFF20FFF76CFFFC20FFF730
:1028200069FFFF20FFF766FFFF20FFF763FF10BD82
:1028300070B504460D461646EE20FFF75BFFB1204B
:10284000FFF758FF1020FFF755FF200AFFF752FF50
:10285000E0B2FFF74FFF280AFFF74CFFE8B2FFF79F
:1028600049FF3046FFF75EFFFF20FFF743FFFC20E4
:10287000FFF740FFFF20FFF73DFFFF20FFF73AFF84
:1028800070BD000010B50346064C605C4C1CE2B203
:1028900004E0044CA45C6040541CE2B29A42F8DDAF
:1028A00010BD0000AC00002010B5FFF7CBFD0120EB
:1028B000FFF78AFE00BF2120FFF754FE0028FAD060
:1028C0001020FEF7E9FC0220FEF716FD0020FFF7BE
:1028D0006FFE0020FFF78AFE4FF48060FFF77AFE5C
:1028E0004FF420110020FFF793FE0120FFF78AFE2E
:1028F00000BF3920FFF736FE0028FAD00220FFF78C
:1029000095FE00BFFFF74CFE0828FBD110BD00006C
:1029100010B51048FEF734FD0F49887108468079DC
:10292000C8710E48FEF72CFD0B4908700846007868
:1029300048700B48FEF724FD0749887008468078E8
:10294000C8700848FEF71CFD034908710846007965
:10295000487110BD00D000082001002000D40008FC
:1029600000D8000800DC000830B585B028490869A7
:10297000FDF7E1FE044622460B4626A1684601F01B
:10298000DFF96A4609210320FFF752FF2049486911
:10299000FDF7D1FE044622460B461EA1684601F013
:1029A000CFF96A460A210320FFF742FF18498869D8
:1029B000FDF7C1FE044622460B4616A1684601F00B
:1029C000BFF96A460B210320FFF732FF1049C8699F
:1029D000FDF7B1FE044622460B460EA1684601F003
:1029E000AFF96A460C210320FFF722FF0849086A65
:1029F000FDF7A1FE044622460B4606A1684601F0FB
:102A00009FF96A460D210320FFF712FF05B030BD84
:102A1000580100202530392E3266000010B50446DA
:102A2000EE20FFF767FE9320FFF764FEE0B2FFF7AA
:102A300061FEFF20FFF75EFEFC20FFF75BFEFF203C
:102A4000FFF758FEFF20FFF755FE10BD10B50446F6
:102A5000012C0BD10020FFF7E1FF01221B211046C2
:102A6000FFF76BFE01200A4988710AE06420FFF736
:102A7000D5FF00221B210120FFF75FFE0020044943
:102A80008871034881790348FEF763FC10BD00009C
:102A90002001002000D000080EB51E48807D0128CE
:102AA00013D100201B49887508461BA1026968469E
:102AB00001F046F96A4618210020FFF7B9FE1548D3
:102AC000012142680020FFF761FE1248C07D012805
:102AD0001FD100200F49C8750846B0F914200EA177
:102AE000684601F02DF96A4619210020FFF7A0FE83
:102AF00008480221C2680020FFF748FE054806A1E9
:102B0000C268684601F01CF96A4627210020FFF7D9
:102B10008FFE0EBD0801002025640000042808D1A6
:102B20004FF0E021096941F004014FF0E02211610A
:102B300007E04FF0E021096921F004014FF0E022A5
:102B40001161704702480068401C014908607047E5
:102B50000000002070B586B00446002C50D15249C8
:102B60000869FDF7E8FD05462A460B464FA101A876
:102B700001F0E6F801AA10210020FFF759FE4A49AA
:102B80004869FDF7D8FD05462A460B4647A101A82E
:102B900001F0D6F801AA11210020FFF749FE4249B1
:102BA0008869FDF7C8FD05462A460B463FA101A8E6
:102BB00001F0C6F801AA12210020FFF739FE3A49B8
:102BC000C869FDF7B8FD05462A460B4637A101A89E
:102BD00001F0B6F801AA13210020FFF729FE3249BF
:102BE000086AFDF7A8FD05462A460B462FA101A855
:102BF00001F0A6F801AA14210020FFF719FE51E008
:102C0000022C4FD128490869FDF795FD05462A4653
:102C10000B4626A101A801F093F801AA1121022078
:102C2000FFF706FE20494869FDF785FD05462A465F
:102C30000B461EA101A801F083F801AA122102206F
:102C4000FFF7F6FD18498869FDF775FD05462A4628
:102C50000B4616A101A801F073F801AA1321022066
:102C6000FFF7E6FD1049C869FDF765FD05462A46F0
:102C70000B460EA101A801F063F801AA142102205D
:102C8000FFF7D6FD0849086AFDF755FD05462A46B7
:102C90000B4606A101A801F053F801AA1521022054
:102CA000FFF7C6FD06B070BD580100202530392E53
:102CB00032660000F0B50C46154600210022068C55
:102CC0004FF6FE773E400684018B028C4FF60C7661
:102CD00031407E1C06EA03162E4331437E1E3240ED
:102CE00044F00106324301830284F0BDF0B50C4686
:102CF0001546002100220026078C4FF6EF7C07EADC
:102D00000C070784018B028C4FF6FF7707EA041645
:102D100040F6FF4739404FF6FF7707EA033739435C
:102D20004FF6FF7707EA052739434FF6DF773A403A
:102D300046F010073A4301830284F0BDF0B50C461B
:102D40001546002100220026078C4FF6FF6C07EA8B
:102D50000C070784818B028C4FF6FF7707EA042665
:102D60004FF60C7739404FF6FF7707EA03172F43EA
:102D700039434FF6FF573A4046F480773A43818310
:102D80000284F0BDF0B50C46154600210022002655
:102D9000078C4EF6FF7C07EA0C070784818B028CB8
:102DA0004FF6FF7707EA043640F6FF4739404FF603
:102DB000FF7707EA052739434FF6FF7707EA03371E
:102DC00039434DF6FF773A4046F480573A438183C2
:102DD0000284F0BD10B50121880700F015F930B16B
:102DE0000121880700F06DF801200149087010BD2D
:102DF0001900002010B50121014800F005F910BDAF
:102E000000040040044800880348008820F00100C6
:102E100001490880704700001008004000B587B0E5
:102E200001210420FFF7CEFA01210820FFF7EAFA7A
:102E3000C020ADF8180004208DF81B0003208DF889
:102E40001A0006A91B48FEF79EFA1B4800F048F836
:102E500003A800F075F90020ADF80C004FF6FF70E4
:102E6000ADF810000020ADF81200ADF80E0003A977
:102E7000114800F047F900231A4603210E4800F0DC
:102E80009FF8684600F008F90620ADF8080069468A
:102E9000094800F0CAF80121074800F00FF80020A7
:102EA0000549243108800121034800F00DF807B0DE
:102EB00000BD0000000C014000080040CA4302822F
:102EC0007047CA430282704721B1028842F0010272
:102ED000028004E0028840F2FE331A40028070470C
:102EE00010B504462F48844208D10121C014FFF7D1
:102EF00099FA0021E014FFF795FA52E0B4F1804FFF
:102F000008D101210846FFF76DFA00210120FFF7E3
:102F100069FA46E02448844208D101210220FFF7E3
:102F200061FA00210220FFF75DFA3AE01F4884426F
:102F300008D101210420FFF755FA00210420FFF7F2
:102F400051FA2EE01A48844208D101210820FFF7E7
:102F500049FA00210820FFF745FA22E0154884428B
:102F600008D101211020FFF73DFA00211020FFF7C2
:102F700039FA16E01048844208D101212020FFF7D9
:102F800031FA00212020FFF72DFA0AE00B48844295
:102F900007D101214014FFF745FA00216014FFF723
:102FA00041FA10BD002C0140000400400008004020
:102FB000000C0040001000400014004000340140AC
:102FC000F0B50C4615461E4600210022002301895B
:102FD000028B038C4FF6F877394021434FF6FC47BC
:102FE0003A4040F201173A434FF6DD773B404FF647
:102FF000FF7707EA06172F433B43018102830384CF
:10300000F0BD0146888C704730B502460020002391
:103010000024158A05EA0103958905EA010413B124
:103020000CB1012000E0002030BD70B505460C4613
:10303000208850B92389A28861882846FFF73AFE84
:10304000E188284600F031F825E0208804280AD1DC
:103050002389A28861882846FFF748FEE188284630
:1030600000F02CF817E0208808280AD12389A288CC
:1030700061882846FFF762FEE188284600F02BF8B9
:1030800009E02389A28861882846FFF77BFEE18852
:10309000284600F029F870BD0021018041800121FF
:1030A00081800021C18001817047028B4FF6F3734C
:1030B0001A400283028B0A4302837047028B4FF24D
:1030C000FF331A400283028B4FF6FF7303EA01239A
:1030D0001A4302837047828B4FF6F3731A40828340
:1030E000828B0A4382837047828B4FF2FF331A40F0
:1030F0008283828B4FF6FF7303EA01231A43828394
:1031000070470000028802F08F020280CA884B8854
:103110001A4303881A4302808A8882850A880285B6
:10312000054A904202D0054A904201D10A7A0286AD
:103130000122828270470000002C014000340140CF
:103140004FF6FF71818000210180C18041800172B2
:103150007047000010B540F22551064800F087F88E
:1031600038B1044800F022F9C4B2204601F034FB23
:1031700000BF10BD0038014010B50848008800F0BD
:10318000080038B105490988C8B20449091D0988F1
:10319000C8B210BD00F0A4FA00BFFAE70048004032
:1031A00021B1828942F40052828104E082894DF685
:1031B000FF731A408281704710B50446204884424C
:1031C00009D101218803FFF72DF900214FF4804038
:1031D000FFF728F932E01B48844209D10121480455
:1031E000FFF700F900214FF40030FFF7FBF825E06E
:1031F0001548844209D101218804FFF7F3F8002122
:103200004FF48020FFF7EEF818E01048844209D10F
:103210000121C804FFF7E6F800214FF40020FFF772
:10322000E1F80BE00A48844208D101210805FFF7C4
:10323000D9F800214FF48010FFF7D4F810BD00003A
:10324000003801400044004000480040004C00406D
:103250000050004002460020B1F5007F00D100BFC1
:1032600013880B400BB1012000E00020704770B5BF
:103270000246002400230025002040F66A16B142D1
:1032800000D100BFC1F3421501F01F03012606FA69
:1032900003F3012D02D19689334006E0022D02D1BD
:1032A000168A334001E0968A33400C12012606FA52
:1032B00004F41688344013B10CB1012000E0002062
:1032C00070BDF0B50346002400260025002040F61E
:1032D0006A17B94200D100BF1846C1F3421401F089
:1032E0001F06012707FA06F5012C01D10C3004E076
:1032F000022C01D1103000E014301AB107682F43BE
:10330000076002E00768AF430760F0BD2DE9F047B2
:1033100086B005460E460024A24600BF00BF002727
:10332000B08900B100BF2F462C8A4CF6FF700440D4
:10333000F08804432C82AC894EF6F3100440B08828
:1033400031890843718908430443AC81AC8A4FF644
:10335000FF400440B0890443AC8201A8FFF798F80D
:103360001148874202D1DDF810A001E0DDF80CA081
:103370000AEBCA0000EB0A1031688900B0FBF1F8D3
:103380006420B8FBF0F004012009642101FB1089DE
:10339000322000EB0910B0FBF1F000F00F00044305
:1033A0002C8106B0BDE8F0870038014001468888CE
:1033B000C0F308007047C1F3080282807047000024
:1033C00010B5044644B1012203211046FFF7B5F9B8
:1033D00001200849087107E0002203210120FFF7BE
:1033E000ACF9002003490871024801790248FDF751
:1033F000B0FF10BD2001002000DC000800BFFEE788
:1034000010B586B0044601210520FEF7FBFF01211F
:103410008803FEF7F7FF4FF40070ADF81400182092
:103420008DF8170003208DF8160005A91848FDF740
:10343000AAFF4FF48060ADF8140003208DF8160049
:1034400004208DF8170005A91148FDF79CFF1148CD
:10345000FFF7B2FE01940020ADF80800ADF80A00B5
:10346000ADF80C00ADF810000C20ADF80E0001A96D
:103470000848FFF74BFF012240F225510548FFF7AE
:1034800020FF01210348FFF78BFE06B010BD0000AE
:1034900000080140003801402DE9FF4754480078FA
:1034A00000287DD0534890F801A0BAF11D0F03D039
:1034B000BAF1290F00D100E094E04E48847890F8EA
:1034C00004900146497901EB092108B2FDF709F999
:1034D000494A4A4BCDE90001FDF791F8CDE90201D7
:1034E000210209B2434AD2788818FDF7FAF8054656
:1034F000DDE90223FCF7DCFF0746FDF747F9404909
:1035000008613C48847990F808900146497A01EBBB
:10351000092108B2FDF7E5F80746374A374BFDF7B2
:103520006EF8CDE90001210209B2324AD279881839
:10353000FDF7D7F80546DDE90023FCF7B9FFCDE933
:103540000201FDF723F92E4948612A48847A90F850
:103550000C900146497B01EB092108B2FDF7C1F847
:10356000254A264BCDE90001FDF749F805460E46F0
:10357000210209B21F4AD27A8818FDF7B2F807462D
:103580002A463346FCF794FFCDE90201FDF7FEF829
:103590001B4988611748847B90F81090014600E031
:1035A00024E0497C01EB092108B2FDF79AF8124AA0
:1035B000124BCDE90001FDF722F805460E46210227
:1035C00009B20C4AD27B8818FDF78BF807462A46C9
:1035D0003346FCF76DFFCDE90201FDF7D7F8084946
:1035E000C86100BF00BF002001490870BDE8FF8727
:1035F0005D000020CA000020FCA9F1D24D62503FBE
:103600005801002010B586B0044601210920FEF7BC
:10361000F9FE01212E48FEF7D5FE4FF48060ADF88B
:10362000140003208DF8160018208DF8170005A946
:103630002848FDF7A8FE4FF40060ADF81400032001
:103640008DF8160004208DF8170005A92148FDF714
:103650009AFE0220ADF8140003208DF81600102009
:103660008DF8170005A91C48FDF78DFE27208DF861
:10367000000001208DF8010000208DF802000120DB
:103680008DF803006846FDF72BFF01944FF480503E
:10369000ADF808000020ADF80A00ADF80C00ADF858
:1036A00010000C20ADF80E0001A90C48FFF72EFE0B
:1036B000012240F225510948FFF703FE0121074886
:1036C000FFF76EFD0020FEF7BDFF06B010BD000045
:1036D00001000400000C01400008014000480040C7
:1036E0002DE9F0413748008805B23648001F0088B0
:1036F00020F020003349091F0880081D0088084673
:103700000088ECB205F4807058B12046FDF76CFCDF
:10371000002854D000202C49087001202B49087043
:103720004DE02A480078012849D1274800781E2812
:1037300004DB002025490870BDE8F08124482249B7
:103740000978445420480078401C1F4908702048DC
:1037500000781E2802DD00201C4908701C480078F3
:103760001949097888422ADA002018490870184A4D
:103770001178154A1278521E154B985CFDF71EFC05
:10378000E8B10120134908701348007802280CDAC8
:103790000F48867CC77C07EB0620104908800E483E
:1037A0000078401C0C49087002E003200A490870A8
:1037B000074840781D2802D10A2000F011F800BF08
:1037C000BAE70000044800405A00002058000020DA
:1037D000CA0000205D0000201B00002024080040DB
:1037E0002DE9F0410546FDF731FC0646FDF706FCE4
:1037F0000746FDF719FC80461EB917B9B8F1000F4E
:1038000029D0FDF79FFC0120FEF71CFF00241DE0DE
:1038100074B91248007840F480701149088000BFE4
:103820000F48001F008800F040000028F8D00BE08F
:103830000A48005D0A49088000BF0948001F008847
:1038400000F040000028F8D0601CC4B2AC42DFDBBE
:103850000020FEF7F7FEBDE8F0810000AC0000207C
:103860000448004070B504460D4629462046FFF73F
:10387000A2FD00BF80212046FFF7ECFC0028F9D014
:1038800070BD70B505460C4604E021782846FFF768
:10389000E9FF641C20780028F7D100BF40212846AA
:1038A000FFF7D8FC0028F9D070BD000010B5E9483A
:1038B0000078E9490978884208D0E648007801286C
:1038C00002D100F0E9F901E000F010FAE3480078D5
:1038D00011287DD2DFE800F00925445DEFEEEDEC24
:1038E000EBEAE9E8E7E6E5E43000FDF7DBFDDC497B
:1038F0000880DA480078FFF72DF9FFF7CDF8D94AAC
:1039000015210020FEF794FFD548B0F90020D6A17C
:10391000D64800F015FAD54A16210020FEF788FF98
:1039200095E1D348407A30B1FEF79CFE0020D049A3
:103930004872CA4908708AE1C648007878B9CC480C
:10394000807A20B1FEF7C2FE0020C4490870C84842
:10395000C07A20B1FEF786FE0020C049087076E1EB
:10396000FDF7A0FDBE4908800220FFF7F3F8BD4A2D
:103970001B210220FEF75CFFB948B0F90020BAA174
:10398000BA4800F0DDF9B94A1C210220FEF750FFC9
:103990005DE10021B748FFF797FAB74800780028A3
:1039A0003AD0002201210320FEF7C7FE00220421A5
:1039B0000320FEF7C2FE002205210320FEF7BDFE14
:1039C000002206210320FEF7B8FE0022072100E0B6
:1039D0003CE10320FEF7B1FE002208210320FEF7A0
:1039E000ACFE0020A549087048708870C870087146
:1039F0004871A3480069A249886308464069C863C2
:103A00000846806908640846C06948640846006A38
:103A100088640020984908709848407888B9974889
:103A2000807870B99548C07858B99448007940B901
:103A30009248407928B9002201210320FEF77DFE3B
:103A400004E0012211460320FEF777FE8B488079BF
:103A5000002879D08948407830B9FEF7A9FC0020C9
:103A600087490861886311E08448007F60B1FEF7F0
:103A70009FFC82488068824908618048806888632A
:103A800000207E49087701E0FEF792FC7B488078B1
:103A900090B9FEF78DFC002079494861C8631DE0AC
:103AA000D2E0D0E0CEE0CCE0CAE0AFE0ADE0ABE009
:103AB000CBE0A8E0A6E08EE07048407F60B1FEF762
:103AC00077FC6E48C0686E4948616C48C068C8633E
:103AD00000206A49487701E0FEF76AFC6748C07831
:103AE00030B9FEF765FC002065498861086411E083
:103AF0006248807F60B1FEF75BFC60480069604906
:103B000088615E480069086400205C49887701E0AC
:103B1000FEF74EFC5948007930B9FEF749FC002009
:103B20005749C861486412E05448C07F68B1FEF745
:103B30003FFC524840695249C86150484069486456
:103B400000204E49C87702E025E0FEF731FC4B48E3
:103B5000407930B9FEF72CFC00204949086288649E
:103B600013E0464890F8200068B1FEF721FC434876
:103B700080694349086241488069886400203F4960
:103B800081F8200001E0FEF713FC00203B4988711A
:103B90000220324908703948C079C8B13848806B72
:103BA000374908610846C06B48610846006C886167
:103BB0000846406CC8610846806C0862FEF7F8FB56
:103BC00000202E498860C860086148618861C8711A
:103BD000FEF7CAFE3BE02B48007890B12A4822A1AC
:103BE0000268224800F0ACF8204A04210520FEF7C4
:103BF0001FFE1E4A03210520FEF71AFE0020214960
:103C0000087024E023E022E021E020E01F48007853
:103C1000102802D0112810D100E00FE01C480088C5
:103C2000072802D0082807D105E01A4A08210B20EE
:103C3000FEF7FEFD00BF00BF00E000BF00BF06E0D2
:103C400005E004E003E002E001E000E000BF00BFA7
:103C500010BD0000340000201400002005000020EA
:103C6000160000202000002025640000FC00002039
:103C700020010020000800401A000020A4010020BC
:103C8000580100203C0000201C00002009000020FA
:103C90000C000020E800002010B501220B210020BC
:103CA000FDF726F901221C211046FDF721F901221A
:103CB0002B210220FDF71CF9012221210620FDF70E
:103CC00017F9012205210A20FDF712F901220D2121
:103CD0000B20FDF70DF9012209210D20FDF708F950
:103CE00001220C210E20FDF703F910BD10B50022B2
:103CF0000B211046FDF7FCF800221C210120FDF7E6
:103D0000F7F800222B210220FDF7F2F800222121F2
:103D10000620FDF7EDF8002205210A20FDF7E8F85E
:103D200000220D210B20FDF7E3F8002209210D20D0
:103D3000FDF7DEF800220C210E20FDF7D9F810BDAA
:103D40000FB4084B10B504A902AA039800F0D6F8E6
:103D5000044602A9002000F068FC204610BC5DF873
:103D600014FB00002B46000802E008C8121F08C11F
:103D7000002AFAD170477047002001E001C1121FEC
:103D8000002AFBD1704700002DE9FF5FDDE902202A
:103D9000010DDDF838B0024318D044F61050A1F2FE
:103DA000FF3141430D140F98012820D0A5EB0B00E3
:103DB000401C5FEA000A4FF00004474EDFF81C91F8
:103DC000A046504616D5CAF1000728E00F980124F6
:103DD00043A2012808D0002100980F9BC0E90021D0
:103DE000C0E90243BDE8FF9F6FEA0B01F4E7CBF1A6
:103DF0000000DEE7074612E0F80707D02246334608
:103E000040464946FCF7FBFB80468946224633463E
:103E100010461946FCF7F3FB04460E467F10002FB0
:103E2000EAD1DDE90201BAF1000F42464B4602DA5F
:103E3000FCF7E5FB01E0FCF705FE04460E46002218
:103E4000284BFCF78BFC03D84FF0FF30014607E00E
:103E50000022254B20463146FCF72AFBFCF76DFE7D
:103E6000102409E0002C0ADB0A220023FCF7C0FC26
:103E7000019B30321A55641E50EA0102F2D1641CD3
:103E8000019AC4F1110314440F9A012A03D00122AC
:103E900008430DD10AE0084304D000204FF0110B75
:103EA0000F9080E7A3EB0B056D1E0DE05B4504DD75
:103EB0004FF0000205F1010504E003DA4FF00002C3
:103EC000A5F10105002AECD000980F99C0E9023154
:103ED000C0E9004586E70000000024400000F03FF4
:103EE000300000000000F0430000E03F30380A28B6
:103EF00001D2012070470020704700002DE9FF4FDC
:103F000095B09B468946064600250FE2252877D1C5
:103F100000242746F84A0121059400E0044316F8DE
:103F2000013F203B01FA03F01042F7D130782A28F4
:103F300011D06FF02F033078A0F13002092A16D883
:103F4000059A44F0020402EB820203EB42021044A1
:103F5000761C0590EFE759F8042B0592002A03DA46
:103F6000504244F40054059044F00204761C30782A
:103F70002E2816D116F8010F44F004042A280DD07B
:103F80006FF02F023078A0F13003092B09D807EB2E
:103F9000870302EB4303C718761CF3E759F8047B49
:103FA000761C30786C280FD006DC4C2817D0682897
:103FB0000DD06A2814D104E0742810D07A280FD1CB
:103FC0000DE044F400140AE044F4801401E044F4E9
:103FD00040147278824202D104F58014761C761C5B
:103FE000307866280BD013DC582877D009DC0028FD
:103FF00075D04528F6D04628F4D047281AD19DE13F
:1040000018E0632835D0642879D0652812D195E16D
:10401000702873D008DC6728F1D069286FD06E282B
:104020000DD06F2806D1B5E073282CD0752875D037
:10403000782874D05A46179990476D1C75E1C4F3DF
:104040000250022809D003280DD0D9F80010042806
:104050000DD00D6009F1040967E1D9F80010EA17E5
:10406000C1E90052F6E7D9F800100D80F2E70D70B3
:10407000F0E719F8041B8DF8001000208DF80100FE
:10408000EA46012003E059F804AB4FF0FF30610726
:104090004FF0000102D40DE008F101018846B94259
:1040A0000FDA8045F8DB1AF808100029F4D108E08F
:1040B00008F1010188468142FADB1AF8081000294C
:1040C000F6D105985B46A0EB080721463846179ABB
:1040D00000F094FA284400EB080507E04DE029E1E0
:1040E0000DE01AF8010B5A4617999047B8F10108EC
:1040F000F7D25B4621463846179A13E142E00A227E
:104100000092C4F302524FF0000A022A08D059F874
:1041100004CB032A4FEAEC710AD00DE029E02AE033
:1041200009F1070121F00702F2E802C1914609E016
:104130000FFA8CFC4FEAEC71042A03D14FFA8CFC85
:104140004FEAEC71002907DA0A460021DCF1000C85
:1041500061EB02012D2202E0220504D52B228DF80D
:104160000420012203E0E20701D02022F7E7904675
:1041700059E00A2102E010220DE010214FF0000A60
:1041800000910BE010224FF0000A44F004040827CD
:10419000009203E008224FF0000A0092C4F302529A
:1041A000022A05D059F804CB0021032A08D009E0DF
:1041B00009F1070121F00702F2E802C1914605E08A
:1041C0001FFA8CFC042A01D10CF0FF0C4FF0000800
:1041D000220728D5702806D0009B83F0100353EAED
:1041E0000A0305D00EE040228DF80420012208E0E9
:1041F0005CEA010206D030228DF804208DF805001B
:1042000002229046009B83F0080353EA0A030AD176
:104210005CEA010201D1620705D530228DF8042045
:104220004FF001087F1E582804D034A003900EA838
:1042300002900DE036A0F9E753466046009AFCF77D
:10424000D7FA84460398825C0298401E029002705E
:104250005CEA0100F0D1029806A9081A00F1200AD0
:10426000600702D524F4803400E00127574502DDC1
:10427000A7EB0A0000E0002000EB0A01009005987F
:104280004144401A0590E00306D45B462146179A44
:10429000059800F0B3F90544002706E001A85A4646
:1042A000C05D179990476D1C7F1C4745F6DBE00306
:1042B0000CD55B462146179A059800F09FF90544F6
:1042C00004E030205A46179990476D1C0099481E0B
:1042D00000900029F5DC08E0029802995A4600781F
:1042E000491C0291179990476D1CBAF10001AAF17F
:1042F000010AF1DC65E100000928010030313233A8
:104300003435363738396162636465660000000011
:1043100030313233343536373839414243444546FB
:104320000000000000F058F90544761C30780028A1
:104330007FF4ECAD19B02846BDE8F08F620700D4D9
:10434000062709F1070222F0070CFCE80223E146E8
:1043500003F000485FEA080C02D00FF2702C0DE069
:104360005FEA045C02D50FF2682C07E05FEAC47CC8
:1043700002D00FF2602C01E0AFF2700C4FF0FF386A
:1043800023F00043CDF850C065280CD006DC45284A
:1043900009D046281DD047283DD13DE0662818D0D9
:1043A00067287ED138E00021112F01DB112000E0C9
:1043B000781CCDE9000106A90EA8FFF7E5FCDDE9B0
:1043C0000F010E9A03910021009207F1010A049156
:1043D0004DE04FF000400097CDE9011006A90EA86E
:1043E000FFF7D2FCDDE90F0203920E9B1199002228
:1043F000DDF80CA00093049211B9791C00EB010ABE
:10440000B7EB0A0004D4C0F1FF3007F1010A0490B1
:10441000AAEB0700019044E0012F00DA01270021F8
:10442000112F01DD112000E03846CDE9000106A979
:104430000EA8FFF7A9FCDDE90F010E9A03910021F8
:1044400004910092BA4621070CD40399514500DA31
:104450008A46BAF1010F05DD009AAAF10101515C0B
:10446000302908D0B84202DA10F1040F06DA01212F
:10447000CDE9011015E0AAF10101E9E7002805DC0A
:10448000049901440491AAEB000102E0411C51454A
:1044900000DD8A460499401A401C01904FF000400C
:1044A0000290200704D40198504501DBCDF8048028
:1044B00000208DF84F0002980DF14F07B0F1004F2A
:1044C00025D02B200E9002984FF0020800280CDA1D
:1044D000404202902D200E9007E00A210298FCF73E
:1044E00071F93031029007F8011DB8F10001A8F10F
:1044F0000108F2DC02980028EFD1791E0E980870AE
:10450000307800F0200040F0450007F8020D12A8B6
:10451000C01B00F107081498007800B1012000EBDF
:104520000A01019801EBE07105984144401A401ED0
:104530000590E00306D45B462146179A059800F0E3
:104540005DF805441498007818B15A4617999047B9
:104550006D1CE00324D55B462146179A059800F0B0
:104560004DF805441CE00498002807DBDDE9030151
:10457000884203DD0098405C179901E017993020CC
:104580005A469047049805F10105401C0490019893
:10459000401E019004D12E205A46179990476D1C59
:1045A000BAF10001AAF1010ADDDC05E017F8010B00
:1045B0005A46179990476D1CB8F10001A8F10108FF
:1045C000F4DC5B462146179A0598ABE62D00000007
:1045D0002B000000200000002DE9F04104460025DA
:1045E0001E461746880404D405E039462020B0470B
:1045F0006D1C641EF9D52846BDE8F0812DE9F04117
:10460000044600251E469046C80301D5302700E029
:104610002027880404D505E041463846B0476D1C84
:10462000641EF9D52846BDE8F0810A68531C0B606A
:104630001070704708B500200090FF20009002E045
:104640000098401E009000980028F9D108BD000095
:10465000074A116808E00A22B0FBF2F2044B1B681B
:104660005B1A9A4200D200E0F5E700BF70470000F5
:10467000000000200024FEF717F900F0E7F8FCF72F
:104680001DFF4FF4E130FEF7BBFE4FF4E130FEF7C3
:10469000B9FF00F0B9F8FEF7C1FB4FF49670FFF7D1
:1046A000D7FFFCF7D9FFFEF733F9FDF7DBFF31E069
:1046B0004021194800F034F80446002C0BDD164860
:1046C0004078072807D021461348FDF79FF840217E
:1046D0001148FBF72AFDFFF7E9F81048008820F0A1
:1046E00004000E4908800D480C38008800F00800CE
:1046F00040B10A490C390988C8B208490839098803
:10470000C8B200BFFEF7C8FE0448008840F00400AD
:1047100002490880CCE700006C0000200C480040F3
:10472000F8B504460D460026002000902FE06846AC
:1047300000F038F81948008820B99DF80000EE28EC
:1047400000D024E015480088A84208DA9DF800103F
:10475000124802880088401C104B1880A1549DF814
:1047600000000F49096840EA01200D490860084629
:1047700000686FF44031884208D10848068800205C
:1047800007490860054908803046F8BD00BF00F0C1
:104790004BF80028CBDC0020F7E700006800002081
:1047A0006400002001460B4840880A4A1288904263
:1047B0000FD008484288001D805C0870054A528866
:1047C000501CC21700EBD2525212A0EB4222014BF6
:1047D0005A807047C801002001460A4B1B88581CAC
:1047E000C31700EBD3535B12A0EB43239AB20548E7
:1047F0004088904205D003480388001DC154001F23
:1048000002807047C80100200020044948800880C9
:10481000034908600349088070470000C801002070
:1048200064000020680000200748008800F5007040
:10483000054A5288811AC81701EBD0504012A1EBEB
:10484000402080B270470000C801002070B56FF0B2
:104850000400FEF763F91249B1F1807F00D31DE037
:1048600021F07F40401E4FF0E022506150170F2290
:10487000002807DA13071D0E0A4B00F00F04241F4F
:104880001D5503E013071C0E074B1C5400BF0020EE
:104890004FF0E02290610720106100BF70BD000062
:1048A0000053070018ED00E000E400E0DDDDDDDD91
:1048B000DCBBBBDDDDDDDDDDDDDDDDDD98888888B1
:1048C0008888888877777777778888888555555658
:1048D00066666666666666666668888883333332AF
:1048E00022222222222222222228888D0C490008FC
:1048F000000000206C000000683D000878490008B6
:104900006C000020640B0000783D000800000000EF
:104910000000000000000000000000000000000097
:10492000000000000000000000000000BEABB5F178
:10493000B7F0CFF100000000000000000000000010
:104940000000000000000000000000000000000067
:104950000000000001020304010203040607080925
:104960000204060800000000000000000000000033
:0849700000000000000000013E
:04000005080000ED02
:00000001FF
