:020000040800F2
:10000000E01F002001010008A71700088117000861
:10001000A31700084D130008753E000800000000FB
:10002000000000000000000000000000F1290008AE
:100030001D14000800000000311900087D3300087D
:100040001B0100081B0100081B0100081B01000820
:100050001B0100081B0100081F14000831140008D0
:100060001B0100081B0100081B0100081B01000800
:100070001B0100081B0100081B0100081B010008F0
:100080001B0100081B0100081B0100081B010008E0
:100090001B0100081B0100081B0100081B010008D0
:1000A0001B0100081B0100081B0100081B010008C0
:1000B000B9360008D9360008513700081B0100087E
:1000C0001B0100081B0100081B0100081B010008A0
:1000D0001B010008653B0008893B00081B01000864
:1000E0001B0100081B0100081B010008DFF80CD0F1
:1000F00000F0AAFE00480047A14D0008E01F0020C4
:100100000648804706480047FEE7FEE7FEE7FEE7B1
:10011000FEE7FEE7FEE7FEE7FEE7FEE78D330008B9
:10012000ED000008A0F14101192900D820307047E6
:1001300040EA01039B0703D009E008C9121F08C069
:10014000042AFAD203E011F8013B00F8013B521EE9
:10015000F9D27047D2B201E000F8012B491EFBD260
:1001600070470022F6E710B513460A4604461946C2
:10017000FFF7F0FF204610BD421C10F8011B0029BC
:10018000FBD1801A704710B5002200E0521C835C3E
:100190008C5CA34201D1002BF8D1D8B2E1B2401A55
:1001A00010BD30B505460020034600E05B1C9342BD
:1001B00005D2EC5CC85C201A01D1002CF6D130BD10
:1001C0000FB400B58DB010A909900B9000914FF0BD
:1001D000FF300A9000200C900548069005480790D3
:1001E0006A4609A80F9900F0E5FB0DB05DF814FB15
:1001F000D1090008EF0900082DE9FF4F087881B008
:100200009946FF2805D0491C2D2804D0002400233E
:1002100008E000230BE00124F9E703EB830300EB84
:100220004303491C0878FF28F7D104B15B42002042
:100230000090147801462D2C01D02B2C04D1521C97
:100240002D2C12D00024009400251678FF2E0ED0FD
:100250000A24A0FB04C801FB0481002700FB07114E
:10026000521C16EB0C006941EFE70124EBE79944BF
:1002700050EA01020ED00024AA4D2646DFF8A882DB
:1002800000F0BEFD82468B46B9F1000009DAC9F1E3
:1002900000071BE001980021C0E9001105B0BDE88E
:1002A000F08F074612E0F80707D022462B4630466B
:1002B000414600F005FA0646884622462B4610467F
:1002C000194600F0FDF904460D467F10002FEAD1D3
:1002D000B9F1000F324643465046594602DA00F063
:1002E00020FD01E000F0ECF9009A0AB181F0004134
:1002F000019AC2E90001D1E72DE9FF4F1F468DB0F9
:10030000D7E901464FF0FF382E2045464FF000094F
:100310000B90B9696D1C0E988847396A82468847E8
:100320000028F6D1BAF1FF3F0AD024F4D064002EA1
:1003300011DDBAF12B0F08D0BAF12D0F0BD102E06D
:10034000404611B0ABE744F48064B9696D1C0E9867
:1003500088478246761E6946600501D52D2000E05B
:100360002B208DF8000001F1010B0DF1200809E0B0
:10037000B9696D1C0E98884782460F9844F4007442
:10038000761E0560002E02DDBAF1300FF0D00B9919
:100390008A453ED144F0800406E00F99681CA9F11B
:1003A000010944F400740860B9696D1C761E0E984A
:1003B000884782463028F0D02BE00B998A4505D13A
:1003C000200603D444F08004761E18E0504603F063
:1003D000D9FF08B30DF11301761E44F400748B4568
:1003E00008D2AAF130000BF8010B200607D5A9F1BD
:1003F000010003E0200602D409F101008146A005B6
:1004000002D50F99681C0860B9696D1C0E98884761
:100410008246002ED1DC53E0002E51DDBAF1650F8B
:1004200002D0BAF1450F4BD1A00549D5B9696D1C71
:1004300024F44074761E0E9888478246002E0CDD08
:100440002B2804D0BAF12D0F07D144F48074B96978
:100450006D1C0E9888478246761EE00501D52D2139
:1004600000E02B2108F8011BCDF82C8021E00DF1D4
:100470002901761E44F4007488450CD2AAF130009C
:1004800010F0FF0088F8000002D10B99884509D9C7
:1004900008F1010806E0E00501D5244801E042F238
:1004A0000F708146B9696D1C0E98884782460F9877
:1004B0000560002E04DD504603F064FF0028D6D10D
:1004C000F9690E988847FF208BF8000088F8000033
:1004D0000020069007904B466A4608A906A8FFF739
:1004E0008BFEA00502D46FF001002AE714F0240F60
:1004F0000AD0E00714D1DDE906123868031D3B601D
:100500000068C0E900120BE0DDE9060100F0CEF959
:100510000146E00704D13868021D3A6000680160B6
:1005200028460EE7000024400000F03FF1D8FFFF0E
:10053000F0B480EA0102D40F4200B2EB410F02D2C4
:100540000246084611464A0042D0C30DDDB2C1F34F
:10055000C752AD1A202D35DAC1F3160141F400025D
:1005600004B15242C5F1200602FA06F12A411044B4
:10057000B3EBD05F23D0C4B1012DA0EBC35009DC95
:10058000F0BC4FF0004202EAC352DBB200F50000BB
:1005900000F095BA400000F1807000EBC350A0F16C
:1005A000807040EAD170490009E0490841EAC07111
:1005B000A0EBC35000F50000400800EBC350F0BCB6
:1005C00000F074BA6142012202EB4101001BF6E720
:1005D000F0BC704781F00041AAE780F00040A7E737
:1005E00080EA010210B502F00043400022D04A0028
:1005F0001FD0010E01EB1261C0F35600C2F3560288
:1006000040F4000042F40002A0FB022000047F3905
:10061000140400D0401C50EA124001D44000491E8E
:10062000C2B20C0604EBD010401C4008802A02D055
:1006300003E0002010BD20F00100002900DA0020B6
:10064000184310BD30B480EA010202F0004530F0DA
:10065000004221F0004013D090B1C30DD40DC2F37D
:100660001601C0F31600E41A41F4000140F4000240
:100670007D34914201D3641C00E04900002C02DA71
:1006800030BC002070474FF400000023914201D39A
:10069000891A034340084FEA4101F7D151B1914211
:1006A00002D14FF0004105E002D24FF0010101E01C
:1006B0006FF0010103EBC450284430BC00F0F6B9E0
:1006C0002DE9FE4F81EA030404F0004421F00041CB
:1006D00000944FF0000B23F0004350EA01045ED079
:1006E00052EA03045BD0C3F30A54C1F30A552C4405
:1006F000A4F2F3340194A0FB0254C1F3130141F4BA
:100700008011C3F3130343F4801301FB024400FB85
:10071000034E840A970A44EA815447EA8357A4FBAC
:10072000076802958D0A05FB07854FEA932C04FBA9
:100730000C542705029D4FEA065847EA1637B5EBD9
:1007400008056EEB070C870E920E47EA811742EA06
:100750008312A7FB0201B6EB0B0164EB00042B0D27
:1007600043EA0C335E1844EB1C50DA465146E7FB73
:100770000201C5F313044FEA0B3343EA14534FEA63
:100780000432019C43EA0603A4F10C040294009C89
:10079000CDE900B400F0D0F903B0BDE8F08F00203F
:1007A0000146F9E7C10F80EAE0700844CA079623C2
:1007B000002100F084B900F0004220F00040C10D9B
:1007C000C0F3160040F400007F2901DA00207047D2
:1007D000962903DCC1F19601C84001E096398840B2
:1007E000002AF4D04042704770B5C1F30A5201F0BC
:1007F00000450024C1F3130140F2FF3341F480119E
:100800009A4201DA002070BD40F233439A42A2F2CC
:10081000334203DC524200F0B6F800E090402C4333
:10082000F1D0404270BD00F0004230F000400AD0EC
:10083000C10D01F56071C0F3160042EA0151C20812
:1008400040071143704700200146704730B5041E31
:1008500071F1000404DB4FF00044404264EB0101FD
:10086000141E73F1000405DB1C464FF00043524296
:1008700063EB04038B4208BF824230BD30B5041ED7
:1008800071F1000404DB4FF00044404264EB0101CD
:10089000141E73F1000405DB1C464FF00043524266
:1008A00063EB0403994208BF904230BD01F000435E
:1008B00030B421F0004150EA010206D00A0DA2F541
:1008C0006072C1F31301002A02DC30BC00207047C3
:1008D000440F44EAC104C100E01830BC00EBC25030
:1008E00000F0E4B8002801DBC0F10040002901DB82
:1008F000C1F100418142704730B50B4601460020EE
:100900002022012409E021FA02F59D4205D303FAD1
:1009100002F5491B04FA02F52844151EA2F1010252
:10092000F1DC30BD2DE9F05F0546002092469B4684
:1009300088460646814640241BE0284641464746F5
:10094000224600F020F853465A46C01A914110D36F
:1009500011461846224600F089FA2D1A67EB010865
:100960004F4622460120002100F080FA17EB0009D3
:100970004E41201EA4F10104DFDC484631462A46E0
:100980004346BDE8F09F202A04DB203A21FA02F01A
:100990000021704721FA02F3D040C2F120029140B9
:1009A000084319467047000002681144137801603B
:1009B00018467047D1600449516104491162002111
:1009C0001161114600F078BAA9090008AF0E0008BD
:1009D000426842B1016811F8013B23B1521EC0E9DF
:1009E0000012184670470121C160881E7047426896
:1009F0005AB1C368016843B983688B4205D0491E68
:100A0000521CC0E90012002070474FF0FF307047C1
:100A10000FB4002300B589B00CA900910B996FF0B9
:100A20000042CB601E4B06931E4B07930423CDE977
:100A300001321D4A089202466B460020FFF75CFC1B
:100A400009B05DF814FB70B586B006464FF0FF3074
:100A50000091CDE90101002015460C460490324674
:100A6000694604A8FFF7D4FF02460498211825B16F
:100A700008B1084600E020462860049800280DD000
:100A8000002A02DD0098884208D0081B0094CDE9B6
:100A900001043246694604A8FFF7BAFF06B070BDEC
:100AA000D1090008EF090008AF0E00080029A8BF0F
:100AB0007047401C490008BF20F00100704710B487
:100AC000B0FA80FC00FA0CF050EA010404BF10BC3C
:100AD000704749B1CCF1200421FA04F411FA0CF169
:100AE00018BF012121430843A3EB0C01CB1D4FEAA2
:100AF00000614FEA102042BF002010BC704700EB9D
:100B0000C35010440029A4BF10BC7047401C4900CA
:100B100008BF20F0010010BC704710B5141E73F11F
:100B2000000408DA401C41F1000192185B411A43AD
:100B300001D120F0010010BD2DE9F04D92469B46F9
:100B400011B1B1FA81F202E0B0FA80F2203290469F
:100B500000F08CF904460F4640EA0A0041EA0B0116
:100B600053465A46084313D0114653EA010019D0A0
:100B7000C8F140025046FFF706FF05460E465046B4
:100B80005946424600F072F9084305D0012004E0BE
:100B900020463946BDE8F08D0020054346EAE07660
:100BA0002C4337430A986305E40AA0EB08000022AF
:100BB000FD0A44EA47540A3002D500200146E9E71D
:100BC000010510196941DDE9084500196941BDE8D1
:100BD000F04DA2E72DE9FE4F804681EA0300C00FE9
:100BE0000C46009021F0004123F00045B8EB0200D4
:100BF000A94105D24046214690461C460B46024676
:100C000023F00040104347D0270DC7F30A00C3F379
:100C10000A510290401A019040286BDAC3F3130086
:100C200040F4801B0098924620B10023D2EB030AC7
:100C300063EB0B0B01985946C0F14002504600F09F
:100C400015F906460D4650465946019A00F01DF921
:100C500010EB08006141002487EA115284EAE7732F
:100C60001A4340D0009A62B3019A012A4FEA075210
:100C700015DC001B61EB02014FF0004202EA075253
:100C8000CDE90042001C41F5801132462B46FFF7AA
:100C900053FF03B0BDE8F08F40462146F9E7001B43
:100CA00061EB0201001C41F5801300185B41201824
:100CB000A2F5001747EB030140EAD570B6196D4164
:100CC00011E06D084FEA360645EAC0754FEA075253
:100CD000001B61EB0201001C41F5801149084FEA3D
:100CE00030000019514132462B4603B0BDE8F04FA9
:100CF000FFF713BF0098012240000023D0EB02024F
:100D000063EBE073009821464FEAE074B8EB000013
:100D100061EB0401E9E783F000435BE781F0004108
:100D200058E72DE9F04D81EA030404F0004B21F06F
:100D3000004514464FF0000A23F0004150EA050236
:100D400020D054EA01021DD0C5F30A570246C5F36C
:100D50001303C1F31300C1F30A5640F4801543F4A2
:100D60008013A7EB0608101BD64608F2FD3873EB7C
:100D7000050002D308F1010801E092185B41B8F1C7
:100D8000000F03DA00200146BDE8F08D00204FF48B
:100D90008011064684460EE0171B73EB050705D34A
:100DA000121B63EB050306434CEA010C49084FEAAA
:100DB000300092185B4150EA0107EDD152EA03007E
:100DC00012D082EA040083EA0501084305D0101B13
:100DD000AB4106D20122002306E000224FF000437F
:100DE00002E06FF0010253101AEB06004CEB0851C1
:100DF00010EB0A0041EB0B01BDE8F04DFFF78DBE93
:100E00000EB540F2334202920022CDE90022134691
:100E1000FFF792FE03B000BDC1F30A52C1F3130104
:100E200040F2FF3341F480119A4202DA0020014679
:100E3000704740F233439A42A2F2334202DC5242FC
:100E4000FFF7A1BD00F012B8064C074D06E0E068C0
:100E500040F0010394E8070098471034AC42F6D301
:100E6000FFF748F9EC6100080C620008202A04DB57
:100E7000203A00FA02F1002070479140C2F12003AD
:100E800020FA03F3194390407047202A06DBCB1762
:100E9000203A41FA02F043EAE07306E041FA02F335
:100EA000D040C2F120029140084319467047C0B2B9
:100EB0004FF4F05100F096B92DE9F34F8BB04FF09D
:100EC000000801F10C000C464FF0010B46460DF1F5
:100ED000080A01906269012101989047051E2DD0F2
:100EE000252D2CD0216A8847C0B162690121019863
:100EF0009047216A88470028F7D1411E626901980E
:100F0000904700E0761CA1690B988847216A8847C2
:100F10000028F7D1E1690B988847DBE7A1690B98B6
:100F200088470746A84201D1761CD3E7E1690B98B0
:100F300088477F1C02D1B8F1000F6FD046E100272F
:100F400062693D463946019890472A2804D1626972
:100F50000121019890470125DFF8849262690121FF
:100F600001989047A0F130010A290AD24F45E5DCEB
:100F700007EB870100EB4107303FDFD445F0100558
:100F8000ECE7E90601D46FF000476C280AD04C2842
:100F900014D0682815D06A280DD074281CD07A285F
:100FA0001AD01DE062690121019890476C2802D097
:100FB00045F0040514E045F002050DE045F020057C
:100FC0000AE06269012101989047682802D045F043
:100FD000080505E045F40065626901210198904724
:100FE000C4E9015765283DD019DC58287AD00CDCBB
:100FF000452837D004DC252826D0412831D131E0DE
:1010000046282FD047282CD12CE05B2877D06128A8
:1010100028D063287CD0642823D15AE0D0E06F2800
:1010200048D008DC66281DD067281BD0692821D04D
:101030006E2816D127E0702845D0732868D075280F
:1010400047D078280DD14DE0A1690B988847054617
:1010500025283FF469AFE1690B9888476D1C3FF480
:101060006AAFB3E023466A466FF001000B99FFF7C1
:1010700043F99EE045F040006060A80723464FF02A
:10108000000236D43EE0E8077FF447AF2068011D38
:1010900021600068290501D506701BE7290701D5E5
:1010A000068017E7A90703D5F117C0E9006111E72A
:1010B00006600FE745F040006060A80723464FF048
:1010C000080216D41EE040F60E0125EA0100606019
:1010D00016E045F040006060A80723464FF00A0282
:1010E00007D40FE045F040006060A80708D523460C
:1010F00010226FF001000B99AFF3008059E007E078
:10110000234610226FF001000B99AFF3008050E0EE
:101110004FF000094F464B46632802D05B2806D0AB
:1011200040E0E80601D40120A06001273AE06269AE
:101130000121019890475E2805D14FF001096269AD
:10114000494601989047216939B900210A4653461A
:1011500043F82120491C0829FADBB0B3216969B999
:10116000C11700EBD16253110AEB830122F01F0279
:10117000821A01200B68904003430B6062690121D1
:10118000019890475D28E8D1B9F1000F09D00020FF
:10119000514651F82020D24341F82020401C082815
:1011A000F7DB02AB224600976FF001000B99AFF31B
:1011B000008000280CDA401C08D1BBF1000F05D0DC
:1011C0004FF0FF300DB0BDE8F08FFFE74046F9E784
:1011D000E90701D108F1010806444FF0000B79E658
:1011E000CCCCCC0C7F2801D9002208E0064A02EBC7
:1011F0005002C007127800D1120902F00F0201203C
:101200009040084070470000AC61000810B505A28E
:101210001421022001F00EFE02A21321002001F091
:1012200009FE10BD3030303030302E30300000003C
:1012300010B50024102406E00AA22146002001F087
:10124000F9FD601CC4B2152CF6DB112406E005A2E2
:101250002146022001F0EEFD601CC4B2162CF6DB24
:1012600010BD00003030303030302E303000000003
:1012700070B504460D461646EE2001F007FCB1207D
:1012800001F004FC232001F001FC200A01F0FEFB28
:10129000E0B201F0FBFB280A01F0F8FBE8B201F034
:1012A000F5FBF0B201F0F2FBFF2001F0EFFBFC20B8
:1012B00001F0ECFBFF2001F0E9FBFF2001F0E6FB71
:1012C00070BD000010B5044664B101220221104631
:1012D00001F0BEFC01200C4988700CA1104802F0FE
:1012E00076FE0BE000220221012001F0B1FC00207B
:1012F0000549887005A10A4802F069FE0248817814
:10130000084800F068F910BD180100204175746F9D
:101310005F4B6E6966653A6D6F6465320000000070
:101320000044004000D8000810B505A21521022095
:1013300001F080FD02A21421002001F07BFD10BD10
:101340003030303030302E303000000000BFFEE74B
:1013500010B52B480078401C2949087008460078D1
:1013600007284AD2DFE800F049040F1A25303B0075
:1013700024A21B21002001F05DFD22A21E210220DB
:1013800001F058FD39E020A21B21002001F052FDA0
:101390001DA21E21022001F04DFD2EE01BA21B21EB
:1013A000002001F047FD19A21E21022001F042FD9C
:1013B00023E017A21B21002001F03CFD14A21E21F6
:1013C000022001F037FD18E012A21B21002001F0DD
:1013D00031FD10A21E21022001F02CFD0DE00EA215
:1013E0001B21002001F026FD0BA21E21022001F08E
:1013F00021FD00200249087000BF00BF10BD0000A1
:10140000490000204735350047353600473537005D
:10141000473538004735390047353400704710B537
:10142000012000F015F810B1012000F00BF810BDFC
:1014300010B5022000F00CF810B1022000F002F804
:1014400010BD00000149086070470000140401400D
:10145000014600200022074B1B6803EA0102054BEE
:1014600014331B680B4013B10AB1012000E00020C7
:1014700070470000000401400149C8607047000047
:101480000020024070B50546042440F6FF7000F0CD
:101490008DF80446042C19D10D48006940F0020073
:1014A0000B49086108464561006940F04000086149
:1014B00040F6FF7000F07AF80446052C06D0044888
:1014C000006941F6FD71084001490861204670BD80
:1014D0000020024004200B49C96801F0010109B154
:1014E00001200EE00749C96801F0040109B102209A
:1014F00007E00449C96801F0100109B1032000E0C8
:1015000004207047002002400348006940F080003A
:101510000149086170470000002002400549096840
:1015200021F01001034A116011460968014311605E
:10153000704700000020024070B505460E460424A6
:101540000F2000F033F80446042C13D10A48006938
:1015500040F00100084908612E800F2000F026F8B5
:101560000446052C06D00448006941F6FE71084087
:1015700001490861204670BD00200240014600205C
:10158000034A106800F038000843106070470000FC
:101590000020024002480349486003484860704701
:1015A0002301674500200240AB89EFCD70B50446AA
:1015B0000425FFF78FFF054605E003F07DFBFFF7ED
:1015C00089FF0546641E012D01D1002CF5D104B917
:1015D0000525284670BD70B504460D460426FFF764
:1015E000D9FF3520FFF748FF2046FFF74BFF06469F
:1015F000042E04D129462046FFF79EFF0646FFF73A
:1016000083FF70BD0146087870472DE9F04102461E
:1016100000250026002000230024002791F803C0A5
:101620000CF00F0591F803C00CF0100CBCF1000F8A
:1016300003D091F802C04CEA050591F800C0BCF156
:10164000000F31D0146800202BE04FF0010C0CFA91
:1016500000F3B1F800C00CEA03069E4220D18300DB
:101660004FF00F0C0CFA03F7BC4305FA03FC4CEAED
:10167000040491F803C0BCF1280F06D14FF0010C0F
:101680000CFA00FCC2F814C00AE091F803C0BCF1E7
:10169000480F05D14FF0010C0CFA00FCC2F810C045
:1016A000401C0828D1D31460B1F800C0BCF1FF0F72
:1016B00034DD546800202EE000F1080C4FF00108E2
:1016C00008FA0CF3B1F800C00CEA03069E4221D1DF
:1016D00083004FF00F0C0CFA03F7BC4305FA03FC30
:1016E0004CEA040491F803C0BCF1280F05D100F1C5
:1016F000080C08FA0CF8C2F8148091F803C0BCF189
:10170000480F07D100F1080C4FF0010808FA0CF857
:10171000C2F81080401C0828CED35460BDE8F08188
:1017200070B5144802F06DF90446E11704EB9171AD
:101730008910A4EB810101B170BD2046E11704EBD3
:101740009171C1F38F05B5F5FA5F02DA0A480560B9
:1017500003E0A5F58040084908600848006806498C
:1017600009680844054908600020024924310880BE
:1017700000BFE1E700080040200000201400002026
:1017800000BFFEE708B54FF4C06000F045F8252023
:101790008DF8000001208DF80100684600F004F883
:1017A00008BD00BFFEE7704770B5002100230F227F
:1017B000C47804B3154C246804F4E064C4F5E06410
:1017C000210AC1F10403CA40447804FA03F1847881
:1017D0001440214309010E4C0678A155047804F009
:1017E0001F050124AC4005786D11AD0005F1E02521
:1017F000C5F8004109E0047804F01F050124AC405D
:10180000044D0678761145F8264070BD0CED00E0D9
:1018100000E400E080E100E002490143024A116077
:10182000704700000000FA050CED00E038B50446F2
:10183000002000906A4603A12046FEF7C1FC0098F4
:1018400038BD00002566000010B52D480078401C0A
:101850002B4908700846007806284DD2DFE800F0D2
:101860004C03111F2D3B27A21D21002001F0E2FA9D
:1018700024A22021022001F0DDFA23482349086038
:101880003BE023A21D21002001F0D4FA20A2202158
:10189000022001F0CFFA1F481C4908602DE01EA26B
:1018A0001D21002001F0C6FA1BA22021022001F018
:1018B000C1FA1A48154908601FE019A21D2100202D
:1018C00001F0B8FA16A22021022001F0B3FA15485F
:1018D0000E49086011E014A21D21002001F0AAFAAF
:1018E00011A22021022001F0A5FA10480749086042
:1018F00000200349087000E000BF00BF10BD0000D9
:101900004A000020583100000AD7233CE80000209C
:10191000583200000AD7A33C58350000CDCC4C3DCE
:1019200058313000CDCCCC3D58323000CDCC4C3E7F
:10193000704700001CB50024112001F0E6F90A20D0
:1019400003F0C8F9112001F0E0F90A2003F0C2F910
:1019500000BF09E022460321112001F0A2F9052071
:1019600003F0B8F9601CC4B2652CF3DB002001F071
:10197000CCF90A2003F0AEF9FFF75AFC222409E063
:101980004AA22146002001F055FA052003F0A2F9F1
:10199000601CC4B2272CF3DB262409E043A22146B5
:1019A000022001F047FA052003F094F9601CC4B24C
:1019B0002B2CF3DB162409E000222146022001F043
:1019C00047F9052003F086F9601CC4B21B2CF3DB39
:1019D00039A21B21002001F02DFA37A21E2102207E
:1019E00001F028FA35A21C21002001F023FA33A2CD
:1019F0001F21022001F01EFA31A21D21002001F05A
:101A000019FA2FA22021022001F014FA44F62060D6
:101A10002C490880642048604FF47A708860642004
:101A2000C86044F6206008614FF47A7088820846E6
:101A300001214268002001F034F92248028822A1E5
:101A4000684602F063FB6A461821002001F0F2F9B3
:101A50001C480221C268002001F023F919481AA18C
:101A6000C268684602F052FB6A462721002001F056
:101A7000E1F9144814A18268684602F047FB6A46FF
:101A80001921002001F0D6F900220D21022001F0D9
:101A9000DFF801220E21022001F0DAF80B480C4990
:101AA000086000200B4908701CBD00003030303049
:101AB00030302E303000000047353400B9D80000F7
:101AC0005831000000010020256400000AD7233CA3
:101AD000E800002005000020F0B585B004460F4660
:101AE0006078FE490870A078FD490870E079FD49EA
:101AF00008702079E17840EA0120FB490880A0794C
:101B0000617940EA0120F9490880207A0106607A6B
:101B100041EA0041A07A41EA0020E17A0843F44911
:101B20000860F0480078102802D1607AF149087006
:101B3000EA480078B1287DD1EB48008816287AD28F
:101B4000DFE810F01600DF008202DC0379000105F7
:101B50002C0561057900650569056D0588058C050D
:101B60009005940598057900790079009C05A005F9
:101B70000020E1490870DD480088C01E0D2878D299
:101B8000DFE800F007254378BCBCBCBCBCACB0B4FB
:101B9000B800D8480078C8B10120D84988750846EF
:101BA00040680A38486008464068002801DC002088
:101BB0004860D2480088D14949684843642190FB75
:101BC000F1F0CE4908610020CA49087097E0C94881
:101BD0000078C8B10120C9498875084640680A30B4
:101BE000486008464068642801DB64204860C348B8
:101BF0000088C24949684843642190FBF1F0BF491D
:101C000008610020BB49087079E0BA48007878B3D1
:101C10000120BA49C8750846C06864280CDC08462B
:101C2000C0680A38C8600846C068002812DC002076
:101C3000C8600FE0ECE3ECE3B048C068642809DD5D
:101C4000AE48C068B0F5967F04DCAC48C06819386F
:101C5000AA49C860A9488068A849C968484364215E
:101C600090FBF1F000B2A54988820020A1490870DC
:101C700045E043E09F48007878B301209F49C8754C
:101C80000846C068642804DA0846C0680A30C8609C
:101C900015E09A48C068642811DB9848C068B0F520
:101CA000967F0CDC9548C06819309449C860084696
:101CB000C068B0F5967F02DB4FF49670C8608F481D
:101CC00080688E49C9684843642190FBF1F000B2F6
:101CD0008A49888200208749087010E005208649DB
:101CE00008700CE00A208449087008E0012082494D
:101CF000087004E002208049087000E000BF00BFC7
:101D0000FBE201207C4908707D480078002873D1EF
:101D1000764800881C2870D2DFE800F06F0E192486
:101D2000DEDD2F445970859AAFC4DCDBDA6F6F6F4C
:101D30006F6F6F6F6F6F6FD96E48007818B10120A9
:101D40007049487002E000206E4948707AE16948A5
:101D5000007818B101206B49C87002E00020694981
:101D6000C8706FE16348007818B101206549487177
:101D700002E000206349487164E104F10800FFF7C4
:101D800055FD6049C860C868FEF74DFD05462A4606
:101D90000B465DA1684602F0B9F969465D4802F05C
:101DA00016F94FE104F10800FFF740FD55490861BD
:101DB0000869FEF738FD05462A460B4656A16846D7
:101DC00002F0A4F96946534802F001F93AE104F13E
:101DD0000800FFF72BFD4B4948614869FEF723FDDA
:101DE00005462A460B4650A1684602F08FF969461F
:101DF000484802F0ECF825E125E122E104F1080071
:101E0000FFF714FD3F4988618869FEF70CFD054620
:101E10002A460B464AA1684602F078F969463D48D1
:101E200002F0D5F80EE104F10800FFF7FFFC354998
:101E3000C861C869FEF7F7FC05462A460B4645A16E
:101E4000684602F063F96946324802F0C0F8F9E0EA
:101E500004F10800FFF7EAFC2A490862086AFEF765
:101E6000E2FC05462A460B463FA1684602F04EF9C1
:101E70006946284802F0ABF8E4E004F10800FFF7F7
:101E8000D5FC20494862486AFEF7CDFC05462A4643
:101E90000B463AA1684602F039F969461D4802F03E
:101EA00096F8CFE004F10800FFF7C0FC15498862FE
:101EB000886AFEF7B8FC05462A460B4634A16846F8
:101EC00002F024F96946134802F081F8BAE0A8E06C
:101ED00092E07CE066E0B0E0AEE0000006000020AA
:101EE00007000020090000200A0000200C0000204C
:101EF0001000002008000020050000200001002044
:101F00003800002018010020536166655F5A3A25A9
:101F10002E326600004400404B6E6966655F68695A
:101F200067683A252E3266004B6E6966655F626CA3
:101F30006F636B5F686967683A252E326600000040
:101F40004B6E6966655F626C6F636B5F583A252EF6
:101F5000326600004B6E6966655F626C6F636B5F33
:101F6000593A252E326600004B6E6966655F626CD9
:101F70006F636B5F5A3A252E32660000536F6674AA
:101F80005F6C696D69745F583A252E3266000000F7
:101F9000536F66745F6C696D69745F593A252E32B0
:101FA0006600000004F10800FFF740FCFB49C8622E
:101FB000C86AFEF738FC05462A460B46F8A1684673
:101FC00002F0A4F86946FB4802F001F83AE004F197
:101FD0000800FFF72BFCF1490863086BFEF723FCB0
:101FE00005462A460B46F4A1684602F08FF869467A
:101FF000F04801F0ECFF25E004F10800FFF716FCC3
:10200000E6494863486BFEF70EFC05462A460B4638
:10201000EEA1684602F07AF86946E64801F0D7FF7B
:1020200010E0EF48007818B10120DC49C87102E0E7
:102030000020DA49C87105E004E00120D749487260
:1020400000E000BF00BF3AE30220E6490870E6481E
:1020500000881B2870D2DFE800F06F0E272838397F
:10206000414C595A5B66677086ABBD6F6F6F6F6F7F
:10207000C1DCFBF9F800DD480078012813D0D8480E
:10208000007880B10120DA494871DA48407828B1F7
:102090000120D84988700020487004E00120D5490B
:1020A00048700020887027E126E1D0480078012898
:1020B0000AD0CB48007820B10120CD498871FFF7C4
:1020C000C3FB0020C649087016E115E1C748007837
:1020D000012802D00120C649C8710DE1C34800782B
:1020E000012805D00320BF4908700120C2490870AB
:1020F00002E1BE480078012807D0B948007820B135
:10210000FFF726F90020B6490870F5E0F4E0F3E0A7
:10211000B6480078012805D00120B849087004208D
:10212000B0490870E8E0E7E0B0480078012802D044
:102130000120B0490870DFE0DDE00120AB49087004
:102140000121AF4801F0C0FB0021AE4801F0BCFB0B
:1021500000220E21022000F07BFD01220D21022031
:1021600000F076FDC8E00020A04908700021A448D6
:1021700001F0AAFB00220D21022000F069FD0122DE
:102180000E21022000F064FD9948007858B9984863
:10219000407840B99648807828B99548C07810B9F9
:1021A0009348007918B10121964801F08DFBA3E016
:1021B00000208E4908700021914801F085FB002223
:1021C0000D21022000F044FD01220E21022000F02A
:1021D0003FFD91E00020834908708DE00122162127
:1021E000022000F035FD0121864801F06DFB80489A
:1021F000007828B900F07AFA7D48C0687C494863C5
:1022000001207B490870002048708870C8700871F0
:1022100072E001221721022000F01AFD0121794805
:1022200001F052FB7248407828B900F05FFA70481C
:1022300000696F49886300206D490870012048706B
:1022400000208870C870087156E039E01CE0FFE794
:1022500001221821022000F0FBFC0121694801F055
:1022600033FB6348807828B900F040FA6048406941
:102270005F49C86300205E4908704870012088707B
:102280000020C870087137E001221921022000F0F7
:10229000DFFC01215B4801F017FB5548C07828B9E5
:1022A00000F024FA524880695149086400205049DE
:1022B0000870487088700120C870002008711BE009
:1022C00001221A21022000F0C3FC01214D4801F037
:1022D000FBFA4748007928B900F008FA4448C06979
:1022E0004349486400204249087048708870C870AB
:1022F0000120087100E000BF00BFE0E10320394980
:1023000008703A480078002847D1374800880E28DE
:102310007DD2DFE800F07C07378695A1ADB9C5D145
:10232000DEEBFAF82E48007818B301203649087021
:1023300001220421032000F08BFC0122052103204F
:1023400000F086FC01220621032000F081FC01221E
:102350000721032000F07CFC01220821032000F06B
:1023600077FC0120284948708870C870087148714E
:1023700007E000202449087048708870C870087110
:102380004871DEE001211F4801F09EFA14480078F0
:10239000E0B301201C49C87142E0D3E018010020DD
:1023A000536F66745F6C696D69745F5A3A252E329B
:1023B0006600000000440040536F66745F6C696DF6
:1023C00069745F413A252E3266000000536F6674CF
:1023D0005F6C696D69745F423A252E3266000000B9
:1023E00008000020050000200C000020380000201C
:1023F00050010020BC0100201A00002040000020F5
:1024000000040040000800409801002002E097E02E
:1024100056E153E10020AB49C8710220AA49087077
:102420008FE00121A94801F04FFAA948007818B1BE
:102430000120A449887102E00220A349087080E0CD
:10244000A348007818B101209E49487003E000209D
:102450009C494870087074E09D48007818B10120CC
:102460009849887003E0002096498870087068E0F9
:102470009748007818B101209249C87003E0002005
:102480009049C87008705CE09148007818B101204C
:102490008C49087103E000208A490871087050E0F7
:1024A0008B48007818B101208649487103E000206C
:1024B00084494871087044E004F10800FFF7B6F958
:1024C0008049886001200877084680688149C86093
:1024D00037E004F10800FFF7A9F97A49C860012044
:1024E00048770846C0687B4908612AE004F1080083
:1024F000FFF79CF973490861012088770846006955
:10250000744948611DE00DE0FFE704F10800FFF7A2
:102510008DF96C4948610120C877084640696D49CA
:1025200088610EE004F10800FFF780F965498861D1
:10253000012081F82000084680696649C86100E0F2
:1025400000BF00BFBBE064480088012804D0022817
:102550000FD0032820D115E00120604948700020E9
:102560008870084640685E49086002205649087035
:1025700012E0012059498870002048700220524919
:10258000087009E004F10800FFF750F90546FEF76E
:1025900012F95249486000BF00BF90E005204A4947
:1025A00008704D48008804281AD006DC01280BD09A
:1025B00002280DD0032823D10EE0052814D01228BC
:1025C00016D013281CD117E006203F49087018E0E8
:1025D00007203D49087014E008203B49087010E0CE
:1025E0000920394908700CE000203749087008E0DC
:1025F00000203549087004E00A203349087000E0E3
:1026000000BF00BF5BE006202F49087057E008209C
:102610002D49087053E009202B4908704FE00A202B
:10262000294908702C480088012804D0022806D0C7
:1026300003280CD107E000202349087008E005209A
:102640002149087004E00B201F49087000E000BF1A
:1026500000BF34E00B201C49087030E00C201A4900
:1026600008702CE00D201849087028E00E2016494B
:10267000087024E00F201449087020E00720124958
:1026800008701CE010201049087016480078A0B9A6
:1026900011480088012802D002280CD105E0012051
:1026A000114988720020C87206E000200E49887225
:1026B0000120C87200BF00BF00BF00E000BF00BF24
:1026C00005B0F0BD98010020050000200008004082
:1026D00008000020500100200C00002040000020D5
:1026E0001C000020380000201801002000200349B1
:1026F00008800349086003490860704724080040C7
:10270000200000201400002000B5FFF7EFFF00209C
:102710000A49C860086148618861C8614863886384
:10272000C8630864486406498860C86008614861F5
:1027300088610449C860886100BD00005001002024
:1027400098010020BC01002029B1064AD269024349
:10275000044BDA6104E0034AD2698243014BDA6137
:10276000704700000010024029B1064A1269024376
:10277000044B1A6104E0034A12698243014B1A6157
:10278000704700000010024029B1064A92690243D6
:10279000044B9A6104E0034A92698243014B9A61B7
:1027A000704700000010024029B1064AD268024377
:1027B000044BDA6004E0034AD2688243014BDA60DA
:1027C00070470000001002400F48006840F0010010
:1027D0000D490860084640680C4908400A494860AD
:1027E000084600680A49084007490860084600682A
:1027F00020F4802008600846406820F4FE0048600D
:102800004FF41F0088607047001002400000FFF87E
:10281000FFFFF6FE30B500210022002400232D4DDD
:102820006D6805F00C0121B1042905D0082923D1D8
:1028300005E0294D056022E0274D05601FE0254D8C
:102840006D6805F47012234D6D6805F4803402251F
:1028500005EB92421CB9214D554305600BE01D4D1F
:102860006D6805F400351DB11C4D5543056002E04F
:10287000194D5543056002E0174D056000BF00BFCC
:10288000144D6D6805F0F0010909154D6B5C056884
:10289000DD4045600F4D6D6805F4E061090A104D9B
:1028A0006B5C4568DD4085600A4D6D6805F46051DC
:1028B000C90A0B4D6B5C4568DD40C560054D6D6810
:1028C00005F44041890B074D6B5CC568B5FBF3F51A
:1028D000056130BD0010024000127A0000093D0081
:1028E000600000207000002010B501460022002387
:1028F00000204A11012A02D1094C236806E0022A6D
:1029000002D1074C236A01E0054C636A01F01F0203
:10291000012494401C400CB1012000E0002010BDB7
:10292000001002400248406800F00C0070470000B0
:102930000010024001460020034A506820F0F000D9
:1029400008435060704700000010024001490860D1
:10295000704700000000424201460020034A5068D0
:1029600020F4E0600843506070470000001002400F
:1029700001460020034A506820F4605040EAC1003C
:10298000506070470010024001490866704700001F
:102990000000424202460020044B586820F47C109C
:1029A00042EA01031843014B58607047001002408F
:1029B00001460020034A506820F00300084350609D
:1029C000704700000010024010B50849887900F0F7
:1029D00039FC0649087800F00DF804498878FEF7BC
:1029E00071FC0249087901F011FA10BD18010020AC
:1029F0007047000010B5044664B10122114610462C
:102A000000F026F901200C4908700CA10F4801F0D4
:102A1000DEFA0BE000220121084600F019F900203F
:102A2000054908700AA1094801F0D1FA0248017865
:102A30000B48FEF7D0FD10BD1801002053616665FC
:102A40005F7A3A6D6F646532000000000044004018
:102A5000536166655F7A3A6D6F646531000000000E
:102A600000D4000810B50849C87900F0EBFB06490E
:102A70004878FFF7BFFF0449C878FEF723FC0249F6
:102A8000487901F0C3F910BD1801002010B50446C3
:102A90002146094801F0B5F900BF8021064801F040
:102AA000FFF80028F9D000BF4021034801F0F8F8F2
:102AB0000028F9D010BD00000038014010B50446D0
:102AC00003E02078FFF7E2FF641C20780028F8D1AB
:102AD00010BD000030B587B009498869FDF7A3FE35
:102AE000044608A022460B4608A1009002A801F067
:102AF0000DFB02A9094801F06AFA07B030BD0000D9
:102B0000500100207D5C725C6E0000007B226A6FC9
:102B10006761223A252E326625730000004400408A
:102B200030B587B00949C869FDF77DFE044608A0A5
:102B300022460B4608A1009002A801F0E7FA02A97C
:102B4000094801F044FA07B030BD000050010020F0
:102B50007D5C725C6E0000007B226A6F6762223AC5
:102B6000252E3266257300000044004030B587B042
:102B70000949C868FDF757FE044608A022460B46DF
:102B800008A1009002A801F0C1FA02A9094801F0C9
:102B90001EFA07B030BD0000500100207D5C725C61
:102BA0006E0000007B226A6F6778223A252E32661B
:102BB000257300000044004030B587B0094908691A
:102BC000FDF731FE044608A022460B4608A10090FE
:102BD00002A801F09BFA02A9094801F0F8F907B030
:102BE00030BD0000500100207D5C725C6E00000072
:102BF0007B226A6F6779223A252E326625730000A0
:102C00000044004030B587B009494869FDF70BFE24
:102C1000044608A022460B4608A1009002A801F035
:102C200075FA02A9094801F0D2F907B030BD0000D9
:102C3000500100207D5C725C6E0000007B226A6F98
:102C4000677A223A252E3266257300000044004040
:102C500070B504460D461646EE20FFF717FFB1206B
:102C6000FFF714FF1020FFF711FF200AFFF70EFFF8
:102C7000E0B2FFF70BFF280AFFF708FFE8B2FFF703
:102C800005FFF0B2FFF702FFFF20FFF7FFFEFC2079
:102C9000FFF7FCFEFF20FFF7F9FEFF20FFF7F6FE2F
:102CA00070BD70B505460E461446EE20FFF7EEFEE9
:102CB000B120FFF7EBFE1020FFF7E8FE280AFFF730
:102CC000E5FEE8B2FFF7E2FE300AFFF7DFFEF0B202
:102CD000FFF7DCFE200EFFF7D9FEC4F30740FFF735
:102CE000D5FEC4F30720FFF7D1FEE0B2FFF7CEFE1A
:102CF000FF20FFF7CBFEFC20FFF7C8FEFF20FFF709
:102D0000C5FEFF20FFF7C2FE70BD10B50446EE20E1
:102D1000FFF7BCFEB120FFF7B9FE0020FFF7B6FEBB
:102D2000200AFFF7B3FEE0B2FFF7B0FEFF20FFF787
:102D3000ADFEFC20FFF7AAFEFF20FFF7A7FEFF2055
:102D4000FFF7A4FE10BD10B500F002F810BD0000A2
:102D50000CB50020019000903448006840F48030A9
:102D60003249086000BF3148006800F4003000902C
:102D70000198401C0190009818B90198B0F5A06F17
:102D8000F1D12A48006800F4003010B10120009011
:102D900001E0002000900098012844D124480068F8
:102DA00040F01000224908600846006820F0030047
:102DB00008600846006840F0020008601B48406850
:102DC0001A4948600846406848600846406840F430
:102DD000806048600846406820F47C1048600846DF
:102DE000406840F4E81048600846006840F0807091
:102DF000086000BF0D48006800F000700028F9D09E
:102E00000A48406820F003000849486008464068C6
:102E100040F00200486000BF0448406800F00C0029
:102E20000828F9D101E000BFFEE70CBD0010024008
:102E30000020024070B504460D461646EE20FFF70E
:102E400025FEB120FFF722FE1020FFF71FFE200A0B
:102E5000FFF71CFEE0B2FFF719FE280AFFF716FE87
:102E6000E8B2FFF713FE3046FFF728FEFF20FFF71A
:102E70000DFEFC20FFF70AFEFF20FFF707FEFF20F4
:102E8000FFF704FE70BD10B5FFF79EFC0120FFF7B1
:102E90005DFD00BF2120FFF727FD0028FAD010209C
:102EA000FEF73CFB0220FEF769FB0020FFF742FD26
:102EB0000020FFF75DFD4FF48060FFF74DFD4FF4FC
:102EC00020110020FFF766FD0120FFF75DFD00BF28
:102ED0003920FFF709FD0028FAD00220FFF768FD2E
:102EE00000BFFFF71FFD0828FBD110BD10B510482B
:102EF000FEF788FB0F49887108468079C8710E4833
:102F0000FEF780FB0B4908700846007848700B48B4
:102F1000FEF778FB0749887008468078C870084833
:102F2000FEF770FB0349087108460079487110BD2F
:102F300000D000081801002000D4000800D80008C4
:102F400000DC000830B585B0FEF7EAFB13480068E6
:102F5000FDF728FC0546124801682846FDF740FBAE
:102F600004461048016C2046FDF7E2FA0D498861DD
:102F70008869FDF758FC044622460B460AA16846BC
:102F800001F0C4F86A4614210220FFF753FF6A4695
:102F900013210020FFF74EFF05B030BD14000020C4
:102FA000E8000020500100202530392E3266000054
:102FB00030B585B0FEF7B4FB13480068FDF7F2FBAF
:102FC0000546124801682846FDF70AFB04461048EA
:102FD000416C2046FDF7ACFA0D49C861C869FDF7A0
:102FE00022FC044622460B460AA1684601F08EF8F0
:102FF0006A4615210220FFF71DFF6A4614210020B2
:10300000FFF718FF05B030BD14000020E8000020D5
:10301000500100202530392E3266000030B585B0D1
:10302000FEF77EFB13480068FDF7BCFB054612481F
:1030300001682846FDF7D4FA04461048416B204643
:10304000FDF776FA0D49C860C868FDF7ECFB044649
:1030500022460B460AA1684601F058F86A4611213B
:103060000220FFF7E7FE6A4610210020FFF7E2FE8C
:1030700005B030BD14000020E80000205001002001
:103080002530392E3266000030B585B0FEF748FB9A
:1030900013480068FDF786FB05461248016828467C
:1030A000FDF79EFA04461048816B2046FDF740FA72
:1030B0000D4908610869FDF7B6FB044622460B4638
:1030C0000AA1684601F022F86A4612210220FFF7A1
:1030D000B1FE6A4611210020FFF7ACFE05B030BDFD
:1030E00014000020E8000020500100202530392E77
:1030F0003266000030B585B0FEF712FB1348006859
:10310000FDF750FB0546124801682846FDF768FAAE
:1031100004461048C16B2046FDF70AFA0D49486184
:103120004869FDF780FB044622460B460AA1684623
:1031300000F0ECFF6A4613210220FFF77BFE6A468F
:1031400012210020FFF776FE05B030BD14000020EC
:10315000E8000020500100202530392E32660000A2
:1031600030B585B02849C868FDF75DFB04462246A6
:103170000B4626A1684600F0C9FF6A4609210320D4
:10318000FFF758FE20490869FDF74DFB044622462B
:103190000B461EA1684600F0B9FF6A460A210320CB
:1031A000FFF748FE18494869FDF73DFB04462246F3
:1031B0000B4616A1684600F0A9FF6A460B210320C2
:1031C000FFF738FE10498869FDF72DFB04462246BB
:1031D0000B460EA1684600F099FF6A460C210320B9
:1031E000FFF728FE0849C869FDF71DFB0446224683
:1031F0000B4606A1684600F089FF6A460D210320B0
:10320000FFF718FE05B030BD500100202530392EE3
:103210003266000010B50446EE20FFF737FC93201D
:10322000FFF734FCE0B2FFF731FCFF20FFF72EFC84
:10323000FC20FFF72BFCFF20FFF728FCFF20FFF707
:1032400025FC10BD10B50446012C0BD10020FFF762
:10325000E1FF01221B211046FFF7FAFC01200A4979
:1032600088710AE06420FFF7D5FF00221B210120AE
:10327000FFF7EEFC00200449887103488179034878
:10328000FEF7A9F910BD00001801002000D00008C9
:103290000EB52948807D01281DD10020264988755A
:1032A000084626A10269684600F030FF6A461821E8
:1032B0000020FFF7BFFD2048012142680020FFF7F2
:1032C000F0FC1D481EA10269684600F01FFF694618
:1032D0001D4800F07CFE1848C07D01282AD100203E
:1032E0001549C8750846B0F9142014A1684600F0C5
:1032F0000DFF6A4619210020FFF79CFD0E480221B0
:10330000C2680020FFF7CDFC0B480CA1C2686846DC
:1033100000F0FCFE6A4627210020FFF78BFD0648DF
:10332000B0F9142009A1684600F0F0FE694606488D
:1033300000F04DFE0EBD00000001002025640000DD
:103340002478766D3A256400004400402478667243
:103350003A256400042808D14FF0E021096941F0C2
:1033600004014FF0E022116107E04FF0E02109690C
:1033700021F004014FF0E02211617047024800681B
:10338000401C0149086070470000002010B511483A
:10339000006840F001000F490860084640680E4987
:1033A00008400C494860084600680C490840094933
:1033B00008600846006820F48020086008464068DD
:1033C00020F4FE0048604FF41F008860FFF7BBFC4C
:1033D00010BD0000001002400000FFF8FFFFF6FEE5
:1033E00030B585B06949C868FDF71DFA0446224624
:1033F0000B4667A1684600F089FE6A46112102204B
:10340000FFF718FD6A4610210020FFF713FD5F4902
:103410000869FDF708FA044622460B465CA1684697
:1034200000F074FE6A4612210220FFF703FD6A468F
:1034300011210020FFF7FEFC54494869FDF7F3F91C
:10344000044622460B4652A1684600F05FFE6A46DB
:1034500013210220FFF7EEFC6A4612210020FFF73D
:10346000E9FC4A498869FDF7DEF9044622460B4625
:1034700047A1684600F04AFE6A4614210220FFF781
:10348000D9FC6A4613210020FFF7D4FC3F49C869E4
:10349000FDF7C9F9044622460B463DA1684600F0F7
:1034A00035FE6A4615210220FFF7C4FC6A46142146
:1034B0000020FFF7BFFC3549086AFDF7B4F9044660
:1034C00022460B4632A1684600F020FE6A462621BD
:1034D0000220FFF7AFFC6A4622210020FFF7AAFC7A
:1034E0002A49486AFDF79FF9044622460B4628A15F
:1034F000684600F00BFE6A4627210220FFF79AFC7F
:103500006A4623210020FFF795FC2049886AFDF7D1
:103510008AF9044622460B461DA1684600F0F6FDD6
:103520006A4628210220FFF785FC6A4624210020F4
:10353000FFF780FC1549C86AFDF775F90446224675
:103540000B4613A1684600F0E1FD6A4629210220DE
:10355000FFF770FC6A4625210020FFF76BFC0B4942
:10356000086BFDF760F9044622460B4608A1684641
:1035700000F0CCFD6A462A210220FFF75BFC6A4678
:1035800026210020FFF756FC05B030BD5001002079
:103590002530392E32660000F0B50C461546002164
:1035A0000022068C4FF6FE773E400684018B028C8B
:1035B0004FF60C7631407E1C06EA03162E4331434B
:1035C0007E1E324044F00106324301830284F0BD86
:1035D000F0B50C461546002100220026078C4FF658
:1035E000EF7C07EA0C070784018B028C4FF6FF770C
:1035F00007EA041640F6FF4739404FF6FF7707EA1F
:10360000033739434FF6FF7707EA052739434FF66B
:10361000DF773A4046F010073A4301830284F0BD59
:10362000F0B50C461546002100220026078C4FF607
:10363000FF6C07EA0C070784818B028C4FF6FF773B
:1036400007EA04264FF60C7739404FF6FF7707EA72
:1036500003172F4339434FF6FF573A4046F480771C
:103660003A4381830284F0BDF0B50C461546002133
:1036700000220026078C4EF6FF7C07EA0C07078421
:10368000818B028C4FF6FF7707EA043640F6FF473E
:1036900039404FF6FF7707EA052739434FF6FF77A2
:1036A00007EA033739434DF6FF773A4046F480572F
:1036B0003A4381830284F0BD10B50121880700F0F0
:1036C000A3F930B10121880700F0FBF8012001497E
:1036D000087010BD1900002010B501210F4800F03E
:1036E00093F9D0B10E480078401C0D4908700121B3
:1036F0000A4800F0E6F80A48007818B109A10E4817
:1037000000F065FC06480078022806D10BA10A48A3
:1037100000F05DFC00200249087010BD000400406C
:10372000480000207B22706F73223A6E756C6C7DAE
:103730005C725C6E00000000004400407B226D70F3
:103740006F223A6E756C6C7D5C725C6E00000000DE
:10375000044800880348008820F0010001490880DF
:1037600070470000100800401FB501210846FEF711
:10377000EBFF40F2CF70ADF8080041F61F40ADF806
:1037800004000020ADF80A00ADF8060001A94FF0D2
:10379000804000F0BFF901221146900700F085F942
:1037A0001C208DF8000002208DF8010003208DF808
:1037B000020001208DF803006846FDF7F5FF1FBDEC
:1037C0001FB501210220FEF7BFFF40F2CF70ADF818
:1037D000080041F61F40ADF804000020ADF80A00D3
:1037E000ADF8060001A90C4800F094F90122114639
:1037F000094800F05AF91D208DF8000002208DF8CC
:10380000010003208DF8020001208DF803006846B6
:10381000FDF7CAFF1FBD00000004004000B587B0DF
:1038200001210420FEF790FF01210820FEF7ACFFE4
:10383000C020ADF8180004208DF81B0003208DF87F
:103840001A0006A91B48FDF7E0FE1B4800F048F8E7
:1038500003A800F07DF90020ADF80C004FF6FF70D2
:10386000ADF810000020ADF81200ADF80E0003A96D
:10387000114800F04FF900231A4603210E4800F0CA
:103880009FF8684600F008F90620ADF80800694680
:10389000094800F0CAF80121074800F00FF800209D
:1038A0000549243108800121034800F00DF807B0D4
:1038B00000BD0000000C014000080040CA43028225
:1038C0007047CA430282704721B1028842F0010268
:1038D000028004E0028840F2FE331A400280704702
:1038E00010B504462F48844208D10121C014FEF7C8
:1038F0005BFF0021E014FEF757FF52E0B4F1804F68
:1039000008D101210846FEF72FFF00210120FEF714
:103910002BFF46E02448844208D101210220FEF713
:1039200023FF00210220FEF71FFF3AE01F488442D8
:1039300008D101210420FEF717FF00210420FEF723
:1039400013FF2EE01A48844208D101210820FEF717
:103950000BFF00210820FEF707FF22E015488442F4
:1039600008D101211020FEF7FFFE00211020FEF7F4
:10397000FBFE16E01048844208D101212020FEF70A
:10398000F3FE00212020FEF7EFFE0AE00B48844200
:1039900007D101214014FEF707FF00216014FEF754
:1039A00003FF10BD002C014000040040000800404F
:1039B000000C0040001000400014004000340140A2
:1039C000F0B50C4615461E46002100220023018951
:1039D000028B038C4FF6F877394021434FF6FC47B2
:1039E0003A4040F201173A434FF6DD773B404FF63D
:1039F000FF7707EA06172F433B43018102830384C5
:103A0000F0BD0146888C704730B502460020002387
:103A10000024158A05EA0103958905EA010413B11A
:103A20000CB1012000E0002030BD70B505460C4609
:103A3000208850B92389A28861882846FFF7ACFD09
:103A4000E188284600F03AF825E0208804280AD1C9
:103A50002389A28861882846FFF7BAFDE1882846B5
:103A600000F035F817E0208808280AD12389A288B9
:103A700061882846FFF7D4FDE188284600F034F835
:103A800009E02389A28861882846FFF7EDFDE188D7
:103A9000284600F032F870BD0021018041800121EC
:103AA00081800021C180018170471AB183890B4355
:103AB000838102E083898B4383817047028B4FF6B9
:103AC000F3731A400283028B0A4302837047028B0E
:103AD0004FF2FF331A400283028B4FF6FF7303EA63
:103AE00001231A4302837047828B4FF6F3731A4007
:103AF0008283828B0A4382837047828B4FF2FF332B
:103B00001A408283828B4FF6FF7303EA01231A4324
:103B100082837047028802F08F020280CA884B8835
:103B20001A4303881A4302808A8882850A8802859C
:103B3000054A904202D0054A904201D10A7A028693
:103B40000122828270470000002C014000340140B5
:103B50004FF6FF71818000210180C1804180017298
:103B60007047000010B540F22551064800F0A5F856
:103B700038B1044800F040F9C4B2204602F0EAF837
:103B800000BF10BD0038014010B540F22551134868
:103B900000F093F800B3114800F02EF9C4B2202CC5
:103BA00001DD7E2C03DD0D2C01D00A2C14D10C4834
:103BB0000C49097844540B480078401C09490870A6
:103BC00008460078B0F5006F01DB002008700A2C71
:103BD00002D101200449087010BD000000440040DB
:103BE000D8010020740000200400002021B1828947
:103BF00042F40052828104E082894DF6FF731A403C
:103C00008281704710B504462048844209D10121C1
:103C10008803FEF7C9FD00214FF48040FEF7C4FD84
:103C200032E01B48844209D101214804FEF79CFD83
:103C300000214FF40030FEF797FD25E0154884423F
:103C400009D101218804FEF78FFD00214FF4802067
:103C5000FEF78AFD18E01048844209D10121C8040A
:103C6000FEF782FD00214FF40020FEF77DFD0BE002
:103C70000A48844208D101210805FEF775FD00219C
:103C80004FF48010FEF770FD10BD000000380140B9
:103C90000044004000480040004C004000500040FC
:103CA00002460020B1F5007F00D100BF13880B4011
:103CB0000BB1012000E00020704770B502460024DF
:103CC00000230025002040F66A16B14200D100BF53
:103CD000C1F3421501F01F03012606FA03F3012D7B
:103CE00002D19689334006E0022D02D1168A334074
:103CF00001E0968A33400C12012606FA04F4168875
:103D0000344013B10CB1012000E0002070BDF0B5CB
:103D10000346002400260025002040F66A17B94219
:103D200000D100BF1846C1F3421401F01F0601275D
:103D300007FA06F5012C01D10C3004E0022C01D168
:103D4000103000E014301AB107682F43076002E01A
:103D50000768AF430760F0BD2DE9F04786B0054620
:103D60000E460024A24600BF00BF0027B08900B164
:103D700000BF2F462C8A4CF6FF700440F0880443A5
:103D80002C82AC894EF6F3100440B0883189084388
:103D9000718908430443AC81AC8A4FF6FF4004406C
:103DA000B0890443AC8201A8FEF734FD1148874274
:103DB00002D1DDF810A001E0DDF80CA00AEBCA008A
:103DC00000EB0A1031688900B0FBF1F86420B8FB01
:103DD000F0F004012009642101FB1089322000EB7E
:103DE0000910B0FBF1F000F00F0004432C8106B085
:103DF000BDE8F0870038014001468888C0F308001C
:103E00007047C1F3080282807047000010B5044675
:103E100064B1012203211046FEF71AFF01200C496C
:103E200008710CA10E4800F0D2F80BE0002203212B
:103E30000120FEF70DFF00200549087109A108487F
:103E400000F0C5F8024801790948FDF7C4FB10BD30
:103E500018010020556E69743A6D6F646532000078
:103E600000440040556E69743A6D6F64653100001E
:103E700000DC000800BFFEE710B586B00446012153
:103E80000520FEF781FC01218803FEF77DFC4FF43D
:103E90000070ADF8140018208DF8170003208DF87D
:103EA000160005A91648FDF7B0FB4FF48060ADF889
:103EB000140004208DF8170005A91148FDF7A5FB93
:103EC0001048FFF79FFE01940020ADF80800ADF800
:103ED0000A00ADF80C00ADF810000C20ADF80E0093
:103EE00001A90848FFF738FF012240F22551054893
:103EF000FFF70DFF01210348FFF778FE06B010BD64
:103F0000000801400038014010B586B00446012188
:103F10000520FEF739FC01212248FEF715FC04209C
:103F2000ADF8140003208DF8160018208DF8170046
:103F300005A91D48FDF769FB0820ADF81400042011
:103F40008DF8170005A91848FDF75FFB26208DF8AE
:103F5000000001208DF8010000208DF802000120F2
:103F60008DF803006846FDF71FFC01940020ADF8B2
:103F70000800ADF80A00ADF80C00ADF810000C20F8
:103F8000ADF80E0001A90948FFF7E6FE012240F254
:103F900025510648FFF7BBFE01210448FFF726FE26
:103FA00006B010BD010002000008014000440040BE
:103FB00070B504460D4629462046FFF722FF00BF94
:103FC00080212046FFF76CFE0028F9D070BD70B547
:103FD00005460C4604E021782846FFF7E9FF641CFB
:103FE00020780028F7D100BF40212846FFF758FE6F
:103FF0000028F9D070BD10B501220B210020FDF77B
:1040000037F901221C211046FDF732F901222B213C
:104010000220FDF72DF9012221210620FDF728F9C4
:10402000012205210A20FDF723F901220D210B2091
:10403000FDF71EF9012209210D20FDF719F90122D2
:104040000C210E20FDF714F910BD10B500220B2134
:104050001046FDF70DF900221C210120FDF708F99B
:1040600000222B210220FDF703F900222121062046
:10407000FDF7FEF8002205210A20FDF7F9F80022DD
:104080000D210B20FDF7F4F8002209210D20FDF78A
:10409000EFF800220C210E20FDF7EAF810BD000019
:1040A00010B505A211210220FEF7C4FE02A21021C4
:1040B0000020FEF7BFFE10BD3030303030302E30E3
:1040C0003000000010B505A212210220FEF7B2FE5A
:1040D00002A211210020FEF7ADFE10BD30303030BD
:1040E00030302E303000000010B505A21321022020
:1040F000FEF7A0FE02A212210020FEF79BFE10BDDB
:104100003030303030302E30300000000FB4084BEB
:1041100010B504A902AA039800F03CF9044602A9CC
:10412000002000F0CEFC204610BC5DF814FB00001F
:10413000C34A000830B528B1144C031F0020216881
:104140000A4605E0084630BD9A4203D81046526838
:10415000002AF9D1002800D041680BD00468A3EBF5
:104160000005A54204D11B681C440346046002E01C
:10417000436000E023603AB11C68D51AA54203D120
:1041800015682C441C6052685A6030BD80000020C5
:104190002DE9F04782460F4C10480D4E0E4F001B84
:1041A0004FF0000820F007054FF0010900221146EA
:1041B000504600F0CDFD002802D1306810B100203B
:1041C000BDE8F0873C60C4E90058C6F80090EDE710
:1041D00084000020E40B002080000020E01B002071
:1041E00002E008C8121F08C1002AFAD170477047C0
:1041F000002001E001C1121F002AFBD1704700001E
:104200002DE9FF5F82B00021DDE90430020DDDF809
:1042100040B0034318D044F61050A2F2FF3242439C
:104220001514119801281FD0A5EB0B00401C5FEA64
:10423000000A4FF000064E4FDFF83891B046504666
:1042400015D5CAF1000413E0119801244AA30128EE
:1042500001D16FEA0B010298119AC0E90031C0E95F
:10426000024206B0BDE8F09FCBF10000DFE7044654
:104270000021404A491842EB0450CDE9001012E0F9
:10428000E00707D032463B4640464946FCF718FA5D
:104290008046894632463B4610461946FCF710FADE
:1042A00006460F466410002CEAD1DDE90401DDE981
:1042B0000023BAF1000F06DAFCF702FA42464B4639
:1042C000FCF7FEF905E0FCF72CFD42464B46FCF7F7
:1042D00028FD04460E460022284BFCF7CFFA03D8EF
:1042E0004FF0FF30014607E00022254B20463146C3
:1042F000FCF770FCFCF790FD102409E0002C0ADBB1
:104300000A220023FCF70EFB039B30321A55641E71
:1043100050EA0102F2D1641C039AC4F1110314445F
:10432000119A012A03D0012208430DD10AE0084363
:1043300004D000204FF0110B119072E7A3EB0B0596
:104340006D1E0DE05B4504DD4FF0000205F1010537
:1043500004E003DA4FF00002A5F10105002AECD0D9
:1043600002981199C0E90231C0E9004579E70000DF
:10437000000014400000F03F300000000000F04357
:104380000000E03F30380A2801D2012070470020A9
:10439000704700002DE9FF4F95B09B4689460646C1
:1043A00000250FE2252877D100242746F84A01216D
:1043B000059400E0044316F8013F203B01FA03F0A6
:1043C0001042F7D130782A2811D06FF02F033078BF
:1043D000A0F13002092A16D8059A44F0020402EB33
:1043E000820203EB42021044761C0590EFE759F875
:1043F000042B0592002A03DA504244F4005405903D
:1044000044F00204761C30782E2816D116F8010FDD
:1044100044F004042A280DD06FF02F023078A0F168
:104420003003092B09D807EB870302EB4303C718B6
:10443000761CF3E759F8047B761C30786C280FD093
:1044400006DC4C2817D068280DD06A2814D104E067
:10445000742810D07A280FD10DE044F400140AE03B
:1044600044F4801401E044F440147278824202D192
:1044700004F58014761C761C307866280BD013DC8B
:10448000582877D009DC002875D04528F6D0462872
:10449000F4D047281AD19DE118E0632835D064286C
:1044A00079D0652812D195E1702873D008DC67288F
:1044B000F1D069286FD06E280DD06F2806D1B5E0F5
:1044C00073282CD0752875D0782874D05A4617993F
:1044D00090476D1C75E1C4F30250022809D00328EF
:1044E0000DD0D9F8001004280DD00D6009F1040991
:1044F00067E1D9F80010EA17C1E90052F6E7D9F8E8
:1045000000100D80F2E70D70F0E719F8041B8DF82C
:10451000001000208DF80100EA46012003E059F860
:1045200004AB4FF0FF3061074FF0000102D40DE003
:1045300008F101018846B9420FDA8045F8DB1AF824
:1045400008100029F4D108E008F1010188468142F1
:10455000FADB1AF808100029F6D105985B46A0EBA3
:10456000080721463846179A00F094FA284400EBD1
:10457000080507E04DE029E10DE01AF8010B5A4665
:1045800017999047B8F10108F7D25B4621463846A3
:10459000179A13E142E00A220092C4F302524FF04C
:1045A000000A022A08D059F804CB032A4FEAEC711A
:1045B0000AD00DE029E02AE009F1070121F0070205
:1045C000F2E802C1914609E00FFA8CFC4FEAEC7167
:1045D000042A03D14FFA8CFC4FEAEC71002907DA68
:1045E0000A460021DCF1000C61EB02012D2202E001
:1045F000220504D52B228DF80420012203E0E207D6
:1046000001D02022F7E7904659E00A2102E010226B
:104610000DE010214FF0000A00910BE010224FF046
:10462000000A44F004040827009203E008224FF037
:10463000000A0092C4F30252022A05D059F804CBB2
:104640000021032A08D009E009F1070121F007023F
:10465000F2E802C1914605E01FFA8CFC042A01D160
:104660000CF0FF0C4FF00008220728D5702806D068
:10467000009B83F0100353EA0A0305D00EE04022AA
:104680008DF80420012208E05CEA010206D0302205
:104690008DF804208DF8050002229046009B83F0DF
:1046A000080353EA0A030AD15CEA010201D1620756
:1046B00005D530228DF804204FF001087F1E5828C0
:1046C00004D034A003900EA802900DE036A0F9E7C4
:1046D00053466046009AFCF725F984460398825CAD
:1046E0000298401E029002705CEA0100F0D102982C
:1046F00006A9081A00F1200A600702D524F48034C4
:1047000000E00127574502DDA7EB0A0000E000208A
:1047100000EB0A01009005984144401A0590E0031F
:1047200006D45B462146179A059800F0B3F9054474
:10473000002706E001A85A46C05D179990476D1CF6
:104740007F1C4745F6DBE0030CD55B462146179AF4
:10475000059800F09FF9054404E030205A46179967
:1047600090476D1C0099481E00900029F5DC08E078
:10477000029802995A460078491C0291179990476D
:104780006D1CBAF10001AAF1010AF1DC65E100003B
:104790000928010030313233343536373839616217
:1047A00063646566000000003031323334353637DB
:1047B00038394142434445460000000000F058F9B2
:1047C0000544761C307800287FF4ECAD19B02846FB
:1047D000BDE8F08F620700D4062709F1070222F036
:1047E000070CFCE80223E14603F000485FEA080CEE
:1047F00002D00FF2702C0DE05FEA045C02D50FF2DC
:10480000682C07E05FEAC47C02D00FF2602C01E064
:10481000AFF2700C4FF0FF3823F00043CDF850C0DA
:1048200065280CD006DC452809D046281DD047282D
:104830003DD13DE0662818D067287ED138E00021C0
:10484000112F01DB112000E0781CCDE9000106A941
:104850000EA8FFF7D5FCDDE90F010E9A03910021A8
:10486000009207F1010A04914DE04FF000400097DB
:10487000CDE9011006A90EA8FFF7C2FCDDE90F0281
:1048800003920E9B11990022DDF80CA00093049274
:1048900011B9791C00EB010AB7EB0A0004D4C0F18E
:1048A000FF3007F1010A0490AAEB0700019044E0F1
:1048B000012F00DA01270021112F01DD112000E076
:1048C0003846CDE9000106A90EA8FFF799FCDDE9FD
:1048D0000F010E9A0391002104910092BA4621071C
:1048E0000CD40399514500DA8A46BAF1010F05DD6F
:1048F000009AAAF10101515C302908D0B84202DACD
:1049000010F1040F06DA0121CDE9011015E0AAF13A
:104910000101E9E7002805DC049901440491AAEBB0
:10492000000102E0411C514500DD8A460499401A0D
:10493000401C01904FF000400290200704D40198E1
:10494000504501DBCDF8048000208DF84F0002981F
:104950000DF14F07B0F1004F25D02B200E9002989B
:104960004FF0020800280CDA404202902D200E90F1
:1049700007E00A210298FBF7BFFF3031029007F8E9
:10498000011DB8F10001A8F10108F2DC029800282D
:10499000EFD1791E0E980870307800F0200040F0BA
:1049A000450007F8020D12A8C01B00F10708149873
:1049B000007800B1012000EB0A01019801EBE071E1
:1049C00005984144401A401E0590E00306D45B461A
:1049D0002146179A059800F05DF805441498007870
:1049E00018B15A46179990476D1CE00324D55B46D1
:1049F0002146179A059800F04DF805441CE00498EC
:104A0000002807DBDDE90301884203DD0098405CF4
:104A1000179901E0179930205A469047049805F1FC
:104A20000105401C04900198401E019004D12E20E5
:104A30005A46179990476D1CBAF10001AAF1010A74
:104A4000DDDC05E017F8010B5A46179990476D1CFD
:104A5000B8F10001A8F10108F4DC5B462146179A81
:104A60000598ABE62D0000002B00000020000000A0
:104A70002DE9F041044600251E461746880404D45B
:104A800005E039462020B0476D1C641EF9D5284644
:104A9000BDE8F0812DE9F041044600251E46904610
:104AA000C80301D5302700E02027880404D505E09D
:104AB00041463846B0476D1C641EF9D52846BDE80E
:104AC000F0810A68531C0B6010707047014609B1F1
:104AD000086808B90020704702E08868401C8860B8
:104AE00041B1D1E90120904204D28A680868805C13
:104AF0002028F2DDD1E90120904202D18868401ED1
:104B000088600846E7E7000070B50446002522E00B
:104B10002568A08900F4807020B9A06810B1A06851
:104B2000FFF7F2FFA08900F4807028B9206918B15E
:104B30000A4A206951688847A08900F4007028B9A2
:104B4000206A18B1054A206A5168884703484168BD
:104B5000204688472C46002CDAD170BD5400002036
:104B600070B504460D4600222946204600F0C6F8DE
:104B700070BD70B5044628202168884705461DB1E0
:104B800028212846FBF7EDFA284670BD10B50446EB
:104B900000221146204600F001F810BD2DE9F04337
:104BA00089B004460D4617461C2102A8FBF7D9FA26
:104BB000002600202C490860486004B934E00294C3
:104BC0002046FBF7D9FA401C039000200490274AA6
:104BD00007CA06AB07C32548FFF7CBFF064606B951
:104BE00022E002A801F026F98146FFF76FFF804618
:104BF0004146304600F0B4FF00B915E05FB102A8AD
:104C0000FFF764FFDDE90310884203D2049902989C
:104C1000405C00B108E01DB1049902980844286086
:104C2000304609B0BDE8F08316B13046FFF76CFF9F
:104C3000C4B1009400200190DDE90310884202D243
:104C40000498019004E0039810B10398401E01906D
:104C50001DB1DDE90001084428600348DDE90012C8
:104C600006C000BF0020DCE74C00002054000020FC
:104C700070B504460D4604B10DB9012070BDAC42BB
:104C800001D10020FAE705E0207808B90020F5E717
:104C9000641C6D1C2078FBF745FA06462878FBF764
:104CA00041FA8642F0D02078FBF73CFA0646287895
:104CB000FBF738FA301AE1E708B500200090FF2032
:104CC000009002E00098401E009000980028F9D162
:104CD00008BD0000074A116808E00A22B0FBF2F2A2
:104CE000044B1B685B1A9A4200D200E0F5E700BF54
:104CF00070470000000000202E2070472DE9F04191
:104D000005460E461746002405B116B90020BDE839
:104D1000F081AC685FB100E024688CB1206A78B1A2
:104D20003046216AFBF72FFA0028F5D108E000E0B1
:104D300024682CB13046216AFFF79AFF0028F7D18A
:104D40000CB1206A08B90020E1E72046DFE7000047
:104D50002DE9F0410B3020F00706104D19E02068D6
:104D6000B04215D3B0420AD9871B201DD4F8048065
:104D7000FBF7DEF9A019C0E90078286004E060685C
:104D80002860201DFBF7D4F9201D2660BDE8F081C6
:104D9000251D2C68002CE2D10020F7E780000020C0
:104DA0000024FEF770F8FCF7EDFC01F06FF84FF40B
:104DB000E130FFF761F84FF4E130FFF7A5F800F0BC
:104DC000E1FFFEF7D1FCFEF7FBFCFEF727FD00211B
:104DD000FE48FEF779FD4FF49670FFF77BFFFCF776
:104DE000A9FD40F25740FA490860FEF77FF8F948FC
:104DF000007820B9FDF7E8FD0120F6490870E7E3E7
:104E00004021F54800F04AFF0446002C0BDDF24833
:104E10004078072807D02146EF48FCF75DFE402187
:104E2000ED48FBF79EF9ED48007808B101F05EF817
:104E3000EB480078012802D1FFF7DDF801E0FFF729
:104E400004F9E848007811287ED2DFE810F011005C
:104E5000440063006E0283039B039C03BE039D0317
:104E60009E039F03B903BA03BB03BC03BD034F00FA
:104E7000FEF70EFADA480078012802D1FEF7B0FA00
:104E800018E0D948007808B1FEF7C8F8D64840784D
:104E900008B1FEF7F9F8D448807808B1FEF72AF98E
:104EA000D148C07808B1FEF74DF8CF48007908B175
:104EB000FEF77EF8CD4A15210020FDF7BBFFC44860
:104EC000CBA10268CB48FFF721F9CA4A162100207E
:104ED000FDF7B0FF7BE3C848407A30B1FDF774FDC1
:104EE0000020C5494872BF49087070E3BC4800788B
:104EF00078B9C148807A20B1FDF7B4FD0020B949E6
:104F00000870BD48C07A20B1FDF75EFD0020B549AC
:104F100008705CE3B248007800287DD1B248007880
:104F2000002865D0B0484079B0B9AF48C07998B989
:104F3000B24A11685068FBF7D5FC0BD0AA48C0688C
:104F4000A9494863AD4800E040E30068AB494860C8
:104F5000FDF7CCFBFEF762F8A3484079D0B1A24838
:104F6000C079B8B9A648407818B19F48C068A4492C
:104F70004860A348807818B19B48C068A049886001
:104F8000FDF7B4FB002098494863FFF789F800203B
:104F9000954948719448407948B99348C07930B1EF
:104FA000FDF7B2FBFCF744F900208F49C871944823
:104FB000007898B1924A91685068FBF7B9FA0546B3
:104FC0004FF08041FBF73EFB8D49C8600846C06842
:104FD0008549486300208A49087071E18948007852
:104FE0000028FAD0FDF7C2FD00208649087067E16D
:104FF0007D48407800286BD07B484079C8B97A4812
:10500000C079B0B97D4A11689068FBF76BFC0ED08F
:1050100075480069744900E06FE18863774800686B
:105020007649886000207849C860FDF75FFBFEF78D
:105030002BF86D484079E8B16B48C079D0B9704819
:10504000407818B1684800696D4908616C488078FB
:1050500018B1654800696A494861FDF747FB0020BF
:10506000614988631420FFF735FEFFF72BF8002015
:105070005D4948715C48407948B95B48C07930B1B6
:10508000FDF742FBFCF7D4F800205749C8715C4893
:10509000007898B15A4A51691069FBF749FA0546F8
:1050A0004FF08041FBF7CEFA554988610846806988
:1050B0004D49886300205249087001E15148007849
:1050C00000288AD0FDF778FD00204E490870F7E0EF
:1050D00045488078F0B344484079B8B94248C0792F
:1050E000A0B9464A1168D068FBF7FCFB0CD03E48DB
:1050F00040693D49C863414800684049C860002094
:1051000041490861FDF7F2FAFDF7F4FF36484079AE
:1051100088B13548C07970B9FDF7E8FA0020324906
:10512000C863394908611420FFF7D4FDFEF7DCFF9E
:1051300000202D4948712C48407948B92A48C07947
:1051400030B1FDF7E1FAFCF773F800202649C87189
:105150002C4800E008E000780028AED0FDF752FDB2
:10516000002028490870ABE01F48C07860B31E4893
:105170004079B8B91C48C079A0B9204A11681069B3
:10518000FBF7B0FB0CD018488069174908641B482E
:1051900000681A49086100201B494861FDF7A6FA1A
:1051A000FDF7D0FE1048407960B10F48C07948B98A
:1051B000FDF79CFA00200C490864FCF727F8002052
:1051C00009494871084821E035E000000008004026
:1051D0001C0000201800002088000020040000208F
:1051E000380000200500002050010020240000208D
:1051F00025640000DC00002018010020E8000020E9
:10520000BC0100201900002098010020407948B915
:10521000F048C07930B1FDF777FAFCF709F80020C3
:10522000EC49C871EC480078F0B3FDF753FC00205E
:10523000E949087044E0E7480079A8B3E5484079B7
:10524000B8B9E448C079A0B9E44A11685069FBF7DD
:1052500049FB0CD0DF48C069DE494864DF4800687C
:10526000DE4948610020DE498861FDF73FFAFDF71D
:105270009FFED848407960B1D648C07948B9FDF75B
:1052800035FA0020D3494864FCF74EF80020D14994
:105290004871D048407958B9CE48C07940B1FDF73F
:1052A00033FAFBF7C5FF00E00AE00020C949C871E6
:1052B000C948007820B1FDF733FC0020C6490870CA
:1052C000C448007858B9C348407840B9C14880788C
:1052D00028B9C048C07810B9BE48007920B1012172
:1052E0008807FEF7F1FA0EE000214FF08040FEF74C
:1052F000EBFA0020B849087005E00121B948FEF733
:10530000E3FAFEF76DF8B84A1B210220FDF792FD83
:10531000B648AFF224110268B548FEF7F7FEB44A6A
:105320001C210220FDF786FD51E10021B148FEF766
:10533000CBFAB1480078C0B3002201210320FDF769
:1053400087FC002204210320FDF782FC00220521B6
:105350000320FDF77DFC002206210320FDF778FCE9
:10536000002207210320FDF773FC002208210320FF
:10537000FDF76EFC00209A49087048708870C8706C
:10538000087148719348C0689249486308460069AB
:10539000886308464069C86308468069086408460F
:1053A000C06948640020944908708D48407888B9E5
:1053B0008B48807870B98A48C07858B98848007995
:1053C00040B98748407928B9002201210320FDF720
:1053D0003FFC04E0012211460320FDF739FC804820
:1053E0008079002879D07E48407830B9FDF77EF981
:1053F00000207849C860486311E07948007F60B1B7
:10540000FDF774F9764880687249C860744880680E
:10541000486300207249087701E0FDF767F970489A
:10542000807830B9FDF762F900206A490861886325
:1054300011E06B48407F60B1FDF758F96848C068DB
:10544000644908616648C0688863002064494877F9
:1054500001E0FDF74BF96248C07830B9FDF746F935
:1054600000205C494861C86311E05D48807F60B1FD
:10547000FDF73CF95A4800695649486158480069A7
:10548000C86300205649887701E0FDF72FF954489A
:10549000007930B9FDF72AF900204E498861086487
:1054A00011E04F48C07F60B1FDF720F94C484069DA
:1054B000484988614A484069086400204849C877DB
:1054C00001E0FDF713F94648407938B9FDF70EF9C8
:1054D00000204049C861486414E019E0404890F851
:1054E000200068B1FDF702F93D4880693949C8617B
:1054F0003B48806948640020394981F8200001E078
:10550000FDF7F4F800203649887102203B49087005
:105510003348C079C8B12F48406B2E49C86008464F
:10552000806B08610846C06B48610846006C886162
:105530000846406CC861FDF7D9F80020284988600A
:10554000C860086148618861C871FDF709FEFDF710
:1055500047FF3CE02A48007898B12448AFF2703108
:1055600002682348FEF7D2FD214A04210520FDF7F9
:1055700061FC1F4A03210520FDF75CFC0020204947
:10558000087024E023E022E021E020E01D480078BC
:10559000102802D0112810D100E00FE01A4800882E
:1055A000072802D0082807D105E0184A08210B2057
:1055B000FDF740FC00BF00BF00E000BF00BF06E0F9
:1055C00005E004E003E002E001E000E000BF00BF0E
:1055D00016E400005001002019000020E80000201F
:1055E0009801002000040040240000201C0000203E
:1055F000DC000020000800401A0000200500002008
:1056000040000020090000200C000020C8000020FD
:105610002DE9F04107460C460026B046E068B0F59B
:105620007A7F02D30020BDE8F081E068401CE06092
:10563000A1682068405C5B2800D05DE0A068401C49
:10564000A0602046FFF742FA4CB1D4E9011088422D
:1056500005D2A1682068405C5D2800D141E01CB102
:10566000D4E90110884203D3A068401EA06043E043
:10567000A068401EA06000BF04F11000FFF779FA97
:10568000054605B938E016B92E46A84604E0C8F824
:105690000050C5F80480A846A068401CA0602046C1
:1056A000FFF714FA2146404600F05AFA00B923E009
:1056B0002046FFF70BFA44B1D4E90110884204D226
:1056C000A1682068405C2C28D6D044B1D4E90110F0
:1056D000884204D2A1682068405C5D2800D00BE0BD
:1056E00000BFE068401EE0602020F860BE60A06857
:1056F000401CA060012096E716B13046FFF704FA7F
:10570000002090E702460023002100BF23E0505C08
:10571000302806DB505C392803DC505C3038034409
:1057200015E0505C412806DB505C462803DC505CE9
:10573000373803440BE0505C612806DB505C662878
:1057400003DC505C5738034401E000207047032914
:1057500000D21B01491C0429D9D31846F6E70000E2
:105760002DE9F04391B080460C4600BF0020109018
:10577000FFF7C2FA814600250CB1206818B9002055
:1057800011B0BDE8F08300253CE0A1682068084422
:10579000405D342820D00ADCA0F12B0009282ED24D
:1057A000DFE800F0202D212A2D16171819003828BF
:1057B00016D006DC352810D036280FD037281ED159
:1057C0000DE039280DD045280FD0652817D10BE002
:1057D00000BF00BF00BF00BF00BF00BF00BF00BFD1
:1057E00000BF00BF00BF00BF00BFA1682068084421
:1057F000405D0DF8050003E00DF8059000E00AE0BB
:1058000000BF6D1C3F2D05D224B1A06828446168FB
:105810008842BAD300BF00200DF8050010A96846E1
:1058200000F026FB06460F4668461099884201D1D3
:105830000020A5E7C8E90667144A154B30463946EB
:10584000FBF71CF804D86FF00040C8F8140011E012
:105850000022104B30463946FAF7F8FF04D84FF0D3
:105860000040C8F8140005E030463946FAF7BCFF9E
:10587000C8F814000820C8F80C00A0686A461099FF
:10588000891A0844A06001207AE700000000C0FFE8
:10589000FFFFDF410000E0C12DE9F04180460C46EA
:1058A00000270025E068B0F57A7F02D30020BDE82C
:1058B000F081E068401CE06044B1D4E90110884206
:1058C00004D2A1682068405C7B2800D07BE0A068FF
:1058D000401CA0602046FFF7F9F84CB1D4E9011054
:1058E000884205D2A1682068405C7D2800D15DE037
:1058F0001CB1D4E90110884203D3A068401EA06007
:1059000061E0A068401EA06000BF04F11000FFF736
:1059100030F9064606B956E017B93746354602E073
:105920002E6075603546A068401CA0602046FFF7D9
:10593000CDF82146284600F04CF800B943E0204657
:10594000FFF7C4F8286928620020286144B1D4E92F
:105950000110884204D2A1682068405C3A2800D037
:1059600031E0A068401CA0602046FFF7AFF8214658
:10597000284600F0F5F800B925E02046FFF7A6F824
:1059800044B1D4E90110884204D2A1682068405C87
:105990002C28BAD044B1D4E90110884204D2A168BD
:1059A0002068405C7D2800D00DE000BFE068401E0C
:1059B000E0604020C8F80C00C8F80870A068401CDF
:1059C000A060012073E717B13846FFF79DF800206B
:1059D0006DE72DE9F84F80460C46A1682068084421
:1059E000461CA16820680844451C00200090002740
:1059F000A1682068405C222800D0A6E04FF0000A91
:105A0000D1460DE028785C2809D1681C2168401A2D
:105A10006168884200D398E009F101096D1C6D1C92
:105A20002068281A6168884202D228782228E9D1A1
:105A30002068281A6168884202D22878222800D07B
:105A400083E0A16820680844281AA0EB090A0AF13B
:105A5000010021698847074607B976E0009761E0B1
:105A600030785C2807D016F8010B00990870009870
:105A7000401C009056E04FF00209A81B012800DAF4
:105A800063E07078662819D008DC222832D02F28ED
:105A900032D05C282FD0622840D108E06E2814D084
:105AA000722819D074281ED0752837D12BE0082011
:105AB000009908700098401C009030E00C2000997C
:105AC00008700098401C009029E00A200099087096
:105AD0000098401C009022E00D200099087000986A
