:020000040800F2
:10000000F00B002001010008611900083D150008EF
:100010005D190008CD0F0008DD2E0008000000006B
:100020000000000000000000000000005D1F00084C
:10003000F111000800000000C51A00080D27000893
:100040001701000817010008170100081701000830
:100050001701000817010008F31100080512000835
:100060001701000817010008170100081701000810
:100070001701000817010008170100081701000800
:1000800017010008170100081701000817010008F0
:1000900017010008170100081701000817010008E0
:1000A00017010008170100081701000817010008D0
:1000B0003D28000817010008170100081701000873
:1000C00017010008170100081701000817010008B0
:1000D00017010008352C000817010008592C0008EA
:1000E000170100081701000817010008DFF80CD0FD
:1000F00000F046FD0048004779480008F00B00205A
:1001000005480047FEE7FEE7FEE7FEE7FEE7FEE7FD
:10011000FEE7FEE7FEE7FEE7ED000008D2B201E0F1
:1001200000F8012B491EFBD270470022F6E710B5FC
:1001300013460A4604461946FFF7F0FF204610BD55
:100140000FB400B58DB010A909900B9000914FF03D
:10015000FF300A9000200C90054806900548079053
:100160006A4609A80F9900F0B5FB0DB05DF814FBC5
:10017000F10800080F0900082DE9FF4F087881B049
:100180009946FF2805D0491C2D2804D000240023BF
:1001900008E000230BE00124F9E703EB830300EB05
:1001A0004303491C0878FF28F7D104B15B420020C3
:1001B0000090147801462D2C01D02B2C04D1521C18
:1001C0002D2C12D00024009400251678FF2E0ED07E
:1001D0000A24A0FB04C801FB0481002700FB0711CF
:1001E000521C16EB0C006941EFE70124EBE7994440
:1001F00050EA01020ED00024AA4D2646DFF8A8825C
:1002000000F099FC82468B46B9F1000009DAC9F189
:1002100000071BE001980021C0E9001105B0BDE80E
:10022000F08F074612E0F80707D022462B463046EB
:10023000414600F0E4F90646884622462B46104621
:10024000194600F0DCF904460D467F10002FEAD174
:10025000B9F1000F324643465046594602DA00F0E3
:10026000FBFB01E000F0CBF9009A0AB181F00041FC
:10027000019AC2E90001D1E72DE9FF4F1F468DB079
:10028000D7E901464FF0FF382E2045464FF00009D0
:100290000B90B9696D1C0E988847396A8246884769
:1002A0000028F6D1BAF1FF3F0AD024F4D064002E22
:1002B00011DDBAF12B0F08D0BAF12D0F0BD102E0EE
:1002C000404611B0ABE744F48064B9696D1C0E98E8
:1002D00088478246761E6946600501D52D2000E0DC
:1002E0002B208DF8000001F1010B0DF1200809E031
:1002F000B9696D1C0E98884782460F9844F40074C3
:10030000761E0560002E02DDBAF1300FF0D00B9999
:100310008A453ED144F0800406E00F99681CA9F19B
:10032000010944F400740860B9696D1C761E0E98CA
:10033000884782463028F0D02BE00B998A4505D1BA
:10034000200603D444F08004761E18E0504603F0E3
:10035000CFFE08B30DF11301761E44F400748B45F3
:1003600008D2AAF130000BF8010B200607D5A9F13D
:10037000010003E0200602D409F101008146A00536
:1003800002D50F99681C0860B9696D1C0E988847E2
:100390008246002ED1DC53E0002E51DDBAF1650F0C
:1003A00002D0BAF1450F4BD1A00549D5B9696D1CF2
:1003B00024F44074761E0E9888478246002E0CDD89
:1003C0002B2804D0BAF12D0F07D144F48074B969F9
:1003D0006D1C0E9888478246761EE00501D52D21BA
:1003E00000E02B2108F8011BCDF82C8021E00DF155
:1003F0002901761E44F4007488450CD2AAF130001D
:1004000010F0FF0088F8000002D10B99884509D947
:1004100008F1010806E0E00501D5244801E042F2B8
:100420000F708146B9696D1C0E98884782460F98F7
:100430000560002E04DD504603F05AFE0028D6D198
:10044000F9690E988847FF208BF8000088F80000B3
:100450000020069007904B466A4608A906A8FFF7B9
:100460008BFEA00502D46FF001002AE714F0240FE0
:100470000AD0E00714D1DDE906123868031D3B609D
:100480000068C0E900120BE0DDE9060100F07EF92A
:100490000146E00704D13868021D3A600068016037
:1004A00028460EE7000024400000F03FF1D8FFFF8F
:1004B0002DE9FE4F804681EA0300C00F0C460090F4
:1004C00021F0004123F00045B8EB0200A94105D21C
:1004D0004046214690461C460B46024623F000400B
:1004E000104347D0270DC7F30A00C3F30A51029007
:1004F000401A019040286BDAC3F3130040F4801BCC
:100500000098924620B10023D2EB030A63EB0B0B59
:1005100001985946C0F14002504600F0A4F9064641
:100520000D4650465946019A00F0BCF910EB080000
:100530006141002487EA115284EAE7731A4340D0EC
:10054000009A62B3019A012A4FEA075215DC001B98
:1005500061EB02014FF0004202EA0752CDE900428E
:10056000001C41F5801132462B4600F027FA03B0FB
:10057000BDE8F08F40462146F9E7001B61EB020120
:10058000001C41F5801300185B412018A2F50017EC
:1005900047EB030140EAD570B6196D4111E06D08D3
:1005A0004FEA360645EAC0754FEA0752001B61EB79
:1005B0000201001C41F5801149084FEA3000001982
:1005C000514132462B4603B0BDE8F04F00F0E7B989
:1005D0000098012240000023D0EB020263EBE0739D
:1005E000009821464FEAE074B8EB000061EB04018B
:1005F000E9E783F000435BE781F0004158E72DE92C
:10060000FE4F81EA030404F0004421F0004100940D
:100610004FF0000B23F0004350EA01045ED052EA91
:1006200003045BD0C3F30A54C1F30A552C44A4F26B
:10063000F3340194A0FB0254C1F3130141F480117F
:10064000C3F3130343F4801301FB024400FB034E86
:10065000840A970A44EA815447EA8357A4FB07684F
:1006600002958D0A05FB07854FEA932C04FB0C5479
:100670002705029D4FEA065847EA1637B5EB0805ED
:100680006EEB070C870E920E47EA811742EA83123F
:10069000A7FB0201B6EB0B0164EB00042B0D43EA50
:1006A0000C335E1844EB1C50DA465146E7FB02015E
:1006B000C5F313044FEA0B3343EA14534FEA0432F1
:1006C000019C43EA0603A4F10C040294009CCDE9CA
:1006D00000B400F073F903B0BDE8F08F00200146CC
:1006E000F9E70EB5C10F80EAE0700844CA0700219F
:1006F00040F233438DE80E000A460B4600F05EF9E7
:1007000003B000BD00F0004220F00040C10DC0F376
:10071000160040F400007F2901DA00207047962976
:1007200003DCC1F19601C84001E096398840002AF7
:10073000F4D04042704700F0004230F000400AD050
:10074000C10D01F56071C0F3160042EA0151C20803
:1007500040071143704700200146704730B5041E22
:1007600071F1000404DB4FF00044404264EB0101EE
:10077000141E73F1000405DB1C464FF00043524287
:1007800063EB0403994208BF904230BD01F000437F
:1007900030B421F0004150EA010206D00A0DA2F562
:1007A0006072C1F31301002A02DC30BC00207047E4
:1007B000440F44EAC104C100E01830BC00EBC25051
:1007C00000F0B6B8002801DBC0F10040002901DBD1
:1007D000C1F100418142704730B50B46014600200F
:1007E0002022012409E021FA02F59D4205D303FAF3
:1007F00002F5491B04FA02F52844151EA2F1010274
:10080000F1DC30BD2DE9F05F0546002092469B46A5
:1008100088460646814640241BE028464146474616
:10082000224600F02FF853465A46C01A914110D381
:1008300011461846224600F016F82D1A67EB0108FB
:100840004F4622460120002100F00DF817EB000969
:100850004E41201EA4F10104DFDC484631462A4601
:100860004346BDE8F09F202A04DB203A00FA02F15B
:10087000002070479140C2F1200320FA03F319438E
:1008800090407047202A04DB203A21FA02F0002130
:10089000704721FA02F3D040C2F120029140084390
:1008A00019467047202A06DBCB17203A41FA02F09E
:1008B00043EAE07306E041FA02F3D040C2F12002BD
:1008C000914008431946704702681144137801604B
:1008D00018467047D16004495161044911620021F2
:1008E0001161114600F064B9C9080008A50B0008A1
:1008F000426842B1016811F8013B23B1521EC0E9C0
:100900000012184670470121C160881E7047426876
:100910005AB1C368016843B983688B4205D0491E48
:10092000521CC0E90012002070474FF0FF307047A2
:100930000029A8BF7047401C490008BF20F00100F3
:10094000704710B4B0FA80FC00FA0CF050EA0104D1
:1009500004BF10BC704749B1CCF1200421FA04F463
:1009600011FA0CF118BF012121430843A3EB0C013C
:10097000CB1D4FEA00614FEA102042BF002010BC9F
:10098000704700EBC35010440029A4BF10BC70474F
:10099000401C490008BF20F0010010BC704710B592
:1009A000141E73F1000408DA401C41F10001921892
:1009B0005B411A4301D120F0010010BD2DE9F04D3B
:1009C00092469B4611B1B1FA81F202E0B0FA80F290
:1009D00020329046FFF747FF04460F4640EA0A00E0
:1009E00041EA0B0153465A46084313D0114653EAD5
:1009F000010019D0C8F140025046FFF743FF0546F9
:100A00000E46504659464246FFF72DFF084305D093
:100A1000012004E020463946BDE8F08D0020054362
:100A200046EAE0762C4337430A986305E40AA0EBD4
:100A300008000022FD0A44EA47540A3002D500208B
:100A40000146E9E7010510196941DDE9084500198A
:100A50006941BDE8F04DA2E72DE9F04D81EA0304BC
:100A600004F0004B21F0004514464FF0000A23F03B
:100A7000004150EA050220D054EA01021DD0C5F31E
:100A80000A570246C5F31303C1F31300C1F30A5614
:100A900040F4801543F48013A7EB0608101BD646DC
:100AA00008F2FD3873EB050002D308F1010801E0FC
:100AB00092185B41B8F1000F03DA00200146BDE84F
:100AC000F08D00204FF48011064684460EE0171B7F
:100AD00073EB050705D3121B63EB050306434CEAD2
:100AE000010C49084FEA300092185B4150EA0107B7
:100AF000EDD152EA030012D082EA040083EA050134
:100B0000084305D0101BAB4106D20122002306E0AA
:100B100000224FF0004302E06FF0010253101AEB85
:100B200006004CEB085110EB0A0041EB0B01BDE84D
:100B3000F04DFFF734BF0EB540F23342029200226F
:100B4000CDE900221346FFF739FF03B000BDC1F322
:100B50000A52C1F3130140F2FF3341F480119A426B
:100B600002DA00200146704740F233439A42A2F273
:100B7000334202DC5242FFF785BEFFF774BE00002D
:100B8000064C074D06E0E06840F0010394E80700DA
:100B900098471034AC42F6D3FFF7ACFA384B000854
:100BA000584B0008C0B24FF4F05100F097B9000064
:100BB0002DE9F34F8BB04FF0000801F10C000C460B
:100BC0004FF0010B46460DF1080A019062690121C0
:100BD00001989047051E2DD0252D2CD0216A8847DD
:100BE000C0B16269012101989047216A88470028B5
:100BF000F7D1411E62690198904700E0761CA16917
:100C00000B988847216A88470028F7D1E1690B983B
:100C10008847DBE7A1690B9888470746A84201D1BE
:100C2000761CD3E7E1690B9888477F1C02D1B8F1A5
:100C3000000F6FD046E1002762693D4639460198B2
:100C400090472A2804D16269012101989047012523
:100C5000DFF884926269012101989047A0F1300188
:100C60000A290AD24F45E5DC07EB870100EB410773
:100C7000303FDFD445F01005ECE7E90601D46FF012
:100C800000476C280AD04C2814D0682815D06A2850
:100C90000DD074281CD07A281AD01DE06269012179
:100CA000019890476C2802D045F0040514E045F007
:100CB00002050DE045F020050AE062690121019876
:100CC0009047682802D045F0080505E045F4006526
:100CD0006269012101989047C4E9015765283DD018
:100CE00019DC58287AD00CDC452837D004DC2528BC
:100CF00026D0412831D131E046282FD047282CD1A9
:100D00002CE05B2877D0612828D063287CD0642829
:100D100023D15AE0D0E06F2848D008DC66281DD0E7
:100D200067281BD0692821D06E2816D127E07028AB
:100D300045D0732868D0752847D078280DD14DE06C
:100D4000A1690B988847054625283FF469AFE169FA
:100D50000B9888476D1C3FF46AAFB3E023466A46A0
:100D60006FF001000B99FFF787FA9EE045F0400015
:100D70006060A80723464FF0000236D43EE0E80743
:100D80007FF447AF2068011D21600068290501D567
:100D900006701BE7290701D5068017E7A90703D5C9
:100DA000F117C0E9006111E706600FE745F0400068
:100DB0006060A80723464FF0080216D41EE040F6F4
:100DC0000E0125EA0100606016E045F04000606019
:100DD000A80723464FF00A0207D40FE045F0400071
:100DE0006060A80708D5234610226FF001000B9918
:100DF000AFF3008059E007E0234610226FF00100B6
:100E00000B99AFF3008050E04FF000094F464B467E
:100E1000632802D05B2806D040E0E80601D4012018
:100E2000A06001273AE062690121019890475E289D
:100E300005D14FF00109626949460198904721693F
:100E400039B900210A46534643F82120491C082994
:100E5000FADBB0B3216969B9C11700EBD162531154
:100E60000AEB830122F01F02821A01200B689040D6
:100E700003430B6062690121019890475D28E8D126
:100E8000B9F1000F09D00020514651F82020D2437B
:100E900041F82020401C0828F7DB02AB22460097CF
:100EA0006FF001000B99AFF3008000280CDA401CB2
:100EB00008D1BBF1000F05D04FF0FF300DB0BDE8F9
:100EC000F08FFFE74046F9E7E90701D108F1010893
:100ED00006444FF0000B79E6CCCCCC0C7F2801D92E
:100EE000002208E0064A02EB5002C007127800D147
:100EF000120902F00F0201209040084070470000E4
:100F0000F84A000870B504460D461646EE2001F07A
:100F100059F8B12001F056F8232001F053F8200AC7
:100F200001F050F8E0B201F04DF8280A01F04AF85B
:100F3000E8B201F047F8F0B201F044F8FF2001F008
:100F400041F8FC2001F03EF8FF2001F03BF8FF20C3
:100F500001F038F870BD000010B5044644B101221C
:100F60000221104601F051F801200849887007E07D
:100F700000220221012001F048F800200349887076
:100F800002488178024800F010FA10BD30010020BC
:100F900000D800080C49497802290DD003DC39B18A
:100FA00001290FD106E0032908D064290AD107E0FE
:100FB0000A2007E00B2005E00C2003E00D2001E0F3
:100FC0000E2000BF00BF70476801002000BFFEE791
:100FD00030B505460848445C0378012204E0064821
:100FE000805C4340501CC2B28A42F8DB9C4201D173
:100FF000012030BD0020FCE7D2000020014601F0B6
:101000001F02022A01D1012070470020FCE70000E6
:1010100008490978084A1278914204D1FF21054A0B
:101020001170002004E003490978034A117001207F
:101030007047000068010020690000200649097817
:10104000064A1278914201D1002004E00349097850
:10105000014A11700120704768000020180000202C
:1010600006490988064A1288914205D00449098830
:10107000024A1180012000E0002070476600002035
:101080001600002070B504460D46EE2000F09AFFD1
:10109000B12000F097FF102000F094FF200A00F02C
:1010A00091FFE0B200F08EFF280A00F08BFFE8B25B
:1010B00000F088FFFF2000F085FFFC2000F082FF99
:1010C000FF2000F07FFFFF2000F07CFF70BD0000DC
:1010D00010B52B480078401C294908700846007854
:1010E00007284AD2DFE800F049040F1A25303B00F8
:1010F00024A21B21002001F02CF822A21E21022094
:1011000001F027F839E020A21B21002001F021F88E
:101110001DA21E21022001F01CF82EE01BA21B21A3
:10112000002001F016F819A21E21022001F011F88A
:1011300023E017A21B21002001F00BF814A21E21AE
:10114000022001F006F818E012A21B21002001F095
:1011500000F810A21E21022000F0FBFF0DE00EA2FD
:101160001B21002000F0F5FF0BA21E21022000F041
:10117000F0FF00200249087000BF00BF10BD000052
:1011800072000020473535004735360047353700B7
:1011900047353800473539004735340000B5002061
:1011A0000F49087008204870242088700D48008876
:1011B0000012C8700B48007808710B48007848711D
:1011C0000A4800788871FFF7E5FE0549C8710420D8
:1011D00008724878012100F0E5FF0149487200BD1E
:1011E000B400002016000020180000206801002034
:1011F000704710B5012000F015F810B1012000F083
:101200000BF810BD10B5022000F00CF810B1022050
:1012100000F002F810BD00000149086070470000AE
:1012200014040140014600200022074B1B6803EA1A
:101230000102054B14331B680B4013B10AB10120A6
:1012400000E0002070470000000401400149C86030
:10125000704700000020024070B50546042440F6A7
:10126000FF7000F08DF80446042C19D10D48006978
:1012700040F002000B49086108464561006940F0F2
:101280004000086140F6FF7000F07AF80446052C33
:1012900006D00448006941F6FD7108400149086123
:1012A000204670BD0020024004200B49C96801F0AF
:1012B000010109B101200EE00749C96801F00401EC
:1012C00009B1022007E00449C96801F0100109B121
:1012D000032000E00420704700200240034800691A
:1012E00040F0800001490861704700000020024082
:1012F0000549096821F01001034A11601146096887
:1013000001431160704700000020024070B505469F
:101310000E4604240F2000F033F80446042C13D1A9
:101320000A48006940F00100084908612E800F203A
:1013300000F026F80446052C06D00448006941F662
:10134000FE71084001490861204670BD002002403E
:1013500001460020034A106800F03800084310607E
:1013600070470000002002400248034948600348DB
:10137000486070472301674500200240AB89EFCDEC
:1013800070B504460425FFF78FFF054605E003F01E
:1013900053FAFFF789FF0546641E012D01D1002C89
:1013A000F5D104B90525284670BD70B504460D4633
:1013B0000426FFF7D9FF3520FFF748FF2046FFF747
:1013C0004BFF0646042E04D129462046FFF79EFF18
:1013D0000646FFF783FF70BD0146087870472DE988
:1013E000F0410246002500260020002300240027AB
:1013F00091F803C00CF00F0591F803C00CF0100C2D
:10140000BCF1000F03D091F802C04CEA050591F839
:1014100000C0BCF1000F31D0146800202BE04FF069
:10142000010C0CFA00F3B1F800C00CEA03069E426E
:1014300020D183004FF00F0C0CFA03F7BC4305FAE0
:1014400003FC4CEA040491F803C0BCF1280F06D158
:101450004FF0010C0CFA00FCC2F814C00AE091F83D
:1014600003C0BCF1480F05D14FF0010C0CFA00FC91
:10147000C2F810C0401C0828D1D31460B1F800C0D5
:10148000BCF1FF0F34DD546800202EE000F1080CA1
:101490004FF0010808FA0CF3B1F800C00CEA03069B
:1014A0009E4221D183004FF00F0C0CFA03F7BC438E
:1014B00005FA03FC4CEA040491F803C0BCF1280FC0
:1014C00005D100F1080C08FA0CF8C2F8148091F864
:1014D00003C0BCF1480F07D100F1080C4FF0010820
:1014E00008FA0CF8C2F81080401C0828CED35460CB
:1014F000BDE8F081416170470161704710B50D484A
:1015000001F0E7FA0446E11704EB91718910A4EBAE
:10151000810111B9084804800BE02046E11704EB73
:1015200091718910A4EB8101C1F104012144024AA7
:10153000118010BD000800401600002000BFFEE72B
:1015400010B500F077FF00F09FFF00F0C7FF00F03C
:101550009BFE00F0C3FE10BD10B5002440210948D9
:1015600003F004FA0446002C0BDD064840780728F7
:1015700007D02146034801F00BFD40210148FEF74A
:10158000D4FD10BD7400002000B585B002F0AAFCA7
:10159000DF48007816287DD2DFE800F00B0E2D2EF4
:1015A0007CF4F3F2F1F0EFEEEDECEBEAE97C7C7C1D
:1015B0007C1901F055F8A8E1D648407A30B100F026
:1015C000B9FC0020D3494872D14908709DE1D24846
:1015D000007878B9CF48807A20B100F0DFFC002095
:1015E000CB490870CB48C07A20B100F0A3FC0020A2
:1015F000C749087089E188E1C8480078002838D0D8
:1016000000220121032000F000FD0022042103201C
:1016100000F0FBFC00220521032000F0F6FC002274
:101620000621032000F0F1FC00220721032000F036
:10163000ECFC00220821032000F0E7FC0020B84960
:10164000087048708870C87008714871B5480069A2
:10165000B449C8640846806908650846006A486558
:101660000846806A88650846006BC8650020AB495B
:101670000870AB48407898B9A948807880B9A848E4
:10168000C07868B9A648007950B9A548407938B9FA
:10169000002200E038E10121032000F0B6FC04E064
:1016A00001221146032000F0B0FC9D4880790028FB
:1016B00069D09B48407830B900F0AEFA00209949D3
:1016C0000861C86411E09648007F60B100F0A4FA98
:1016D000934880689349086191488068C8640020F5
:1016E0008F49087701E000F097FA8D48807830B98B
:1016F00000F092FA00208B498861086511E0884863
:10170000407F60B100F088FA8548C06885498861EB
:101710008348C068086500208149487701E000F0EF
:101720007BFA7F48C07830B900F076FA00207D4916
:101730000862486511E07A48807F60B100F06CFA79
:101740007748006977490862754800694865002054
:101750007349887701E000F05FFA7148007998B921
:1017600000F05AFA00206F49886288651EE0C9E0DF
:10177000C7E0C5E0C3E0C1E0A6E0A4E0A2E0C2E0AB
:101780009FE06EE056E035E06548C07F60B100F054
:1017900043FA6348406963498862614840698865E3
:1017A00000205F49C87701E000F036FA5C484079D4
:1017B00030B900F031FA00205A490863C86513E0D7
:1017C000574890F8200068B100F026FA5448806924
:1017D0005449086352488069C8650020504981F81F
:1017E000200001E000F018FA00204D498871022025
:1017F000474908704A48C079C8B14A48C06C49494D
:1018000008610846006D88610846406D0862084618
:10181000806D88620846C06D086300F0FDF9002005
:101820003F498860C860086148618861C87100F0FC
:101830007FFE6AE03C48007890B13C483CA10268D9
:101840003C4802F06FFB3B4A0421052000F081FC7C
:10185000384A0321052000F07CFC00203249087042
:1018600053E035480078252802D10120334908701B
:101870003248007820B300220621084600F0EEFB33
:101880002F4802782FA1684602F04CFB6A462621B9
:10189000062000F05EFC2A480078642810D1002061
:1018A0002749087026210620FFF7ECFB00220621BD
:1018B000084600F0D3FB00220121062000F0A5FB22
:1018C00023E022E021E020E021480078102802D027
:1018D000112810D100E00FE01E480088072802D030
:1018E000082807D105E01C4A08210B2000F031FC34
:1018F00000BF00BF00E000BF00BF06E005E004E05D
:1019000003E002E001E000E000BF00BF05B000BD61
:1019100004000020300100203D00002019000020BC
:10192000C801002068010020440000201C000020A5
:10193000256400000401002014000020280000207D
:1019400027000020D2D1CFC2D4D8256425000000C2
:10195000080000200C000020F000002000BFFEE77F
:101960007047000070B5002100230F22C47804B333
:10197000154C246804F4E064C4F5E064210AC1F164
:101980000403CA40447804FA03F1847814402143E4
:1019900009010E4C0678A155047804F01F050124B6
:1019A000AC4005786D11AD0005F1E025C5F80041AA
:1019B00009E0047804F01F050124AC40044D0678CA
:1019C000761145F8264070BD0CED00E000E400E023
:1019D00080E100E038B50446002000906A4603A18B
:1019E0002046FEF7ADFB009838BD000025660000DC
:1019F00010B52D480078401C2B4908700846007827
:101A000006284DD2DFE800F04C03111F2D3B27A222
:101A10001D21002000F09DFB24A22021022000F0C7
:101A200098FB0A20224908703BE022A21D210020D9
:101A300000F08FFB1FA22021022000F08AFB14205F
:101A40001B4908702DE01CA21D21002000F081FB25
:101A500019A22021022000F07CFB0120144908700B
:101A60001FE016A21D21002000F073FB13A220210D
:101A7000022000F06EFB02200D49087011E010A258
:101A80001D21002000F065FB0DA22021022000F0A6
:101A900060FB05200649087000200349087000E03B
:101AA00000BF00BF10BD000073000020583130009F
:101AB0001800002058323000583100005832000021
:101AC00058350000704700001CB50024112000F0BC
:101AD00022FB4FF4FA7002F0BDFE00BF09E0620085
:101AE0000321112000F0E3FA052002F0B3FE601C90
:101AF000C4B2322CF3DB642002F0ACFE002000F014
:101B00000AFB0A2002F0A6FE3BA21B21002000F0E7
:101B100020FB39A21E21022000F01BFB37A21C2152
:101B2000002000F016FB35A21F21022000F011FB5F
:101B300033A21D21002000F00CFB31A22021022045
:101B400000F007FB0A202F49087044F620602E4958
:101B50000880642048604FF47A7088606420C86010
:101B600044F6206008614FF47A70888208460121AB
:101B70004268002000F09BFA2348028823A16846AF
:101B800002F0D0F96A461821002000F0E2FA1E485F
:101B90000221C268002000F08AFA1B481BA1C2681B
:101BA000684602F0BFF96A462721002000F0D1FA0A
:101BB000154816A18268684602F0B4F96A461921F0
:101BC000002000F0C6FA00220D21022000F01DFACC
:101BD00001220E21022000F018FA00200C490870A2
:101BE0000C49487001222A2100F00FFA0122162127
:101BF000022000F00AFA1CBD47353400B9D80000B5
:101C00005831300018000020180100202564000021
:101C100004000020680100200020024908800249D9
:101C200008807047240800401600002010B51348B3
:101C3000007818B111480078022817D110480078B0
:101C400030B101210F4800F0A7FE00200C490870B8
:101C5000FFF754FC0C4802880CA10D4802F062F911
:101C60000B4A1621002000F074FA06E00021054816
:101C700000F092FE01200249087010BD040000200F
:101C80001B00002000080040160000202575000001
:101C90000401002029B1064AD2690243044BDA61EB
:101CA00004E0034AD2698243014BDA6170470000C5
:101CB0000010024029B1064A12690243044B1A611E
:101CC00004E0034A12698243014B1A617047000025
:101CD0000010024029B1064A92690243044B9A61FE
:101CE00004E0034A92698243014B9A617047000005
:101CF0000010024029B1064AD2680243044BDA6060
:101D000004E0034AD2688243014BDA607047000066
:101D1000001002400F48006840F001000D490860C3
:101D2000084640680C4908400A494860084600686F
:101D30000A490840074908600846006820F48020E6
:101D400008600846406820F4FE0048604FF41F0019
:101D500088607047001002400000FFF8FFFFF6FEA9
:101D600030B500210022002400232D4D6D6805F0C0
:101D70000C0121B1042905D0082923D105E0294D02
:101D8000056022E0274D05601FE0254D6D6805F4D4
:101D90007012234D6D6805F48034022505EB9242E4
:101DA0001CB9214D554305600BE01D4D6D6805F4D0
:101DB00000351DB11C4D5543056002E0194D5543DA
:101DC000056002E0174D056000BF00BF144D6D684F
:101DD00005F0F0010909154D6B5C0568DD404560B3
:101DE0000F4D6D6805F4E061090A104D6B5C4568A4
:101DF000DD4085600A4D6D6805F46051C90A0B4DE0
:101E00006B5C4568DD40C560054D6D6805F440417B
:101E1000890B074D6B5CC568B5FBF3F5056130BDFB
:101E20000010024000127A0000093D004C00002022
:101E30005C00002010B501460022002300204A115A
:101E4000012A02D1094C236806E0022A02D1074C7C
:101E5000236A01E0054C636A01F01F0201249440EB
:101E60001C400CB1012000E0002010BD0010024019
:101E70000248406800F00C0070470000001002406B
:101E800001460020034A506820F0F00008435060EB
:101E900070470000001002400149086070470000D0
:101EA0000000424201460020034A506820F4E060EE
:101EB00008435060704700000010024001460020B7
:101EC000034A506820F4605040EAC10050607047F7
:101ED00000100240014908667047000000004242BD
:101EE00002460020044B586820F47C1042EA0103AB
:101EF0001843014B58607047001002400146002013
:101F0000034A506820F00300084350607047000007
:101F10000010024010B5044624B102210448FFF726
:101F2000EBFA03E002210248FFF7E4FA10BD0000DB
:101F30000008014010B50849887900F06BFB06499C
:101F4000087800F00DF804498878FFF705F8024991
:101F5000087900F0A5FF10BD300100207047000097
:101F600010B5044644B101221146104600F04DF868
:101F700001200849087007E000220121084600F00E
:101F800044F8002003490870024801780248FFF72E
:101F90000CFA10BD3001002000D4000810B508492B
:101FA000C87900F037FB06494878FFF7D9FF0449A4
:101FB000C878FEF7D1FF0249487900F071FF10BDE3
:101FC0003001002010B504462146094800F063FFA7
:101FD00000BF8021064800F0ADFE0028F9D000BF08
:101FE0004021034800F0A6FE0028F9D010BD0000F3
:101FF0000038014010B5044603E02078FFF7E2FF07
:10200000641C20780028F8D110BD70B504460D4638
:102010001646EE20FFF7D6FFB120FFF7D3FF1020C2
:10202000FFF7D0FF200AFFF7CDFFE0B2FFF7CAFFAE
:10203000280AFFF7C7FFE8B2FFF7C4FFF0B2FFF7C7
:10204000C1FFFF20FFF7BEFFFC20FFF7BBFFFF2013
:10205000FFF7B8FFFF20FFF7B5FF70BD70B504466E
:102060000D461646EE20FFF7ADFFB120FFF7AAFFA1
:102070000420FFF7A7FF200AFFF7A4FFE0B2FFF755
:10208000A1FF280AFFF79EFFE8B2FFF79BFFF0B21F
:10209000FFF798FFFF20FFF795FFFC20FFF792FF67
:1020A000FF20FFF78FFFFF20FFF78CFF70BD70B59B
:1020B00005460E461446EE20FFF784FFB120FFF7D9
:1020C00081FF1020FFF77EFF280AFFF77BFFE8B2B1
:1020D000FFF778FF300AFFF775FFF0B2FFF772FFE6
:1020E000200EFFF76FFFC4F30740FFF76BFFC4F349
:1020F0000720FFF767FFE0B2FFF764FFFF20FFF75D
:1021000061FFFC20FFF75EFFFF20FFF75BFFFF2072
:10211000FFF758FF70BD10B50446EE20FFF752FFE1
:10212000B120FFF74FFF0020FFF74CFF200AFFF719
:1021300049FFE0B2FFF746FFFF20FFF743FFFC2017
:10214000FFF740FFFF20FFF73DFFFF20FFF73AFFBB
:1021500010BD70B504460D461646EE20FFF732FF5F
:10216000B120FFF72FFF1020FFF72CFF200AFFF709
:1021700029FFE0B2FFF726FF280AFFF723FFE8B2A6
:10218000FFF720FF3046FFF735FFFF20FFF71AFF6C
:10219000FC20FFF717FFFF20FFF714FFFF20FFF7DA
:1021A00011FF70BD10B50346064C605C4C1CE2B2DA
:1021B00004E0044CA45C6040541CE2B29A42F8DD96
:1021C00010BD0000B400002010B5FFF7A3FD0120F2
:1021D000FFF762FE00BF2120FFF72CFE0028FAD097
:1021E0001020FFF785F80220FFF7B2F80020FFF774
:1021F00047FE0020FFF762FE4FF48060FFF752FEBB
:102200004FF420110020FFF76BFE0120FFF762FE64
:1022100000BF3920FFF70EFE0028FAD00220FFF79A
:102220006DFE00BFFFF724FE0828FBD110BD0000A3
:1022300010B51048FFF7D0F80F498871084680792B
:10224000C8710E48FFF7C8F80B49087008460078B7
:1022500048700B48FFF7C0F8074988700846807837
:10226000C8700848FFF7B8F80349087108460079B4
:10227000487110BD00D000083001002000D40008D3
:1022800000D8000800DC000830B585B0104A916A1B
:10229000D06AFEF797FA18D00D49886AFEF74BFA14
:1022A000044622460B460BA1684601F03BFE6A46F7
:1022B00013210020FFF74DFF6A4614210220FFF78B
:1022C00048FF0348806A0249C86205B030BD00007B
:1022D000680100202530392E3266000030B585B007
:1022E000104A116B506BFEF76DFA18D00D49086B50
:1022F000FEF721FA044622460B460BA1684601F080
:1023000011FE6A4614210020FFF723FF6A461521BB
:102310000220FFF71EFF0348006B0249486305B027
:1023200030BD0000680100202530392E32660000E3
:1023300010B504462CB901220B210020FEF7E2FD66
:1023400036E0012C05D101221C211046FEF7DAFDF2
:102350002EE0022C05D101222B210220FEF7D2FD16
:1023600026E0062C05D1012221210620FEF7CAFD18
:102370001EE00A2C05D1012205210A20FEF7C2FD2C
:1023800016E00B2C05D101220D210B20FEF7BAFD22
:102390000EE00D2C05D1012209210D20FEF7B2FD22
:1023A00006E00E2C04D101220C210E20FEF7AAFD1E
:1023B00010BD10B504462CB900220B211046FEF7C3
:1023C000A1FD36E0012C05D100221C210120FEF7E1
:1023D00099FD2EE0022C05D100222B210220FEF7D0
:1023E00091FD26E0062C05D1002221210620FEF7D2
:1023F00089FD1EE00A2C05D1002205210A20FEF7E6
:1024000081FD16E00B2C05D100220D210B20FEF7DB
:1024100079FD0EE00D2C05D1002209210D20FEF7DB
:1024200071FD06E00E2C04D100220C210E20FEF7D7
:1024300069FD10BD30B585B0104A11695069FEF7CD
:10244000C1F918D00D490869FEF775F9044622460E
:102450000B460BA1684601F065FD6A46102100207D
:10246000FFF777FE6A4611210220FFF772FE03484C
:1024700000690249486105B030BD000068010020D4
:102480002530392E3266000030B585B0104A91698A
:10249000D069FEF797F918D00D498869FEF74BF916
:1024A000044622460B460BA1684601F03BFD6A46F6
:1024B00011210020FFF74DFE6A4612210220FFF78E
:1024C00048FE034880690249C86105B030BD00007C
:1024D000680100202530392E3266000030B585B005
:1024E000104A116A506AFEF76DF918D00D49086A52
:1024F000FEF721F9044622460B460BA1684601F07F
:1025000011FD6A4612210020FFF723FE6A461321BF
:102510000220FFF71EFE0348006A0249486205B028
:1025200030BD0000680100202530392E32660000E1
:1025300030B585B028490869FEF7FDF80446224603
:102540000B4626A1684601F0EDFC6A4609210320EE
:10255000FFF7FFFD20498869FEF7EDF804462246A3
:102560000B461EA1684601F0DDFC6A460A210320E5
:10257000FFF7EFFD1849086AFEF7DDF8044622462A
:102580000B4616A1684601F0CDFC6A460B210320DC
:10259000FFF7DFFD1049886AFEF7CDF804462246B2
:1025A0000B460EA1684601F0BDFC6A460C210320D3
:1025B000FFF7CFFD0849086BFEF7BDF80446224639
:1025C0000B4606A1684601F0ADFC6A460D210320CA
:1025D000FFF7BFFD05B030BD680100202530392E62
:1025E0003266000010B50446EE20FFF7EBFC9320A6
:1025F000FFF7E8FCE0B2FFF7E5FCFF20FFF7E2FCA5
:10260000FC20FFF7DFFCFF20FFF7DCFCFF20FFF7DB
:10261000D9FC10BD10B50446012C0BD10020FFF7EA
:10262000E1FF01221B211046FFF7EFFC01200A49C0
:1026300088710AE06420FFF7D5FF00221B210120EA
:10264000FFF7E3FC002004498871034881790348BF
:10265000FEF7ABFE10BD00003001002000D00008E6
:102660000EB51E48807D012813D100201B498875B6
:1026700008461BA10269684601F054FC6A4618210D
:102680000020FFF766FD1548012142680020FFF792
:102690000EFD1248C07D01281FD100200F49C875CA
:1026A0000846B0F914200EA1684601F03BFC6A46CA
:1026B00019210020FFF74DFD08480221C2680020C3
:1026C000FFF7F5FC054806A1C268684601F02AFC40
:1026D0006A4627210020FFF73CFD0EBD18010020AF
:1026E00025640000042808D14FF0E021096941F079
:1026F00004014FF0E022116107E04FF0E021096989
:1027000021F004014FF0E022116170470248006897
:10271000401C01490860704700000020F0B50C46DD
:10272000154600210022068C4FF6FE773E400684B7
:10273000018B028C4FF60C7631407E1C06EA0316A4
:102740002E4331437E1E324044F001063243018362
:102750000284F0BDF0B50C4615460021002200268B
:10276000078C4FF6EF7C07EA0C070784018B028C7D
:102770004FF6FF7707EA041640F6FF4739404FF659
:10278000FF7707EA033739434FF6FF7707EA052754
:1027900039434FF6DF773A4046F010073A4301835A
:1027A0000284F0BDF0B50C4615460021002200263B
:1027B000078C4FF6FF6C07EA0C070784818B028CAD
:1027C0004FF6FF7707EA04264FF60C7739404FF6AD
:1027D000FF7707EA03172F4339434FF6FF573A4075
:1027E00046F480773A4381830284F0BDF0B50C460D
:1027F0001546002100220026078C4EF6FF7C07EAD2
:102800000C070784818B028C4FF6FF7707EA0436AA
:1028100040F6FF4739404FF6FF7707EA052739436F
:102820004FF6FF7707EA033739434DF6FF773A4013
:1028300046F480573A4381830284F0BD10B50121EC
:10284000880700F049F9C0B10121880700F0A1F81C
:1028500001200A49087000200949087009480078D9
:10286000401C0849087008460078032805D101205B
:102870000549087000200349087010BD220000209F
:102880002100002023000020240000201FB501218A
:102890000846FFF7FFF9C720ADF8080041F61F40D2
:1028A000ADF804000020ADF80A00ADF8060001A95B
:1028B0004FF0804000F096F901221146900700F099
:1028C0005CF91C208DF8000001208DF80100022029
:1028D0008DF8020001208DF803006846FFF742F8EA
:1028E0000121880700F058F81FBD000000B587B02F
:1028F00001210420FFF7CEF901210820FFF7EAF9B2
:10290000C020ADF8180004208DF81B0003208DF8BE
:102910001A0006A91B48FEF762FD1B4800F048F8A4
:1029200003A800F07DF90020ADF80C004FF6FF7011
:10293000ADF810000020ADF81200ADF80E0003A9AC
:10294000114800F04FF900231A4603210E4800F009
:102950009FF8684600F008F90420ADF808006946C1
:10296000094800F0CAF80121074800F00FF80020DC
:102970000549243108800121034800F00DF807B013
:1029800000BD0000000C014000080040CA43028264
:102990007047CA430282704721B1028842F00102A7
:1029A000028004E0028840F2FE331A400280704741
:1029B00010B504462F48844208D10121C014FFF706
:1029C00099F90021E014FFF795F952E0B4F1804F36
:1029D00008D101210846FFF76DF900210120FFF71A
:1029E00069F946E02448844208D101210220FFF71A
:1029F00061F900210220FFF75DF93AE01F488442A7
:102A000008D101210420FFF755F900210420FFF728
:102A100051F92EE01A48844208D101210820FFF71D
:102A200049F900210820FFF745F922E015488442C2
:102A300008D101211020FFF73DF900211020FFF7F8
:102A400039F916E01048844208D101212020FFF70F
:102A500031F900212020FFF72DF90AE00B488442CC
:102A600007D101214014FFF745F900216014FFF759
:102A700041F910BD002C0140000400400008004056
:102A8000000C0040001000400014004000340140E1
:102A9000F0B50C4615461E46002100220023018990
:102AA000028B038C4FF6F877394021434FF6FC47F1
:102AB0003A4040F201173A434FF6DD773B404FF67C
:102AC000FF7707EA06172F433B4301810283038404
:102AD000F0BD0146888C704730B5024600200023C7
:102AE0000024158A05EA0103958905EA010413B15A
:102AF0000CB1012000E0002030BD70B505460C4649
:102B0000208850B92389A28861882846FFF706FEED
:102B1000E188284600F03AF825E0208804280AD108
:102B20002389A28861882846FFF714FEE188284699
:102B300000F035F817E0208808280AD12389A288F8
:102B400061882846FFF72EFEE188284600F034F819
:102B500009E02389A28861882846FFF747FEE188BB
:102B6000284600F032F870BD00210180418001212B
:102B700081800021C180018170471AB183890B4394
:102B8000838102E083898B4383817047028B4FF6F8
:102B9000F3731A400283028B0A4302837047028B4D
:102BA0004FF2FF331A400283028B4FF6FF7303EAA2
:102BB00001231A4302837047828B4FF6F3731A4046
:102BC0008283828B0A4382837047828B4FF2FF336A
:102BD0001A408283828B4FF6FF7303EA01231A4364
:102BE00082837047028802F08F020280CA884B8875
:102BF0001A4303881A4302808A8882850A880285DC
:102C0000054A904202D0054A904201D10A7A0286D2
:102C10000122828270470000002C014000340140F4
:102C20004FF6FF71818000210180C18041800172D7
:102C30007047000010B540F22551064800F087F8B3
:102C400038B1044800F022F9C4B2204601F0EAFE8F
:102C500000BF10BD0038014000B50848008800F0F2
:102C6000080038B105490988C8B20449091D098816
:102C7000C8B200BD01F086F800BFFAE70048004086
:102C800021B1828942F40052828104E082894DF6AA
:102C9000FF731A408281704710B504462048844271
:102CA00009D101218803FFF725F800214FF4804066
:102CB000FFF720F832E01B48844209D10121480483
:102CC000FEF7F8FF00214FF40030FEF7F3FF25E098
:102CD0001548844209D101218804FEF7EBFF002149
:102CE0004FF48020FEF7E6FF18E01048844209D137
:102CF0000121C804FEF7DEFF00214FF40020FEF79B
:102D0000D9FF0BE00A48844208D101210805FEF7EB
:102D1000D1FF00214FF48010FEF7CCFF10BD000062
:102D2000003801400044004000480040004C004092
:102D30000050004002460020B1F5007F00D100BFE6
:102D400013880B400BB1012000E00020704770B5E4
:102D50000246002400230025002040F66A16B142F6
:102D600000D100BFC1F3421501F01F03012606FA8E
:102D700003F3012D02D19689334006E0022D02D1E2
:102D8000168A334001E0968A33400C12012606FA77
:102D900004F41688344013B10CB1012000E0002087
:102DA00070BDF0B50346002400260025002040F643
:102DB0006A17B94200D100BF1846C1F3421401F0AE
:102DC0001F06012707FA06F5012C01D10C3004E09B
:102DD000022C01D1103000E014301AB107682F43E3
:102DE000076002E00768AF430760F0BD2DE9F047D8
:102DF00086B005460E460024A24600BF00BF00274D
:102E0000B08900B100BF2F462C8A4CF6FF700440F9
:102E1000F08804432C82AC894EF6F3100440B0884D
:102E200031890843718908430443AC81AC8A4FF669
:102E3000FF400440B0890443AC8201A8FEF790FF34
:102E40001148874202D1DDF810A001E0DDF80CA0A6
:102E50000AEBCA0000EB0A1031688900B0FBF1F8F8
:102E60006420B8FBF0F004012009642101FB108903
:102E7000322000EB0910B0FBF1F000F00F0004432A
:102E80002C8106B0BDE8F0870038014001468888F3
:102E9000C0F308007047C1F3080282807047000049
:102EA00010B5044644B1012203211046FFF7ADF8E6
:102EB00001200849087107E0002203210120FFF7E3
:102EC000A4F8002003490871024801790248FEF77E
:102ED0006CFA10BD3001002000DC000800BFFEE7E6
:102EE00010B586B0044601210520FEF7F3FE01214E
:102EF0008803FEF7EFFE4FF40070ADF814001820C1
:102F00008DF8170003208DF8160005A91E48FEF75E
:102F100066FA4FF48060ADF8140003208DF81600B7
:102F200004208DF8170005A91748FEF758FA17482E
:102F3000FFF7B2FE01940020ADF80800ADF80A00DA
:102F4000ADF80C00ADF810000C20ADF80E0001A992
:102F50000E48FFF74BFF25208DF8000001208DF86B
:102F600001008DF802008DF803006846FEF7FAFCB8
:102F7000012240F225510548FFF713FF01210348C4
:102F8000FFF77EFE06B010BD00080140003801408A
:102F9000F0B585B004460F466078F7490870A07810
:102FA000F6490870E079F64908702079E17840EA3E
:102FB0000120F4490880A079617940EA0120F249B2
:102FC0000880207A0106607A41EA0041A07A41EA4D
:102FD0000020E17A0843ED490860E94800781028AC
:102FE00002D1607AEA490870E3480078B1287AD1C2
:102FF000E4480088162877D2DFE810F016000C01AC
:103000007002540376008804B304240528052C05B7
:10301000300534054F05530557055B055F05760000
:1030200076007600760063050020DA490870D648FD
:1030300000880E287ED00BDCA0F103000B287AD28A
:10304000DFE800F01533538DE5E5E5E5E5C1C500A2
:103050002C2871D006DC0F286FD02A286ED02B28A0
:1030600069D1C4E02D286AD02E28F9D1CBE0C84818
:103070000078C8B10120C8498875084640680A38F8
:10308000486008464068002801DC00204860C248CB
:103090000088C14949684843642190FBF1F0BE496A
:1030A00008610020BA490870B2E0B9480078C8B198
:1030B0000120B9498875084640680A3048600846CA
:1030C0004068642801DB64204860B3480088B24946
:1030D00049684843642190FBF1F0AF490861002042
:1030E000AB49087094E0F1E3F1E3A948007838B304
:1030F0000120A949C8750846C06864280ADC08464A
:10310000C0680A38C8600846C068002810DC002083
:10311000C8600DE0A048C068642809DD9E48C0680A
:10312000B0F5967F04DC9C48C06819389A49C8609D
:10313000994806E04FE06AE05DE050E053E05EE071
:103140000CE080689449C9684843642190FBF1F021
:1031500000B29149888200208D49087058E08C485F
:10316000007878B301208C49C8750846C068642887
:1031700004DA0846C0680A30C86015E08648C068AE
:10318000642811DB8448C068B0F5967F0CDC824867
:10319000C06819308049C8600846C068B0F5967F9D
:1031A00002DB4FF49670C8607B4880687A49C96832
:1031B0004843642190FBF1F000B2774988820020F7
:1031C0007349087024E006207249087020E00B2043
:1031D000704908701CE001206E49087018E0022058
:1031E0006C49087014E000206C49487010E0012020
:1031F0006A4948700CE002206849487008E00320E2
:103200006649487004E064206449487000E000BFEB
:1032100000BF46E201205F4908706148007800283D
:1032200078D1594800881C2875D2DFE800F0740E68
:103230001924FAF92F405162758697F8F7F6F5745C
:10324000747474747474747474A45148007818B1EC
:1032500001205449487002E00020524948703BE187
:103260004B48007818B101204E49C87002E0002098
:103270004C49C87030E14648007818B101204949EE
:10328000487102E000204749487125E104F1080037
:10329000FEF7A0FB4349C860C868FDF74CFA054635
:1032A0002A460B4640A1684600F03CFE14E104F1BA
:1032B0000800FEF78FFB3B4908610869FDF73BFA00
:1032C00005462A460B463BA1684600F02BFE03E16B
:1032D00004F10800FEF77EFB324948614869FDF7BA
:1032E0002AFA05462A460B4636A1684600F01AFE21
:1032F000F2E004F10800FEF76DFB2A498861886955
:10330000FDF719FA05462A460B4634A1684600F037
:1033100009FEE1E0E1E0DEE004F10800FEF75AFB1F
:103320002049C861C869FDF706FA05462A460B46DA
:103330002FA1684600F0F6FDCEE004F10800FEF78C
:1033400049FB18490862086AFDF7F5F905462A465F
:103350000B462CA1684600F0E5FDBDE004F1080035
:10336000FEF738FB0F494862486AFDF7E4F9054665
:103370002A460B4656E09EE005000020060000208D
:10338000080000200A0000200C000020100000208F
:103390000700002004000020180100206801002020
:1033A0003D00002030010020536166655F5A3A25D8
:1033B0002E3266004B6E6966655F686967683A25FC
:1033C0002E3266004B6E6966655F626C6F636B5F81
:1033D000686967683A252E32660000004B6E6966A0
:1033E000655F626C6F636B5F583A252E3266000032
:1033F0004B6E6966655F626C6F636B5F593A252E31
:10340000326600004B6E6966655F626C6F636B5F6E
:103410005A3A252E326600003CE02AE018E006E029
:1034200055E053E0F7A1684600F07CFD54E004F15C
:103430000800FEF7CFFAF8498862886AFDF77BF941
:1034400005462A460B46F5A1684600F06BFD43E0B1
:1034500004F10800FEF7BEFAEF49C862C86AFDF73A
:103460006AF905462A460B46F1A1684600F05AFD66
:1034700032E004F10800FEF7ADFAE7490863086B93
:10348000FDF759F905462A460B46EEA1684600F0BD
:1034900049FD21E004F10800FEF79CFADE4948638B
:1034A000486BFDF748F905462A460B46EAA16846EF
:1034B00000F038FD10E0ED48007818B10120D64941
:1034C000C87102E00020D449C87105E004E0012081
:1034D000D149487200E000BF00BF0FE30220E44979
:1034E0000870E44800881B2875D2DFE800F0D80E89
:1034F000151F2E384454606A75858F99A9B9C0D8B4
:10350000D8D8D8D8C4C8CCD0D400D848007810B106
:103510000420D9490870C3E0D448007810B10A20CB
:10352000D54908700020D1490870B9E0CF4800782B
:1035300038B10120D0490871FEF75AFA0720CE4968
:1035400008700020C9490870AAE0C848007810B186
:103550000820C94908700020C4490870A0E0C34889
:10356000007838B10120C44988711120087000200A
:10357000BE49087094E0BD48007858B10320BC49AA
:1035800008700120BD4908700520BB490870002063
:10359000B649087084E0B548007838B1FDF798FD69
:1035A0001220B54908700020B049087078E0AF4893
:1035B000007810B11320B04908700020AB490870A2
:1035C0006EE0AA48007810B11520AB4908700020C1
:1035D000A649087064E062E0A448007858B1012070
:1035E000A74908700520A24908701420A249087054
:1035F00000209E49087053E09C48007810B10920D3
:103600009D49087000209949087049E09748007862
:1036100010B10620984908700020944908703FE0D6
:103620000120984908700C209349087000219648A1
:10363000FFF7B2F901220D210220FEF7E6FC2FE090
:1036400000209049087001220E210220FEF7DDFCC7
:1036500017208949087001218B48FFF79DF91FE069
:1036600000208849087016208349087018E000205F
:103670007F49087014E000207F49487010E0012065
:103680007D4948700CE002207B49487008E0032027
:103690007949487004E064207749487000E000BF31
:1036A00000BF2BE20320724908707648007800289A
:1036B00070D1704800880E286DD2DFE800F06C07EA
:1036C00037495864727E8A96EDFAEAE967480078CD
:1036D00018B301206D490870012204210320FEF770
:1036E00094FC012205210320FEF78FFC0122062114
:1036F0000320FEF78AFC012207210320FEF785FC48
:10370000012208210320FEF780FC01205F49487058
:103710008870C8700871487107E000205B49087024
:1037200048708870C87008714871EDE001215648F2
:10373000FFF732F94D48007818B101205349C8719C
:1037400005E000205149C871022049490870DBE0BA
:1037500001214D48FFF720F94448007818B10120B5
:103760004A49887102E0022041490870CCE03F4894
:10377000007818B101204549487003E00020434912
:1037800048700870C0E03948007828B101203F49EE
:10379000887005E0B9E0B6E000203C498870087008
:1037A000B2E03248007818B101203849C87003E00F
:1037B00000203649C8700870A6E02C48007818B17F
:1037C00001203249087103E0002030490871087077
:1037D0009AE02648007818B101202C49487103E08E
:1037E00000202A49487108708EE004F10800FEF7B5
:1037F000F1F82649886001200877084680681E494C
:10380000086181E0536F66745F6C696D69745F581D
:103810003A252E326600000030010020536F667496
:103820005F6C696D69745F593A252E32660000003D
:10383000536F66745F6C696D69745F5A3A252E32F6
:1038400066000000536F66745F6C696D69745F4158
:103850003A252E3266000000536F66745F6C696D06
:1038600069745F423A252E3266000000070000208E
:10387000040000200C000020680100201900002036
:10388000440000203D00002000080040C801002046
:103890002BE01DE00DE0FFE704F10800FEF79AF8C9
:1038A0009849C860012048770846C06896498861F1
:1038B0002AE004F10800FEF78DF892490861012022
:1038C000887708460069904908621DE017E114E115
:1038D00004F10800FEF77EF88A4948610120C877A4
:1038E00008464069884988620EE004F10800FEF746
:1038F00071F884498861012081F8200008468069B8
:103900008149086300E000BF00BFF7E07F480088FE
:10391000012804D002280FD0032820D115E001206F
:103920007B494870002088700846406879490860E3
:1039300002207949087012E0012075498870002042
:10394000487002207449087009E004F10800FEF78D
:1039500041F80546FCF7D6FE6D49486000BF00BF40
:10396000CCE006206C49087068480088142866D2AC
:10397000DFE800F0650A11181F292D3135393D4166
:1039800045494D5155595D616448007810B1252075
:103990006349087054E06148007810B126206049FE
:1039A00008704DE05D48007810B126205C49087031
:1039B00046E00A20584908705848007810B128207D
:1039C000574908703CE002205349087038E02B202A
:1039D0005349087034E02C205149087030E02D2004
:1039E0004F4908702CE02E204D49087028E0012036
:1039F0004C49087024E002204A49087020E0032066
:103A0000484908701CE004204649087018E001206D
:103A10004549087014E002204349087010E0032073
:103A2000414908700CE004203F49087008E000207C
:103A30003949087004E00B203749087000E000BFE6
:103A400000BF5BE007203449087057E00820324986
:103A5000087053E00920304908704FE00A202E49D1
:103A600008704BE00B202C4908702848008801287A
:103A700004D0022806D003280CD107E000202649F4
:103A8000087008E006202449087004E00C20224950
:103A9000087000E000BF00BF30E00C201E49087035
:103AA0002CE00D201C49087028E00E201A490870EF
:103AB00024E00F201849087020E0102016490870F3
:103AC0001CE015201449087018480078A0B90F4868
:103AD0000088012802D002280CD105E001201449F9
:103AE00088720020C87206E0002011498872012007
:103AF000C87200BF00BF00BF00E000BF00BF05B03C
:103B0000F0BD0000C8010020680100200C0000206A
:103B1000440000201C0000200400002007000020BA
:103B20001400002025000020260000203D00002079
:103B30003001002010B586B0044601210920FEF7AF
:103B4000C9F801212E48FEF7A5F84FF48060ADF8C2
:103B5000140003208DF8160018208DF8170005A911
:103B60002848FDF73CFC4FF40060ADF8140003203A
:103B70008DF8160004208DF8170005A92148FDF7DF
:103B80002EFC0220ADF8140003208DF81600102042
:103B90008DF8170005A91C48FDF721FC27208DF89A
:103BA000000001208DF8010000208DF802000120A6
:103BB0008DF803006846FDF7D5FE01944FF4805060
:103BC000ADF808000020ADF80A00ADF80C00ADF823
:103BD00010000C20ADF80E0001A90C48FFF706F903
:103BE000012240F225510948FFF7DBF8012107487F
:103BF000FFF746F80020FEF78DF906B010BD000073
:103C000001000400000C0140000801400048004091
:103C10002DE9FF475648007800287DD0554890F898
:103C200001A0BAF11D0F03D0BAF1290F03D103E0AF
:103C30000A2000F001F994E04E48847890F804904E
:103C40000146497901EB092108B2FCF74AFD4A4ACD
:103C50004A4BCDE90001FCF7D2FCCDE9020121027B
:103C600009B2444AD2788818FCF73BFD0546DDE9E5
:103C70000223FCF71DFC0746FCF788FD404908615C
:103C80003C48847990F808900146497A01EB092173
:103C900008B2FCF726FD0746374A384BFCF7AFFC65
:103CA000CDE90001210209B2324AD2798818FCF725
:103CB00018FD0546DDE90023FCF7FAFBCDE902011A
:103CC000FCF764FD2E4988612A48847A90F80C90AC
:103CD0000146497B01EB092108B2FCF702FD264AA7
:103CE000264BCDE90001FCF78AFC05460E46210271
:103CF00009B2204AD27A8818FCF7F3FC07462A4614
:103D00003346FCF7D5FBCDE90201FCF73FFD1C492A
:103D100008621848847B00E027E090F81090014684
:103D2000497C01EB092108B2FCF7DBFC124A134B7A
:103D3000CDE90001FCF763FC05460E46210209B2FD
:103D40000C4AD27B8818FCF7CCFC07462A4633463F
:103D5000FCF7AEFBCDE90201FCF718FD08498862CB
:103D600000BF00BF002002490870BDE8FF870000C7
:103D700065000020D2000020FCA9F1D24D62503F26
:103D80006801002030B52748008805B22548001F8B
:103D9000008820F020002349091F0880ECB205F4B8
:103DA000807058B12046FDF729F9002838D000204E
:103DB0001D49087001201D49087031E01B4800783A
:103DC00001282DD1184800781E2803DB0020174950
:103DD000087030BD164814490978445412480078D8
:103DE000401C11490870124800781E2802DD00208E
:103DF0000E4908700E4800780B49097888420FDA9E
:103E000000200A4908700A4A1178074A1278521E9F
:103E1000074B985CFDF7DCF810B1012005490870EC
:103E200000BFD6E704480040620000206000002088
:103E3000D2000020650000202DE9FE430546FDF775
:103E40000FF90746FDF7E4F88046FDF7F7F88146DD
:103E50002FB9B8F1000F02D1B9F1000F3AD0FDF738
:103E60009DF90120FEF756F800241DE074B91A48A8
:103E7000007840F480701949088000BF1748001F7F
:103E8000008800F040000028F8D00BE01248005DE8
:103E90001249088000BF1148001F008800F0400050
:103EA0000028F8D0601CC4B2AC42DFDB0A480079BD
:103EB0000949C97800EB012086B2324608A168465C
:103EC00000F030F86A4615210020FEF742F9002084
:103ED000FEF720F8BDE8FE83B4000020044800404F
:103EE0002575000010B50C4800780C490978884207
:103EF00010D009480078012804D109480078FEF75D
:103F000017FA03E006480078FEF753FA02480078F3
:103F10000249087010BD00003D000020150000207F
:103F2000040000200FB4084B10B504A902AA03989E
:103F300000F0E6F8044602A9002000F078FC2046D4
:103F400010BC5DF814FB00002F48000802E008C810
:103F5000121F08C1002AFAD170477047002001E003
:103F600001C1121F002AFBD1704700002DE9FF5F3D
:103F700082B00021DDE90430020DDDF840B00343DA
:103F800018D044F61050A2F2FF3242431514119893
:103F900001281FD0A5EB0B00401C5FEA000A4FF080
:103FA00000064E4FDFF83891B046504615D5CAF19D
:103FB000000413E0119801244AA3012801D16FEAFB
:103FC0000B010298119AC0E90031C0E9024206B023
:103FD000BDE8F09FCBF10000DFE704460021404A36
:103FE000491842EB0450CDE9001012E0E00707D079
:103FF00032463B4640464946FCF701FB804689462F
:1040000032463B4610461946FCF7F9FA06460F467B
:104010006410002CEAD1DDE90401DDE90023BAF1E6
:10402000000F06DAFCF7EBFA42464B46FCF7E7FADC
:1040300005E0FCF711FD42464B46FCF70DFD04463A
:104040000E460022284BFCF789FB03D84FF0FF30C7
:10405000014607E00022254B20463146FCF728FAAE
:10406000FCF775FD102409E0002C0ADB0A2200236E
:10407000FCF7C8FB039B30321A55641E50EA01025C
:10408000F2D1641C039AC4F111031444119A012A59
:1040900003D0012208430DD10AE0084304D00020D8
:1040A0004FF0110B119072E7A3EB0B056D1E0DE0A5
:1040B0005B4504DD4FF0000205F1010504E003DA81
:1040C0004FF00002A5F10105002AECD002981199E9
:1040D000C0E90231C0E9004579E700000000144062
:1040E0000000F03F300000000000F0430000E03F1F
:1040F00030380A2801D201207047002070470000A4
:104100002DE9FF4F95B09B468946064600250FE2F4
:10411000252877D100242746F84A0121059400E09C
:10412000044316F8013F203B01FA03F01042F7D197
:1041300030782A2811D06FF02F033078A0F13002A8
:10414000092A16D8059A44F0020402EB820203EB16
:1041500042021044761C0590EFE759F8042B0592B3
:10416000002A03DA504244F40054059044F002045B
:10417000761C30782E2816D116F8010F44F004046E
:104180002A280DD06FF02F023078A0F13003092BD0
:1041900009D807EB870302EB4303C718761CF3E744
:1041A00059F8047B761C30786C280FD006DC4C283C
:1041B00017D068280DD06A2814D104E0742810D0D4
:1041C0007A280FD10DE044F400140AE044F480147E
:1041D00001E044F440147278824202D104F5801464
:1041E000761C761C307866280BD013DC582877D0E4
:1041F00009DC002875D04528F6D04628F4D0472899
:104200001AD19DE118E0632835D0642879D065285B
:1042100012D195E1702873D008DC6728F1D06928A5
:104220006FD06E280DD06F2806D1B5E073282CD042
:10423000752875D0782874D05A46179990476D1C08
:1042400075E1C4F30250022809D003280DD0D9F833
:10425000001004280DD00D6009F1040967E1D9F8B8
:104260000010EA17C1E90052F6E7D9F800100D80F6
:10427000F2E70D70F0E719F8041B8DF8001000202C
:104280008DF80100EA46012003E059F804AB4FF035
:10429000FF3061074FF0000102D40DE008F1010189
:1042A0008846B9420FDA8045F8DB1AF80810002971
:1042B000F4D108E008F1010188468142FADB1AF8DE
:1042C00008100029F6D105985B46A0EB08072146A7
:1042D0003846179A00F094FA284400EB080507E0E6
:1042E0004DE029E10DE01AF8010B5A461799904765
:1042F000B8F10108F7D25B4621463846179A13E118
:1043000042E00A220092C4F302524FF0000A022A4D
:1043100008D059F804CB032A4FEAEC710AD00DE01B
:1043200029E02AE009F1070121F00702F2E802C1C1
:10433000914609E00FFA8CFC4FEAEC71042A03D194
:104340004FFA8CFC4FEAEC71002907DA0A4600218B
:10435000DCF1000C61EB02012D2202E0220504D504
:104360002B228DF80420012203E0E20701D0202255
:10437000F7E7904659E00A2102E010220DE01021F3
:104380004FF0000A00910BE010224FF0000A44F0B9
:1043900004040827009203E008224FF0000A00926C
:1043A000C4F30252022A05D059F804CB0021032A93
:1043B00008D009E009F1070121F00702F2E802C183
:1043C000914605E01FFA8CFC042A01D10CF0FF0C89
:1043D0004FF00008220728D5702806D0009B83F0F4
:1043E000100353EA0A0305D00EE040228DF80420A2
:1043F000012208E05CEA010206D030228DF8042098
:104400008DF8050002229046009B83F0080353EAD2
:104410000A030AD15CEA010201D1620705D5302204
:104420008DF804204FF001087F1E582804D034A0D6
:1044300003900EA802900DE036A0F9E753466046BF
:10444000009AFCF7DFF984460398825C0298401ECC
:10445000029002705CEA0100F0D1029806A9081AE5
:1044600000F1200A600702D524F4803400E001271F
:10447000574502DDA7EB0A0000E0002000EB0A012F
:10448000009005984144401A0590E00306D45B462D
:104490002146179A059800F0B3F90544002706E075
:1044A00001A85A46C05D179990476D1C7F1C47456F
:1044B000F6DBE0030CD55B462146179A059800F021
:1044C0009FF9054404E030205A46179990476D1C27
:1044D0000099481E00900029F5DC08E00298029936
:1044E0005A460078491C0291179990476D1CBAF101
:1044F0000001AAF1010AF1DC65E1000009280100D0
:104500003031323334353637383961626364656649
:10451000000000003031323334353637383941420B
:10452000434445460000000000F058F90544761C5D
:10453000307800287FF4ECAD19B02846BDE8F08F44
:10454000620700D4062709F1070222F0070CFCE8F5
:104550000223E14603F000485FEA080C02D00FF2A4
:10456000702C0DE05FEA045C02D50FF2682C07E0C6
:104570005FEAC47C02D00FF2602C01E0AFF2700C55
:104580004FF0FF3823F00043CDF850C065280CD021
:1045900006DC452809D046281DD047283DD13DE0FE
:1045A000662818D067287ED138E00021112F01DB62
:1045B000112000E0781CCDE9000106A90EA8FFF744
:1045C000D5FCDDE90F010E9A03910021009207F15D
:1045D000010A04914DE04FF000400097CDE9011031
:1045E00006A90EA8FFF7C2FCDDE90F0203920E9B9D
:1045F00011990022DDF80CA00093049211B9791CE6
:1046000000EB010AB7EB0A0004D4C0F1FF3007F158
:10461000010A0490AAEB0700019044E0012F00DAA0
:1046200001270021112F01DD112000E03846CDE9DE
:10463000000106A90EA8FFF799FCDDE90F010E9A0B
:104640000391002104910092BA4621070CD40399EA
:10465000514500DA8A46BAF1010F05DD009AAAF148
:104660000101515C302908D0B84202DA10F1040F80
:1046700006DA0121CDE9011015E0AAF10101E9E70F
:10468000002805DC049901440491AAEB000102E032
:10469000411C514500DD8A460499401A401C019096
:1046A0004FF000400290200704D40198504501DBF0
:1046B000CDF8048000208DF84F0002980DF14F07CF
:1046C000B0F1004F25D02B200E9002984FF0020839
:1046D00000280CDA404202902D200E9007E00A21BB
:1046E0000298FCF779F83031029007F8011DB8F113
:1046F0000001A8F10108F2DC02980028EFD1791E30
:104700000E980870307800F0200040F0450007F85F
:10471000020D12A8C01B00F107081498007800B120
:10472000012000EB0A01019801EBE071059841447A
:10473000401A401E0590E00306D45B462146179AB6
:10474000059800F05DF805441498007818B15A46B1
:10475000179990476D1CE00324D55B462146179AB4
:10476000059800F04DF805441CE00498002807DB8C
:10477000DDE90301884203DD0098405C179901E000
:10478000179930205A469047049805F10105401CBE
:1047900004900198401E019004D12E205A4617998A
:1047A00090476D1CBAF10001AAF1010ADDDC05E0B9
:1047B00017F8010B5A46179990476D1CB8F1000184
:1047C000A8F10108F4DC5B462146179A0598ABE690
:1047D0002D0000002B000000200000002DE9F0411A
:1047E000044600251E461746880404D405E03946D1
:1047F0002020B0476D1C641EF9D52846BDE8F08125
:104800002DE9F041044600251E469046C80301D517
:10481000302700E02027880404D505E041463846CB
:10482000B0476D1C641EF9D52846BDE8F0810A68C2
:10483000531C0B601070704708B500200090FF20DB
:10484000009002E00098401E009000980028F9D1E6
:1048500008BD0000074A116808E00A22B0FBF2F226
:10486000044B1B685B1A9A4200D200E0F5E700BFD8
:10487000704700000000002000240026FDF7A4FC83
:1048800000F00AF94FF4E130FEF72AFB00F0E2F8FD
:10489000FDF7FCFFFEF72AF84FF49670FFF7DAFFFA
:1048A0004FF4E130FFF746F9FDF70EF9FDF7C0FCD4
:1048B000FDF740FB1CE023484078292818D1701CE4
:1048C000C6B22048857CC77C07EB05201E490880BE
:1048D000052E02DD00201D4908701D4802881DA11B
:1048E0001D48FFF71FFB1C4A16210020FDF731FC75
:1048F000164800780028DED122E0FDF797F9FFF78F
:1049000087F91648007820B1FCF726FE00201349ED
:1049100008701348007888B1FCF712FE0020104997
:1049200008701048007848B1601C84B20A2C05D188
:1049300000240D480078401C0B490870FCF724FE49
:10494000DBE70000D2000020240800401A0000200D
:104950001600002025750000040100202200002020
:10496000240000202800002027000020F8B504467D
:104970000D460026002000902FE0684600F038F831
:104980001948008820B99DF80000EE2800D024E0E6
:1049900015480088A84208DA9DF8001012480288DD
:1049A0000088401C104B1880A1549DF800000F494E
:1049B000096840EA01200D490860084600686FF464
:1049C0004031884208D1084806880020074908601D
:1049D000054908803046F8BD00BF00F04BF80028BC
:1049E000CBDC0020F7E70000700000206C00002006
:1049F00001460B4840880A4A128890420FD0084866
:104A00004288001D805C0870054A5288501CC217FD
:104A100000EBD2525212A0EB4222014B5A80704757
:104A2000EC01002001460A4B1B88581CC31700EB01
:104A3000D3535B12A0EB43239AB2054840889042BF
:104A400005D003480388001DC154001F0280704731
:104A5000EC010020002004494880088003490860D8
:104A60000349088070470000EC0100206C00002022
:104A7000700000200748008800F50070054A528841
:104A8000811AC81701EBD0504012A1EB402080B230
:104A900070470000EC01002070B56FF00400FDF7D6
:104AA00021FE1249B1F1807F00D31DE021F07F404B
:104AB000401E4FF0E022506150170F22002807DA05
:104AC00013071D0E0A4B00F00F04241F1D5503E0B1
:104AD00013071C0E074B1C5400BF00204FF0E022B0
:104AE00090610720106100BF70BD000000530700F7
:104AF00018ED00E000E400E0DDDDDDDDDCBBBBDD6A
:104B0000DDDDDDDDDDDDDDDD98888888888888886D
:104B1000777777777788888885555556666666668D
:104B2000666666666668888883333332222222226C
:104B3000222222222228888D584B000800000020C3
:104B4000740000004C3F0008CC4B000874000020AB
:104B50007C0B00005C3F000800000000000000002B
:104B6000000000000000000000000000FF00000046
:104B70000000010100000000000000000000000033
:104B800000BEABB5F1B7F0CFF100000000000000AF
:104B90000000000000000000000000000000000015
:104BA00000000000000000000102030401020304F1
:104BB00006070809020406080000000000000000C3
:0C4BC000000000000000000000000001E8
:04000005080000ED02
:00000001FF
